{
  "_format": "hh-sol-artifact-1",
  "contractName": "BoundingCurveFactory",
  "sourceName": "contracts/factories/BoundingCurveFactory.sol",
  "abi": [
    {
      "inputs": [
        {
          "internalType": "address",
          "name": "_firstOwner",
          "type": "address"
        },
        {
          "internalType": "uint256",
          "name": "_usdc",
          "type": "uint256"
        },
        {
          "internalType": "address",
          "name": "_skyweaverAssetsAddress",
          "type": "address"
        },
        {
          "internalType": "uint256",
          "name": "_itemRangeMin",
          "type": "uint256"
        },
        {
          "internalType": "uint256",
          "name": "_itemRangeMax",
          "type": "uint256"
        },
        {
          "internalType": "uint256",
          "name": "_costInItems",
          "type": "uint256"
        },
        {
          "internalType": "uint256",
          "name": "_usdcCurveConstant",
          "type": "uint256"
        },
        {
          "internalType": "uint256",
          "name": "_usdcCurveScaleDown",
          "type": "uint256"
        },
        {
          "internalType": "uint256",
          "name": "_usdcCurveTickSize",
          "type": "uint256"
        }
      ],
      "stateMutability": "nonpayable",
      "type": "constructor"
    },
    {
      "anonymous": false,
      "inputs": [
        {
          "indexed": true,
          "internalType": "address",
          "name": "owner",
          "type": "address"
        },
        {
          "indexed": true,
          "internalType": "uint256",
          "name": "previousTier",
          "type": "uint256"
        },
        {
          "indexed": true,
          "internalType": "uint256",
          "name": "newTier",
          "type": "uint256"
        }
      ],
      "name": "OwnershipGranted",
      "type": "event"
    },
    {
      "stateMutability": "nonpayable",
      "type": "fallback"
    },
    {
      "inputs": [
        {
          "internalType": "address",
          "name": "_address",
          "type": "address"
        },
        {
          "internalType": "uint256",
          "name": "_tier",
          "type": "uint256"
        }
      ],
      "name": "assignOwnership",
      "outputs": [],
      "stateMutability": "nonpayable",
      "type": "function"
    },
    {
      "inputs": [
        {
          "internalType": "uint256[]",
          "name": "_ids",
          "type": "uint256[]"
        },
        {
          "internalType": "uint256[]",
          "name": "_amounts",
          "type": "uint256[]"
        }
      ],
      "name": "getMintingCost",
      "outputs": [
        {
          "internalType": "uint256[]",
          "name": "",
          "type": "uint256[]"
        },
        {
          "internalType": "uint256[]",
          "name": "",
          "type": "uint256[]"
        }
      ],
      "stateMutability": "view",
      "type": "function"
    },
    {
      "inputs": [
        {
          "internalType": "uint256[]",
          "name": "_ids",
          "type": "uint256[]"
        },
        {
          "internalType": "uint256[]",
          "name": "_amounts",
          "type": "uint256[]"
        }
      ],
      "name": "getMintingTotalCost",
      "outputs": [
        {
          "internalType": "uint256",
          "name": "nItems",
          "type": "uint256"
        },
        {
          "internalType": "uint256",
          "name": "nUSDC",
          "type": "uint256"
        }
      ],
      "stateMutability": "view",
      "type": "function"
    },
    {
      "inputs": [
        {
          "internalType": "address",
          "name": "_owner",
          "type": "address"
        }
      ],
      "name": "getOwnerTier",
      "outputs": [
        {
          "internalType": "uint256",
          "name": "",
          "type": "uint256"
        }
      ],
      "stateMutability": "view",
      "type": "function"
    },
    {
      "inputs": [
        {
          "internalType": "uint256",
          "name": "",
          "type": "uint256"
        }
      ],
      "name": "mintedAmounts",
      "outputs": [
        {
          "internalType": "uint256",
          "name": "",
          "type": "uint256"
        }
      ],
      "stateMutability": "view",
      "type": "function"
    },
    {
      "inputs": [
        {
          "internalType": "address",
          "name": "",
          "type": "address"
        },
        {
          "internalType": "address",
          "name": "_from",
          "type": "address"
        },
        {
          "internalType": "uint256[]",
          "name": "_ids",
          "type": "uint256[]"
        },
        {
          "internalType": "uint256[]",
          "name": "_amounts",
          "type": "uint256[]"
        },
        {
          "internalType": "bytes",
          "name": "_data",
          "type": "bytes"
        }
      ],
      "name": "onERC1155BatchReceived",
      "outputs": [
        {
          "internalType": "bytes4",
          "name": "",
          "type": "bytes4"
        }
      ],
      "stateMutability": "nonpayable",
      "type": "function"
    },
    {
      "inputs": [
        {
          "internalType": "address",
          "name": "_operator",
          "type": "address"
        },
        {
          "internalType": "address",
          "name": "_from",
          "type": "address"
        },
        {
          "internalType": "uint256",
          "name": "_id",
          "type": "uint256"
        },
        {
          "internalType": "uint256",
          "name": "_amount",
          "type": "uint256"
        },
        {
          "internalType": "bytes",
          "name": "_data",
          "type": "bytes"
        }
      ],
      "name": "onERC1155Received",
      "outputs": [
        {
          "internalType": "bytes4",
          "name": "",
          "type": "bytes4"
        }
      ],
      "stateMutability": "nonpayable",
      "type": "function"
    },
    {
      "inputs": [],
      "name": "skyweaverAssets",
      "outputs": [
        {
          "internalType": "contract ISkyweaverAssets",
          "name": "",
          "type": "address"
        }
      ],
      "stateMutability": "view",
      "type": "function"
    },
    {
      "inputs": [
        {
          "internalType": "bytes4",
          "name": "interfaceID",
          "type": "bytes4"
        }
      ],
      "name": "supportsInterface",
      "outputs": [
        {
          "internalType": "bool",
          "name": "",
          "type": "bool"
        }
      ],
      "stateMutability": "pure",
      "type": "function"
    },
    {
      "inputs": [],
      "name": "usdc",
      "outputs": [
        {
          "internalType": "contract IERC20",
          "name": "",
          "type": "address"
        }
      ],
      "stateMutability": "view",
      "type": "function"
    },
    {
      "inputs": [
        {
          "internalType": "uint256",
          "name": "_id",
          "type": "uint256"
        },
        {
          "internalType": "uint256",
          "name": "_amount",
          "type": "uint256"
        }
      ],
      "name": "usdcCost",
      "outputs": [
        {
          "internalType": "uint256",
          "name": "nUSDC",
          "type": "uint256"
        }
      ],
      "stateMutability": "view",
      "type": "function"
    },
    {
      "inputs": [
        {
          "internalType": "uint256",
          "name": "_x",
          "type": "uint256"
        }
      ],
      "name": "usdcCurve",
      "outputs": [
        {
          "internalType": "uint256",
          "name": "nUsdc",
          "type": "uint256"
        }
      ],
      "stateMutability": "view",
      "type": "function"
    },
    {
      "inputs": [
        {
          "internalType": "uint256[]",
          "name": "_ids",
          "type": "uint256[]"
        },
        {
          "internalType": "uint256[]",
          "name": "_amounts",
          "type": "uint256[]"
        }
      ],
      "name": "usdcTotalCost",
      "outputs": [
        {
          "internalType": "uint256",
          "name": "nUSDC",
          "type": "uint256"
        }
      ],
      "stateMutability": "view",
      "type": "function"
    },
    {
      "inputs": [
        {
          "internalType": "address",
          "name": "_recipient",
          "type": "address"
        },
        {
          "internalType": "address",
          "name": "_erc20",
          "type": "address"
        }
      ],
      "name": "withdrawERC20",
      "outputs": [],
      "stateMutability": "nonpayable",
      "type": "function"
    }
  ],
  "bytecode": "0x6101806040523480156200001257600080fd5b506040516200220838038062002208833981016040819052620000359162000203565b8873ffffffffffffffffffffffffffffffffffffffff8116620000a4576040517f08c379a000000000000000000000000000000000000000000000000000000000815260040180806020018281038252602e815260200180620021da602e913960400191505060405180910390fd5b73ffffffffffffffffffffffffffffffffffffffff81166000818152602081905260408082207fffffffffffffffffffffffffffffffffffffffffffffffffffffffffffffffff9081905590519092907fa4e9b194bafb51369051927f4c07278de72aa1ee689f375215ea3a16dfef618e908390a45073ffffffffffffffffffffffffffffffffffffffff8716158015906200013f57508486105b62000181576040517f08c379a000000000000000000000000000000000000000000000000000000000815260040162000178906200027e565b60405180910390fd5b7fffffffffffffffffffffffffffffffffffffffff000000000000000000000000606098891b81166080529690971b90951660a05260c09390935260e0919091526101005261012052610140526101605250620002db565b805173ffffffffffffffffffffffffffffffffffffffff81168114620001fe57600080fd5b919050565b60008060008060008060008060006101208a8c03121562000222578485fd5b6200022d8a620001d9565b985060208a015197506200024460408b01620001d9565b965060608a0151955060808a0151945060a08a0151935060c08a0151925060e08a015191506101008a015190509295985092959850929598565b6020808252602f908201527f426f756e64696e674375727665466163746f727923636f6e7374727563746f7260408201527f3a20494e56414c49445f494e5055540000000000000000000000000000000000606082015260800190565b60805160601c60a05160601c60c05160e05161010051610120516101405161016051611e7362000367600039806103955280610a685280610a915250806104295250806103cd52806103f752508061035652806107535250806112d65250806112b55250806107fc5280610b3f5280610d585280610f035250806104b05280610c8f5250611e736000f3fe608060405234801561001057600080fd5b50600436106100ea5760003560e01c806384f4076e1161008c578063baedcd2c11610066578063baedcd2c1461021b578063bc197c811461022e578063e8f35d5a1461024e578063f23a6e6114610261576100ea565b806384f4076e146101ed5780639456fbcc146101f5578063b7c4ad6814610208576100ea565b80632ff1baae116100c85780632ff1baae1461018f5780633e413bee146101a25780635d511a11146101b7578063712f7f1b146101cc576100ea565b806301ffc9a7146101255780631604f31a1461014e5780631fbad2991461016f575b6040517f08c379a000000000000000000000000000000000000000000000000000000000815260040161011c90611a30565b60405180910390fd5b610138610133366004611773565b610274565b60405161014591906119f8565b60405180910390f35b61016161015c3660046116f2565b61030f565b604051610145929190611d37565b61018261017d36600461186d565b610390565b6040516101459190611d2e565b61018261019d3660046116f2565b610455565b6101aa6104ae565b60405161014591906118f8565b6101ca6101c53660046116c7565b6104d2565b005b6101df6101da3660046116f2565b6106b1565b6040516101459291906119ca565b6101aa6107fa565b6101ca6102033660046114d6565b61081e565b61018261021636600461189d565b610a4a565b61018261022936600461186d565b610b13565b61024161023c36600461150e565b610b25565b6040516101459190611a03565b61018261025c3660046114ba565b610f9b565b61024161026f366004611622565b610fc3565b60007fffffffff0000000000000000000000000000000000000000000000000000000082167f01ffc9a700000000000000000000000000000000000000000000000000000000148061030757507fffffffff0000000000000000000000000000000000000000000000000000000082167f4e2312e000000000000000000000000000000000000000000000000000000000145b90505b919050565b6000806000805b855181101561034f5761034585828151811061032e57fe5b6020026020010151836110b290919063ffffffff16565b9150600101610316565b5061037a817f000000000000000000000000000000000000000000000000000000000000000061112d565b6103848686610455565b92509250509250929050565b6000807f000000000000000000000000000000000000000000000000000000000000000083816103bc57fe5b04606402905060006104216103f1837f00000000000000000000000000000000000000000000000000000000000000006110b2565b61041b847f00000000000000000000000000000000000000000000000000000000000000006110b2565b9061112d565b905061044d817f00000000000000000000000000000000000000000000000000000000000000006111b6565b949350505050565b6000805b83518110156104a65761049c61049585838151811061047457fe5b602002602001015185848151811061048857fe5b6020026020010151610a4a565b83906110b2565b9150600101610459565b505b92915050565b7f000000000000000000000000000000000000000000000000000000000000000081565b336000908152602081905260409020547fffffffffffffffffffffffffffffffffffffffffffffffffffffffffffffffff9081111561055c576040517f08c379a0000000000000000000000000000000000000000000000000000000008152600401808060200182810382526032815260200180611ddb6032913960400191505060405180910390fd5b73ffffffffffffffffffffffffffffffffffffffff83166105c8576040517f08c379a000000000000000000000000000000000000000000000000000000000815260040180806020018281038252602e815260200180611dad602e913960400191505060405180910390fd5b3373ffffffffffffffffffffffffffffffffffffffff84161415610637576040517f08c379a0000000000000000000000000000000000000000000000000000000008152600401808060200182810382526031815260200180611e0d6031913960400191505060405180910390fd5b73ffffffffffffffffffffffffffffffffffffffff8316600081815260208190526040808220549051859391927fa4e9b194bafb51369051927f4c07278de72aa1ee689f375215ea3a16dfef618e91a45073ffffffffffffffffffffffffffffffffffffffff909116600090815260208190526040902055565b6060806060845167ffffffffffffffff811180156106ce57600080fd5b506040519080825280602002602001820160405280156106f8578160200160208202803683370190505b5090506060855167ffffffffffffffff8111801561071557600080fd5b5060405190808252806020026020018201604052801561073f578160200160208202803683370190505b50905060005b86518110156107ee576107947f000000000000000000000000000000000000000000000000000000000000000087838151811061077e57fe5b602002602001015161112d90919063ffffffff16565b8382815181106107a057fe5b6020026020010181815250506107cf8782815181106107bb57fe5b602002602001015187838151811061048857fe5b8282815181106107db57fe5b6020908102919091010152600101610745565b50909590945092505050565b7f000000000000000000000000000000000000000000000000000000000000000081565b336000908152602081905260409020547fffffffffffffffffffffffffffffffffffffffffffffffffffffffffffffffff908111156108a8576040517f08c379a0000000000000000000000000000000000000000000000000000000008152600401808060200182810382526032815260200180611ddb6032913960400191505060405180910390fd5b73ffffffffffffffffffffffffffffffffffffffff83166108f5576040517f08c379a000000000000000000000000000000000000000000000000000000000815260040161011c90611aea565b6040517f70a0823100000000000000000000000000000000000000000000000000000000815260009073ffffffffffffffffffffffffffffffffffffffff8416906370a082319061094a9030906004016118f8565b60206040518083038186803b15801561096257600080fd5b505afa158015610976573d6000803e3d6000fd5b505050506040513d601f19601f8201168201806040525081019061099a9190611885565b6040517fa9059cbb00000000000000000000000000000000000000000000000000000000815290915073ffffffffffffffffffffffffffffffffffffffff84169063a9059cbb906109f190879085906004016119a4565b602060405180830381600087803b158015610a0b57600080fd5b505af1158015610a1f573d6000803e3d6000fd5b505050506040513d601f19601f82011682018060405250810190610a439190611753565b5050505050565b600082815260016020526040812054825b8015610b0b576000610ab87f00000000000000000000000000000000000000000000000000000000000000008481610a8f57fe5b7f000000000000000000000000000000000000000000000000000000000000000091900661123a565b90506000828211610ac95781610acb565b825b9050610aea610ae3610adc86610390565b839061112d565b86906110b2565b9450610af6838261123a565b9250610b0284826110b2565b93505050610a5b565b505092915050565b60016020526000908152604090205481565b60003373ffffffffffffffffffffffffffffffffffffffff7f00000000000000000000000000000000000000000000000000000000000000001614610b96576040517f08c379a000000000000000000000000000000000000000000000000000000000815260040161011c90611c4e565b610b9e6113a5565b82806020019051810190610bb291906117b3565b9050600080610bc98360200151846040015161030f565b915091506000610bd988886112b1565b9050828114610c14576040517f08c379a000000000000000000000000000000000000000000000000000000000815260040161011c90611bcb565b8360600151821115610c52576040517f08c379a000000000000000000000000000000000000000000000000000000000815260040161011c90611a8d565b6040517f23b872dd00000000000000000000000000000000000000000000000000000000815273ffffffffffffffffffffffffffffffffffffffff7f000000000000000000000000000000000000000000000000000000000000000016906323b872dd90610cc8908c9030908790600401611919565b602060405180830381600087803b158015610ce257600080fd5b505af1158015610cf6573d6000803e3d6000fd5b505050506040513d601f19601f82011682018060405250810190610d1a9190611753565b506040517f20ec271b00000000000000000000000000000000000000000000000000000000815273ffffffffffffffffffffffffffffffffffffffff7f000000000000000000000000000000000000000000000000000000000000000016906320ec271b90610d8f908b908b906004016119ca565b600060405180830381600087803b158015610da957600080fd5b505af1158015610dbd573d6000803e3d6000fd5b505050506000805b856020015151811015610e8f57600086602001518281518110610de457fe5b6020026020010151905080600014158015610dfe57508281115b610e34576040517f08c379a000000000000000000000000000000000000000000000000000000000815260040161011c90611b47565b610e7187604001518381518110610e4757fe5b602002602001015160016000848152602001908152602001600020546110b290919063ffffffff16565b60008281526001602081905260409091209190915590925001610dc5565b50845160009073ffffffffffffffffffffffffffffffffffffffff1615610eb7578551610eb9565b8a5b602087015160408089015190517fb48ab8b600000000000000000000000000000000000000000000000000000000815292935073ffffffffffffffffffffffffffffffffffffffff7f0000000000000000000000000000000000000000000000000000000000000000169263b48ab8b692610f3892869260040161194a565b600060405180830381600087803b158015610f5257600080fd5b505af1158015610f66573d6000803e3d6000fd5b507fbc197c81000000000000000000000000000000000000000000000000000000009f9e505050505050505050505050505050565b73ffffffffffffffffffffffffffffffffffffffff1660009081526020819052604090205490565b60408051600180825281830190925260009160609190602080830190803683375050604080516001808252818301909252929350606092915060208083019080368337019050509050868260008151811061101a57fe5b602002602001018181525050858160008151811061103457fe5b6020026020010181815250506110838989848489898080601f016020809104026020016040519081016040528093929190818152602001838380828437600092019190915250610b2592505050565b507ff23a6e61000000000000000000000000000000000000000000000000000000009998505050505050505050565b60008282018381101561112657604080517f08c379a000000000000000000000000000000000000000000000000000000000815260206004820152601660248201527f536166654d617468236164643a204f564552464c4f5700000000000000000000604482015290519081900360640190fd5b9392505050565b60008261113c575060006104a8565b8282028284828161114957fe5b041461112657604080517f08c379a000000000000000000000000000000000000000000000000000000000815260206004820152601660248201527f536166654d617468236d756c3a204f564552464c4f5700000000000000000000604482015290519081900360640190fd5b600080821161122657604080517f08c379a000000000000000000000000000000000000000000000000000000000815260206004820152601e60248201527f536166654d617468236469763a204449564953494f4e5f42595f5a45524f0000604482015290519081900360640190fd5b600082848161123157fe5b04949350505050565b6000828211156112ab57604080517f08c379a000000000000000000000000000000000000000000000000000000000815260206004820152601760248201527f536166654d617468237375623a20554e444552464c4f57000000000000000000604482015290519081900360640190fd5b50900390565b60007f00000000000000000000000000000000000000000000000000000000000000007f0000000000000000000000000000000000000000000000000000000000000000825b855181101561139c5785818151811061130c57fe5b6020026020010151831115801561133657508186828151811061132b57fe5b602002602001015111155b61136c576040517f08c379a000000000000000000000000000000000000000000000000000000000815260040161011c90611cd1565b61139285828151811061137b57fe5b6020026020010151856110b290919063ffffffff16565b93506001016112f7565b50505092915050565b6040518060800160405280600073ffffffffffffffffffffffffffffffffffffffff1681526020016060815260200160608152602001600081525090565b805161030a81611d87565b600082601f8301126113fe578081fd5b813561141161140c82611d69565b611d45565b81815291506020808301908481018184028601820187101561143257600080fd5b60005b8481101561145157813584529282019290820190600101611435565b505050505092915050565b600082601f83011261146c578081fd5b815161147a61140c82611d69565b81815291506020808301908481018184028601820187101561149b57600080fd5b60005b848110156114515781518452928201929082019060010161149e565b6000602082840312156114cb578081fd5b813561112681611d87565b600080604083850312156114e8578081fd5b82356114f381611d87565b9150602083013561150381611d87565b809150509250929050565b600080600080600060a08688031215611525578081fd5b853561153081611d87565b945060208681013561154181611d87565b9450604087013567ffffffffffffffff8082111561155d578384fd5b6115698a838b016113ee565b9550606089013591508082111561157e578384fd5b61158a8a838b016113ee565b9450608089013591508082111561159f578384fd5b818901915089601f8301126115b2578384fd5b8135818111156115be57fe5b6115ee847fffffffffffffffffffffffffffffffffffffffffffffffffffffffffffffffe0601f84011601611d45565b91508082528a84828501011115611603578485fd5b8084840185840137810190920192909252949793965091945092919050565b60008060008060008060a0878903121561163a578081fd5b863561164581611d87565b9550602087013561165581611d87565b94506040870135935060608701359250608087013567ffffffffffffffff8082111561167f578283fd5b818901915089601f830112611692578283fd5b8135818111156116a0578384fd5b8a60208285010111156116b1578384fd5b6020830194508093505050509295509295509295565b600080604083850312156116d9578182fd5b82356116e481611d87565b946020939093013593505050565b60008060408385031215611704578182fd5b823567ffffffffffffffff8082111561171b578384fd5b611727868387016113ee565b9350602085013591508082111561173c578283fd5b50611749858286016113ee565b9150509250929050565b600060208284031215611764578081fd5b81518015158114611126578182fd5b600060208284031215611784578081fd5b81357fffffffff0000000000000000000000000000000000000000000000000000000081168114611126578182fd5b6000602082840312156117c4578081fd5b815167ffffffffffffffff808211156117db578283fd5b90830190608082860312156117ee578283fd5b60405160808101818110838211171561180357fe5b60405261180f836113e3565b8152602083015182811115611822578485fd5b61182e8782860161145c565b602083015250604083015182811115611845578485fd5b6118518782860161145c565b6040830152506060830151606082015280935050505092915050565b60006020828403121561187e578081fd5b5035919050565b600060208284031215611896578081fd5b5051919050565b600080604083850312156118af578182fd5b50508035926020909101359150565b6000815180845260208085019450808401835b838110156118ed578151875295820195908201906001016118d1565b509495945050505050565b73ffffffffffffffffffffffffffffffffffffffff91909116815260200190565b73ffffffffffffffffffffffffffffffffffffffff9384168152919092166020820152604081019190915260600190565b600073ffffffffffffffffffffffffffffffffffffffff851682526080602083015261197960808301856118be565b828103604084015261198b81856118be565b8381036060909401939093525081526020019392505050565b73ffffffffffffffffffffffffffffffffffffffff929092168252602082015260400190565b6000604082526119dd60408301856118be565b82810360208401526119ef81856118be565b95945050505050565b901515815260200190565b7fffffffff0000000000000000000000000000000000000000000000000000000091909116815260200190565b6020808252602a908201527f426f756e64696e674375727665466163746f7279235f3a20554e535550504f5260408201527f5445445f4d4554484f4400000000000000000000000000000000000000000000606082015260800190565b6020808252603e908201527f426f756e64696e674375727665466163746f7279236f6e45524331313535426160408201527f74636852656365697665643a204d415820555344432045584345454445440000606082015260800190565b60208082526035908201527f426f756e64696e674375727665466163746f727923776974686472617745524360408201527f32303a20494e56414c49445f524543495049454e540000000000000000000000606082015260800190565b602080825260609082018190527f426f756e64696e674375727665466163746f7279236f6e45524331313535426160408301527f74636852656365697665643a20554e534f52544544206974656d73426f756768908201527f74494473204152524159204f5220434f4e5441494e204455504c494341544553608082015260a00190565b6020808252604b908201527f426f756e64696e674375727665466163746f7279236f6e45524331313535426160408201527f74636852656365697665643a20494e434f5252454354204e554d424552204f4660608201527f204954454d532053454e54000000000000000000000000000000000000000000608082015260a00190565b60208082526042908201527f426f756e64696e674375727665466163746f7279236f6e45524331313535426160408201527f74636852656365697665643a20494e56414c49445f544f4b454e5f414444524560608201527f5353000000000000000000000000000000000000000000000000000000000000608082015260a00190565b6020808252603a908201527f426f756e64696e674375727665466163746f7279236f6e45524331313535426160408201527f74636852656365697665643a2049445f49535f494e56414c4944000000000000606082015260800190565b90815260200190565b918252602082015260400190565b60405181810167ffffffffffffffff81118282101715611d6157fe5b604052919050565b600067ffffffffffffffff821115611d7d57fe5b5060209081020190565b73ffffffffffffffffffffffffffffffffffffffff81168114611da957600080fd5b5056fe5469657265644f776e61626c652361737369676e4f776e6572736869703a20494e56414c49445f414444524553535469657265644f776e61626c65236f6e6c794f776e6572546965723a204f574e45525f544945525f49535f544f4f5f4c4f575469657265644f776e61626c652361737369676e4f776e6572736869703a205550444154494e475f53454c465f54494552a2646970667358221220b1dcf54192d51d64827bfc1c94d324450e831af94d0360dc496e25d21b5e604964736f6c634300070400335469657265644f776e61626c6523636f6e7374727563746f723a20494e56414c49445f46495253545f4f574e4552",
  "linkReferences": {},
  "deployedLinkReferences": {}
}