{
  "_format": "hh-sol-artifact-1",
  "contractName": "BoundingCurveFactory",
  "sourceName": "contracts/factories/BoundingCurveFactory.sol",
  "abi": [
    {
      "inputs": [
        {
          "internalType": "address",
          "name": "_firstOwner",
          "type": "address"
        },
        {
          "internalType": "uint256",
          "name": "_usdc",
          "type": "uint256"
        },
        {
          "internalType": "address",
          "name": "_skyweaverAssetsAddress",
          "type": "address"
        },
        {
          "internalType": "uint256",
          "name": "_itemRangeMin",
          "type": "uint256"
        },
        {
          "internalType": "uint256",
          "name": "_itemRangeMax",
          "type": "uint256"
        },
        {
          "internalType": "uint256",
          "name": "_costInItems",
          "type": "uint256"
        },
        {
          "internalType": "uint256",
          "name": "_costInUSDC",
          "type": "uint256"
        }
      ],
      "stateMutability": "nonpayable",
      "type": "constructor"
    },
    {
      "anonymous": false,
      "inputs": [
        {
          "indexed": true,
          "internalType": "address",
          "name": "owner",
          "type": "address"
        },
        {
          "indexed": true,
          "internalType": "uint256",
          "name": "previousTier",
          "type": "uint256"
        },
        {
          "indexed": true,
          "internalType": "uint256",
          "name": "newTier",
          "type": "uint256"
        }
      ],
      "name": "OwnershipGranted",
      "type": "event"
    },
    {
      "stateMutability": "nonpayable",
      "type": "fallback"
    },
    {
      "inputs": [
        {
          "internalType": "address",
          "name": "_address",
          "type": "address"
        },
        {
          "internalType": "uint256",
          "name": "_tier",
          "type": "uint256"
        }
      ],
      "name": "assignOwnership",
      "outputs": [],
      "stateMutability": "nonpayable",
      "type": "function"
    },
    {
      "inputs": [
        {
          "internalType": "uint256[]",
          "name": "_ids",
          "type": "uint256[]"
        },
        {
          "internalType": "uint256[]",
          "name": "_amounts",
          "type": "uint256[]"
        }
      ],
      "name": "getMintingCost",
      "outputs": [
        {
          "internalType": "uint256[]",
          "name": "",
          "type": "uint256[]"
        },
        {
          "internalType": "uint256[]",
          "name": "",
          "type": "uint256[]"
        }
      ],
      "stateMutability": "view",
      "type": "function"
    },
    {
      "inputs": [
        {
          "internalType": "uint256[]",
          "name": "_ids",
          "type": "uint256[]"
        },
        {
          "internalType": "uint256[]",
          "name": "_amounts",
          "type": "uint256[]"
        }
      ],
      "name": "getMintingTotalCost",
      "outputs": [
        {
          "internalType": "uint256",
          "name": "nItems",
          "type": "uint256"
        },
        {
          "internalType": "uint256",
          "name": "nUSDC",
          "type": "uint256"
        }
      ],
      "stateMutability": "view",
      "type": "function"
    },
    {
      "inputs": [
        {
          "internalType": "address",
          "name": "_owner",
          "type": "address"
        }
      ],
      "name": "getOwnerTier",
      "outputs": [
        {
          "internalType": "uint256",
          "name": "",
          "type": "uint256"
        }
      ],
      "stateMutability": "view",
      "type": "function"
    },
    {
      "inputs": [],
      "name": "itemRangeMax",
      "outputs": [
        {
          "internalType": "uint256",
          "name": "",
          "type": "uint256"
        }
      ],
      "stateMutability": "view",
      "type": "function"
    },
    {
      "inputs": [],
      "name": "itemRangeMin",
      "outputs": [
        {
          "internalType": "uint256",
          "name": "",
          "type": "uint256"
        }
      ],
      "stateMutability": "view",
      "type": "function"
    },
    {
      "inputs": [
        {
          "internalType": "address",
          "name": "",
          "type": "address"
        },
        {
          "internalType": "address",
          "name": "_from",
          "type": "address"
        },
        {
          "internalType": "uint256[]",
          "name": "_ids",
          "type": "uint256[]"
        },
        {
          "internalType": "uint256[]",
          "name": "_amounts",
          "type": "uint256[]"
        },
        {
          "internalType": "bytes",
          "name": "_data",
          "type": "bytes"
        }
      ],
      "name": "onERC1155BatchReceived",
      "outputs": [
        {
          "internalType": "bytes4",
          "name": "",
          "type": "bytes4"
        }
      ],
      "stateMutability": "nonpayable",
      "type": "function"
    },
    {
      "inputs": [
        {
          "internalType": "address",
          "name": "_operator",
          "type": "address"
        },
        {
          "internalType": "address",
          "name": "_from",
          "type": "address"
        },
        {
          "internalType": "uint256",
          "name": "_id",
          "type": "uint256"
        },
        {
          "internalType": "uint256",
          "name": "_amount",
          "type": "uint256"
        },
        {
          "internalType": "bytes",
          "name": "_data",
          "type": "bytes"
        }
      ],
      "name": "onERC1155Received",
      "outputs": [
        {
          "internalType": "bytes4",
          "name": "",
          "type": "bytes4"
        }
      ],
      "stateMutability": "nonpayable",
      "type": "function"
    },
    {
      "inputs": [],
      "name": "skyweaverAssets",
      "outputs": [
        {
          "internalType": "contract ISkyweaverAssets",
          "name": "",
          "type": "address"
        }
      ],
      "stateMutability": "view",
      "type": "function"
    },
    {
      "inputs": [
        {
          "internalType": "bytes4",
          "name": "interfaceID",
          "type": "bytes4"
        }
      ],
      "name": "supportsInterface",
      "outputs": [
        {
          "internalType": "bool",
          "name": "",
          "type": "bool"
        }
      ],
      "stateMutability": "pure",
      "type": "function"
    },
    {
      "inputs": [],
      "name": "usdc",
      "outputs": [
        {
          "internalType": "contract IERC20",
          "name": "",
          "type": "address"
        }
      ],
      "stateMutability": "view",
      "type": "function"
    },
    {
      "inputs": [
        {
          "internalType": "address",
          "name": "_recipient",
          "type": "address"
        },
        {
          "internalType": "address",
          "name": "_erc20",
          "type": "address"
        }
      ],
      "name": "withdrawERC20",
      "outputs": [],
      "stateMutability": "nonpayable",
      "type": "function"
    }
  ],
  "bytecode": "0x6101406040523480156200001257600080fd5b5060405162001d6738038062001d678339810160408190526200003591620001f8565b8673ffffffffffffffffffffffffffffffffffffffff8116620000a4576040517f08c379a000000000000000000000000000000000000000000000000000000000815260040180806020018281038252602e81526020018062001d39602e913960400191505060405180910390fd5b73ffffffffffffffffffffffffffffffffffffffff81166000818152602081905260408082207fffffffffffffffffffffffffffffffffffffffffffffffffffffffffffffffff9081905590519092907fa4e9b194bafb51369051927f4c07278de72aa1ee689f375215ea3a16dfef618e908390a45073ffffffffffffffffffffffffffffffffffffffff8516158015906200013f57508284105b62000181576040517f08c379a000000000000000000000000000000000000000000000000000000000815260040162000178906200025f565b60405180910390fd5b7fffffffffffffffffffffffffffffffffffffffff000000000000000000000000606096871b81166080529490951b90931660a05260c09190915260e052610100526101205250620002bc565b805173ffffffffffffffffffffffffffffffffffffffff81168114620001f357600080fd5b919050565b600080600080600080600060e0888a03121562000213578283fd5b6200021e88620001ce565b9650602088015195506200023560408901620001ce565b9450606088015193506080880151925060a0880151915060c0880151905092959891949750929550565b6020808252602f908201527f426f756e64696e674375727665466163746f727923636f6e7374727563746f7260408201527f3a20494e56414c49445f494e5055540000000000000000000000000000000000606082015260800190565b60805160601c60a05160601c60c05160e0516101005161012051611a0562000334600039806102e352806106245250806102c252806106035250806106cc5280610f4a5250806109405280610f295250806106f0528061097c5280610acc5280610c7152508061036f5280610b705250611a056000f3fe608060405234801561001057600080fd5b50600436106100d45760003560e01c806384f4076e11610081578063bc197c811161005b578063bc197c81146101dc578063e8f35d5a146101fc578063f23a6e611461020f576100d4565b806384f4076e146101b95780639456fbcc146101c1578063b21bc532146101d4576100d4565b80635d511a11116100b25780635d511a111461016e578063712f7f1b146101835780637c2aab83146101a4576100d4565b806301ffc9a71461010f5780631604f31a146101385780633e413bee14610159575b6040517f08c379a00000000000000000000000000000000000000000000000000000000081526004016101069061166b565b60405180910390fd5b61012261011d3660046113e7565b610222565b60405161012f9190611633565b60405180910390f35b61014b610146366004611366565b6102bd565b60405161012f9291906118c9565b61016161036d565b60405161012f9190611533565b61018161017c36600461133b565b610391565b005b610196610191366004611366565b610570565b60405161012f929190611605565b6101ac6106ca565b60405161012f91906118c0565b6101616106ee565b6101816101cf36600461114a565b610712565b6101ac61093e565b6101ef6101ea366004611182565b610962565b60405161012f919061163e565b6101ac61020a36600461112e565b610d08565b6101ef61021d366004611296565b610d30565b60007fffffffff0000000000000000000000000000000000000000000000000000000082167f01ffc9a70000000000000000000000000000000000000000000000000000000014806102b557507fffffffff0000000000000000000000000000000000000000000000000000000082167f4e2312e000000000000000000000000000000000000000000000000000000000145b90505b919050565b6000807f00000000000000000000000000000000000000000000000000000000000000007f0000000000000000000000000000000000000000000000000000000000000000825b865181101561036357600086828151811061031b57fe5b6020026020010151905061034261033b8583610e1f90919063ffffffff16565b8790610eb1565b95506103586103518285610e1f565b8690610eb1565b945050600101610304565b5050509250929050565b7f000000000000000000000000000000000000000000000000000000000000000081565b336000908152602081905260409020547fffffffffffffffffffffffffffffffffffffffffffffffffffffffffffffffff9081111561041b576040517f08c379a000000000000000000000000000000000000000000000000000000000815260040180806020018281038252603281526020018061196d6032913960400191505060405180910390fd5b73ffffffffffffffffffffffffffffffffffffffff8316610487576040517f08c379a000000000000000000000000000000000000000000000000000000000815260040180806020018281038252602e81526020018061193f602e913960400191505060405180910390fd5b3373ffffffffffffffffffffffffffffffffffffffff841614156104f6576040517f08c379a000000000000000000000000000000000000000000000000000000000815260040180806020018281038252603181526020018061199f6031913960400191505060405180910390fd5b73ffffffffffffffffffffffffffffffffffffffff8316600081815260208190526040808220549051859391927fa4e9b194bafb51369051927f4c07278de72aa1ee689f375215ea3a16dfef618e91a45073ffffffffffffffffffffffffffffffffffffffff909116600090815260208190526040902055565b6060806060845167ffffffffffffffff8111801561058d57600080fd5b506040519080825280602002602001820160405280156105b7578160200160208202803683370190505b5090506060855167ffffffffffffffff811180156105d457600080fd5b506040519080825280602002602001820160405280156105fe578160200160208202803683370190505b5090507f00000000000000000000000000000000000000000000000000000000000000007f000000000000000000000000000000000000000000000000000000000000000060005b88518110156106bb57600088828151811061065d57fe5b6020026020010151905061067a8482610e1f90919063ffffffff16565b86838151811061068657fe5b602090810291909101015261069b8184610e1f565b8583815181106106a757fe5b602090810291909101015250600101610646565b50929791965090945050505050565b7f000000000000000000000000000000000000000000000000000000000000000081565b7f000000000000000000000000000000000000000000000000000000000000000081565b336000908152602081905260409020547fffffffffffffffffffffffffffffffffffffffffffffffffffffffffffffffff9081111561079c576040517f08c379a000000000000000000000000000000000000000000000000000000000815260040180806020018281038252603281526020018061196d6032913960400191505060405180910390fd5b73ffffffffffffffffffffffffffffffffffffffff83166107e9576040517f08c379a0000000000000000000000000000000000000000000000000000000008152600401610106906116c8565b6040517f70a0823100000000000000000000000000000000000000000000000000000000815260009073ffffffffffffffffffffffffffffffffffffffff8416906370a082319061083e903090600401611533565b60206040518083038186803b15801561085657600080fd5b505afa15801561086a573d6000803e3d6000fd5b505050506040513d601f19601f8201168201806040525081019061088e91906114e1565b6040517fa9059cbb00000000000000000000000000000000000000000000000000000000815290915073ffffffffffffffffffffffffffffffffffffffff84169063a9059cbb906108e590879085906004016115df565b602060405180830381600087803b1580156108ff57600080fd5b505af1158015610913573d6000803e3d6000fd5b505050506040513d601f19601f8201168201806040525081019061093791906113c7565b5050505050565b7f000000000000000000000000000000000000000000000000000000000000000081565b60003373ffffffffffffffffffffffffffffffffffffffff7f000000000000000000000000000000000000000000000000000000000000000016146109d3576040517f08c379a000000000000000000000000000000000000000000000000000000000815260040161010690611725565b6109db611019565b828060200190518101906109ef9190611427565b9050600080610a06836020015184604001516102bd565b915091506000610a168888610f25565b9050828114610a51576040517f08c379a0000000000000000000000000000000000000000000000000000000008152600401610106906117a8565b8360600151821115610a8f576040517f08c379a000000000000000000000000000000000000000000000000000000000815260040161010690611806565b6040517f20ec271b00000000000000000000000000000000000000000000000000000000815273ffffffffffffffffffffffffffffffffffffffff7f000000000000000000000000000000000000000000000000000000000000000016906320ec271b90610b03908b908b90600401611605565b600060405180830381600087803b158015610b1d57600080fd5b505af1158015610b31573d6000803e3d6000fd5b50506040517f23b872dd00000000000000000000000000000000000000000000000000000000815273ffffffffffffffffffffffffffffffffffffffff7f00000000000000000000000000000000000000000000000000000000000000001692506323b872dd9150610bab908c9030908790600401611554565b602060405180830381600087803b158015610bc557600080fd5b505af1158015610bd9573d6000803e3d6000fd5b505050506040513d601f19601f82011682018060405250810190610bfd91906113c7565b50835160009073ffffffffffffffffffffffffffffffffffffffff1615610c25578451610c27565b895b602086015160408088015190517fb48ab8b600000000000000000000000000000000000000000000000000000000815292935073ffffffffffffffffffffffffffffffffffffffff7f0000000000000000000000000000000000000000000000000000000000000000169263b48ab8b692610ca6928692600401611585565b600060405180830381600087803b158015610cc057600080fd5b505af1158015610cd4573d6000803e3d6000fd5b507fbc197c81000000000000000000000000000000000000000000000000000000009e9d5050505050505050505050505050565b73ffffffffffffffffffffffffffffffffffffffff1660009081526020819052604090205490565b604080516001808252818301909252600091606091906020808301908036833750506040805160018082528183019092529293506060929150602080830190803683370190505090508682600081518110610d8757fe5b6020026020010181815250508581600081518110610da157fe5b602002602001018181525050610df08989848489898080601f01602080910402602001604051908101604052809392919081815260200183838082843760009201919091525061096292505050565b507ff23a6e61000000000000000000000000000000000000000000000000000000009998505050505050505050565b600082610e2e57506000610eab565b82820282848281610e3b57fe5b0414610ea857604080517f08c379a000000000000000000000000000000000000000000000000000000000815260206004820152601660248201527f536166654d617468236d756c3a204f564552464c4f5700000000000000000000604482015290519081900360640190fd5b90505b92915050565b600082820183811015610ea857604080517f08c379a000000000000000000000000000000000000000000000000000000000815260206004820152601660248201527f536166654d617468236164643a204f564552464c4f5700000000000000000000604482015290519081900360640190fd5b60007f00000000000000000000000000000000000000000000000000000000000000007f0000000000000000000000000000000000000000000000000000000000000000825b855181101561101057858181518110610f8057fe5b60200260200101518311158015610faa575081868281518110610f9f57fe5b602002602001015111155b610fe0576040517f08c379a000000000000000000000000000000000000000000000000000000000815260040161010690611863565b611006858281518110610fef57fe5b602002602001015185610eb190919063ffffffff16565b9350600101610f6b565b50505092915050565b6040518060800160405280600073ffffffffffffffffffffffffffffffffffffffff1681526020016060815260200160608152602001600081525090565b80516102b881611919565b600082601f830112611072578081fd5b8135611085611080826118fb565b6118d7565b8181529150602080830190848101818402860182018710156110a657600080fd5b60005b848110156110c5578135845292820192908201906001016110a9565b505050505092915050565b600082601f8301126110e0578081fd5b81516110ee611080826118fb565b81815291506020808301908481018184028601820187101561110f57600080fd5b60005b848110156110c557815184529282019290820190600101611112565b60006020828403121561113f578081fd5b8135610ea881611919565b6000806040838503121561115c578081fd5b823561116781611919565b9150602083013561117781611919565b809150509250929050565b600080600080600060a08688031215611199578081fd5b85356111a481611919565b94506020868101356111b581611919565b9450604087013567ffffffffffffffff808211156111d1578384fd5b6111dd8a838b01611062565b955060608901359150808211156111f2578384fd5b6111fe8a838b01611062565b94506080890135915080821115611213578384fd5b818901915089601f830112611226578384fd5b81358181111561123257fe5b611262847fffffffffffffffffffffffffffffffffffffffffffffffffffffffffffffffe0601f840116016118d7565b91508082528a84828501011115611277578485fd5b8084840185840137810190920192909252949793965091945092919050565b60008060008060008060a087890312156112ae578081fd5b86356112b981611919565b955060208701356112c981611919565b94506040870135935060608701359250608087013567ffffffffffffffff808211156112f3578283fd5b818901915089601f830112611306578283fd5b813581811115611314578384fd5b8a6020828501011115611325578384fd5b6020830194508093505050509295509295509295565b6000806040838503121561134d578182fd5b823561135881611919565b946020939093013593505050565b60008060408385031215611378578182fd5b823567ffffffffffffffff8082111561138f578384fd5b61139b86838701611062565b935060208501359150808211156113b0578283fd5b506113bd85828601611062565b9150509250929050565b6000602082840312156113d8578081fd5b81518015158114610ea8578182fd5b6000602082840312156113f8578081fd5b81357fffffffff0000000000000000000000000000000000000000000000000000000081168114610ea8578182fd5b600060208284031215611438578081fd5b815167ffffffffffffffff8082111561144f578283fd5b9083019060808286031215611462578283fd5b60405160808101818110838211171561147757fe5b60405261148383611057565b8152602083015182811115611496578485fd5b6114a2878286016110d0565b6020830152506040830151828111156114b9578485fd5b6114c5878286016110d0565b6040830152506060830151606082015280935050505092915050565b6000602082840312156114f2578081fd5b5051919050565b6000815180845260208085019450808401835b838110156115285781518752958201959082019060010161150c565b509495945050505050565b73ffffffffffffffffffffffffffffffffffffffff91909116815260200190565b73ffffffffffffffffffffffffffffffffffffffff9384168152919092166020820152604081019190915260600190565b600073ffffffffffffffffffffffffffffffffffffffff85168252608060208301526115b460808301856114f9565b82810360408401526115c681856114f9565b8381036060909401939093525081526020019392505050565b73ffffffffffffffffffffffffffffffffffffffff929092168252602082015260400190565b60006040825261161860408301856114f9565b828103602084015261162a81856114f9565b95945050505050565b901515815260200190565b7fffffffff0000000000000000000000000000000000000000000000000000000091909116815260200190565b6020808252602a908201527f426f756e64696e674375727665466163746f7279235f3a20554e535550504f5260408201527f5445445f4d4554484f4400000000000000000000000000000000000000000000606082015260800190565b60208082526035908201527f426f756e64696e674375727665466163746f727923776974686472617745524360408201527f32303a20494e56414c49445f524543495049454e540000000000000000000000606082015260800190565b60208082526042908201527f426f756e64696e674375727665466163746f7279236f6e45524331313535426160408201527f74636852656365697665643a20494e56414c49445f544f4b454e5f414444524560608201527f5353000000000000000000000000000000000000000000000000000000000000608082015260a00190565b602080825260409082018190527f426f756e64696e674375727665466163746f727923636f6e7374727563746f72908201527f3a20494e434f5252454354204e554d424552204f46204954454d532053454e54606082015260800190565b60208082526033908201527f426f756e64696e674375727665466163746f727923636f6e7374727563746f7260408201527f3a20494e53554646494349454e54205553444300000000000000000000000000606082015260800190565b6020808252603a908201527f426f756e64696e674375727665466163746f7279236f6e45524331313535426160408201527f74636852656365697665643a2049445f49535f494e56414c4944000000000000606082015260800190565b90815260200190565b918252602082015260400190565b60405181810167ffffffffffffffff811182821017156118f357fe5b604052919050565b600067ffffffffffffffff82111561190f57fe5b5060209081020190565b73ffffffffffffffffffffffffffffffffffffffff8116811461193b57600080fd5b5056fe5469657265644f776e61626c652361737369676e4f776e6572736869703a20494e56414c49445f414444524553535469657265644f776e61626c65236f6e6c794f776e6572546965723a204f574e45525f544945525f49535f544f4f5f4c4f575469657265644f776e61626c652361737369676e4f776e6572736869703a205550444154494e475f53454c465f54494552a264697066735822122058c73301c09f38df4e67af224101ca4f714b9548c3baae37934b427a39b5e68464736f6c634300070400335469657265644f776e61626c6523636f6e7374727563746f723a20494e56414c49445f46495253545f4f574e4552",
  "linkReferences": {},
  "deployedLinkReferences": {}
}