{
  "_format": "hh-sol-artifact-1",
  "contractName": "VariantRewardFactory",
  "sourceName": "contracts/factories/VariantRewardFactory.sol",
  "abi": [
    {
      "inputs": [
        {
          "internalType": "address",
          "name": "_firstOwner",
          "type": "address"
        },
        {
          "internalType": "address",
          "name": "_assetsAddr",
          "type": "address"
        },
        {
          "internalType": "uint256",
          "name": "_periodLength",
          "type": "uint256"
        },
        {
          "internalType": "uint256",
          "name": "_periodMintLimit",
          "type": "uint256"
        },
        {
          "internalType": "uint8",
          "name": "_itemType",
          "type": "uint8"
        }
      ],
      "stateMutability": "nonpayable",
      "type": "constructor"
    },
    {
      "anonymous": false,
      "inputs": [
        {
          "indexed": true,
          "internalType": "address",
          "name": "owner",
          "type": "address"
        },
        {
          "indexed": true,
          "internalType": "uint256",
          "name": "previousTier",
          "type": "uint256"
        },
        {
          "indexed": true,
          "internalType": "uint256",
          "name": "newTier",
          "type": "uint256"
        }
      ],
      "name": "OwnershipGranted",
      "type": "event"
    },
    {
      "anonymous": false,
      "inputs": [
        {
          "indexed": false,
          "internalType": "uint256",
          "name": "oldMintingLimit",
          "type": "uint256"
        },
        {
          "indexed": false,
          "internalType": "uint256",
          "name": "newMintingLimit",
          "type": "uint256"
        }
      ],
      "name": "PeriodMintLimitChanged",
      "type": "event"
    },
    {
      "stateMutability": "nonpayable",
      "type": "fallback"
    },
    {
      "inputs": [],
      "name": "PERIOD_LENGTH",
      "outputs": [
        {
          "internalType": "uint256",
          "name": "",
          "type": "uint256"
        }
      ],
      "stateMutability": "view",
      "type": "function"
    },
    {
      "inputs": [],
      "name": "allowedItemType",
      "outputs": [
        {
          "internalType": "uint8",
          "name": "",
          "type": "uint8"
        }
      ],
      "stateMutability": "view",
      "type": "function"
    },
    {
      "inputs": [
        {
          "internalType": "address",
          "name": "_address",
          "type": "address"
        },
        {
          "internalType": "uint256",
          "name": "_tier",
          "type": "uint256"
        }
      ],
      "name": "assignOwnership",
      "outputs": [],
      "stateMutability": "nonpayable",
      "type": "function"
    },
    {
      "inputs": [
        {
          "internalType": "address",
          "name": "_to",
          "type": "address"
        },
        {
          "internalType": "uint256[]",
          "name": "_ids",
          "type": "uint256[]"
        },
        {
          "internalType": "uint256[]",
          "name": "_amounts",
          "type": "uint256[]"
        },
        {
          "internalType": "bytes",
          "name": "_data",
          "type": "bytes"
        }
      ],
      "name": "batchMint",
      "outputs": [],
      "stateMutability": "nonpayable",
      "type": "function"
    },
    {
      "inputs": [],
      "name": "getAvailableSupply",
      "outputs": [
        {
          "internalType": "uint256",
          "name": "",
          "type": "uint256"
        }
      ],
      "stateMutability": "view",
      "type": "function"
    },
    {
      "inputs": [
        {
          "internalType": "address",
          "name": "_owner",
          "type": "address"
        }
      ],
      "name": "getOwnerTier",
      "outputs": [
        {
          "internalType": "uint256",
          "name": "",
          "type": "uint256"
        }
      ],
      "stateMutability": "view",
      "type": "function"
    },
    {
      "inputs": [
        {
          "internalType": "uint256",
          "name": "id",
          "type": "uint256"
        }
      ],
      "name": "isMinted",
      "outputs": [
        {
          "internalType": "bool",
          "name": "",
          "type": "bool"
        }
      ],
      "stateMutability": "view",
      "type": "function"
    },
    {
      "inputs": [],
      "name": "livePeriod",
      "outputs": [
        {
          "internalType": "uint256",
          "name": "",
          "type": "uint256"
        }
      ],
      "stateMutability": "view",
      "type": "function"
    },
    {
      "inputs": [],
      "name": "periodMintLimit",
      "outputs": [
        {
          "internalType": "uint256",
          "name": "",
          "type": "uint256"
        }
      ],
      "stateMutability": "view",
      "type": "function"
    },
    {
      "inputs": [],
      "name": "skyweaverAssets",
      "outputs": [
        {
          "internalType": "contract ISkyweaverAssets",
          "name": "",
          "type": "address"
        }
      ],
      "stateMutability": "view",
      "type": "function"
    },
    {
      "inputs": [
        {
          "internalType": "bytes4",
          "name": "interfaceID",
          "type": "bytes4"
        }
      ],
      "name": "supportsInterface",
      "outputs": [
        {
          "internalType": "bool",
          "name": "",
          "type": "bool"
        }
      ],
      "stateMutability": "pure",
      "type": "function"
    },
    {
      "inputs": [
        {
          "internalType": "uint256",
          "name": "_newPeriodMintLimit",
          "type": "uint256"
        }
      ],
      "name": "updatePeriodMintLimit",
      "outputs": [],
      "stateMutability": "nonpayable",
      "type": "function"
    },
    {
      "inputs": [
        {
          "internalType": "uint256",
          "name": "id",
          "type": "uint256"
        }
      ],
      "name": "validTokenId",
      "outputs": [
        {
          "internalType": "bool",
          "name": "",
          "type": "bool"
        }
      ],
      "stateMutability": "view",
      "type": "function"
    }
  ],
  "bytecode": "0x60e060405234801561001057600080fd5b506040516110eb3803806110eb833981810160405260a081101561003357600080fd5b508051602082015160408301516060840151608090940151929391929091908473ffffffffffffffffffffffffffffffffffffffff81166100bf576040517f08c379a000000000000000000000000000000000000000000000000000000000815260040180806020018281038252602e815260200180611095602e913960400191505060405180910390fd5b73ffffffffffffffffffffffffffffffffffffffff81166000818152602081905260408082207fffffffffffffffffffffffffffffffffffffffffffffffffffffffffffffffff9081905590519092907fa4e9b194bafb51369051927f4c07278de72aa1ee689f375215ea3a16dfef618e908390a45073ffffffffffffffffffffffffffffffffffffffff84161580159061015a5750600083115b80156101665750600082115b6101bb576040517f08c379a00000000000000000000000000000000000000000000000000000000081526004018080602001828103825260288152602001806110c36028913960400191505060405180910390fd5b7fffffffffffffffffffffffffffffffffffffffff000000000000000000000000606085901b1660805260c08390528242816101f357fe5b046002556003829055600482905560408051600081526020810184905281517fdc39d5ec34d8ece158f93c14cfb036acb3e58e254416fe92f43b3a0acd3c4d3d929181900390910190a17fff0000000000000000000000000000000000000000000000000000000000000060f89190911b1660a0525050505060805160601c60a05160f81c60c051610de86102ad60003980610b4e5280610b9c52508061067b5280610b2a52508061064f52806108ad5250610de86000f3fe608060405234801561001057600080fd5b50600436106100df5760003560e01c8063b48ab8b61161008c578063d595536d11610066578063d595536d14610399578063e7a891b9146103b7578063e8f35d5a146103bf578063f6869803146103f2576100df565b8063b48ab8b614610243578063c167d1cd14610374578063c56cecd11461037c576100df565b80635d511a11116100bd5780635d511a11146101ba57806384f4076e146101f55780639f776ada14610226576100df565b806301ffc9a71461013057806333c41a90146101835780633c1e1422146101a0575b6040517f08c379a0000000000000000000000000000000000000000000000000000000008152600401808060200182810382526023815260200180610ccc6023913960400191505060405180910390fd5b61016f6004803603602081101561014657600080fd5b50357fffffffff00000000000000000000000000000000000000000000000000000000166103fa565b604080519115158252519081900360200190f35b61016f6004803603602081101561019957600080fd5b5035610444565b6101a8610468565b60408051918252519081900360200190f35b6101f3600480360360408110156101d057600080fd5b5073ffffffffffffffffffffffffffffffffffffffff813516906020013561046e565b005b6101fd61064d565b6040805173ffffffffffffffffffffffffffffffffffffffff9092168252519081900360200190f35b61016f6004803603602081101561023c57600080fd5b5035610671565b6101f36004803603608081101561025957600080fd5b73ffffffffffffffffffffffffffffffffffffffff823516919081019060408101602082013564010000000081111561029157600080fd5b8201836020820111156102a357600080fd5b803590602001918460208302840111640100000000831117156102c557600080fd5b9193909290916020810190356401000000008111156102e357600080fd5b8201836020820111156102f557600080fd5b8035906020019184602083028401116401000000008311171561031757600080fd5b91939092909160208101903564010000000081111561033557600080fd5b82018360208201111561034757600080fd5b8035906020019184600183028401116401000000008311171561036957600080fd5b5090925090506106a2565b6101a8610a28565b6101f36004803603602081101561039257600080fd5b5035610a4b565b6103a1610b28565b6040805160ff9092168252519081900360200190f35b6101a8610b4c565b6101a8600480360360208110156103d557600080fd5b503573ffffffffffffffffffffffffffffffffffffffff16610b70565b6101a8610b98565b7fffffffff0000000000000000000000000000000000000000000000000000000081167f01ffc9a70000000000000000000000000000000000000000000000000000000014919050565b610100810460009081526001602081905260409091205460ff9092161b9081161490565b60045481565b336000908152602081905260409020547fffffffffffffffffffffffffffffffffffffffffffffffffffffffffffffffff908111156104f8576040517f08c379a0000000000000000000000000000000000000000000000000000000008152600401808060200182810382526032815260200180610cef6032913960400191505060405180910390fd5b73ffffffffffffffffffffffffffffffffffffffff8316610564576040517f08c379a000000000000000000000000000000000000000000000000000000000815260040180806020018281038252602e815260200180610c69602e913960400191505060405180910390fd5b3373ffffffffffffffffffffffffffffffffffffffff841614156105d3576040517f08c379a0000000000000000000000000000000000000000000000000000000008152600401808060200182810382526031815260200180610d526031913960400191505060405180910390fd5b73ffffffffffffffffffffffffffffffffffffffff8316600081815260208190526040808220549051859391927fa4e9b194bafb51369051927f4c07278de72aa1ee689f375215ea3a16dfef618e91a45073ffffffffffffffffffffffffffffffffffffffff909116600090815260208190526040902055565b7f000000000000000000000000000000000000000000000000000000000000000081565b60101c60ff9081167f0000000000000000000000000000000000000000000000000000000000000000919091161490565b3360009081526020819052604090205460019081111561070d576040517f08c379a0000000000000000000000000000000000000000000000000000000008152600401808060200182810382526032815260200180610cef6032913960400191505060405180910390fd5b6000610717610b98565b600254909150600081831415610730575060035461073a565b5060045460028390555b60005b898110156108a35760008b8b8381811061075357fe5b90506020020135905061076581610671565b6107ba576040517f08c379a0000000000000000000000000000000000000000000000000000000008152600401808060200182810382526030815260200180610d836030913960400191505060405180910390fd5b6107c381610444565b15610819576040517f08c379a0000000000000000000000000000000000000000000000000000000008152600401808060200182810382526031815260200180610d216031913960400191505060405180910390fd5b89898381811061082557fe5b90506020020135600114610884576040517f08c379a0000000000000000000000000000000000000000000000000000000008152600401808060200182810382526035815260200180610c976035913960400191505060405180910390fd5b61088d81610bc9565b610898836001610bf1565b92505060010161073d565b50806003819055507f000000000000000000000000000000000000000000000000000000000000000073ffffffffffffffffffffffffffffffffffffffff1663b48ab8b68c8c8c8c8c8c8c6040518863ffffffff1660e01b8152600401808873ffffffffffffffffffffffffffffffffffffffff16815260200180602001806020018060200184810384528a8a82818152602001925060200280828437600083820152601f017fffffffffffffffffffffffffffffffffffffffffffffffffffffffffffffffe0169091018581038452888152602090810191508990890280828437600083820152601f017fffffffffffffffffffffffffffffffffffffffffffffffffffffffffffffffe01690910185810383528681526020019050868680828437600081840152601f19601f8201169050808301925050509a5050505050505050505050600060405180830381600087803b158015610a0357600080fd5b505af1158015610a17573d6000803e3d6000fd5b505050505050505050505050505050565b6000600254610a35610b98565b14610a4257600454610a46565b6003545b905090565b336000908152602081905260409020547fffffffffffffffffffffffffffffffffffffffffffffffffffffffffffffffff90811115610ad5576040517f08c379a0000000000000000000000000000000000000000000000000000000008152600401808060200182810382526032815260200180610cef6032913960400191505060405180910390fd5b816003541115610ae55760038290555b600454604080519182526020820184905280517fdc39d5ec34d8ece158f93c14cfb036acb3e58e254416fe92f43b3a0acd3c4d3d9281900390910190a150600455565b7f000000000000000000000000000000000000000000000000000000000000000081565b7f000000000000000000000000000000000000000000000000000000000000000081565b73ffffffffffffffffffffffffffffffffffffffff1660009081526020819052604090205490565b60007f00000000000000000000000000000000000000000000000000000000000000004281610bc357fe5b04905090565b61010081046000908152600160208190526040909120805460ff9093169190911b9091179055565b600082821115610c6257604080517f08c379a000000000000000000000000000000000000000000000000000000000815260206004820152601760248201527f536166654d617468237375623a20554e444552464c4f57000000000000000000604482015290519081900360640190fd5b5090039056fe5469657265644f776e61626c652361737369676e4f776e6572736869703a20494e56414c49445f4144445245535356617269616e74526577617264466163746f72792362617463684d696e743a204e4f4e5f4558434c55534956455f4d494e54494e47526577617264466163746f7279235f3a20554e535550504f525445445f4d4554484f445469657265644f776e61626c65236f6e6c794f776e6572546965723a204f574e45525f544945525f49535f544f4f5f4c4f5756617269616e74526577617264466163746f72792362617463684d696e743a2049445f414c52454144595f4d494e5445445469657265644f776e61626c652361737369676e4f776e6572736869703a205550444154494e475f53454c465f5449455256617269616e74526577617264466163746f72792362617463684d696e743a20494e56414c49445f544f4b454e5f4944a2646970667358221220b46cefe3ed953551389bec53bb0734a3331d061d7bca583887fa73772b4ee97264736f6c634300070400335469657265644f776e61626c6523636f6e7374727563746f723a20494e56414c49445f46495253545f4f574e4552526577617264466163746f727923636f6e7374727563746f723a20494e56414c49445f494e505554",
  "linkReferences": {},
  "deployedLinkReferences": {}
}