{
  "_format": "hh-sol-artifact-1",
  "contractName": "BondingCurveFactory",
  "sourceName": "contracts/factories/BondingCurveFactory.sol",
  "abi": [
    {
      "inputs": [
        {
          "internalType": "address",
          "name": "_firstOwner",
          "type": "address"
        },
        {
          "internalType": "uint256",
          "name": "_usdc",
          "type": "uint256"
        },
        {
          "internalType": "address",
          "name": "_skyweaverAssetsAddress",
          "type": "address"
        },
        {
          "internalType": "uint256",
          "name": "_itemRangeMin",
          "type": "uint256"
        },
        {
          "internalType": "uint256",
          "name": "_itemRangeMax",
          "type": "uint256"
        },
        {
          "internalType": "uint256",
          "name": "_costInItems",
          "type": "uint256"
        },
        {
          "internalType": "uint256",
          "name": "_usdcCurveConstant",
          "type": "uint256"
        },
        {
          "internalType": "uint256",
          "name": "_usdcCurveScaleDown",
          "type": "uint256"
        },
        {
          "internalType": "uint256",
          "name": "_usdcCurveTickSize",
          "type": "uint256"
        }
      ],
      "stateMutability": "nonpayable",
      "type": "constructor"
    },
    {
      "anonymous": false,
      "inputs": [
        {
          "indexed": true,
          "internalType": "address",
          "name": "owner",
          "type": "address"
        },
        {
          "indexed": true,
          "internalType": "uint256",
          "name": "previousTier",
          "type": "uint256"
        },
        {
          "indexed": true,
          "internalType": "uint256",
          "name": "newTier",
          "type": "uint256"
        }
      ],
      "name": "OwnershipGranted",
      "type": "event"
    },
    {
      "stateMutability": "nonpayable",
      "type": "fallback"
    },
    {
      "inputs": [
        {
          "internalType": "address",
          "name": "_address",
          "type": "address"
        },
        {
          "internalType": "uint256",
          "name": "_tier",
          "type": "uint256"
        }
      ],
      "name": "assignOwnership",
      "outputs": [],
      "stateMutability": "nonpayable",
      "type": "function"
    },
    {
      "inputs": [
        {
          "internalType": "uint256[]",
          "name": "_ids",
          "type": "uint256[]"
        },
        {
          "internalType": "uint256[]",
          "name": "_amounts",
          "type": "uint256[]"
        }
      ],
      "name": "getMintingCost",
      "outputs": [
        {
          "internalType": "uint256[]",
          "name": "",
          "type": "uint256[]"
        },
        {
          "internalType": "uint256[]",
          "name": "",
          "type": "uint256[]"
        }
      ],
      "stateMutability": "view",
      "type": "function"
    },
    {
      "inputs": [
        {
          "internalType": "uint256[]",
          "name": "_ids",
          "type": "uint256[]"
        },
        {
          "internalType": "uint256[]",
          "name": "_amounts",
          "type": "uint256[]"
        }
      ],
      "name": "getMintingTotalCost",
      "outputs": [
        {
          "internalType": "uint256",
          "name": "nItems",
          "type": "uint256"
        },
        {
          "internalType": "uint256",
          "name": "nUSDC",
          "type": "uint256"
        }
      ],
      "stateMutability": "view",
      "type": "function"
    },
    {
      "inputs": [
        {
          "internalType": "address",
          "name": "_owner",
          "type": "address"
        }
      ],
      "name": "getOwnerTier",
      "outputs": [
        {
          "internalType": "uint256",
          "name": "",
          "type": "uint256"
        }
      ],
      "stateMutability": "view",
      "type": "function"
    },
    {
      "inputs": [
        {
          "internalType": "uint256",
          "name": "",
          "type": "uint256"
        }
      ],
      "name": "mintedAmounts",
      "outputs": [
        {
          "internalType": "uint256",
          "name": "",
          "type": "uint256"
        }
      ],
      "stateMutability": "view",
      "type": "function"
    },
    {
      "inputs": [
        {
          "internalType": "address",
          "name": "",
          "type": "address"
        },
        {
          "internalType": "address",
          "name": "_from",
          "type": "address"
        },
        {
          "internalType": "uint256[]",
          "name": "_ids",
          "type": "uint256[]"
        },
        {
          "internalType": "uint256[]",
          "name": "_amounts",
          "type": "uint256[]"
        },
        {
          "internalType": "bytes",
          "name": "_data",
          "type": "bytes"
        }
      ],
      "name": "onERC1155BatchReceived",
      "outputs": [
        {
          "internalType": "bytes4",
          "name": "",
          "type": "bytes4"
        }
      ],
      "stateMutability": "nonpayable",
      "type": "function"
    },
    {
      "inputs": [
        {
          "internalType": "address",
          "name": "_operator",
          "type": "address"
        },
        {
          "internalType": "address",
          "name": "_from",
          "type": "address"
        },
        {
          "internalType": "uint256",
          "name": "_id",
          "type": "uint256"
        },
        {
          "internalType": "uint256",
          "name": "_amount",
          "type": "uint256"
        },
        {
          "internalType": "bytes",
          "name": "_data",
          "type": "bytes"
        }
      ],
      "name": "onERC1155Received",
      "outputs": [
        {
          "internalType": "bytes4",
          "name": "",
          "type": "bytes4"
        }
      ],
      "stateMutability": "nonpayable",
      "type": "function"
    },
    {
      "inputs": [],
      "name": "skyweaverAssets",
      "outputs": [
        {
          "internalType": "contract ISkyweaverAssets",
          "name": "",
          "type": "address"
        }
      ],
      "stateMutability": "view",
      "type": "function"
    },
    {
      "inputs": [
        {
          "internalType": "bytes4",
          "name": "interfaceID",
          "type": "bytes4"
        }
      ],
      "name": "supportsInterface",
      "outputs": [
        {
          "internalType": "bool",
          "name": "",
          "type": "bool"
        }
      ],
      "stateMutability": "pure",
      "type": "function"
    },
    {
      "inputs": [],
      "name": "usdc",
      "outputs": [
        {
          "internalType": "contract IERC20",
          "name": "",
          "type": "address"
        }
      ],
      "stateMutability": "view",
      "type": "function"
    },
    {
      "inputs": [
        {
          "internalType": "uint256",
          "name": "_id",
          "type": "uint256"
        },
        {
          "internalType": "uint256",
          "name": "_amount",
          "type": "uint256"
        }
      ],
      "name": "usdcCost",
      "outputs": [
        {
          "internalType": "uint256",
          "name": "nUSDC",
          "type": "uint256"
        }
      ],
      "stateMutability": "view",
      "type": "function"
    },
    {
      "inputs": [
        {
          "internalType": "uint256",
          "name": "_x",
          "type": "uint256"
        }
      ],
      "name": "usdcCurve",
      "outputs": [
        {
          "internalType": "uint256",
          "name": "nUsdc",
          "type": "uint256"
        }
      ],
      "stateMutability": "view",
      "type": "function"
    },
    {
      "inputs": [
        {
          "internalType": "uint256[]",
          "name": "_ids",
          "type": "uint256[]"
        },
        {
          "internalType": "uint256[]",
          "name": "_amounts",
          "type": "uint256[]"
        }
      ],
      "name": "usdcTotalCost",
      "outputs": [
        {
          "internalType": "uint256",
          "name": "nUSDC",
          "type": "uint256"
        }
      ],
      "stateMutability": "view",
      "type": "function"
    },
    {
      "inputs": [
        {
          "internalType": "address",
          "name": "_recipient",
          "type": "address"
        },
        {
          "internalType": "address",
          "name": "_erc20",
          "type": "address"
        }
      ],
      "name": "withdrawERC20",
      "outputs": [],
      "stateMutability": "nonpayable",
      "type": "function"
    }
  ],
  "bytecode": "0x6101806040523480156200001257600080fd5b50604051620021ba380380620021ba833981016040819052620000359162000203565b8873ffffffffffffffffffffffffffffffffffffffff8116620000a4576040517f08c379a000000000000000000000000000000000000000000000000000000000815260040180806020018281038252602e8152602001806200218c602e913960400191505060405180910390fd5b73ffffffffffffffffffffffffffffffffffffffff81166000818152602081905260408082207fffffffffffffffffffffffffffffffffffffffffffffffffffffffffffffffff9081905590519092907fa4e9b194bafb51369051927f4c07278de72aa1ee689f375215ea3a16dfef618e908390a45073ffffffffffffffffffffffffffffffffffffffff8716158015906200013f57508486105b62000181576040517f08c379a000000000000000000000000000000000000000000000000000000000815260040162000178906200027e565b60405180910390fd5b7fffffffffffffffffffffffffffffffffffffffff000000000000000000000000606098891b81166080529690971b90951660a05260c09390935260e0919091526101005261012052610140526101605250620002db565b805173ffffffffffffffffffffffffffffffffffffffff81168114620001fe57600080fd5b919050565b60008060008060008060008060006101208a8c03121562000222578485fd5b6200022d8a620001d9565b985060208a015197506200024460408b01620001d9565b965060608a0151955060808a0151945060a08a0151935060c08a0151925060e08a015191506101008a015190509295985092959850929598565b6020808252602e908201527f426f6e64696e674375727665466163746f727923636f6e7374727563746f723a60408201527f20494e56414c49445f494e505554000000000000000000000000000000000000606082015260800190565b60805160601c60a05160601c60c05160e05161010051610120516101405161016051611e2a62000362600039806103985280610a4b5280610a7452508061040b5250806103d152508061035652806107365250806112e15250806112b75250806107df5280610b225280610d3b5280610ee65250806104935280610c725250611e2a6000f3fe608060405234801561001057600080fd5b50600436106100ea5760003560e01c806384f4076e1161008c578063baedcd2c11610066578063baedcd2c1461021b578063bc197c811461022e578063e8f35d5a1461024e578063f23a6e6114610261576100ea565b806384f4076e146101ed5780639456fbcc146101f5578063b7c4ad6814610208576100ea565b80632ff1baae116100c85780632ff1baae1461018f5780633e413bee146101a25780635d511a11146101b7578063712f7f1b146101cc576100ea565b806301ffc9a7146101255780631604f31a1461014e5780631fbad2991461016f575b6040517f08c379a000000000000000000000000000000000000000000000000000000000815260040161011c90611b4b565b60405180910390fd5b610138610133366004611734565b610274565b60405161014591906119b0565b60405180910390f35b61016161015c3660046116b3565b61030f565b604051610145929190611cee565b61018261017d36600461182e565b610390565b6040516101459190611ce5565b61018261019d3660046116b3565b610438565b6101aa610491565b60405161014591906118b9565b6101ca6101c5366004611688565b6104b5565b005b6101df6101da3660046116b3565b610694565b60405161014592919061198b565b6101aa6107dd565b6101ca610203366004611497565b610801565b61018261021636600461185e565b610a2d565b61018261022936600461182e565b610af6565b61024161023c3660046114cf565b610b08565b60405161014591906119bb565b61018261025c36600461147b565b610f7e565b61024161026f3660046115e3565b610fa6565b60007fffffffff0000000000000000000000000000000000000000000000000000000082167f01ffc9a700000000000000000000000000000000000000000000000000000000148061030757507fffffffff0000000000000000000000000000000000000000000000000000000082167f4e2312e000000000000000000000000000000000000000000000000000000000145b90505b919050565b6000806000805b855181101561034f5761034585828151811061032e57fe5b60200260200101518361109590919063ffffffff16565b9150600101610316565b5061037a817f0000000000000000000000000000000000000000000000000000000000000000611110565b6103848686610438565b92509250509250929050565b6000806103c77f00000000000000000000000000000000000000000000000000000000000000006103c18582611199565b90611110565b905060006103f5827f0000000000000000000000000000000000000000000000000000000000000000611095565b905060006104038280611110565b905061042f817f0000000000000000000000000000000000000000000000000000000000000000611199565b95945050505050565b6000805b83518110156104895761047f61047885838151811061045757fe5b602002602001015185848151811061046b57fe5b6020026020010151610a2d565b8390611095565b915060010161043c565b505b92915050565b7f000000000000000000000000000000000000000000000000000000000000000081565b336000908152602081905260409020547fffffffffffffffffffffffffffffffffffffffffffffffffffffffffffffffff9081111561053f576040517f08c379a0000000000000000000000000000000000000000000000000000000008152600401808060200182810382526032815260200180611d926032913960400191505060405180910390fd5b73ffffffffffffffffffffffffffffffffffffffff83166105ab576040517f08c379a000000000000000000000000000000000000000000000000000000000815260040180806020018281038252602e815260200180611d64602e913960400191505060405180910390fd5b3373ffffffffffffffffffffffffffffffffffffffff8416141561061a576040517f08c379a0000000000000000000000000000000000000000000000000000000008152600401808060200182810382526031815260200180611dc46031913960400191505060405180910390fd5b73ffffffffffffffffffffffffffffffffffffffff8316600081815260208190526040808220549051859391927fa4e9b194bafb51369051927f4c07278de72aa1ee689f375215ea3a16dfef618e91a45073ffffffffffffffffffffffffffffffffffffffff909116600090815260208190526040902055565b6060806060845167ffffffffffffffff811180156106b157600080fd5b506040519080825280602002602001820160405280156106db578160200160208202803683370190505b5090506060855167ffffffffffffffff811180156106f857600080fd5b50604051908082528060200260200182016040528015610722578160200160208202803683370190505b50905060005b86518110156107d1576107777f000000000000000000000000000000000000000000000000000000000000000087838151811061076157fe5b602002602001015161111090919063ffffffff16565b83828151811061078357fe5b6020026020010181815250506107b287828151811061079e57fe5b602002602001015187838151811061046b57fe5b8282815181106107be57fe5b6020908102919091010152600101610728565b50909590945092505050565b7f000000000000000000000000000000000000000000000000000000000000000081565b336000908152602081905260409020547fffffffffffffffffffffffffffffffffffffffffffffffffffffffffffffffff9081111561088b576040517f08c379a0000000000000000000000000000000000000000000000000000000008152600401808060200182810382526032815260200180611d926032913960400191505060405180910390fd5b73ffffffffffffffffffffffffffffffffffffffff83166108d8576040517f08c379a000000000000000000000000000000000000000000000000000000000815260040161011c90611ba8565b6040517f70a0823100000000000000000000000000000000000000000000000000000000815260009073ffffffffffffffffffffffffffffffffffffffff8416906370a082319061092d9030906004016118b9565b60206040518083038186803b15801561094557600080fd5b505afa158015610959573d6000803e3d6000fd5b505050506040513d601f19601f8201168201806040525081019061097d9190611846565b6040517fa9059cbb00000000000000000000000000000000000000000000000000000000815290915073ffffffffffffffffffffffffffffffffffffffff84169063a9059cbb906109d49087908590600401611965565b602060405180830381600087803b1580156109ee57600080fd5b505af1158015610a02573d6000803e3d6000fd5b505050506040513d601f19601f82011682018060405250810190610a269190611714565b5050505050565b600082815260016020526040812054825b8015610aee576000610a9b7f00000000000000000000000000000000000000000000000000000000000000008481610a7257fe5b7f000000000000000000000000000000000000000000000000000000000000000091900661121d565b90506000828211610aac5781610aae565b825b9050610acd610ac6610abf86610390565b8390611110565b8690611095565b9450610ad9838261121d565b9250610ae58482611095565b93505050610a3e565b505092915050565b60016020526000908152604090205481565b60003373ffffffffffffffffffffffffffffffffffffffff7f00000000000000000000000000000000000000000000000000000000000000001614610b79576040517f08c379a000000000000000000000000000000000000000000000000000000000815260040161011c90611ac8565b610b81611366565b82806020019051810190610b959190611774565b9050600080610bac8360200151846040015161030f565b915091506000610bbc8888611294565b9050828114610bf7576040517f08c379a000000000000000000000000000000000000000000000000000000000815260040161011c90611c62565b8360600151821115610c35576040517f08c379a000000000000000000000000000000000000000000000000000000000815260040161011c90611a6b565b6040517f23b872dd00000000000000000000000000000000000000000000000000000000815273ffffffffffffffffffffffffffffffffffffffff7f000000000000000000000000000000000000000000000000000000000000000016906323b872dd90610cab908c90309087906004016118da565b602060405180830381600087803b158015610cc557600080fd5b505af1158015610cd9573d6000803e3d6000fd5b505050506040513d601f19601f82011682018060405250810190610cfd9190611714565b506040517f20ec271b00000000000000000000000000000000000000000000000000000000815273ffffffffffffffffffffffffffffffffffffffff7f000000000000000000000000000000000000000000000000000000000000000016906320ec271b90610d72908b908b9060040161198b565b600060405180830381600087803b158015610d8c57600080fd5b505af1158015610da0573d6000803e3d6000fd5b505050506000805b856020015151811015610e7257600086602001518281518110610dc757fe5b6020026020010151905080600014158015610de157508281115b610e17576040517f08c379a000000000000000000000000000000000000000000000000000000000815260040161011c906119e8565b610e5487604001518381518110610e2a57fe5b6020026020010151600160008481526020019081526020016000205461109590919063ffffffff16565b60008281526001602081905260409091209190915590925001610da8565b50845160009073ffffffffffffffffffffffffffffffffffffffff1615610e9a578551610e9c565b8a5b602087015160408089015190517fb48ab8b600000000000000000000000000000000000000000000000000000000815292935073ffffffffffffffffffffffffffffffffffffffff7f0000000000000000000000000000000000000000000000000000000000000000169263b48ab8b692610f1b92869260040161190b565b600060405180830381600087803b158015610f3557600080fd5b505af1158015610f49573d6000803e3d6000fd5b507fbc197c81000000000000000000000000000000000000000000000000000000009f9e505050505050505050505050505050565b73ffffffffffffffffffffffffffffffffffffffff1660009081526020819052604090205490565b604080516001808252818301909252600091606091906020808301908036833750506040805160018082528183019092529293506060929150602080830190803683370190505090508682600081518110610ffd57fe5b602002602001018181525050858160008151811061101757fe5b6020026020010181815250506110668989848489898080601f016020809104026020016040519081016040528093929190818152602001838380828437600092019190915250610b0892505050565b507ff23a6e61000000000000000000000000000000000000000000000000000000009998505050505050505050565b60008282018381101561110957604080517f08c379a000000000000000000000000000000000000000000000000000000000815260206004820152601660248201527f536166654d617468236164643a204f564552464c4f5700000000000000000000604482015290519081900360640190fd5b9392505050565b60008261111f5750600061048b565b8282028284828161112c57fe5b041461110957604080517f08c379a000000000000000000000000000000000000000000000000000000000815260206004820152601660248201527f536166654d617468236d756c3a204f564552464c4f5700000000000000000000604482015290519081900360640190fd5b600080821161120957604080517f08c379a000000000000000000000000000000000000000000000000000000000815260206004820152601e60248201527f536166654d617468236469763a204449564953494f4e5f42595f5a45524f0000604482015290519081900360640190fd5b600082848161121457fe5b04949350505050565b60008282111561128e57604080517f08c379a000000000000000000000000000000000000000000000000000000000815260206004820152601760248201527f536166654d617468237375623a20554e444552464c4f57000000000000000000604482015290519081900360640190fd5b50900390565b6000805b8351811015610489578381815181106112ad57fe5b60200260200101517f00000000000000000000000000000000000000000000000000000000000000001115801561131757507f000000000000000000000000000000000000000000000000000000000000000084828151811061130c57fe5b602002602001015111155b61134d576040517f08c379a000000000000000000000000000000000000000000000000000000000815260040161011c90611c05565b61135c83828151811061032e57fe5b9150600101611298565b6040518060800160405280600073ffffffffffffffffffffffffffffffffffffffff1681526020016060815260200160608152602001600081525090565b805161030a81611d3e565b600082601f8301126113bf578081fd5b81356113d26113cd82611d20565b611cfc565b8181529150602080830190848101818402860182018710156113f357600080fd5b60005b84811015611412578135845292820192908201906001016113f6565b505050505092915050565b600082601f83011261142d578081fd5b815161143b6113cd82611d20565b81815291506020808301908481018184028601820187101561145c57600080fd5b60005b848110156114125781518452928201929082019060010161145f565b60006020828403121561148c578081fd5b813561110981611d3e565b600080604083850312156114a9578081fd5b82356114b481611d3e565b915060208301356114c481611d3e565b809150509250929050565b600080600080600060a086880312156114e6578081fd5b85356114f181611d3e565b945060208681013561150281611d3e565b9450604087013567ffffffffffffffff8082111561151e578384fd5b61152a8a838b016113af565b9550606089013591508082111561153f578384fd5b61154b8a838b016113af565b94506080890135915080821115611560578384fd5b818901915089601f830112611573578384fd5b81358181111561157f57fe5b6115af847fffffffffffffffffffffffffffffffffffffffffffffffffffffffffffffffe0601f84011601611cfc565b91508082528a848285010111156115c4578485fd5b8084840185840137810190920192909252949793965091945092919050565b60008060008060008060a087890312156115fb578081fd5b863561160681611d3e565b9550602087013561161681611d3e565b94506040870135935060608701359250608087013567ffffffffffffffff80821115611640578283fd5b818901915089601f830112611653578283fd5b813581811115611661578384fd5b8a6020828501011115611672578384fd5b6020830194508093505050509295509295509295565b6000806040838503121561169a578182fd5b82356116a581611d3e565b946020939093013593505050565b600080604083850312156116c5578182fd5b823567ffffffffffffffff808211156116dc578384fd5b6116e8868387016113af565b935060208501359150808211156116fd578283fd5b5061170a858286016113af565b9150509250929050565b600060208284031215611725578081fd5b81518015158114611109578182fd5b600060208284031215611745578081fd5b81357fffffffff0000000000000000000000000000000000000000000000000000000081168114611109578182fd5b600060208284031215611785578081fd5b815167ffffffffffffffff8082111561179c578283fd5b90830190608082860312156117af578283fd5b6040516080810181811083821117156117c457fe5b6040526117d0836113a4565b81526020830151828111156117e3578485fd5b6117ef8782860161141d565b602083015250604083015182811115611806578485fd5b6118128782860161141d565b6040830152506060830151606082015280935050505092915050565b60006020828403121561183f578081fd5b5035919050565b600060208284031215611857578081fd5b5051919050565b60008060408385031215611870578182fd5b50508035926020909101359150565b6000815180845260208085019450808401835b838110156118ae57815187529582019590820190600101611892565b509495945050505050565b73ffffffffffffffffffffffffffffffffffffffff91909116815260200190565b73ffffffffffffffffffffffffffffffffffffffff9384168152919092166020820152604081019190915260600190565b600073ffffffffffffffffffffffffffffffffffffffff851682526080602083015261193a608083018561187f565b828103604084015261194c818561187f565b8381036060909401939093525081526020019392505050565b73ffffffffffffffffffffffffffffffffffffffff929092168252602082015260400190565b60006040825261199e604083018561187f565b828103602084015261042f818561187f565b901515815260200190565b7fffffffff0000000000000000000000000000000000000000000000000000000091909116815260200190565b6020808252605f908201527f426f6e64696e674375727665466163746f7279236f6e4552433131353542617460408201527f636852656365697665643a20554e534f52544544206974656d73426f7567687460608201527f494473204152524159204f5220434f4e5441494e204455504c49434154455300608082015260a00190565b6020808252603d908201527f426f6e64696e674375727665466163746f7279236f6e4552433131353542617460408201527f636852656365697665643a204d41582055534443204558434545444544000000606082015260800190565b60208082526041908201527f426f6e64696e674375727665466163746f7279236f6e4552433131353542617460408201527f636852656365697665643a20494e56414c49445f544f4b454e5f41444452455360608201527f5300000000000000000000000000000000000000000000000000000000000000608082015260a00190565b60208082526029908201527f426f6e64696e674375727665466163746f7279235f3a20554e535550504f525460408201527f45445f4d4554484f440000000000000000000000000000000000000000000000606082015260800190565b60208082526034908201527f426f6e64696e674375727665466163746f72792377697468647261774552433260408201527f303a20494e56414c49445f524543495049454e54000000000000000000000000606082015260800190565b60208082526039908201527f426f6e64696e674375727665466163746f7279236f6e4552433131353542617460408201527f636852656365697665643a2049445f49535f494e56414c494400000000000000606082015260800190565b6020808252604a908201527f426f6e64696e674375727665466163746f7279236f6e4552433131353542617460408201527f636852656365697665643a20494e434f5252454354204e554d424552204f462060608201527f4954454d532053454e5400000000000000000000000000000000000000000000608082015260a00190565b90815260200190565b918252602082015260400190565b60405181810167ffffffffffffffff81118282101715611d1857fe5b604052919050565b600067ffffffffffffffff821115611d3457fe5b5060209081020190565b73ffffffffffffffffffffffffffffffffffffffff81168114611d6057600080fd5b5056fe5469657265644f776e61626c652361737369676e4f776e6572736869703a20494e56414c49445f414444524553535469657265644f776e61626c65236f6e6c794f776e6572546965723a204f574e45525f544945525f49535f544f4f5f4c4f575469657265644f776e61626c652361737369676e4f776e6572736869703a205550444154494e475f53454c465f54494552a2646970667358221220aeecc2db03722e70c70dcb82fc52cb20d5bd55abc6f4701b22e7b4d3f7d4531d64736f6c634300070400335469657265644f776e61626c6523636f6e7374727563746f723a20494e56414c49445f46495253545f4f574e4552",
  "linkReferences": {},
  "deployedLinkReferences": {}
}