{
  "_format": "hh-sol-artifact-1",
  "contractName": "RewardFactory",
  "sourceName": "contracts/factories/RewardFactory.sol",
  "abi": [
    {
      "inputs": [
        {
          "internalType": "address",
          "name": "_firstOwner",
          "type": "address"
        },
        {
          "internalType": "address",
          "name": "_assetsAddr",
          "type": "address"
        },
        {
          "internalType": "uint256",
          "name": "_periodLength",
          "type": "uint256"
        },
        {
          "internalType": "uint256",
          "name": "_periodMintLimit",
          "type": "uint256"
        }
      ],
      "stateMutability": "nonpayable",
      "type": "constructor"
    },
    {
      "anonymous": false,
      "inputs": [
        {
          "indexed": true,
          "internalType": "address",
          "name": "owner",
          "type": "address"
        },
        {
          "indexed": true,
          "internalType": "uint256",
          "name": "previousTier",
          "type": "uint256"
        },
        {
          "indexed": true,
          "internalType": "uint256",
          "name": "newTier",
          "type": "uint256"
        }
      ],
      "name": "OwnershipGranted",
      "type": "event"
    },
    {
      "anonymous": false,
      "inputs": [
        {
          "indexed": false,
          "internalType": "uint256",
          "name": "oldMintingLimit",
          "type": "uint256"
        },
        {
          "indexed": false,
          "internalType": "uint256",
          "name": "newMintingLimit",
          "type": "uint256"
        }
      ],
      "name": "PeriodMintLimitChanged",
      "type": "event"
    },
    {
      "stateMutability": "nonpayable",
      "type": "fallback"
    },
    {
      "inputs": [],
      "name": "PERIOD_LENGTH",
      "outputs": [
        {
          "internalType": "uint256",
          "name": "",
          "type": "uint256"
        }
      ],
      "stateMutability": "view",
      "type": "function"
    },
    {
      "inputs": [
        {
          "internalType": "address",
          "name": "_address",
          "type": "address"
        },
        {
          "internalType": "uint256",
          "name": "_tier",
          "type": "uint256"
        }
      ],
      "name": "assignOwnership",
      "outputs": [],
      "stateMutability": "nonpayable",
      "type": "function"
    },
    {
      "inputs": [
        {
          "internalType": "address",
          "name": "_to",
          "type": "address"
        },
        {
          "internalType": "uint256[]",
          "name": "_ids",
          "type": "uint256[]"
        },
        {
          "internalType": "uint256[]",
          "name": "_amounts",
          "type": "uint256[]"
        },
        {
          "internalType": "bytes",
          "name": "_data",
          "type": "bytes"
        }
      ],
      "name": "batchMint",
      "outputs": [],
      "stateMutability": "nonpayable",
      "type": "function"
    },
    {
      "inputs": [],
      "name": "getAvailableSupply",
      "outputs": [
        {
          "internalType": "uint256",
          "name": "",
          "type": "uint256"
        }
      ],
      "stateMutability": "view",
      "type": "function"
    },
    {
      "inputs": [
        {
          "internalType": "address",
          "name": "_owner",
          "type": "address"
        }
      ],
      "name": "getOwnerTier",
      "outputs": [
        {
          "internalType": "uint256",
          "name": "",
          "type": "uint256"
        }
      ],
      "stateMutability": "view",
      "type": "function"
    },
    {
      "inputs": [],
      "name": "livePeriod",
      "outputs": [
        {
          "internalType": "uint256",
          "name": "",
          "type": "uint256"
        }
      ],
      "stateMutability": "view",
      "type": "function"
    },
    {
      "inputs": [],
      "name": "periodMintLimit",
      "outputs": [
        {
          "internalType": "uint256",
          "name": "",
          "type": "uint256"
        }
      ],
      "stateMutability": "view",
      "type": "function"
    },
    {
      "inputs": [],
      "name": "skyweaverAssets",
      "outputs": [
        {
          "internalType": "contract ISkyweaverAssets",
          "name": "",
          "type": "address"
        }
      ],
      "stateMutability": "view",
      "type": "function"
    },
    {
      "inputs": [
        {
          "internalType": "bytes4",
          "name": "interfaceID",
          "type": "bytes4"
        }
      ],
      "name": "supportsInterface",
      "outputs": [
        {
          "internalType": "bool",
          "name": "",
          "type": "bool"
        }
      ],
      "stateMutability": "pure",
      "type": "function"
    },
    {
      "inputs": [
        {
          "internalType": "uint256",
          "name": "_newPeriodMintLimit",
          "type": "uint256"
        }
      ],
      "name": "updatePeriodMintLimit",
      "outputs": [],
      "stateMutability": "nonpayable",
      "type": "function"
    }
  ],
  "bytecode": "0x60c060405234801561001057600080fd5b50604051610dc8380380610dc88339818101604052608081101561003357600080fd5b50805160208201516040830151606090930151919290918373ffffffffffffffffffffffffffffffffffffffff81166100b7576040517f08c379a000000000000000000000000000000000000000000000000000000000815260040180806020018281038252602e815260200180610d72602e913960400191505060405180910390fd5b73ffffffffffffffffffffffffffffffffffffffff81166000818152602081905260408082207fffffffffffffffffffffffffffffffffffffffffffffffffffffffffffffffff9081905590519092907fa4e9b194bafb51369051927f4c07278de72aa1ee689f375215ea3a16dfef618e908390a45073ffffffffffffffffffffffffffffffffffffffff8316158015906101525750600082115b801561015e5750600081115b6101b3576040517f08c379a0000000000000000000000000000000000000000000000000000000008152600401808060200182810382526028815260200180610da06028913960400191505060405180910390fd5b7fffffffffffffffffffffffffffffffffffffffff000000000000000000000000606084901b1660805260a08290528142816101eb57fe5b046001556002819055600381905560408051600081526020810183905281517fdc39d5ec34d8ece158f93c14cfb036acb3e58e254416fe92f43b3a0acd3c4d3d929181900390910190a15050505060805160601c60a051610b096102696000398061092d528061097b5250806105b252806106b05250610b096000f3fe608060405234801561001057600080fd5b50600436106100be5760003560e01c8063c167d1cd11610076578063e7a891b91161005b578063e7a891b91461033e578063e8f35d5a14610346578063f686980314610379576100be565b8063c167d1cd14610319578063c56cecd114610321576100be565b80635d511a11116100a75780635d511a111461017c57806384f4076e146101b7578063b48ab8b6146101e8576100be565b806301ffc9a71461010f5780633c1e142214610162575b6040517f08c379a0000000000000000000000000000000000000000000000000000000008152600401808060200182810382526023815260200180610a4e6023913960400191505060405180910390fd5b61014e6004803603602081101561012557600080fd5b50357fffffffff0000000000000000000000000000000000000000000000000000000016610381565b604080519115158252519081900360200190f35b61016a6103cb565b60408051918252519081900360200190f35b6101b56004803603604081101561019257600080fd5b5073ffffffffffffffffffffffffffffffffffffffff81351690602001356103d1565b005b6101bf6105b0565b6040805173ffffffffffffffffffffffffffffffffffffffff9092168252519081900360200190f35b6101b5600480360360808110156101fe57600080fd5b73ffffffffffffffffffffffffffffffffffffffff823516919081019060408101602082013564010000000081111561023657600080fd5b82018360208201111561024857600080fd5b8035906020019184602083028401116401000000008311171561026a57600080fd5b91939092909160208101903564010000000081111561028857600080fd5b82018360208201111561029a57600080fd5b803590602001918460208302840111640100000000831117156102bc57600080fd5b9193909290916020810190356401000000008111156102da57600080fd5b8201836020820111156102ec57600080fd5b8035906020019184600183028401116401000000008311171561030e57600080fd5b5090925090506105d4565b61016a61082b565b6101b56004803603602081101561033757600080fd5b503561084e565b61016a61092b565b61016a6004803603602081101561035c57600080fd5b503573ffffffffffffffffffffffffffffffffffffffff1661094f565b61016a610977565b7fffffffff0000000000000000000000000000000000000000000000000000000081167f01ffc9a70000000000000000000000000000000000000000000000000000000014919050565b60035481565b336000908152602081905260409020547fffffffffffffffffffffffffffffffffffffffffffffffffffffffffffffffff9081111561045b576040517f08c379a0000000000000000000000000000000000000000000000000000000008152600401808060200182810382526032815260200180610a716032913960400191505060405180910390fd5b73ffffffffffffffffffffffffffffffffffffffff83166104c7576040517f08c379a000000000000000000000000000000000000000000000000000000000815260040180806020018281038252602e815260200180610a20602e913960400191505060405180910390fd5b3373ffffffffffffffffffffffffffffffffffffffff84161415610536576040517f08c379a0000000000000000000000000000000000000000000000000000000008152600401808060200182810382526031815260200180610aa36031913960400191505060405180910390fd5b73ffffffffffffffffffffffffffffffffffffffff8316600081815260208190526040808220549051859391927fa4e9b194bafb51369051927f4c07278de72aa1ee689f375215ea3a16dfef618e91a45073ffffffffffffffffffffffffffffffffffffffff909116600090815260208190526040902055565b7f000000000000000000000000000000000000000000000000000000000000000081565b3360009081526020819052604090205460019081111561063f576040517f08c379a0000000000000000000000000000000000000000000000000000000008152600401808060200182810382526032815260200180610a716032913960400191505060405180910390fd5b6000610649610977565b600154909150600081831415610662575060025461066c565b5060035460018390555b60005b898110156106a65761069c89898381811061068657fe5b90506020020135836109a890919063ffffffff16565b915060010161066f565b50806002819055507f000000000000000000000000000000000000000000000000000000000000000073ffffffffffffffffffffffffffffffffffffffff1663b48ab8b68c8c8c8c8c8c8c6040518863ffffffff1660e01b8152600401808873ffffffffffffffffffffffffffffffffffffffff16815260200180602001806020018060200184810384528a8a82818152602001925060200280828437600083820152601f017fffffffffffffffffffffffffffffffffffffffffffffffffffffffffffffffe0169091018581038452888152602090810191508990890280828437600083820152601f017fffffffffffffffffffffffffffffffffffffffffffffffffffffffffffffffe01690910185810383528681526020019050868680828437600081840152601f19601f8201169050808301925050509a5050505050505050505050600060405180830381600087803b15801561080657600080fd5b505af115801561081a573d6000803e3d6000fd5b505050505050505050505050505050565b6000600154610838610977565b1461084557600354610849565b6002545b905090565b336000908152602081905260409020547fffffffffffffffffffffffffffffffffffffffffffffffffffffffffffffffff908111156108d8576040517f08c379a0000000000000000000000000000000000000000000000000000000008152600401808060200182810382526032815260200180610a716032913960400191505060405180910390fd5b8160025411156108e85760028290555b600354604080519182526020820184905280517fdc39d5ec34d8ece158f93c14cfb036acb3e58e254416fe92f43b3a0acd3c4d3d9281900390910190a150600355565b7f000000000000000000000000000000000000000000000000000000000000000081565b73ffffffffffffffffffffffffffffffffffffffff1660009081526020819052604090205490565b60007f000000000000000000000000000000000000000000000000000000000000000042816109a257fe5b04905090565b600082821115610a1957604080517f08c379a000000000000000000000000000000000000000000000000000000000815260206004820152601760248201527f536166654d617468237375623a20554e444552464c4f57000000000000000000604482015290519081900360640190fd5b5090039056fe5469657265644f776e61626c652361737369676e4f776e6572736869703a20494e56414c49445f41444452455353526577617264466163746f7279235f3a20554e535550504f525445445f4d4554484f445469657265644f776e61626c65236f6e6c794f776e6572546965723a204f574e45525f544945525f49535f544f4f5f4c4f575469657265644f776e61626c652361737369676e4f776e6572736869703a205550444154494e475f53454c465f54494552a2646970667358221220250fcc55f227d6406a475741796365692498d881719994519bae5ad25cbebd2164736f6c634300070400335469657265644f776e61626c6523636f6e7374727563746f723a20494e56414c49445f46495253545f4f574e4552526577617264466163746f727923636f6e7374727563746f723a20494e56414c49445f494e505554",
  "linkReferences": {},
  "deployedLinkReferences": {}
}