{
  "contractName": "ERC1155MintBurnPackedBalance",
  "abi": [
    {
      "anonymous": false,
      "inputs": [
        {
          "indexed": true,
          "internalType": "address",
          "name": "_owner",
          "type": "address"
        },
        {
          "indexed": true,
          "internalType": "address",
          "name": "_operator",
          "type": "address"
        },
        {
          "indexed": false,
          "internalType": "bool",
          "name": "_approved",
          "type": "bool"
        }
      ],
      "name": "ApprovalForAll",
      "type": "event"
    },
    {
      "anonymous": false,
      "inputs": [
        {
          "indexed": true,
          "internalType": "address",
          "name": "_operator",
          "type": "address"
        },
        {
          "indexed": true,
          "internalType": "address",
          "name": "_from",
          "type": "address"
        },
        {
          "indexed": true,
          "internalType": "address",
          "name": "_to",
          "type": "address"
        },
        {
          "indexed": false,
          "internalType": "uint256[]",
          "name": "_ids",
          "type": "uint256[]"
        },
        {
          "indexed": false,
          "internalType": "uint256[]",
          "name": "_amounts",
          "type": "uint256[]"
        }
      ],
      "name": "TransferBatch",
      "type": "event"
    },
    {
      "anonymous": false,
      "inputs": [
        {
          "indexed": true,
          "internalType": "address",
          "name": "_operator",
          "type": "address"
        },
        {
          "indexed": true,
          "internalType": "address",
          "name": "_from",
          "type": "address"
        },
        {
          "indexed": true,
          "internalType": "address",
          "name": "_to",
          "type": "address"
        },
        {
          "indexed": false,
          "internalType": "uint256",
          "name": "_id",
          "type": "uint256"
        },
        {
          "indexed": false,
          "internalType": "uint256",
          "name": "_amount",
          "type": "uint256"
        }
      ],
      "name": "TransferSingle",
      "type": "event"
    },
    {
      "anonymous": false,
      "inputs": [
        {
          "indexed": false,
          "internalType": "string",
          "name": "_amount",
          "type": "string"
        },
        {
          "indexed": true,
          "internalType": "uint256",
          "name": "_id",
          "type": "uint256"
        }
      ],
      "name": "URI",
      "type": "event"
    },
    {
      "constant": true,
      "inputs": [
        {
          "internalType": "address",
          "name": "_owner",
          "type": "address"
        },
        {
          "internalType": "uint256",
          "name": "_id",
          "type": "uint256"
        }
      ],
      "name": "balanceOf",
      "outputs": [
        {
          "internalType": "uint256",
          "name": "",
          "type": "uint256"
        }
      ],
      "payable": false,
      "stateMutability": "view",
      "type": "function"
    },
    {
      "constant": true,
      "inputs": [
        {
          "internalType": "address[]",
          "name": "_owners",
          "type": "address[]"
        },
        {
          "internalType": "uint256[]",
          "name": "_ids",
          "type": "uint256[]"
        }
      ],
      "name": "balanceOfBatch",
      "outputs": [
        {
          "internalType": "uint256[]",
          "name": "",
          "type": "uint256[]"
        }
      ],
      "payable": false,
      "stateMutability": "view",
      "type": "function"
    },
    {
      "constant": true,
      "inputs": [
        {
          "internalType": "uint256",
          "name": "_id",
          "type": "uint256"
        }
      ],
      "name": "getIDBinIndex",
      "outputs": [
        {
          "internalType": "uint256",
          "name": "bin",
          "type": "uint256"
        },
        {
          "internalType": "uint256",
          "name": "index",
          "type": "uint256"
        }
      ],
      "payable": false,
      "stateMutability": "pure",
      "type": "function"
    },
    {
      "constant": true,
      "inputs": [
        {
          "internalType": "uint256",
          "name": "_binValues",
          "type": "uint256"
        },
        {
          "internalType": "uint256",
          "name": "_index",
          "type": "uint256"
        }
      ],
      "name": "getValueInBin",
      "outputs": [
        {
          "internalType": "uint256",
          "name": "",
          "type": "uint256"
        }
      ],
      "payable": false,
      "stateMutability": "pure",
      "type": "function"
    },
    {
      "constant": true,
      "inputs": [
        {
          "internalType": "address",
          "name": "_owner",
          "type": "address"
        },
        {
          "internalType": "address",
          "name": "_operator",
          "type": "address"
        }
      ],
      "name": "isApprovedForAll",
      "outputs": [
        {
          "internalType": "bool",
          "name": "isOperator",
          "type": "bool"
        }
      ],
      "payable": false,
      "stateMutability": "view",
      "type": "function"
    },
    {
      "constant": false,
      "inputs": [
        {
          "internalType": "address",
          "name": "_from",
          "type": "address"
        },
        {
          "internalType": "address",
          "name": "_to",
          "type": "address"
        },
        {
          "internalType": "uint256[]",
          "name": "_ids",
          "type": "uint256[]"
        },
        {
          "internalType": "uint256[]",
          "name": "_amounts",
          "type": "uint256[]"
        },
        {
          "internalType": "bytes",
          "name": "_data",
          "type": "bytes"
        }
      ],
      "name": "safeBatchTransferFrom",
      "outputs": [],
      "payable": false,
      "stateMutability": "nonpayable",
      "type": "function"
    },
    {
      "constant": false,
      "inputs": [
        {
          "internalType": "address",
          "name": "_from",
          "type": "address"
        },
        {
          "internalType": "address",
          "name": "_to",
          "type": "address"
        },
        {
          "internalType": "uint256",
          "name": "_id",
          "type": "uint256"
        },
        {
          "internalType": "uint256",
          "name": "_amount",
          "type": "uint256"
        },
        {
          "internalType": "bytes",
          "name": "_data",
          "type": "bytes"
        }
      ],
      "name": "safeTransferFrom",
      "outputs": [],
      "payable": false,
      "stateMutability": "nonpayable",
      "type": "function"
    },
    {
      "constant": false,
      "inputs": [
        {
          "internalType": "address",
          "name": "_operator",
          "type": "address"
        },
        {
          "internalType": "bool",
          "name": "_approved",
          "type": "bool"
        }
      ],
      "name": "setApprovalForAll",
      "outputs": [],
      "payable": false,
      "stateMutability": "nonpayable",
      "type": "function"
    },
    {
      "constant": true,
      "inputs": [
        {
          "internalType": "bytes4",
          "name": "_interfaceID",
          "type": "bytes4"
        }
      ],
      "name": "supportsInterface",
      "outputs": [
        {
          "internalType": "bool",
          "name": "",
          "type": "bool"
        }
      ],
      "payable": false,
      "stateMutability": "view",
      "type": "function"
    }
  ],
  "bytecode": "0x608060405234801561001057600080fd5b50611733806100206000396000f3fe608060405234801561001057600080fd5b50600436106100925760003560e01c8063a22cb46511610066578063a22cb46514610446578063db90e83c14610474578063e985e9c5146104aa578063eaec5f81146104d8578063f242432a146104fb57610092565b8062fdd58e1461009757806301ffc9a7146100d55780632eb2c2d6146101105780634e1273f4146102d3575b600080fd5b6100c3600480360360408110156100ad57600080fd5b506001600160a01b0381351690602001356105c4565b60408051918252519081900360200190f35b6100fc600480360360208110156100eb57600080fd5b50356001600160e01b03191661060c565b604080519115158252519081900360200190f35b6102d1600480360360a081101561012657600080fd5b6001600160a01b038235811692602081013590911691810190606081016040820135600160201b81111561015957600080fd5b82018360208201111561016b57600080fd5b803590602001918460208302840111600160201b8311171561018c57600080fd5b9190808060200260200160405190810160405280939291908181526020018383602002808284376000920191909152509295949360208101935035915050600160201b8111156101db57600080fd5b8201836020820111156101ed57600080fd5b803590602001918460208302840111600160201b8311171561020e57600080fd5b9190808060200260200160405190810160405280939291908181526020018383602002808284376000920191909152509295949360208101935035915050600160201b81111561025d57600080fd5b82018360208201111561026f57600080fd5b803590602001918460018302840111600160201b8311171561029057600080fd5b91908080601f016020809104026020016040519081016040528093929190818152602001838380828437600092019190915250929550610653945050505050565b005b6103f6600480360360408110156102e957600080fd5b810190602081018135600160201b81111561030357600080fd5b82018360208201111561031557600080fd5b803590602001918460208302840111600160201b8311171561033657600080fd5b9190808060200260200160405190810160405280939291908181526020018383602002808284376000920191909152509295949360208101935035915050600160201b81111561038557600080fd5b82018360208201111561039757600080fd5b803590602001918460208302840111600160201b831117156103b857600080fd5b919080806020026020016040519081016040528093929190818152602001838360200280828437600092019190915250929550610710945050505050565b60408051602080825283518183015283519192839290830191858101910280838360005b8381101561043257818101518382015260200161041a565b505050509050019250505060405180910390f35b6102d16004803603604081101561045c57600080fd5b506001600160a01b0381351690602001351515610910565b6104916004803603602081101561048a57600080fd5b503561097e565b6040805192835260208301919091528051918290030190f35b6100fc600480360360408110156104c057600080fd5b506001600160a01b038135811691602001351661098b565b6100c3600480360360408110156104ee57600080fd5b50803590602001356109b9565b6102d1600480360360a081101561051157600080fd5b6001600160a01b03823581169260208101359091169160408201359160608101359181019060a081016080820135600160201b81111561055057600080fd5b82018360208201111561056257600080fd5b803590602001918460018302840111600160201b8311171561058357600080fd5b91908080601f0160208091040260200160405190810160405280939291908181526020018383808284376000920191909152509295506109cc945050505050565b60008060006105d28461097e565b6001600160a01b038716600090815260208181526040808320858452909152902054919350915061060390826109b9565b95945050505050565b60006001600160e01b031982166301ffc9a760e01b148061063d57506001600160e01b03198216636cdb3d1360e11b145b1561064a5750600161064e565b5060005b919050565b336001600160a01b038616148061066f575061066f853361098b565b6106aa5760405162461bcd60e51b815260040180806020018281038252603c815260200180611597603c913960400191505060405180910390fd5b6001600160a01b0384166106ef5760405162461bcd60e51b815260040180806020018281038252603d815260200180611462603d913960400191505060405180910390fd5b6106fb85858585610a82565b610709858585855a86610de6565b5050505050565b815181516060919081146107555760405162461bcd60e51b81526004018080602001828103825260398152602001806114296039913960400191505060405180910390fd5b6000806107758560008151811061076857fe5b602002602001015161097e565b9150915060008060008860008151811061078b57fe5b60200260200101516001600160a01b03166001600160a01b03168152602001908152602001600020600084815260200190815260200160002054905060008390506060856040519080825280602002602001820160405280156107f8578160200160208202803883390190505b50905061080583856109b9565b8160008151811061081257fe5b602090810291909101015260015b868110156109035761083789828151811061076857fe5b90965094508286141580610886575089818151811061085257fe5b60200260200101516001600160a01b03168a600183038151811061087257fe5b60200260200101516001600160a01b031614155b156108da576000808b838151811061089a57fe5b60200260200101516001600160a01b03166001600160a01b0316815260200190815260200160002060008781526020019081526020016000205493508592505b6108e484866109b9565b8282815181106108f057fe5b6020908102919091010152600101610820565b5098975050505050505050565b3360008181526001602090815260408083206001600160a01b03871680855290835292819020805460ff1916861515908117909155815190815290519293927f17307eab39ab6107e8899845ad3d59bd9653f200f220920489ca2b5937696c31929181900390910190a35050565b6008810491600790911690565b6001600160a01b03918216600090815260016020908152604080832093909416825291909152205460ff1690565b6020810282901c63ffffffff1692915050565b336001600160a01b03861614806109e857506109e8853361098b565b610a235760405162461bcd60e51b81526004018080602001828103825260378152602001806114d26037913960400191505060405180910390fd5b6001600160a01b038416610a685760405162461bcd60e51b81526004018080602001828103825260388152602001806116506038913960400191505060405180910390fd5b610a7485858585610ff0565b610709858585855a8661106d565b815181518114610ac35760405162461bcd60e51b81526004018080602001828103825260428152602001806115096042913960600191505060405180910390fd5b836001600160a01b0316856001600160a01b031614158015610ae55750600081115b15610c8357600080610afd8560008151811061076857fe5b6001600160a01b038916600090815260208181526040808320858452909152812054875193955091935091610b489190849088908590610b3957fe5b602002602001015160016111f1565b6001600160a01b03881660009081526020818152604080832087845290915281205487519293509091610b919190859089908590610b8257fe5b602002602001015160006111f1565b90508360015b86811015610c3e57610bae89828151811061076857fe5b9096509450818614610c10576001600160a01b038b811660009081526020818152604080832086845280835281842098909855928d16825281815282822094825284815282822095909555878152948452808520549290935291909220549084905b610c2184868a8481518110610b3957fe5b9350610c3483868a8481518110610b8257fe5b9250600101610b97565b50506001600160a01b03808a16600090815260208181526040808320888452825280832095909555918a16815280825283812095815294905292209190915550610d06565b60005b81811015610d0457828181518110610c9a57fe5b6020026020010151610cbf87868481518110610cb257fe5b60200260200101516105c4565b1015610cfc5760405162461bcd60e51b81526004018080602001828103825260368152602001806115d36036913960400191505060405180910390fd5b600101610c86565b505b836001600160a01b0316856001600160a01b0316336001600160a01b03167f4a39dc06d4c0dbc64b70af90fd698a233a518aa5d07e595d983b8c0526c8f7fb8686604051808060200180602001838103835285818151815260200191508051906020019060200280838360005b83811015610d8b578181015183820152602001610d73565b50505050905001838103825284818151815260200191508051906020019060200280838360005b83811015610dca578181015183820152602001610db2565b5050505090500194505050505060405180910390a45050505050565b610df8856001600160a01b0316611381565b15610fe8576000856001600160a01b031663bc197c8184338a8989886040518763ffffffff1660e01b815260040180866001600160a01b03166001600160a01b03168152602001856001600160a01b03166001600160a01b03168152602001806020018060200180602001848103845287818151815260200191508051906020019060200280838360005b83811015610e9b578181015183820152602001610e83565b50505050905001848103835286818151815260200191508051906020019060200280838360005b83811015610eda578181015183820152602001610ec2565b50505050905001848103825285818151815260200191508051906020019080838360005b83811015610f16578181015183820152602001610efe565b50505050905090810190601f168015610f435780820380516001836020036101000a031916815260200191505b5098505050505050505050602060405180830381600088803b158015610f6857600080fd5b5087f1158015610f7c573d6000803e3d6000fd5b50505050506040513d6020811015610f9357600080fd5b505190506001600160e01b0319811663bc197c8160e01b14610fe65760405162461bcd60e51b815260040180806020018281038252604c81526020018061154b604c913960600191505060405180910390fd5b505b505050505050565b610ffd84838360016113bb565b61100a83838360006113bb565b826001600160a01b0316846001600160a01b0316336001600160a01b03167fc3d58168c5ae7397731d063d5bbf3d657854427343f4c083240f7aacaa2d0f628585604051808381526020018281526020019250505060405180910390a450505050565b61107f856001600160a01b0316611381565b15610fe8576000856001600160a01b031663f23a6e6184338a8989886040518763ffffffff1660e01b815260040180866001600160a01b03166001600160a01b03168152602001856001600160a01b03166001600160a01b0316815260200184815260200183815260200180602001828103825283818151815260200191508051906020019080838360005b8381101561112357818101518382015260200161110b565b50505050905090810190601f1680156111505780820380516001836020036101000a031916815260200191505b509650505050505050602060405180830381600088803b15801561117357600080fd5b5087f1158015611187573d6000803e3d6000fd5b50505050506040513d602081101561119e57600080fd5b505190506001600160e01b0319811663f23a6e6160e01b14610fe65760405162461bcd60e51b81526004018080602001828103825260478152602001806116096047913960600191505060405180910390fd5b60006020840263ffffffff8284600181111561120957fe5b14156112a25784821b87019250868310156112555760405162461bcd60e51b81526004018080602001828103825260328152602001806116cd6032913960400191505060405180910390fd5b600160201b87831c821686011061129d5760405162461bcd60e51b81526004018080602001828103825260328152602001806116cd6032913960400191505060405180910390fd5b611377565b60018460018111156112b057fe5b14156113405784821b87039250868311156112fc5760405162461bcd60e51b815260040180806020018281038252603381526020018061149f6033913960400191505060405180910390fd5b84818389901c16101561129d5760405162461bcd60e51b815260040180806020018281038252603381526020018061149f6033913960400191505060405180910390fd5b60405162461bcd60e51b81526004018080602001828103825260458152602001806116886045913960600191505060405180910390fd5b5050949350505050565b6000813f80158015906113b457507fc5d2460186f7233c927e7db2dcc703c0e500b653ca82273b7bfad8045d85a4708114155b9392505050565b6000806113c78561097e565b6001600160a01b03881660009081526020818152604080832085845290915290205491935091506113fa908286866111f1565b6001600160a01b0390961660009081526020818152604080832094835293905291909120949094555050505056fe455243313135355061636b656442616c616e63652362616c616e63654f6642617463683a20494e56414c49445f41525241595f4c454e475448455243313135355061636b656442616c616e6365237361666542617463685472616e7366657246726f6d3a20494e56414c49445f524543495049454e54455243313135355061636b656442616c616e6365235f7669657755706461746542696e56616c75653a20554e444552464c4f57455243313135355061636b656442616c616e636523736166655472616e7366657246726f6d3a20494e56414c49445f4f50455241544f52455243313135355061636b656442616c616e6365235f7361666542617463685472616e7366657246726f6d3a20494e56414c49445f4152524159535f4c454e475448455243313135355061636b656442616c616e6365235f63616c6c6f6e45524331313535426174636852656365697665643a20494e56414c49445f4f4e5f524543454956455f4d455353414745455243313135355061636b656442616c616e6365237361666542617463685472616e7366657246726f6d3a20494e56414c49445f4f50455241544f52455243313135355061636b656442616c616e6365235f7361666542617463685472616e7366657246726f6d3a20554e444552464c4f57455243313135355061636b656442616c616e6365235f63616c6c6f6e4552433131353552656365697665643a20494e56414c49445f4f4e5f524543454956455f4d455353414745455243313135355061636b656442616c616e636523736166655472616e7366657246726f6d3a20494e56414c49445f524543495049454e54455243313135355061636b656442616c616e6365235f7669657755706461746542696e56616c75653a20494e56414c49445f42494e5f57524954455f4f5045524154494f4e455243313135355061636b656442616c616e6365235f7669657755706461746542696e56616c75653a204f564552464c4f57a265627a7a723158207c901b2b370fe0b5bac6fcb2c3d433cdd0e425e0a10198c34d854c130d2a42b364736f6c63430005100032",
  "source": "pragma solidity ^0.5.16;\n\nimport \"./ERC1155PackedBalance.sol\";\n\n\n/**\n * @dev Multi-Fungible Tokens with minting and burning methods. These methods assume\n *      a parent contract to be executed as they are `internal` functions.\n */\ncontract ERC1155MintBurnPackedBalance is ERC1155PackedBalance {\n\n  /****************************************|\n  |            Minting Functions           |\n  |_______________________________________*/\n\n  /**\n   * @notice Mint _amount of tokens of a given id\n   * @param _to      The address to mint tokens to\n   * @param _id      Token id to mint\n   * @param _amount  The amount to be minted\n   * @param _data    Data to pass if receiver is contract\n   */\n  function _mint(address _to, uint256 _id, uint256 _amount, bytes memory _data)\n    internal\n  {\n    //Add _amount\n    _updateIDBalance(_to,   _id, _amount, Operations.Add); // Add amount to recipient\n\n    // Emit event\n    emit TransferSingle(msg.sender, address(0x0), _to, _id, _amount);\n\n    // Calling onReceive method if recipient is contract\n    _callonERC1155Received(address(0x0), _to, _id, _amount, gasleft(), _data);\n  }\n\n  /**\n   * @notice Mint tokens for each (_ids[i], _amounts[i]) pair\n   * @param _to       The address to mint tokens to\n   * @param _ids      Array of ids to mint\n   * @param _amounts  Array of amount of tokens to mint per id\n   * @param _data    Data to pass if receiver is contract\n   */\n  function _batchMint(address _to, uint256[] memory _ids, uint256[] memory _amounts, bytes memory _data)\n    internal\n  {\n    require(_ids.length == _amounts.length, \"ERC1155MintBurnPackedBalance#_batchMint: INVALID_ARRAYS_LENGTH\");\n\n    if (_ids.length > 0) {\n      // Load first bin and index where the token ID balance exists\n      (uint256 bin, uint256 index) = getIDBinIndex(_ids[0]);\n\n      // Balance for current bin in memory (initialized with first transfer)\n      uint256 balTo = _viewUpdateBinValue(balances[_to][bin], index, _amounts[0], Operations.Add);\n\n      // Number of transfer to execute\n      uint256 nTransfer = _ids.length;\n\n      // Last bin updated\n      uint256 lastBin = bin;\n\n      for (uint256 i = 1; i < nTransfer; i++) {\n        (bin, index) = getIDBinIndex(_ids[i]);\n\n        // If new bin\n        if (bin != lastBin) {\n          // Update storage balance of previous bin\n          balances[_to][lastBin] = balTo;\n          balTo = balances[_to][bin];\n\n          // Bin will be the most recent bin\n          lastBin = bin;\n        }\n\n        // Update memory balance\n        balTo = _viewUpdateBinValue(balTo, index, _amounts[i], Operations.Add);\n      }\n\n      // Update storage of the last bin visited\n      balances[_to][bin] = balTo;\n    }\n\n    // //Emit event\n    emit TransferBatch(msg.sender, address(0x0), _to, _ids, _amounts);\n\n    // Calling onReceive method if recipient is contract\n    _callonERC1155BatchReceived(address(0x0), _to, _ids, _amounts, gasleft(), _data);\n  }\n\n\n  /****************************************|\n  |            Burning Functions           |\n  |_______________________________________*/\n\n  /**\n   * @notice Burn _amount of tokens of a given token id\n   * @param _from    The address to burn tokens from\n   * @param _id      Token id to burn\n   * @param _amount  The amount to be burned\n   */\n  function _burn(address _from, uint256 _id, uint256 _amount)\n    internal\n  {\n    // Substract _amount\n    _updateIDBalance(_from, _id, _amount, Operations.Sub);\n\n    // Emit event\n    emit TransferSingle(msg.sender, _from, address(0x0), _id, _amount);\n  }\n\n  /**\n   * @notice Burn tokens of given token id for each (_ids[i], _amounts[i]) pair\n   * @dev This batchBurn method does not implement the most efficient way of updating\n   *      balances to reduce the potential bug surface as this function is expected to\n   *      be less common than transfers. EIP-2200 makes this method significantly\n   *      more efficient already for packed balances.\n   * @param _from     The address to burn tokens from\n   * @param _ids      Array of token ids to burn\n   * @param _amounts  Array of the amount to be burned\n   */\n  function _batchBurn(address _from, uint256[] memory _ids, uint256[] memory _amounts)\n    internal\n  {\n    // Number of burning to execute\n    uint256 nBurn = _ids.length;\n    require(nBurn == _amounts.length, \"ERC1155MintBurnPackedBalance#batchBurn: INVALID_ARRAYS_LENGTH\");\n\n    // Executing all burning\n    for (uint256 i = 0; i < nBurn; i++) {\n      // Update storage balance\n      _updateIDBalance(_from,   _ids[i], _amounts[i], Operations.Sub); // Add amount to recipient\n    }\n\n    // Emit batch burn event\n    emit TransferBatch(msg.sender, _from, address(0x0), _ids, _amounts);\n  }\n}\n\n",
  "sourcePath": "multi-token-standard/contracts/tokens/ERC1155PackedBalance/ERC1155MintBurnPackedBalance.sol",
  "compiler": {
    "name": "solc",
    "version": "0.5.16+commit.9c3226ce.Emscripten.clang"
  },
  "schemaVersion": "3.1.0",
  "updatedAt": "2020-06-26T16:37:43.047Z",
  "devdoc": {
    "details": "Multi-Fungible Tokens with minting and burning methods. These methods assume     a parent contract to be executed as they are `internal` functions.",
    "methods": {
      "balanceOf(address,uint256)": {
        "params": {
          "_id": "ID of the Token",
          "_owner": "The address of the token holder"
        },
        "return": "The _owner's balance of the Token type requested"
      },
      "balanceOfBatch(address[],uint256[])": {
        "params": {
          "_ids": "ID of the Tokens (sorted ids will lead to less gas usage",
          "_owners": "The addresses of the token holders (sorted owners will lead to less gas usage)"
        },
        "return": "The _owner's balance of the Token types requested (i.e. balance for each (owner, id) pair)"
      },
      "getIDBinIndex(uint256)": {
        "params": {
          "_id": "Token id"
        },
        "return": "(Bin number, ID\"s index within that bin)"
      },
      "getValueInBin(uint256,uint256)": {
        "params": {
          "_binValues": "uint256 containing the balances of IDS_PER_UINT256 ids",
          "_index": "Index at which to retrieve amount"
        },
        "return": "amount at given _index in _bin"
      },
      "isApprovedForAll(address,address)": {
        "params": {
          "_operator": "Address of authorized operator",
          "_owner": "The owner of the Tokens"
        },
        "return": "True if the operator is approved, false if not"
      },
      "safeBatchTransferFrom(address,address,uint256[],uint256[],bytes)": {
        "details": "Arrays should be sorted so that all ids in a same storage slot are adjacent (more efficient)",
        "params": {
          "_amounts": "Transfer amounts per token type",
          "_data": "Additional data with no specified format, sent in call to `_to`",
          "_from": "Source addresses",
          "_ids": "IDs of each token type",
          "_to": "Target addresses"
        }
      },
      "safeTransferFrom(address,address,uint256,uint256,bytes)": {
        "params": {
          "_amount": "Transfered amount",
          "_data": "Additional data with no specified format, sent in call to `_to`",
          "_from": "Source address",
          "_id": "ID of the token type",
          "_to": "Target address"
        }
      },
      "setApprovalForAll(address,bool)": {
        "params": {
          "_approved": "True if the operator is approved, false to revoke approval",
          "_operator": "Address to add to the set of authorized operators"
        }
      },
      "supportsInterface(bytes4)": {
        "params": {
          "_interfaceID": "The interface identifier, as specified in ERC-165"
        },
        "return": "`true` if the contract implements `_interfaceID` and"
      }
    }
  },
  "userdoc": {
    "methods": {
      "balanceOf(address,uint256)": {
        "notice": "Get the balance of an account's Tokens"
      },
      "balanceOfBatch(address[],uint256[])": {
        "notice": "Get the balance of multiple account/token pairs"
      },
      "getIDBinIndex(uint256)": {
        "notice": "Return the bin number and index within that bin where ID is"
      },
      "getValueInBin(uint256,uint256)": {
        "notice": "Return amount in _binValues at position _index"
      },
      "isApprovedForAll(address,address)": {
        "notice": "Queries the approval status of an operator for a given owner"
      },
      "safeBatchTransferFrom(address,address,uint256[],uint256[],bytes)": {
        "notice": "Send multiple types of Tokens from the _from address to the _to address (with safety call)"
      },
      "safeTransferFrom(address,address,uint256,uint256,bytes)": {
        "notice": "Transfers amount amount of an _id from the _from address to the _to address specified"
      },
      "setApprovalForAll(address,bool)": {
        "notice": "Enable or disable approval for a third party (\"operator\") to manage all of caller's tokens"
      },
      "supportsInterface(bytes4)": {
        "notice": "Query if a contract implements an interface"
      }
    }
  }
}