{
  "contractName": "ERC1155MetaPackedBalance",
  "abi": [
    {
      "anonymous": false,
      "inputs": [
        {
          "indexed": true,
          "internalType": "address",
          "name": "_owner",
          "type": "address"
        },
        {
          "indexed": true,
          "internalType": "address",
          "name": "_operator",
          "type": "address"
        },
        {
          "indexed": false,
          "internalType": "bool",
          "name": "_approved",
          "type": "bool"
        }
      ],
      "name": "ApprovalForAll",
      "type": "event"
    },
    {
      "anonymous": false,
      "inputs": [
        {
          "indexed": true,
          "internalType": "address",
          "name": "signer",
          "type": "address"
        },
        {
          "indexed": false,
          "internalType": "uint256",
          "name": "newNonce",
          "type": "uint256"
        }
      ],
      "name": "NonceChange",
      "type": "event"
    },
    {
      "anonymous": false,
      "inputs": [
        {
          "indexed": true,
          "internalType": "address",
          "name": "_operator",
          "type": "address"
        },
        {
          "indexed": true,
          "internalType": "address",
          "name": "_from",
          "type": "address"
        },
        {
          "indexed": true,
          "internalType": "address",
          "name": "_to",
          "type": "address"
        },
        {
          "indexed": false,
          "internalType": "uint256[]",
          "name": "_ids",
          "type": "uint256[]"
        },
        {
          "indexed": false,
          "internalType": "uint256[]",
          "name": "_amounts",
          "type": "uint256[]"
        }
      ],
      "name": "TransferBatch",
      "type": "event"
    },
    {
      "anonymous": false,
      "inputs": [
        {
          "indexed": true,
          "internalType": "address",
          "name": "_operator",
          "type": "address"
        },
        {
          "indexed": true,
          "internalType": "address",
          "name": "_from",
          "type": "address"
        },
        {
          "indexed": true,
          "internalType": "address",
          "name": "_to",
          "type": "address"
        },
        {
          "indexed": false,
          "internalType": "uint256",
          "name": "_id",
          "type": "uint256"
        },
        {
          "indexed": false,
          "internalType": "uint256",
          "name": "_amount",
          "type": "uint256"
        }
      ],
      "name": "TransferSingle",
      "type": "event"
    },
    {
      "anonymous": false,
      "inputs": [
        {
          "indexed": false,
          "internalType": "string",
          "name": "_amount",
          "type": "string"
        },
        {
          "indexed": true,
          "internalType": "uint256",
          "name": "_id",
          "type": "uint256"
        }
      ],
      "name": "URI",
      "type": "event"
    },
    {
      "constant": true,
      "inputs": [
        {
          "internalType": "address",
          "name": "_owner",
          "type": "address"
        },
        {
          "internalType": "uint256",
          "name": "_id",
          "type": "uint256"
        }
      ],
      "name": "balanceOf",
      "outputs": [
        {
          "internalType": "uint256",
          "name": "",
          "type": "uint256"
        }
      ],
      "payable": false,
      "stateMutability": "view",
      "type": "function"
    },
    {
      "constant": true,
      "inputs": [
        {
          "internalType": "address[]",
          "name": "_owners",
          "type": "address[]"
        },
        {
          "internalType": "uint256[]",
          "name": "_ids",
          "type": "uint256[]"
        }
      ],
      "name": "balanceOfBatch",
      "outputs": [
        {
          "internalType": "uint256[]",
          "name": "",
          "type": "uint256[]"
        }
      ],
      "payable": false,
      "stateMutability": "view",
      "type": "function"
    },
    {
      "constant": true,
      "inputs": [
        {
          "internalType": "uint256",
          "name": "_id",
          "type": "uint256"
        }
      ],
      "name": "getIDBinIndex",
      "outputs": [
        {
          "internalType": "uint256",
          "name": "bin",
          "type": "uint256"
        },
        {
          "internalType": "uint256",
          "name": "index",
          "type": "uint256"
        }
      ],
      "payable": false,
      "stateMutability": "pure",
      "type": "function"
    },
    {
      "constant": true,
      "inputs": [
        {
          "internalType": "uint256",
          "name": "_binValues",
          "type": "uint256"
        },
        {
          "internalType": "uint256",
          "name": "_index",
          "type": "uint256"
        }
      ],
      "name": "getValueInBin",
      "outputs": [
        {
          "internalType": "uint256",
          "name": "",
          "type": "uint256"
        }
      ],
      "payable": false,
      "stateMutability": "pure",
      "type": "function"
    },
    {
      "constant": true,
      "inputs": [
        {
          "internalType": "address",
          "name": "_owner",
          "type": "address"
        },
        {
          "internalType": "address",
          "name": "_operator",
          "type": "address"
        }
      ],
      "name": "isApprovedForAll",
      "outputs": [
        {
          "internalType": "bool",
          "name": "isOperator",
          "type": "bool"
        }
      ],
      "payable": false,
      "stateMutability": "view",
      "type": "function"
    },
    {
      "constant": true,
      "inputs": [
        {
          "internalType": "address",
          "name": "_signerAddress",
          "type": "address"
        },
        {
          "internalType": "bytes32",
          "name": "_hash",
          "type": "bytes32"
        },
        {
          "internalType": "bytes",
          "name": "_data",
          "type": "bytes"
        },
        {
          "internalType": "bytes",
          "name": "_sig",
          "type": "bytes"
        }
      ],
      "name": "isValidSignature",
      "outputs": [
        {
          "internalType": "bool",
          "name": "isValid",
          "type": "bool"
        }
      ],
      "payable": false,
      "stateMutability": "view",
      "type": "function"
    },
    {
      "constant": false,
      "inputs": [
        {
          "internalType": "address",
          "name": "_from",
          "type": "address"
        },
        {
          "internalType": "address",
          "name": "_to",
          "type": "address"
        },
        {
          "internalType": "uint256[]",
          "name": "_ids",
          "type": "uint256[]"
        },
        {
          "internalType": "uint256[]",
          "name": "_amounts",
          "type": "uint256[]"
        },
        {
          "internalType": "bytes",
          "name": "_data",
          "type": "bytes"
        }
      ],
      "name": "safeBatchTransferFrom",
      "outputs": [],
      "payable": false,
      "stateMutability": "nonpayable",
      "type": "function"
    },
    {
      "constant": false,
      "inputs": [
        {
          "internalType": "address",
          "name": "_from",
          "type": "address"
        },
        {
          "internalType": "address",
          "name": "_to",
          "type": "address"
        },
        {
          "internalType": "uint256",
          "name": "_id",
          "type": "uint256"
        },
        {
          "internalType": "uint256",
          "name": "_amount",
          "type": "uint256"
        },
        {
          "internalType": "bytes",
          "name": "_data",
          "type": "bytes"
        }
      ],
      "name": "safeTransferFrom",
      "outputs": [],
      "payable": false,
      "stateMutability": "nonpayable",
      "type": "function"
    },
    {
      "constant": false,
      "inputs": [
        {
          "internalType": "address",
          "name": "_operator",
          "type": "address"
        },
        {
          "internalType": "bool",
          "name": "_approved",
          "type": "bool"
        }
      ],
      "name": "setApprovalForAll",
      "outputs": [],
      "payable": false,
      "stateMutability": "nonpayable",
      "type": "function"
    },
    {
      "constant": true,
      "inputs": [
        {
          "internalType": "bytes4",
          "name": "_interfaceID",
          "type": "bytes4"
        }
      ],
      "name": "supportsInterface",
      "outputs": [
        {
          "internalType": "bool",
          "name": "",
          "type": "bool"
        }
      ],
      "payable": false,
      "stateMutability": "view",
      "type": "function"
    },
    {
      "constant": false,
      "inputs": [
        {
          "internalType": "address",
          "name": "_from",
          "type": "address"
        },
        {
          "internalType": "address",
          "name": "_to",
          "type": "address"
        },
        {
          "internalType": "uint256",
          "name": "_id",
          "type": "uint256"
        },
        {
          "internalType": "uint256",
          "name": "_amount",
          "type": "uint256"
        },
        {
          "internalType": "bool",
          "name": "_isGasFee",
          "type": "bool"
        },
        {
          "internalType": "bytes",
          "name": "_data",
          "type": "bytes"
        }
      ],
      "name": "metaSafeTransferFrom",
      "outputs": [],
      "payable": false,
      "stateMutability": "nonpayable",
      "type": "function"
    },
    {
      "constant": false,
      "inputs": [
        {
          "internalType": "address",
          "name": "_from",
          "type": "address"
        },
        {
          "internalType": "address",
          "name": "_to",
          "type": "address"
        },
        {
          "internalType": "uint256[]",
          "name": "_ids",
          "type": "uint256[]"
        },
        {
          "internalType": "uint256[]",
          "name": "_amounts",
          "type": "uint256[]"
        },
        {
          "internalType": "bool",
          "name": "_isGasFee",
          "type": "bool"
        },
        {
          "internalType": "bytes",
          "name": "_data",
          "type": "bytes"
        }
      ],
      "name": "metaSafeBatchTransferFrom",
      "outputs": [],
      "payable": false,
      "stateMutability": "nonpayable",
      "type": "function"
    },
    {
      "constant": false,
      "inputs": [
        {
          "internalType": "address",
          "name": "_owner",
          "type": "address"
        },
        {
          "internalType": "address",
          "name": "_operator",
          "type": "address"
        },
        {
          "internalType": "bool",
          "name": "_approved",
          "type": "bool"
        },
        {
          "internalType": "bool",
          "name": "_isGasFee",
          "type": "bool"
        },
        {
          "internalType": "bytes",
          "name": "_data",
          "type": "bytes"
        }
      ],
      "name": "metaSetApprovalForAll",
      "outputs": [],
      "payable": false,
      "stateMutability": "nonpayable",
      "type": "function"
    },
    {
      "constant": true,
      "inputs": [
        {
          "internalType": "address",
          "name": "_signer",
          "type": "address"
        }
      ],
      "name": "getNonce",
      "outputs": [
        {
          "internalType": "uint256",
          "name": "nonce",
          "type": "uint256"
        }
      ],
      "payable": false,
      "stateMutability": "view",
      "type": "function"
    }
  ],
  "bytecode": "0x608060405234801561001057600080fd5b50613204806100206000396000f3fe608060405234801561001057600080fd5b50600436106100e95760003560e01c8063ce0b514b1161008c578063eaec5f8111610066578063eaec5f81146101ec578063f242432a146101ff578063f5d4c82014610212578063fa4e12d714610225576100e9565b8063ce0b514b146101a5578063db90e83c146101b8578063e985e9c5146101d9576100e9565b80632eb2c2d6116100c85780632eb2c2d61461014a5780634e1273f41461015f578063a22cb4651461017f578063a3d4926e14610192576100e9565b8062fdd58e146100ee57806301ffc9a7146101175780632d0335ab14610137575b600080fd5b6101016100fc366004611ee6565b610238565b60405161010e919061303d565b60405180910390f35b61012a610125366004611f91565b610282565b60405161010e9190612d79565b610101610145366004611af5565b6102c9565b61015d610158366004611c67565b6102e4565b005b61017261016d366004611f16565b61036c565b60405161010e9190612d43565b61015d61018d366004611e27565b61054d565b61015d6101a0366004611b9b565b6105bc565b61015d6101b3366004611d78565b61070c565b6101cb6101c6366004612093565b6107c7565b60405161010e92919061304b565b61012a6101e7366004611b6b565b6107d4565b6101016101fa3660046120b1565b610802565b61015d61020d366004611dd0565b610815565b61015d610220366004611d21565b61088d565b61012a610233366004611e57565b610992565b6000806000610246846107c7565b6001600160a01b03871660009081526020818152604080832085845290915290205491935091506102779082610802565b925050505b92915050565b60006001600160e01b031982166301ffc9a760e01b14806102b357506001600160e01b03198216636cdb3d1360e11b145b156102c0575060016102c4565b5060005b919050565b6001600160a01b031660009081526002602052604090205490565b336001600160a01b0386161480610300575061030085336107d4565b6103255760405162461bcd60e51b815260040161031c90612f7d565b60405180910390fd5b6001600160a01b03841661034b5760405162461bcd60e51b815260040161031c90612ebd565b61035785858585610d78565b610365858585855a8661101c565b5050505050565b815181516060919081146103925760405162461bcd60e51b815260040161031c90612ead565b6000806103b2856000815181106103a557fe5b60200260200101516107c7565b915091506000806000886000815181106103c857fe5b60200260200101516001600160a01b03166001600160a01b0316815260200190815260200160002060008481526020019081526020016000205490506000839050606085604051908082528060200260200182016040528015610435578160200160208202803883390190505b5090506104428385610802565b8160008151811061044f57fe5b602090810291909101015260015b86811015610540576104748982815181106103a557fe5b909650945082861415806104c3575089818151811061048f57fe5b60200260200101516001600160a01b03168a60018303815181106104af57fe5b60200260200101516001600160a01b031614155b15610517576000808b83815181106104d757fe5b60200260200101516001600160a01b03166001600160a01b0316815260200190815260200160002060008781526020019081526020016000205493508592505b6105218486610802565b82828151811061052d57fe5b602090810291909101015260010161045d565b5098975050505050505050565b3360008181526001602090815260408083206001600160a01b038716808552925291829020805460ff191685151517905590519091907f17307eab39ab6107e8899845ad3d59bd9653f200f220920489ca2b5937696c31906105b0908590612d79565b60405180910390a35050565b6001600160a01b0385166105e25760405162461bcd60e51b815260040161031c90612fdd565b60606105ec611862565b606061069f89857fa3d4926e8cf8fe8e020cd29f514c256bc2eec62aa2337e415f1a33a4828af5a060001b8c8c8c60405160200161062a9190612b94565b604051602081830303815290604052805190602001208c6040516020016106519190612b94565b604051602081830303815290604052805190602001208c610673576000610676565b60015b60405160200161068b96959493929190612da2565b6040516020818303038152906040526110ef565b90506106ad89898989610d78565b84156106f357808060200190516106c7919081019061205e565b60208201519094509092506106e4908a908a908a908a908661101c565b6106ee8983611259565b610701565b610701898989895a8661101c565b505050505050505050565b6001600160a01b0385166107325760405162461bcd60e51b815260040161031c90612fad565b606061073c611862565b606061077489857fce0b514b3931bdbe4d5d44e4f035afe7113767b7db71949271f6a62d9c60f558828c8c8c8c610673576000610676565b905061078289898989611468565b84156107b9578080602001905161079c919081019061205e565b60208201519094509092506106e4908a908a908a908a90866114df565b610701898989895a866114df565b6008810491600790911690565b6001600160a01b03918216600090815260016020908152604080832093909416825291909152205460ff1690565b6020810282901c63ffffffff1692915050565b336001600160a01b0386161480610831575061083185336107d4565b61084d5760405162461bcd60e51b815260040161031c90612f2d565b6001600160a01b0384166108735760405162461bcd60e51b815260040161031c90612fed565b61087f85858585611468565b610365858585855a866114df565b60606108e986837ff5d4c820494c8595de274c7ff619bead38aac4fbc3d143b5bf956aa4b84fa5248289896108c35760006108c6565b60015b896108d25760006108d5565b60015b60405160200161068b959493929190612df1565b6001600160a01b038781166000818152600160209081526040808320948b168084529490915290819020805460ff19168915151790555192935090917f17307eab39ab6107e8899845ad3d59bd9653f200f220920489ca2b5937696c3190610952908890612d79565b60405180910390a3821561098a57610968611862565b8180602001905161097c919081019061202a565b90506109888782611259565b505b505050505050565b6000808251116109b45760405162461bcd60e51b815260040161031c90612fcd565b6001600160a01b0385166109da5760405162461bcd60e51b815260040161031c90612f9d565b60006109e5836115b2565b60f81c905060058110610a0a5760405162461bcd60e51b815260040161031c90612f0d565b60008160ff166005811115610a1b57fe5b9050600080808080856005811115610a2f57fe5b1415610a4d5760405162461bcd60e51b815260040161031c90612f3d565b6001856005811115610a5b57fe5b1415610b31578751606114610a825760405162461bcd60e51b815260040161031c90612f6d565b610a9388600063ffffffff61160016565b9250610aa688602063ffffffff61160016565b915087604081518110610ab557fe5b602001015160f81c60f81b60f81c935060018a85858560405160008152602001604052604051610ae89493929190612e53565b6020604051602081039080840390855afa158015610b0a573d6000803e3d6000fd5b5050604051601f1901516001600160a01b038d81169116149750610d709650505050505050565b6002856005811115610b3f57fe5b1415610bf2578751606114610b665760405162461bcd60e51b815260040161031c90612f6d565b610b7788600063ffffffff61160016565b9250610b8a88602063ffffffff61160016565b915087604081518110610b9957fe5b602001015160f81c60f81b60f81c935060018a604051602001610bbc9190612c04565b6040516020818303038152906040528051906020012085858560405160008152602001604052604051610ae89493929190612e53565b6003856005811115610c0057fe5b1415610ca5576040516320c13b0b60e01b81526001600160a01b038c16906320c13b0b90610c34908c908c90600401612e88565b60206040518083038186803b158015610c4c57600080fd5b505afa158015610c60573d6000803e3d6000fd5b505050506040513d601f19601f82011682018060405250610c849190810190611faf565b6001600160e01b0319166320c13b0b60e01b149650610d7095505050505050565b6004856005811115610cb357fe5b1415610d5857604051630b135d3f60e11b81526001600160a01b038c1690631626ba7e90610ce7908d908c90600401612e33565b60206040518083038186803b158015610cff57600080fd5b505afa158015610d13573d6000803e3d6000fd5b505050506040513d601f19601f82011682018060405250610d379190810190611faf565b6001600160e01b031916630b135d3f60e11b149650610d7095505050505050565b60405162461bcd60e51b815260040161031c90612f0d565b949350505050565b815181518114610d9a5760405162461bcd60e51b815260040161031c90612f4d565b836001600160a01b0316856001600160a01b031614158015610dbc5750600081115b15610f5a57600080610dd4856000815181106103a557fe5b6001600160a01b038916600090815260208181526040808320858452909152812054875193955091935091610e1f9190849088908590610e1057fe5b6020026020010151600161162f565b6001600160a01b03881660009081526020818152604080832087845290915281205487519293509091610e689190859089908590610e5957fe5b6020026020010151600061162f565b90508360015b86811015610f1557610e858982815181106103a557fe5b9096509450818614610ee7576001600160a01b038b811660009081526020818152604080832086845280835281842098909855928d16825281815282822094825284815282822095909555878152948452808520549290935291909220549084905b610ef884868a8481518110610e1057fe5b9350610f0b83868a8481518110610e5957fe5b9250600101610e6e565b50506001600160a01b03808a16600090815260208181526040808320888452825280832095909555918a16815280825283812095815294905292209190915550610fbe565b60005b81811015610fbc57828181518110610f7157fe5b6020026020010151610f9687868481518110610f8957fe5b6020026020010151610238565b1015610fb45760405162461bcd60e51b815260040161031c90612f8d565b600101610f5d565b505b836001600160a01b0316856001600160a01b0316336001600160a01b03167f4a39dc06d4c0dbc64b70af90fd698a233a518aa5d07e595d983b8c0526c8f7fb868660405161100d929190612d54565b60405180910390a45050505050565b61102e856001600160a01b0316611725565b1561098a576000856001600160a01b031663bc197c8184338a8989886040518763ffffffff1660e01b815260040161106a959493929190612c24565b602060405180830381600088803b15801561108457600080fd5b5087f1158015611098573d6000803e3d6000fd5b50505050506040513d601f19601f820116820180604052506110bd9190810190611faf565b90506001600160e01b0319811663bc197c8160e01b146109885760405162461bcd60e51b815260040161031c90612f5d565b606080838060200190516111069190810190611fcd565b6001600160a01b0387166000908152600260205260408120549194509192509061113783604163ffffffff61160016565b905081811080159061114b57508160640181105b6111675760405162461bcd60e51b815260040161031c90612eed565b60006111a38683878051906020012060405160200161118893929190612ba0565b6040516020818303038152906040528051906020012061175c565b905060608683876040516020016111bc93929190612bd3565b60408051601f198184030181528282526001600160a01b038c166000818152600260205292909220600187019081905590935090917fb861b7bdbe611a846ab271b8d2810391bc8b5a968f390c322438ecab66bccf599161121c9161303d565b60405180910390a261123089838388610992565b61124c5760405162461bcd60e51b815260040161031c90612f1d565b50505050505b9392505050565b600061126882606001516115b2565b60f81c90506002811061128d5760405162461bcd60e51b815260040161031c90612ffd565b60008160ff16600281111561129e57fe5b83516040850151919250600091829182916001600160a01b0316156112c75786604001516112c9565b335b925060008560028111156112d957fe5b14156113a55786606001518060200190516112f79190810190611b31565b90945091506001600160a01b03841630141561133b5761131988848484611468565b6113368884845a85604051806020016040528060008152506114df565b6113a0565b604051637921219560e11b81526001600160a01b0385169063f242432a9061136d908b90879087908790600401612cf3565b600060405180830381600087803b15801561138757600080fd5b505af115801561139b573d6000803e3d6000fd5b505050505b61145e565b86606001518060200190516113bd9190810190611b13565b6040516323b872dd60e01b81529094506001600160a01b038516906323b872dd906113f0908b9087908690600401612ccb565b602060405180830381600087803b15801561140a57600080fd5b505af115801561141e573d6000803e3d6000fd5b505050506040513d601f19601f820116820180604052506114429190810190611f73565b61145e5760405162461bcd60e51b815260040161031c90612ecd565b5050505050505050565b61147584838360016117f5565b61148283838360006117f5565b826001600160a01b0316846001600160a01b0316336001600160a01b03167fc3d58168c5ae7397731d063d5bbf3d657854427343f4c083240f7aacaa2d0f6285856040516114d192919061304b565b60405180910390a450505050565b6114f1856001600160a01b0316611725565b1561098a576000856001600160a01b031663f23a6e6184338a8989886040518763ffffffff1660e01b815260040161152d959493929190612c84565b602060405180830381600088803b15801561154757600080fd5b5087f115801561155b573d6000803e3d6000fd5b50505050506040513d601f19601f820116820180604052506115809190810190611faf565b90506001600160e01b0319811663f23a6e6160e01b146109885760405162461bcd60e51b815260040161031c90612fbd565b6000808251116115d45760405162461bcd60e51b815260040161031c90612edd565b816001835103815181106115e457fe5b0160200151825160001901909252506001600160f81b03191690565b600081602001835110156116265760405162461bcd60e51b815260040161031c9061300d565b50016020015190565b60006020840263ffffffff8284600181111561164757fe5b14156116a35784821b87019250868310156116745760405162461bcd60e51b815260040161031c9061302d565b64010000000087831c821686011061169e5760405162461bcd60e51b815260040161031c9061302d565b61171b565b60018460018111156116b157fe5b14156117035784821b87039250868311156116de5760405162461bcd60e51b815260040161031c90612efd565b84818389901c16101561169e5760405162461bcd60e51b815260040161031c90612efd565b60405162461bcd60e51b815260040161031c9061301d565b5050949350505050565b6000813f801580159061125257507fc5d2460186f7233c927e7db2dcc703c0e500b653ca82273b7bfad8045d85a470141592915050565b600060405180604001604052806002815260200161190160f01b8152507f035aff83d86937d35b32e04f0ddc6ff469290eef2f1b692d8a815c89404d474960001b306040516020016117af929190612d87565b60405160208183030381529060405280519060200120836040516020016117d893929190612ba0565b604051602081830303815290604052805190602001209050919050565b600080611801856107c7565b6001600160a01b03881660009081526020818152604080832085845290915290205491935091506118349082868661162f565b6001600160a01b03909616600090815260208181526040808320948352939052919091209490945550505050565b6040518060800160405280600081526020016000815260200160006001600160a01b03168152602001606081525090565b803561027c8161316f565b805161027c8161316f565b600082601f8301126118ba57600080fd5b81356118cd6118c88261308c565b613066565b915081818352602084019350602081019050838560208402820111156118f257600080fd5b60005b8381101561191e57816119088882611893565b84525060209283019291909101906001016118f5565b5050505092915050565b600082601f83011261193957600080fd5b81356119476118c88261308c565b9150818183526020840193506020810190508385602084028201111561196c57600080fd5b60005b8381101561191e578161198288826119ae565b845250602092830192919091019060010161196f565b803561027c81613186565b805161027c81613186565b803561027c8161318f565b803561027c81613198565b805161027c81613198565b600082601f8301126119e057600080fd5b81516119ee6118c8826130ac565b91508082526020830160208301858383011115611a0a57600080fd5b611a15838284613135565b50505092915050565b600082601f830112611a2f57600080fd5b8135611a3d6118c8826130ac565b91508082526020830160208301858383011115611a5957600080fd5b611a15838284613129565b600060808284031215611a7657600080fd5b611a806080613066565b90506000611a8e8484611aea565b8252506020611a9f84848301611aea565b6020830152506040611ab38482850161189e565b60408301525060608201516001600160401b03811115611ad257600080fd5b611ade848285016119cf565b60608301525092915050565b805161027c8161318f565b600060208284031215611b0757600080fd5b6000610d708484611893565b600060208284031215611b2557600080fd5b6000610d70848461189e565b60008060408385031215611b4457600080fd5b6000611b50858561189e565b9250506020611b6185828601611aea565b9150509250929050565b60008060408385031215611b7e57600080fd5b6000611b8a8585611893565b9250506020611b6185828601611893565b60008060008060008060c08789031215611bb457600080fd5b6000611bc08989611893565b9650506020611bd189828a01611893565b95505060408701356001600160401b03811115611bed57600080fd5b611bf989828a01611928565b94505060608701356001600160401b03811115611c1557600080fd5b611c2189828a01611928565b9350506080611c3289828a01611998565b92505060a08701356001600160401b03811115611c4e57600080fd5b611c5a89828a01611a1e565b9150509295509295509295565b600080600080600060a08688031215611c7f57600080fd5b6000611c8b8888611893565b9550506020611c9c88828901611893565b94505060408601356001600160401b03811115611cb857600080fd5b611cc488828901611928565b93505060608601356001600160401b03811115611ce057600080fd5b611cec88828901611928565b92505060808601356001600160401b03811115611d0857600080fd5b611d1488828901611a1e565b9150509295509295909350565b600080600080600060a08688031215611d3957600080fd5b6000611d458888611893565b9550506020611d5688828901611893565b9450506040611d6788828901611998565b9350506060611cec88828901611998565b60008060008060008060c08789031215611d9157600080fd5b6000611d9d8989611893565b9650506020611dae89828a01611893565b9550506040611dbf89828a016119ae565b9450506060611c2189828a016119ae565b600080600080600060a08688031215611de857600080fd5b6000611df48888611893565b9550506020611e0588828901611893565b9450506040611e16888289016119ae565b9350506060611cec888289016119ae565b60008060408385031215611e3a57600080fd5b6000611e468585611893565b9250506020611b6185828601611998565b60008060008060808587031215611e6d57600080fd5b6000611e798787611893565b9450506020611e8a878288016119ae565b93505060408501356001600160401b03811115611ea657600080fd5b611eb287828801611a1e565b92505060608501356001600160401b03811115611ece57600080fd5b611eda87828801611a1e565b91505092959194509250565b60008060408385031215611ef957600080fd5b6000611f058585611893565b9250506020611b61858286016119ae565b60008060408385031215611f2957600080fd5b82356001600160401b03811115611f3f57600080fd5b611f4b858286016118a9565b92505060208301356001600160401b03811115611f6757600080fd5b611b6185828601611928565b600060208284031215611f8557600080fd5b6000610d7084846119a3565b600060208284031215611fa357600080fd5b6000610d7084846119b9565b600060208284031215611fc157600080fd5b6000610d7084846119c4565b60008060408385031215611fe057600080fd5b82516001600160401b03811115611ff657600080fd5b612002858286016119cf565b92505060208301516001600160401b0381111561201e57600080fd5b611b61858286016119cf565b60006020828403121561203c57600080fd5b81516001600160401b0381111561205257600080fd5b610d7084828501611a64565b6000806040838503121561207157600080fd5b82516001600160401b0381111561208757600080fd5b61200285828601611a64565b6000602082840312156120a557600080fd5b6000610d7084846119ae565b600080604083850312156120c457600080fd5b6000611f0585856119ae565b60006120dc83836121ac565b505060200190565b6120ed81613118565b82525050565b6120ed816130e6565b6000612107826130d9565b61211181856130dd565b935061211c836130d3565b8060005b8381101561214a57815161213488826120d0565b975061213f836130d3565b925050600101612120565b509495945050505050565b6000612160826130d9565b61216a81856102c4565b9350612175836130d3565b8060005b8381101561214a57815161218d88826120d0565b9750612198836130d3565b925050600101612179565b6120ed816130f1565b6120ed816130f6565b6120ed6121c1826130f6565b6130f6565b60006121d1826130d9565b6121db81856130dd565b93506121eb818560208601613135565b6121f481613165565b9093019392505050565b6000612209826130d9565b61221381856102c4565b9350612223818560208601613135565b9290920192915050565b600061223a6039836130dd565b7f455243313135355061636b656442616c616e63652362616c616e63654f66426181527f7463683a20494e56414c49445f41525241595f4c454e47544800000000000000602082015260400192915050565b6000612299601c836102c4565b7f19457468657265756d205369676e6564204d6573736167653a0a3332000000008152601c0192915050565b60006122d2603d836130dd565b7f455243313135355061636b656442616c616e636523736166654261746368547281527f616e7366657246726f6d3a20494e56414c49445f524543495049454e54000000602082015260400192915050565b6000612331603f836130dd565b7f455243313135354d6574615061636b656442616c616e6365235f7472616e736681527f65724761734665653a2045524332305f5452414e534645525f4641494c454400602082015260400192915050565b60006123906037836130dd565b7f4c6962427974657323706f704c617374427974653a20475245415445525f544881527f414e5f5a45524f5f4c454e4754485f5245515549524544000000000000000000602082015260400192915050565b60006123ef603c836130dd565b7f455243313135354d6574615061636b656442616c616e6365235f7369676e617481527f75726556616c69646174696f6e3a20494e56414c49445f4e4f4e434500000000602082015260400192915050565b600061244e6033836130dd565b7f455243313135355061636b656442616c616e6365235f7669657755706461746581527242696e56616c75653a20554e444552464c4f5760681b602082015260400192915050565b60006124a3603a836130dd565b6000805160206131a283398151915281527f7572653a20554e535550504f525445445f5349474e4154555245000000000000602082015260400192915050565b60006124f06040836130dd565b7f455243313135354d6574615061636b656442616c616e6365235f7369676e617481527f75726556616c69646174696f6e3a20494e56414c49445f5349474e4154555245602082015260400192915050565b600061254f6037836130dd565b7f455243313135355061636b656442616c616e636523736166655472616e73666581527f7246726f6d3a20494e56414c49445f4f50455241544f52000000000000000000602082015260400192915050565b60006125ae6036836130dd565b6000805160206131a28339815191528152757572653a20494c4c4547414c5f5349474e415455524560501b602082015260400192915050565b60006125f46042836130dd565b7f455243313135355061636b656442616c616e6365235f7361666542617463685481527f72616e7366657246726f6d3a20494e56414c49445f4152524159535f4c454e476020820152610a8960f31b604082015260600192915050565b600061265e604c836130dd565b7f455243313135355061636b656442616c616e6365235f63616c6c6f6e4552433181527f313535426174636852656365697665643a20494e56414c49445f4f4e5f52454360208201526b454956455f4d45535341474560a01b604082015260600192915050565b60006126d26037836130dd565b6000805160206131a283398151915281527f7572653a204c454e4754485f39375f5245515549524544000000000000000000602082015260400192915050565b600061271f603c836130dd565b7f455243313135355061636b656442616c616e636523736166654261746368547281527f616e7366657246726f6d3a20494e56414c49445f4f50455241544f5200000000602082015260400192915050565b600061277e6036836130dd565b7f455243313135355061636b656442616c616e6365235f7361666542617463685481527572616e7366657246726f6d3a20554e444552464c4f5760501b602082015260400192915050565b60006127d66033836130dd565b6000805160206131a28339815191528152723ab9329d1024a72b20a624a22fa9a4a3a722a960691b602082015260400192915050565b60006128196040836130dd565b7f455243313135354d6574615061636b656442616c616e6365236d65746153616681527f655472616e7366657246726f6d3a20494e56414c49445f524543495049454e54602082015260400192915050565b60006128786047836130dd565b7f455243313135355061636b656442616c616e6365235f63616c6c6f6e4552433181527f31353552656365697665643a20494e56414c49445f4f4e5f524543454956455f6020820152664d45535341474560c81b604082015260600192915050565b60006128e76043836130dd565b6000805160206131a283398151915281527f7572653a204c454e4754485f475245415445525f5448414e5f305f524551554960208201526214915160ea1b604082015260600192915050565b60006129406045836130dd565b7f455243313135354d6574615061636b656442616c616e6365236d65746153616681527f6542617463685472616e7366657246726f6d3a20494e56414c49445f52454349602082015264141251539560da1b604082015260600192915050565b600061027c6000836130dd565b60006129ba6038836130dd565b7f455243313135355061636b656442616c616e636523736166655472616e73666581527f7246726f6d3a20494e56414c49445f524543495049454e540000000000000000602082015260400192915050565b6000612a19603b836130dd565b7f455243313135354d6574615061636b656442616c616e6365235f7472616e736681527f65724761734665653a20554e535550504f525445445f544f4b454e0000000000602082015260400192915050565b6000612a78603c836130dd565b7f4c696242797465732372656164427974657333323a20475245415445525f4f5281527f5f455155414c5f544f5f33325f4c454e4754485f524551554952454400000000602082015260400192915050565b6000612ad76045836130dd565b7f455243313135355061636b656442616c616e6365235f7669657755706461746581527f42696e56616c75653a20494e56414c49445f42494e5f57524954455f4f50455260208201526420aa24a7a760d91b604082015260600192915050565b6000612b446032836130dd565b7f455243313135355061636b656442616c616e6365235f7669657755706461746581527142696e56616c75653a204f564552464c4f5760701b602082015260400192915050565b6120ed81613112565b60006112528284612155565b6000612bac82866121fe565b9150612bb882856121b5565b602082019150612bc882846121b5565b506020019392505050565b6000612bdf82866121fe565b9150612beb82856121b5565b602082019150612bfb82846121fe565b95945050505050565b6000612c0f8261228c565b9150612c1b82846121b5565b50602001919050565b60a08101612c3282886120e4565b612c3f60208301876120f3565b8181036040830152612c5181866120fc565b90508181036060830152612c6581856120fc565b90508181036080830152612c7981846121c6565b979650505050505050565b60a08101612c9282886120e4565b612c9f60208301876120f3565b612cac60408301866121ac565b612cb960608301856121ac565b8181036080830152612c7981846121c6565b60608101612cd982866120f3565b612ce660208301856120f3565b610d7060408301846121ac565b60a08101612d0182876120f3565b612d0e60208301866120f3565b612d1b60408301856121ac565b612d2860608301846121ac565b8181036080830152612d39816129a0565b9695505050505050565b6020808252810161125281846120fc565b60408082528101612d6581856120fc565b90508181036020830152610d7081846120fc565b6020810161027c82846121a3565b60408101612d9582856121ac565b61125260208301846120f3565b60c08101612db082896121ac565b612dbd60208301886120f3565b612dca60408301876120f3565b612dd760608301866121ac565b612de460808301856121ac565b612c7960a08301846121ac565b60a08101612dff82886121ac565b612e0c60208301876120f3565b612e1960408301866120f3565b612e2660608301856121ac565b612d3960808301846121ac565b60408101612e4182856121ac565b8181036020830152610d7081846121c6565b60808101612e6182876121ac565b612e6e6020830186612b8b565b612e7b60408301856121ac565b612bfb60608301846121ac565b60408082528101612e9981856121c6565b90508181036020830152610d7081846121c6565b6020808252810161027c8161222d565b6020808252810161027c816122c5565b6020808252810161027c81612324565b6020808252810161027c81612383565b6020808252810161027c816123e2565b6020808252810161027c81612441565b6020808252810161027c81612496565b6020808252810161027c816124e3565b6020808252810161027c81612542565b6020808252810161027c816125a1565b6020808252810161027c816125e7565b6020808252810161027c81612651565b6020808252810161027c816126c5565b6020808252810161027c81612712565b6020808252810161027c81612771565b6020808252810161027c816127c9565b6020808252810161027c8161280c565b6020808252810161027c8161286b565b6020808252810161027c816128da565b6020808252810161027c81612933565b6020808252810161027c816129ad565b6020808252810161027c81612a0c565b6020808252810161027c81612a6b565b6020808252810161027c81612aca565b6020808252810161027c81612b37565b6020810161027c82846121ac565b6040810161305982856121ac565b61125260208301846121ac565b6040518181016001600160401b038111828210171561308457600080fd5b604052919050565b60006001600160401b038211156130a257600080fd5b5060209081020190565b60006001600160401b038211156130c257600080fd5b506020601f91909101601f19160190565b60200190565b5190565b90815260200190565b600061027c82613106565b151590565b90565b6001600160e01b03191690565b6001600160a01b031690565b60ff1690565b600061027c82600061027c826130e6565b82818337506000910152565b60005b83811015613150578181015183820152602001613138565b8381111561315f576000848401525b50505050565b601f01601f191690565b613178816130e6565b811461318357600080fd5b50565b613178816130f1565b613178816130f6565b613178816130f956fe5369676e617475726556616c696461746f7223697356616c69645369676e6174a365627a7a7231582014abd526ca4904619e66d62fa5249abec031209b8c05cfc924fc09b2c738df8c6c6578706572696d656e74616cf564736f6c63430005100040",
  "source": "pragma solidity ^0.5.16;\npragma experimental ABIEncoderV2;\n\nimport \"./ERC1155PackedBalance.sol\";\nimport \"../../interfaces/IERC20.sol\";\nimport \"../../interfaces/IERC1155.sol\";\nimport \"../../utils/LibBytes.sol\";\nimport \"../../utils/SignatureValidator.sol\";\n\n\n/**\n * @dev ERC-1155 with native metatransaction methods. These additional functions allow users\n *      to presign function calls and allow third parties to execute these on their behalf\n *\n * Note: This contract is identical to the ERC1155Meta.sol contract,\n *       except for the ERC1155PackedBalance parent contract.\n */\ncontract ERC1155MetaPackedBalance is ERC1155PackedBalance, SignatureValidator {\n  using LibBytes for bytes;\n\n  /***********************************|\n  |       Variables and Structs       |\n  |__________________________________*/\n\n  /**\n   * Gas Receipt\n   *   feeTokenData : (bool, address, ?unit256)\n   *     1st element should be the address of the token\n   *     2nd argument (if ERC-1155) should be the ID of the token\n   *     Last element should be a 0x0 if ERC-20 and 0x1 for ERC-1155\n   */\n  struct GasReceipt {\n    uint256 gasFee;           // Fixed cost for the tx\n    uint256 gasLimitCallback; // Maximum amount of gas the callback in transfer functions can use\n    address feeRecipient;     // Address to send payment to\n    bytes feeTokenData;       // Data for token to pay for gas\n  }\n\n  // Which token standard is used to pay gas fee\n  enum FeeTokenType {\n    ERC1155,    // 0x00, ERC-1155 token - DEFAULT\n    ERC20,      // 0x01, ERC-20 token\n    NTypes      // 0x02, number of signature types. Always leave at end.\n  }\n\n  // Signature nonce per address\n  mapping (address => uint256) internal nonces;\n\n\n  /***********************************|\n  |               Events              |\n  |__________________________________*/\n\n  event NonceChange(address indexed signer, uint256 newNonce);\n\n\n  /****************************************|\n  |     Public Meta Transfer Functions     |\n  |_______________________________________*/\n\n  /**\n   * @notice Allows anyone with a valid signature to transfer _amount amount of a token _id on the bahalf of _from\n   * @param _from     Source address\n   * @param _to       Target address\n   * @param _id       ID of the token type\n   * @param _amount   Transfered amount\n   * @param _isGasFee Whether gas is reimbursed to executor or not\n   * @param _data     Encodes a meta transfer indicator, signature, gas payment receipt and extra transfer data\n   *   _data should be encoded as (\n   *   (bytes32 r, bytes32 s, uint8 v, uint256 nonce, SignatureType sigType),\n   *   (GasReceipt g, ?bytes transferData)\n   * )\n   *   i.e. high level encoding should be (bytes, bytes), where the latter bytes array is a nested bytes array\n   */\n  function metaSafeTransferFrom(\n    address _from,\n    address _to,\n    uint256 _id,\n    uint256 _amount,\n    bool _isGasFee,\n    bytes memory _data)\n    public\n  {\n    require(_to != address(0), \"ERC1155MetaPackedBalance#metaSafeTransferFrom: INVALID_RECIPIENT\");\n\n    // Initializing\n    bytes memory transferData;\n    GasReceipt memory gasReceipt;\n\n    // Verify signature and extract the signed data\n    bytes memory signedData = _signatureValidation(\n      _from,\n      _data,\n      abi.encode(\n        META_TX_TYPEHASH,\n        _from, // Address as uint256\n        _to,   // Address as uint256\n        _id,\n        _amount,\n        _isGasFee ? uint256(1) : uint256(0)  // Boolean as uint256\n      )\n    );\n\n    // Transfer asset\n    _safeTransferFrom(_from, _to, _id, _amount);\n\n    // If Gas is being reimbursed\n    if (_isGasFee) {\n      (gasReceipt, transferData) = abi.decode(signedData, (GasReceipt, bytes));\n\n      // We need to somewhat protect relayers against gas griefing attacks in recipient contract.\n      // Hence we only pass the gasLimit to the recipient such that the relayer knows the griefing\n      // limit. Nothing can prevent the receiver to revert the transaction as close to the gasLimit as\n      // possible, but the relayer can now only accept meta-transaction gasLimit within a certain range.\n      _callonERC1155Received(_from, _to, _id, _amount, gasReceipt.gasLimitCallback, signedData);\n\n      // Transfer gas cost\n      _transferGasFee(_from, gasReceipt);\n\n    } else {\n      _callonERC1155Received(_from, _to, _id, _amount, gasleft(), signedData);\n    }\n  }\n\n  /**\n   * @notice Allows anyone with a valid signature to transfer multiple types of tokens on the bahalf of _from\n   * @param _from     Source addresses\n   * @param _to       Target addresses\n   * @param _ids      IDs of each token type\n   * @param _amounts  Transfer amounts per token type\n   * @param _isGasFee Whether gas is reimbursed to executor or not\n   * @param _data     Encodes a meta transfer indicator, signature, gas payment receipt and extra transfer data\n   *   _data should be encoded as (\n   *   (bytes32 r, bytes32 s, uint8 v, uint256 nonce, SignatureType sigType),\n   *   (GasReceipt g, ?bytes transferData)\n   * )\n   *   i.e. high level encoding should be (bytes, bytes), where the latter bytes array is a nested bytes array\n   */\n  function metaSafeBatchTransferFrom(\n    address _from,\n    address _to,\n    uint256[] memory _ids,\n    uint256[] memory _amounts,\n    bool _isGasFee,\n    bytes memory _data)\n    public\n  {\n    require(_to != address(0), \"ERC1155MetaPackedBalance#metaSafeBatchTransferFrom: INVALID_RECIPIENT\");\n\n    // Initializing\n    bytes memory transferData;\n    GasReceipt memory gasReceipt;\n\n    // Verify signature and extract the signed data\n    bytes memory signedData = _signatureValidation(\n      _from,\n      _data,\n      abi.encode(\n        META_BATCH_TX_TYPEHASH,\n        _from, // Address as uint256\n        _to,   // Address as uint256\n        keccak256(abi.encodePacked(_ids)),\n        keccak256(abi.encodePacked(_amounts)),\n        _isGasFee ? uint256(1) : uint256(0)  // Boolean as uint256\n      )\n    );\n\n    // Transfer assets\n    _safeBatchTransferFrom(_from, _to, _ids, _amounts);\n\n    // If gas fee being reimbursed\n    if (_isGasFee) {\n      (gasReceipt, transferData) = abi.decode(signedData, (GasReceipt, bytes));\n\n      // We need to somewhat protect relayers against gas griefing attacks in recipient contract.\n      // Hence we only pass the gasLimit to the recipient such that the relayer knows the griefing\n      // limit. Nothing can prevent the receiver to revert the transaction as close to the gasLimit as\n      // possible, but the relayer can now only accept meta-transaction gasLimit within a certain range.\n      _callonERC1155BatchReceived(_from, _to, _ids, _amounts, gasReceipt.gasLimitCallback, signedData);\n\n      // Handle gas reimbursement\n      _transferGasFee(_from, gasReceipt);\n\n    } else {\n      _callonERC1155BatchReceived(_from, _to, _ids, _amounts, gasleft(), signedData);\n    }\n  }\n\n\n  /***********************************|\n  |         Operator Functions        |\n  |__________________________________*/\n\n  /**\n   * @notice Approve the passed address to spend on behalf of _from if valid signature is provided\n   * @param _owner     Address that wants to set operator status  _spender\n   * @param _operator  Address to add to the set of authorized operators\n   * @param _approved  True if the operator is approved, false to revoke approval\n   * @param _isGasFee  Whether gas will be reimbursed or not, with vlid signature\n   * @param _data      Encodes signature and gas payment receipt\n   *   _data should be encoded as (\n   *     (bytes32 r, bytes32 s, uint8 v, uint256 nonce, SignatureType sigType),\n   *     (GasReceipt g)\n   *   )\n   *   i.e. high level encoding should be (bytes, bytes), where the latter bytes array is a nested bytes array\n   */\n  function metaSetApprovalForAll(\n    address _owner,\n    address _operator,\n    bool _approved,\n    bool _isGasFee,\n    bytes memory _data)\n    public\n  {\n    // Verify signature and extract the signed data\n    bytes memory signedData = _signatureValidation(\n      _owner,\n      _data,\n      abi.encode(\n        META_APPROVAL_TYPEHASH,\n        _owner,                              // Address as uint256\n        _operator,                           // Address as uint256\n        _approved ? uint256(1) : uint256(0), // Boolean as uint256\n        _isGasFee ? uint256(1) : uint256(0)  // Boolean as uint256\n      )\n    );\n\n    // Update operator status\n    operators[_owner][_operator] = _approved;\n\n    // Emit event\n    emit ApprovalForAll(_owner, _operator, _approved);\n\n    // Handle gas reimbursement\n    if (_isGasFee) {\n      GasReceipt memory gasReceipt = abi.decode(signedData, (GasReceipt));\n      _transferGasFee(_owner, gasReceipt);\n    }\n  }\n\n\n\n  /****************************************|\n  |      Signature Validation Functions     |\n  |_______________________________________*/\n\n  // keccak256(\n  //   \"metaSafeTransferFrom(address,address,uint256,uint256,bool,bytes)\"\n  // );\n  bytes32 internal constant META_TX_TYPEHASH = 0xce0b514b3931bdbe4d5d44e4f035afe7113767b7db71949271f6a62d9c60f558;\n\n  // keccak256(\n  //   \"metaSafeBatchTransferFrom(address,address,uint256[],uint256[],bool,bytes)\"\n  // );\n  bytes32 internal constant META_BATCH_TX_TYPEHASH = 0xa3d4926e8cf8fe8e020cd29f514c256bc2eec62aa2337e415f1a33a4828af5a0;\n\n  // keccak256(\n  //   \"metaSetApprovalForAll(address,address,bool,bool,bytes)\"\n  // );\n  bytes32 internal constant META_APPROVAL_TYPEHASH = 0xf5d4c820494c8595de274c7ff619bead38aac4fbc3d143b5bf956aa4b84fa524;\n\n  /**\n   * @notice Verifies signatures for this contract\n   * @param _signer     Address of signer\n   * @param _sigData    Encodes signature, gas payment receipt and transfer data (if any)\n   * @param _encMembers Encoded EIP-712 type members (except nonce and _data), all need to be 32 bytes size\n   * @dev _data should be encoded as (\n   *   (bytes32 r, bytes32 s, uint8 v, uint256 nonce, SignatureType sigType),\n   *   (GasReceipt g, ?bytes transferData)\n   * )\n   *   i.e. high level encoding should be (bytes, bytes), where the latter bytes array is a nested bytes array\n   * @dev A valid nonce is a nonce that is within 100 value from the current nonce\n   */\n  function _signatureValidation(\n    address _signer,\n    bytes memory _sigData,\n    bytes memory _encMembers)\n    internal returns (bytes memory signedData)\n  {\n    bytes memory sig;\n\n    // Get signature and data to sign\n    (sig, signedData) = abi.decode(_sigData, (bytes, bytes));\n\n    // Get current nonce and nonce used for signature\n    uint256 currentNonce = nonces[_signer];        // Lowest valid nonce for signer\n    uint256 nonce = uint256(sig.readBytes32(65));  // Nonce passed in the signature object\n\n    // Verify if nonce is valid\n    require(\n      (nonce >= currentNonce) && (nonce < (currentNonce + 100)),\n      \"ERC1155MetaPackedBalance#_signatureValidation: INVALID_NONCE\"\n    );\n\n    // Take hash of bytes arrays\n    bytes32 hash = hashEIP712Message(keccak256(abi.encodePacked(_encMembers, nonce, keccak256(signedData))));\n\n    // Complete data to pass to signer verifier\n    bytes memory fullData = abi.encodePacked(_encMembers, nonce, signedData);\n\n    //Update signature nonce\n    nonces[_signer] = nonce + 1;\n    emit NonceChange(_signer, nonce + 1);\n\n    // Verify if _from is the signer\n    require(isValidSignature(_signer, hash, fullData, sig), \"ERC1155MetaPackedBalance#_signatureValidation: INVALID_SIGNATURE\");\n    return signedData;\n  }\n\n  /**\n   * @notice Returns the current nonce associated with a given address\n   * @param _signer Address to query signature nonce for\n   */\n  function getNonce(address _signer)\n    public view returns (uint256 nonce)\n  {\n    return nonces[_signer];\n  }\n\n\n  /***********************************|\n  |    Gas Reimbursement Functions    |\n  |__________________________________*/\n\n  /**\n   * @notice Will reimburse tx.origin or fee recipient for the gas spent execution a transaction\n   *         Can reimbuse in any ERC-20 or ERC-1155 token\n   * @param _from  Address from which the payment will be made from\n   * @param _g     GasReceipt object that contains gas reimbursement information\n   */\n  function _transferGasFee(address _from, GasReceipt memory _g)\n      internal\n  {\n    // Pop last byte to get token fee type\n    uint8 feeTokenTypeRaw = uint8(_g.feeTokenData.popLastByte());\n\n    // Ensure valid fee token type\n    require(\n      feeTokenTypeRaw < uint8(FeeTokenType.NTypes),\n      \"ERC1155MetaPackedBalance#_transferGasFee: UNSUPPORTED_TOKEN\"\n    );\n\n    // Convert to FeeTokenType corresponding value\n    FeeTokenType feeTokenType = FeeTokenType(feeTokenTypeRaw);\n\n    // Declarations\n    address tokenAddress;\n    address feeRecipient;\n    uint256 tokenID;\n    uint256 fee = _g.gasFee;\n\n    // If receiver is 0x0, then anyone can claim, otherwise, refund addresse provided\n    feeRecipient = _g.feeRecipient == address(0) ? msg.sender : _g.feeRecipient;\n\n    // Fee token is ERC1155\n    if (feeTokenType == FeeTokenType.ERC1155) {\n      (tokenAddress, tokenID) = abi.decode(_g.feeTokenData, (address, uint256));\n\n      // Fee is paid from this ERC1155 contract\n      if (tokenAddress == address(this)) {\n        _safeTransferFrom(_from, feeRecipient, tokenID, fee);\n\n        // No need to protect against griefing since recipient (if contract) is most likely owned by the relayer\n        _callonERC1155Received(_from, feeRecipient, tokenID, gasleft(), fee, \"\");\n\n      // Fee is paid from another ERC-1155 contract\n      } else {\n        IERC1155(tokenAddress).safeTransferFrom(_from, feeRecipient, tokenID, fee, \"\");\n      }\n\n    // Fee token is ERC20\n    } else {\n      tokenAddress = abi.decode(_g.feeTokenData, (address));\n      require(\n        IERC20(tokenAddress).transferFrom(_from, feeRecipient, fee),\n        \"ERC1155MetaPackedBalance#_transferGasFee: ERC20_TRANSFER_FAILED\"\n      );\n    }\n  }\n}",
  "sourcePath": "multi-token-standard/contracts/tokens/ERC1155PackedBalance/ERC1155MetaPackedBalance.sol",
  "compiler": {
    "name": "solc",
    "version": "0.5.16+commit.9c3226ce.Emscripten.clang"
  },
  "schemaVersion": "3.1.0",
  "updatedAt": "2020-06-26T16:37:43.041Z",
  "devdoc": {
    "details": "ERC-1155 with native metatransaction methods. These additional functions allow users     to presign function calls and allow third parties to execute these on their behalf * Note: This contract is identical to the ERC1155Meta.sol contract,      except for the ERC1155PackedBalance parent contract.",
    "methods": {
      "balanceOf(address,uint256)": {
        "params": {
          "_id": "ID of the Token",
          "_owner": "The address of the token holder"
        },
        "return": "The _owner's balance of the Token type requested"
      },
      "balanceOfBatch(address[],uint256[])": {
        "params": {
          "_ids": "ID of the Tokens (sorted ids will lead to less gas usage",
          "_owners": "The addresses of the token holders (sorted owners will lead to less gas usage)"
        },
        "return": "The _owner's balance of the Token types requested (i.e. balance for each (owner, id) pair)"
      },
      "getIDBinIndex(uint256)": {
        "params": {
          "_id": "Token id"
        },
        "return": "(Bin number, ID\"s index within that bin)"
      },
      "getNonce(address)": {
        "params": {
          "_signer": "Address to query signature nonce for"
        }
      },
      "getValueInBin(uint256,uint256)": {
        "params": {
          "_binValues": "uint256 containing the balances of IDS_PER_UINT256 ids",
          "_index": "Index at which to retrieve amount"
        },
        "return": "amount at given _index in _bin"
      },
      "isApprovedForAll(address,address)": {
        "params": {
          "_operator": "Address of authorized operator",
          "_owner": "The owner of the Tokens"
        },
        "return": "True if the operator is approved, false if not"
      },
      "isValidSignature(address,bytes32,bytes,bytes)": {
        "details": "Verifies that a hash has been signed by the given signer.",
        "params": {
          "_data": "Full EIP-712 data structure that was hashed and signed",
          "_hash": "Hash of the EIP-712 encoded data",
          "_sig": "Proof that the hash has been signed by signer.     For non wallet signatures, _sig is expected to be an array tightly encoded as     (bytes32 r, bytes32 s, uint8 v, uint256 nonce, SignatureType sigType)",
          "_signerAddress": "Address that should have signed the given hash."
        },
        "return": "True if the address recovered from the provided signature matches the input signer address."
      },
      "metaSafeBatchTransferFrom(address,address,uint256[],uint256[],bool,bytes)": {
        "params": {
          "_amounts": "Transfer amounts per token type",
          "_data": "Encodes a meta transfer indicator, signature, gas payment receipt and extra transfer data  _data should be encoded as (  (bytes32 r, bytes32 s, uint8 v, uint256 nonce, SignatureType sigType),  (GasReceipt g, ?bytes transferData) )  i.e. high level encoding should be (bytes, bytes), where the latter bytes array is a nested bytes array",
          "_from": "Source addresses",
          "_ids": "IDs of each token type",
          "_isGasFee": "Whether gas is reimbursed to executor or not",
          "_to": "Target addresses"
        }
      },
      "metaSafeTransferFrom(address,address,uint256,uint256,bool,bytes)": {
        "params": {
          "_amount": "Transfered amount",
          "_data": "Encodes a meta transfer indicator, signature, gas payment receipt and extra transfer data  _data should be encoded as (  (bytes32 r, bytes32 s, uint8 v, uint256 nonce, SignatureType sigType),  (GasReceipt g, ?bytes transferData) )  i.e. high level encoding should be (bytes, bytes), where the latter bytes array is a nested bytes array",
          "_from": "Source address",
          "_id": "ID of the token type",
          "_isGasFee": "Whether gas is reimbursed to executor or not",
          "_to": "Target address"
        }
      },
      "metaSetApprovalForAll(address,address,bool,bool,bytes)": {
        "params": {
          "_approved": "True if the operator is approved, false to revoke approval",
          "_data": "Encodes signature and gas payment receipt  _data should be encoded as (    (bytes32 r, bytes32 s, uint8 v, uint256 nonce, SignatureType sigType),    (GasReceipt g)  )  i.e. high level encoding should be (bytes, bytes), where the latter bytes array is a nested bytes array",
          "_isGasFee": "Whether gas will be reimbursed or not, with vlid signature",
          "_operator": "Address to add to the set of authorized operators",
          "_owner": "Address that wants to set operator status  _spender"
        }
      },
      "safeBatchTransferFrom(address,address,uint256[],uint256[],bytes)": {
        "details": "Arrays should be sorted so that all ids in a same storage slot are adjacent (more efficient)",
        "params": {
          "_amounts": "Transfer amounts per token type",
          "_data": "Additional data with no specified format, sent in call to `_to`",
          "_from": "Source addresses",
          "_ids": "IDs of each token type",
          "_to": "Target addresses"
        }
      },
      "safeTransferFrom(address,address,uint256,uint256,bytes)": {
        "params": {
          "_amount": "Transfered amount",
          "_data": "Additional data with no specified format, sent in call to `_to`",
          "_from": "Source address",
          "_id": "ID of the token type",
          "_to": "Target address"
        }
      },
      "setApprovalForAll(address,bool)": {
        "params": {
          "_approved": "True if the operator is approved, false to revoke approval",
          "_operator": "Address to add to the set of authorized operators"
        }
      },
      "supportsInterface(bytes4)": {
        "params": {
          "_interfaceID": "The interface identifier, as specified in ERC-165"
        },
        "return": "`true` if the contract implements `_interfaceID` and"
      }
    }
  },
  "userdoc": {
    "methods": {
      "balanceOf(address,uint256)": {
        "notice": "Get the balance of an account's Tokens"
      },
      "balanceOfBatch(address[],uint256[])": {
        "notice": "Get the balance of multiple account/token pairs"
      },
      "getIDBinIndex(uint256)": {
        "notice": "Return the bin number and index within that bin where ID is"
      },
      "getNonce(address)": {
        "notice": "Returns the current nonce associated with a given address"
      },
      "getValueInBin(uint256,uint256)": {
        "notice": "Return amount in _binValues at position _index"
      },
      "isApprovedForAll(address,address)": {
        "notice": "Queries the approval status of an operator for a given owner"
      },
      "metaSafeBatchTransferFrom(address,address,uint256[],uint256[],bool,bytes)": {
        "notice": "Allows anyone with a valid signature to transfer multiple types of tokens on the bahalf of _from"
      },
      "metaSafeTransferFrom(address,address,uint256,uint256,bool,bytes)": {
        "notice": "Allows anyone with a valid signature to transfer _amount amount of a token _id on the bahalf of _from"
      },
      "metaSetApprovalForAll(address,address,bool,bool,bytes)": {
        "notice": "Approve the passed address to spend on behalf of _from if valid signature is provided"
      },
      "safeBatchTransferFrom(address,address,uint256[],uint256[],bytes)": {
        "notice": "Send multiple types of Tokens from the _from address to the _to address (with safety call)"
      },
      "safeTransferFrom(address,address,uint256,uint256,bytes)": {
        "notice": "Transfers amount amount of an _id from the _from address to the _to address specified"
      },
      "setApprovalForAll(address,bool)": {
        "notice": "Enable or disable approval for a third party (\"operator\") to manage all of caller's tokens"
      },
      "supportsInterface(bytes4)": {
        "notice": "Query if a contract implements an interface"
      }
    }
  }
}