{
  "contractName": "ERC1155MetaMintBurnMock",
  "abi": [
    {
      "anonymous": false,
      "inputs": [
        {
          "indexed": true,
          "internalType": "address",
          "name": "_owner",
          "type": "address"
        },
        {
          "indexed": true,
          "internalType": "address",
          "name": "_operator",
          "type": "address"
        },
        {
          "indexed": false,
          "internalType": "bool",
          "name": "_approved",
          "type": "bool"
        }
      ],
      "name": "ApprovalForAll",
      "type": "event"
    },
    {
      "anonymous": false,
      "inputs": [
        {
          "indexed": true,
          "internalType": "address",
          "name": "signer",
          "type": "address"
        },
        {
          "indexed": false,
          "internalType": "uint256",
          "name": "newNonce",
          "type": "uint256"
        }
      ],
      "name": "NonceChange",
      "type": "event"
    },
    {
      "anonymous": false,
      "inputs": [
        {
          "indexed": true,
          "internalType": "address",
          "name": "_operator",
          "type": "address"
        },
        {
          "indexed": true,
          "internalType": "address",
          "name": "_from",
          "type": "address"
        },
        {
          "indexed": true,
          "internalType": "address",
          "name": "_to",
          "type": "address"
        },
        {
          "indexed": false,
          "internalType": "uint256[]",
          "name": "_ids",
          "type": "uint256[]"
        },
        {
          "indexed": false,
          "internalType": "uint256[]",
          "name": "_amounts",
          "type": "uint256[]"
        }
      ],
      "name": "TransferBatch",
      "type": "event"
    },
    {
      "anonymous": false,
      "inputs": [
        {
          "indexed": true,
          "internalType": "address",
          "name": "_operator",
          "type": "address"
        },
        {
          "indexed": true,
          "internalType": "address",
          "name": "_from",
          "type": "address"
        },
        {
          "indexed": true,
          "internalType": "address",
          "name": "_to",
          "type": "address"
        },
        {
          "indexed": false,
          "internalType": "uint256",
          "name": "_id",
          "type": "uint256"
        },
        {
          "indexed": false,
          "internalType": "uint256",
          "name": "_amount",
          "type": "uint256"
        }
      ],
      "name": "TransferSingle",
      "type": "event"
    },
    {
      "anonymous": false,
      "inputs": [
        {
          "indexed": false,
          "internalType": "string",
          "name": "_uri",
          "type": "string"
        },
        {
          "indexed": true,
          "internalType": "uint256",
          "name": "_id",
          "type": "uint256"
        }
      ],
      "name": "URI",
      "type": "event"
    },
    {
      "payable": false,
      "stateMutability": "nonpayable",
      "type": "fallback"
    },
    {
      "constant": true,
      "inputs": [
        {
          "internalType": "address",
          "name": "_owner",
          "type": "address"
        },
        {
          "internalType": "uint256",
          "name": "_id",
          "type": "uint256"
        }
      ],
      "name": "balanceOf",
      "outputs": [
        {
          "internalType": "uint256",
          "name": "",
          "type": "uint256"
        }
      ],
      "payable": false,
      "stateMutability": "view",
      "type": "function"
    },
    {
      "constant": true,
      "inputs": [
        {
          "internalType": "address[]",
          "name": "_owners",
          "type": "address[]"
        },
        {
          "internalType": "uint256[]",
          "name": "_ids",
          "type": "uint256[]"
        }
      ],
      "name": "balanceOfBatch",
      "outputs": [
        {
          "internalType": "uint256[]",
          "name": "",
          "type": "uint256[]"
        }
      ],
      "payable": false,
      "stateMutability": "view",
      "type": "function"
    },
    {
      "constant": true,
      "inputs": [
        {
          "internalType": "address",
          "name": "_signer",
          "type": "address"
        }
      ],
      "name": "getNonce",
      "outputs": [
        {
          "internalType": "uint256",
          "name": "nonce",
          "type": "uint256"
        }
      ],
      "payable": false,
      "stateMutability": "view",
      "type": "function"
    },
    {
      "constant": true,
      "inputs": [
        {
          "internalType": "address",
          "name": "_owner",
          "type": "address"
        },
        {
          "internalType": "address",
          "name": "_operator",
          "type": "address"
        }
      ],
      "name": "isApprovedForAll",
      "outputs": [
        {
          "internalType": "bool",
          "name": "isOperator",
          "type": "bool"
        }
      ],
      "payable": false,
      "stateMutability": "view",
      "type": "function"
    },
    {
      "constant": true,
      "inputs": [
        {
          "internalType": "address",
          "name": "_signerAddress",
          "type": "address"
        },
        {
          "internalType": "bytes32",
          "name": "_hash",
          "type": "bytes32"
        },
        {
          "internalType": "bytes",
          "name": "_data",
          "type": "bytes"
        },
        {
          "internalType": "bytes",
          "name": "_sig",
          "type": "bytes"
        }
      ],
      "name": "isValidSignature",
      "outputs": [
        {
          "internalType": "bool",
          "name": "isValid",
          "type": "bool"
        }
      ],
      "payable": false,
      "stateMutability": "view",
      "type": "function"
    },
    {
      "constant": false,
      "inputs": [
        {
          "internalType": "address",
          "name": "_from",
          "type": "address"
        },
        {
          "internalType": "address",
          "name": "_to",
          "type": "address"
        },
        {
          "internalType": "uint256[]",
          "name": "_ids",
          "type": "uint256[]"
        },
        {
          "internalType": "uint256[]",
          "name": "_amounts",
          "type": "uint256[]"
        },
        {
          "internalType": "bool",
          "name": "_isGasFee",
          "type": "bool"
        },
        {
          "internalType": "bytes",
          "name": "_data",
          "type": "bytes"
        }
      ],
      "name": "metaSafeBatchTransferFrom",
      "outputs": [],
      "payable": false,
      "stateMutability": "nonpayable",
      "type": "function"
    },
    {
      "constant": false,
      "inputs": [
        {
          "internalType": "address",
          "name": "_from",
          "type": "address"
        },
        {
          "internalType": "address",
          "name": "_to",
          "type": "address"
        },
        {
          "internalType": "uint256",
          "name": "_id",
          "type": "uint256"
        },
        {
          "internalType": "uint256",
          "name": "_amount",
          "type": "uint256"
        },
        {
          "internalType": "bool",
          "name": "_isGasFee",
          "type": "bool"
        },
        {
          "internalType": "bytes",
          "name": "_data",
          "type": "bytes"
        }
      ],
      "name": "metaSafeTransferFrom",
      "outputs": [],
      "payable": false,
      "stateMutability": "nonpayable",
      "type": "function"
    },
    {
      "constant": false,
      "inputs": [
        {
          "internalType": "address",
          "name": "_owner",
          "type": "address"
        },
        {
          "internalType": "address",
          "name": "_operator",
          "type": "address"
        },
        {
          "internalType": "bool",
          "name": "_approved",
          "type": "bool"
        },
        {
          "internalType": "bool",
          "name": "_isGasFee",
          "type": "bool"
        },
        {
          "internalType": "bytes",
          "name": "_data",
          "type": "bytes"
        }
      ],
      "name": "metaSetApprovalForAll",
      "outputs": [],
      "payable": false,
      "stateMutability": "nonpayable",
      "type": "function"
    },
    {
      "constant": false,
      "inputs": [
        {
          "internalType": "address",
          "name": "_from",
          "type": "address"
        },
        {
          "internalType": "address",
          "name": "_to",
          "type": "address"
        },
        {
          "internalType": "uint256[]",
          "name": "_ids",
          "type": "uint256[]"
        },
        {
          "internalType": "uint256[]",
          "name": "_amounts",
          "type": "uint256[]"
        },
        {
          "internalType": "bytes",
          "name": "_data",
          "type": "bytes"
        }
      ],
      "name": "safeBatchTransferFrom",
      "outputs": [],
      "payable": false,
      "stateMutability": "nonpayable",
      "type": "function"
    },
    {
      "constant": false,
      "inputs": [
        {
          "internalType": "address",
          "name": "_from",
          "type": "address"
        },
        {
          "internalType": "address",
          "name": "_to",
          "type": "address"
        },
        {
          "internalType": "uint256",
          "name": "_id",
          "type": "uint256"
        },
        {
          "internalType": "uint256",
          "name": "_amount",
          "type": "uint256"
        },
        {
          "internalType": "bytes",
          "name": "_data",
          "type": "bytes"
        }
      ],
      "name": "safeTransferFrom",
      "outputs": [],
      "payable": false,
      "stateMutability": "nonpayable",
      "type": "function"
    },
    {
      "constant": false,
      "inputs": [
        {
          "internalType": "address",
          "name": "_operator",
          "type": "address"
        },
        {
          "internalType": "bool",
          "name": "_approved",
          "type": "bool"
        }
      ],
      "name": "setApprovalForAll",
      "outputs": [],
      "payable": false,
      "stateMutability": "nonpayable",
      "type": "function"
    },
    {
      "constant": true,
      "inputs": [
        {
          "internalType": "bytes4",
          "name": "_interfaceID",
          "type": "bytes4"
        }
      ],
      "name": "supportsInterface",
      "outputs": [
        {
          "internalType": "bool",
          "name": "",
          "type": "bool"
        }
      ],
      "payable": false,
      "stateMutability": "view",
      "type": "function"
    },
    {
      "constant": true,
      "inputs": [
        {
          "internalType": "uint256",
          "name": "_id",
          "type": "uint256"
        }
      ],
      "name": "uri",
      "outputs": [
        {
          "internalType": "string",
          "name": "",
          "type": "string"
        }
      ],
      "payable": false,
      "stateMutability": "view",
      "type": "function"
    },
    {
      "constant": false,
      "inputs": [
        {
          "internalType": "address",
          "name": "_to",
          "type": "address"
        },
        {
          "internalType": "uint256",
          "name": "_id",
          "type": "uint256"
        },
        {
          "internalType": "uint256",
          "name": "_value",
          "type": "uint256"
        },
        {
          "internalType": "bytes",
          "name": "_data",
          "type": "bytes"
        }
      ],
      "name": "mintMock",
      "outputs": [],
      "payable": false,
      "stateMutability": "nonpayable",
      "type": "function"
    },
    {
      "constant": false,
      "inputs": [
        {
          "internalType": "address",
          "name": "_to",
          "type": "address"
        },
        {
          "internalType": "uint256[]",
          "name": "_ids",
          "type": "uint256[]"
        },
        {
          "internalType": "uint256[]",
          "name": "_values",
          "type": "uint256[]"
        },
        {
          "internalType": "bytes",
          "name": "_data",
          "type": "bytes"
        }
      ],
      "name": "batchMintMock",
      "outputs": [],
      "payable": false,
      "stateMutability": "nonpayable",
      "type": "function"
    },
    {
      "constant": false,
      "inputs": [
        {
          "internalType": "address",
          "name": "_from",
          "type": "address"
        },
        {
          "internalType": "uint256",
          "name": "_id",
          "type": "uint256"
        },
        {
          "internalType": "uint256",
          "name": "_value",
          "type": "uint256"
        }
      ],
      "name": "burnMock",
      "outputs": [],
      "payable": false,
      "stateMutability": "nonpayable",
      "type": "function"
    },
    {
      "constant": false,
      "inputs": [
        {
          "internalType": "address",
          "name": "_from",
          "type": "address"
        },
        {
          "internalType": "uint256[]",
          "name": "_ids",
          "type": "uint256[]"
        },
        {
          "internalType": "uint256[]",
          "name": "_values",
          "type": "uint256[]"
        }
      ],
      "name": "batchBurnMock",
      "outputs": [],
      "payable": false,
      "stateMutability": "nonpayable",
      "type": "function"
    }
  ],
  "bytecode": "0x608060405234801561001057600080fd5b5061360e806100206000396000f3fe608060405234801561001057600080fd5b506004361061010a5760003560e01c8063a3d4926e116100a2578063d7a0ad9011610071578063d7a0ad901461024e578063e985e9c514610261578063f242432a14610274578063f5d4c82014610287578063fa4e12d71461029a5761010a565b8063a3d4926e14610202578063a3f091f514610215578063bd7a6c4114610228578063ce0b514b1461023b5761010a565b80632eb2c2d6116100de5780632eb2c2d6146101a7578063437ecbe9146101bc5780634e1273f4146101cf578063a22cb465146101ef5761010a565b8062fdd58e1461012b57806301ffc9a7146101545780630e89341c146101745780632d0335ab14610194575b60405162461bcd60e51b81526004016101229061335f565b60405180910390fd5b61013e61013936600461227d565b6102ad565b60405161014b919061343f565b60405180910390f35b6101676101623660046123af565b6102d6565b60405161014b919061315a565b6101876101823660046124b1565b61031d565b60405161014b919061328e565b61013e6101a2366004611d9f565b610351565b6101ba6101b5366004611f11565b61036c565b005b6101ba6101ca3660046122ad565b6103eb565b6101e26101dd366004612334565b6103fb565b60405161014b9190613124565b6101ba6101fd3660046121f2565b6104dd565b6101ba610210366004611e45565b61054c565b6101ba6102233660046122f0565b61069c565b6101ba6102363660046120d1565b6106ae565b6101ba610249366004612022565b6106b9565b6101ba61025c36600461214c565b610774565b61016761026f366004611e15565b610780565b6101ba61028236600461207a565b6107ae565b6101ba610295366004611fcb565b610826565b6101676102a8366004612222565b61092b565b6001600160a01b0382166000908152602081815260408083208484529091529020545b92915050565b60006001600160e01b031982166301ffc9a760e01b148061030757506001600160e01b03198216636cdb3d1360e11b145b1561031457506001610318565b5060005b919050565b6060600361032a83610d11565b60405160200161033b929190612fc2565b6040516020818303038152906040529050919050565b6001600160a01b031660009081526002602052604090205490565b336001600160a01b038616148061038857506103888533610780565b6103a45760405162461bcd60e51b81526004016101229061339f565b6001600160a01b0384166103ca5760405162461bcd60e51b81526004016101229061333f565b6103d685858585610dd4565b6103e4858585855a86610fde565b5050505050565b6103f68383836110b1565b505050565b6060815183511461041e5760405162461bcd60e51b81526004016101229061336f565b6060835160405190808252806020026020018201604052801561044b578160200160208202803883390190505b50905060005b84518110156104d55760008086838151811061046957fe5b60200260200101516001600160a01b03166001600160a01b03168152602001908152602001600020600085838151811061049f57fe5b60200260200101518152602001908152602001600020548282815181106104c257fe5b6020908102919091010152600101610451565b509392505050565b3360008181526001602090815260408083206001600160a01b038716808552925291829020805460ff191685151517905590519091907f17307eab39ab6107e8899845ad3d59bd9653f200f220920489ca2b5937696c319061054090859061315a565b60405180910390a35050565b6001600160a01b0385166105725760405162461bcd60e51b8152600401610122906133cf565b606061057c611b0c565b606061062f89857fa3d4926e8cf8fe8e020cd29f514c256bc2eec62aa2337e415f1a33a4828af5a060001b8c8c8c6040516020016105ba9190612f52565b604051602081830303815290604052805190602001208c6040516020016105e19190612f52565b604051602081830303815290604052805190602001208c610603576000610606565b60015b60405160200161061b96959493929190613183565b604051602081830303815290604052611149565b905061063d89898989610dd4565b84156106835780806020019051610657919081019061247c565b6020820151909450909250610674908a908a908a908a9086610fde565b61067e89836112b3565b610691565b610691898989895a86610fde565b505050505050505050565b6106a8848484846114c2565b50505050565b6103f6838383611567565b6001600160a01b0385166106df5760405162461bcd60e51b8152600401610122906132ff565b60606106e9611b0c565b606061072189857fce0b514b3931bdbe4d5d44e4f035afe7113767b7db71949271f6a62d9c60f558828c8c8c8c610603576000610606565b905061072f89898989611691565b84156107665780806020019051610749919081019061247c565b6020820151909450909250610674908a908a908a908a908661176b565b610691898989895a8661176b565b6106a88484848461183e565b6001600160a01b03918216600090815260016020908152604080832093909416825291909152205460ff1690565b336001600160a01b03861614806107ca57506107ca8533610780565b6107e65760405162461bcd60e51b8152600401610122906132bf565b6001600160a01b03841661080c5760405162461bcd60e51b81526004016101229061329f565b61081885858585611691565b6103e4858585855a8661176b565b606061088286837ff5d4c820494c8595de274c7ff619bead38aac4fbc3d143b5bf956aa4b84fa52482898961085c57600061085f565b60015b8961086b57600061086e565b60015b60405160200161061b9594939291906131d2565b6001600160a01b038781166000818152600160209081526040808320948b168084529490915290819020805460ff19168915151790555192935090917f17307eab39ab6107e8899845ad3d59bd9653f200f220920489ca2b5937696c31906108eb90889061315a565b60405180910390a3821561092357610901611b0c565b818060200190516109159190810190612448565b905061092187826112b3565b505b505050505050565b60008082511161094d5760405162461bcd60e51b8152600401610122906133af565b6001600160a01b0385166109735760405162461bcd60e51b81526004016101229061338f565b600061097e83611972565b60f81c9050600581106109a35760405162461bcd60e51b8152600401610122906132ef565b60008160ff1660058111156109b457fe5b90506000808080808560058111156109c857fe5b14156109e65760405162461bcd60e51b81526004016101229061330f565b60018560058111156109f457fe5b1415610aca578751606114610a1b5760405162461bcd60e51b81526004016101229061332f565b610a2c88600063ffffffff6119c016565b9250610a3f88602063ffffffff6119c016565b915087604081518110610a4e57fe5b602001015160f81c60f81b60f81c935060018a85858560405160008152602001604052604051610a819493929190613234565b6020604051602081039080840390855afa158015610aa3573d6000803e3d6000fd5b5050604051601f1901516001600160a01b038d81169116149750610d099650505050505050565b6002856005811115610ad857fe5b1415610b8b578751606114610aff5760405162461bcd60e51b81526004016101229061332f565b610b1088600063ffffffff6119c016565b9250610b2388602063ffffffff6119c016565b915087604081518110610b3257fe5b602001015160f81c60f81b60f81c935060018a604051602001610b559190612fe5565b6040516020818303038152906040528051906020012085858560405160008152602001604052604051610a819493929190613234565b6003856005811115610b9957fe5b1415610c3e576040516320c13b0b60e01b81526001600160a01b038c16906320c13b0b90610bcd908c908c90600401613269565b60206040518083038186803b158015610be557600080fd5b505afa158015610bf9573d6000803e3d6000fd5b505050506040513d601f19601f82011682018060405250610c1d91908101906123cd565b6001600160e01b0319166320c13b0b60e01b149650610d0995505050505050565b6004856005811115610c4c57fe5b1415610cf157604051630b135d3f60e11b81526001600160a01b038c1690631626ba7e90610c80908d908c90600401613214565b60206040518083038186803b158015610c9857600080fd5b505afa158015610cac573d6000803e3d6000fd5b505050506040513d601f19601f82011682018060405250610cd091908101906123cd565b6001600160e01b031916630b135d3f60e11b149650610d0995505050505050565b60405162461bcd60e51b8152600401610122906132ef565b949350505050565b606081610d3657506040805180820190915260018152600360fc1b6020820152610318565b818060005b8215610d4f57600101600a83049250610d3b565b6060816040519080825280601f01601f191660200182016040528015610d7c576020820181803883390190505b50905060001982015b8315610dca57600a840660300160f81b82828060019003935081518110610da857fe5b60200101906001600160f81b031916908160001a905350600a84049350610d85565b5095945050505050565b8051825114610df55760405162461bcd60e51b8152600401610122906132df565b815160005b81811015610f7f57610e70838281518110610e1157fe5b6020026020010151600080896001600160a01b03166001600160a01b031681526020019081526020016000206000878581518110610e4b57fe5b60200260200101518152602001908152602001600020546119ef90919063ffffffff16565b600080886001600160a01b03166001600160a01b031681526020019081526020016000206000868481518110610ea257fe5b6020026020010151815260200190815260200160002081905550610f2a838281518110610ecb57fe5b6020026020010151600080886001600160a01b03166001600160a01b031681526020019081526020016000206000878581518110610f0557fe5b6020026020010151815260200190815260200160002054611a1790919063ffffffff16565b600080876001600160a01b03166001600160a01b031681526020019081526020016000206000868481518110610f5c57fe5b602090810291909101810151825281019190915260400160002055600101610dfa565b50836001600160a01b0316856001600160a01b0316336001600160a01b03167f4a39dc06d4c0dbc64b70af90fd698a233a518aa5d07e595d983b8c0526c8f7fb8686604051610fcf929190613135565b60405180910390a45050505050565b610ff0856001600160a01b0316611a3c565b15610923576000856001600160a01b031663bc197c8184338a8989886040518763ffffffff1660e01b815260040161102c959493929190613005565b602060405180830381600088803b15801561104657600080fd5b5087f115801561105a573d6000803e3d6000fd5b50505050506040513d601f19601f8201168201806040525061107f91908101906123cd565b90506001600160e01b0319811663bc197c8160e01b146109215760405162461bcd60e51b8152600401610122906133df565b6001600160a01b0383166000908152602081815260408083208584529091529020546110e3908263ffffffff6119ef16565b6001600160a01b03841660008181526020818152604080832087845290915280822093909355915133907fc3d58168c5ae7397731d063d5bbf3d657854427343f4c083240f7aacaa2d0f629061113c908790879061344d565b60405180910390a4505050565b6060808380602001905161116091908101906123eb565b6001600160a01b0387166000908152600260205260408120549194509192509061119183604163ffffffff6119c016565b90508181108015906111a557508160640181105b6111c15760405162461bcd60e51b81526004016101229061341f565b60006111fd868387805190602001206040516020016111e293929190612f5e565b60405160208183030381529060405280519060200120611a73565b9050606086838760405160200161121693929190612f91565b60408051601f198184030181528282526001600160a01b038c166000818152600260205292909220600187019081905590935090917fb861b7bdbe611a846ab271b8d2810391bc8b5a968f390c322438ecab66bccf59916112769161343f565b60405180910390a261128a8983838861092b565b6112a65760405162461bcd60e51b81526004016101229061331f565b50505050505b9392505050565b60006112c28260600151611972565b60f81c9050600281106112e75760405162461bcd60e51b81526004016101229061342f565b60008160ff1660028111156112f857fe5b83516040850151919250600091829182916001600160a01b031615611321578660400151611323565b335b9250600085600281111561133357fe5b14156113ff5786606001518060200190516113519190810190611ddb565b90945091506001600160a01b0384163014156113955761137388848484611691565b6113908884845a856040518060200160405280600081525061176b565b6113fa565b604051637921219560e11b81526001600160a01b0385169063f242432a906113c7908b908790879087906004016130d4565b600060405180830381600087803b1580156113e157600080fd5b505af11580156113f5573d6000803e3d6000fd5b505050505b6114b8565b86606001518060200190516114179190810190611dbd565b6040516323b872dd60e01b81529094506001600160a01b038516906323b872dd9061144a908b90879086906004016130ac565b602060405180830381600087803b15801561146457600080fd5b505af1158015611478573d6000803e3d6000fd5b505050506040513d601f19601f8201168201806040525061149c9190810190612391565b6114b85760405162461bcd60e51b81526004016101229061337f565b5050505050505050565b6001600160a01b0384166000908152602081815260408083208684529091529020546114f4908363ffffffff611a1716565b6001600160a01b03851660008181526020818152604080832088845290915280822093909355915190919033907fc3d58168c5ae7397731d063d5bbf3d657854427343f4c083240f7aacaa2d0f6290611550908890889061344d565b60405180910390a46106a860008585855a8661176b565b8151815181146115895760405162461bcd60e51b81526004016101229061334f565b60005b81811015611632576115dd8382815181106115a357fe5b6020026020010151600080886001600160a01b03166001600160a01b031681526020019081526020016000206000878581518110610e4b57fe5b600080876001600160a01b03166001600160a01b03168152602001908152602001600020600086848151811061160f57fe5b60209081029190910181015182528101919091526040016000205560010161158c565b5060006001600160a01b0316846001600160a01b0316336001600160a01b03167f4a39dc06d4c0dbc64b70af90fd698a233a518aa5d07e595d983b8c0526c8f7fb8686604051611683929190613135565b60405180910390a450505050565b6001600160a01b0384166000908152602081815260408083208584529091529020546116c3908263ffffffff6119ef16565b6001600160a01b038086166000908152602081815260408083208784528252808320949094559186168152808252828120858252909152205461170c908263ffffffff611a1716565b6001600160a01b03808516600081815260208181526040808320888452909152908190209390935591519086169033907fc3d58168c5ae7397731d063d5bbf3d657854427343f4c083240f7aacaa2d0f6290611683908790879061344d565b61177d856001600160a01b0316611a3c565b15610923576000856001600160a01b031663f23a6e6184338a8989886040518763ffffffff1660e01b81526004016117b9959493929190613065565b602060405180830381600088803b1580156117d357600080fd5b5087f11580156117e7573d6000803e3d6000fd5b50505050506040513d601f19601f8201168201806040525061180c91908101906123cd565b90506001600160e01b0319811663f23a6e6160e01b146109215760405162461bcd60e51b8152600401610122906133ef565b815183511461185f5760405162461bcd60e51b8152600401610122906133bf565b825160005b8181101561190a576118b584828151811061187b57fe5b6020026020010151600080896001600160a01b03166001600160a01b031681526020019081526020016000206000888581518110610f0557fe5b600080886001600160a01b03166001600160a01b0316815260200190815260200160002060008784815181106118e757fe5b602090810291909101810151825281019190915260400160002055600101611864565b50846001600160a01b031660006001600160a01b0316336001600160a01b03167f4a39dc06d4c0dbc64b70af90fd698a233a518aa5d07e595d983b8c0526c8f7fb878760405161195b929190613135565b60405180910390a46103e460008686865a87610fde565b6000808251116119945760405162461bcd60e51b8152600401610122906132af565b816001835103815181106119a457fe5b0160200151825160001901909252506001600160f81b03191690565b600081602001835110156119e65760405162461bcd60e51b8152600401610122906133ff565b50016020015190565b600082821115611a115760405162461bcd60e51b8152600401610122906132cf565b50900390565b6000828201838110156112ac5760405162461bcd60e51b81526004016101229061340f565b6000813f80158015906112ac57507fc5d2460186f7233c927e7db2dcc703c0e500b653ca82273b7bfad8045d85a470141592915050565b600060405180604001604052806002815260200161190160f01b8152507f035aff83d86937d35b32e04f0ddc6ff469290eef2f1b692d8a815c89404d474960001b30604051602001611ac6929190613168565b6040516020818303038152906040528051906020012083604051602001611aef93929190612f5e565b604051602081830303815290604052805190602001209050919050565b6040518060800160405280600081526020016000815260200160006001600160a01b03168152602001606081525090565b80356102d081613579565b80516102d081613579565b600082601f830112611b6457600080fd5b8135611b77611b728261348e565b613468565b91508181835260208401935060208101905083856020840282011115611b9c57600080fd5b60005b83811015611bc85781611bb28882611b3d565b8452506020928301929190910190600101611b9f565b5050505092915050565b600082601f830112611be357600080fd5b8135611bf1611b728261348e565b91508181835260208401935060208101905083856020840282011115611c1657600080fd5b60005b83811015611bc85781611c2c8882611c58565b8452506020928301929190910190600101611c19565b80356102d081613590565b80516102d081613590565b80356102d081613599565b80356102d0816135a2565b80516102d0816135a2565b600082601f830112611c8a57600080fd5b8151611c98611b72826134ae565b91508082526020830160208301858383011115611cb457600080fd5b611cbf838284613543565b50505092915050565b600082601f830112611cd957600080fd5b8135611ce7611b72826134ae565b91508082526020830160208301858383011115611d0357600080fd5b611cbf838284613537565b600060808284031215611d2057600080fd5b611d2a6080613468565b90506000611d388484611d94565b8252506020611d4984848301611d94565b6020830152506040611d5d84828501611b48565b60408301525060608201516001600160401b03811115611d7c57600080fd5b611d8884828501611c79565b60608301525092915050565b80516102d081613599565b600060208284031215611db157600080fd5b6000610d098484611b3d565b600060208284031215611dcf57600080fd5b6000610d098484611b48565b60008060408385031215611dee57600080fd5b6000611dfa8585611b48565b9250506020611e0b85828601611d94565b9150509250929050565b60008060408385031215611e2857600080fd5b6000611e348585611b3d565b9250506020611e0b85828601611b3d565b60008060008060008060c08789031215611e5e57600080fd5b6000611e6a8989611b3d565b9650506020611e7b89828a01611b3d565b95505060408701356001600160401b03811115611e9757600080fd5b611ea389828a01611bd2565b94505060608701356001600160401b03811115611ebf57600080fd5b611ecb89828a01611bd2565b9350506080611edc89828a01611c42565b92505060a08701356001600160401b03811115611ef857600080fd5b611f0489828a01611cc8565b9150509295509295509295565b600080600080600060a08688031215611f2957600080fd5b6000611f358888611b3d565b9550506020611f4688828901611b3d565b94505060408601356001600160401b03811115611f6257600080fd5b611f6e88828901611bd2565b93505060608601356001600160401b03811115611f8a57600080fd5b611f9688828901611bd2565b92505060808601356001600160401b03811115611fb257600080fd5b611fbe88828901611cc8565b9150509295509295909350565b600080600080600060a08688031215611fe357600080fd5b6000611fef8888611b3d565b955050602061200088828901611b3d565b945050604061201188828901611c42565b9350506060611f9688828901611c42565b60008060008060008060c0878903121561203b57600080fd5b60006120478989611b3d565b965050602061205889828a01611b3d565b955050604061206989828a01611c58565b9450506060611ecb89828a01611c58565b600080600080600060a0868803121561209257600080fd5b600061209e8888611b3d565b95505060206120af88828901611b3d565b94505060406120c088828901611c58565b9350506060611f9688828901611c58565b6000806000606084860312156120e657600080fd5b60006120f28686611b3d565b93505060208401356001600160401b0381111561210e57600080fd5b61211a86828701611bd2565b92505060408401356001600160401b0381111561213657600080fd5b61214286828701611bd2565b9150509250925092565b6000806000806080858703121561216257600080fd5b600061216e8787611b3d565b94505060208501356001600160401b0381111561218a57600080fd5b61219687828801611bd2565b93505060408501356001600160401b038111156121b257600080fd5b6121be87828801611bd2565b92505060608501356001600160401b038111156121da57600080fd5b6121e687828801611cc8565b91505092959194509250565b6000806040838503121561220557600080fd5b60006122118585611b3d565b9250506020611e0b85828601611c42565b6000806000806080858703121561223857600080fd5b60006122448787611b3d565b945050602061225587828801611c58565b93505060408501356001600160401b0381111561227157600080fd5b6121be87828801611cc8565b6000806040838503121561229057600080fd5b600061229c8585611b3d565b9250506020611e0b85828601611c58565b6000806000606084860312156122c257600080fd5b60006122ce8686611b3d565b93505060206122df86828701611c58565b925050604061214286828701611c58565b6000806000806080858703121561230657600080fd5b60006123128787611b3d565b945050602061232387828801611c58565b93505060406121be87828801611c58565b6000806040838503121561234757600080fd5b82356001600160401b0381111561235d57600080fd5b61236985828601611b53565b92505060208301356001600160401b0381111561238557600080fd5b611e0b85828601611bd2565b6000602082840312156123a357600080fd5b6000610d098484611c4d565b6000602082840312156123c157600080fd5b6000610d098484611c63565b6000602082840312156123df57600080fd5b6000610d098484611c6e565b600080604083850312156123fe57600080fd5b82516001600160401b0381111561241457600080fd5b61242085828601611c79565b92505060208301516001600160401b0381111561243c57600080fd5b611e0b85828601611c79565b60006020828403121561245a57600080fd5b81516001600160401b0381111561247057600080fd5b610d0984828501611d0e565b6000806040838503121561248f57600080fd5b82516001600160401b038111156124a557600080fd5b61242085828601611d0e565b6000602082840312156124c357600080fd5b6000610d098484611c58565b60006124db83836125ab565b505060200190565b6124ec81613526565b82525050565b6124ec816134f4565b6000612506826134e7565b61251081856134eb565b935061251b836134d5565b8060005b8381101561254957815161253388826124cf565b975061253e836134d5565b92505060010161251f565b509495945050505050565b600061255f826134e7565b6125698185610318565b9350612574836134d5565b8060005b8381101561254957815161258c88826124cf565b9750612597836134d5565b925050600101612578565b6124ec816134ff565b6124ec81613504565b6124ec6125c082613504565b613504565b60006125d0826134e7565b6125da81856134eb565b93506125ea818560208601613543565b6125f38161356f565b9093019392505050565b6000612608826134e7565b6126128185610318565b9350612622818560208601613543565b9290920192915050565b600081546001811660008114612649576001811461266c576126ab565b607f600283041661265a8187610318565b60ff19841681529550850192506126ab565b6002820461267a8187610318565b9550612685856134db565b60005b828110156126a457815488820152600190910190602001612688565b5050850192505b505092915050565b60006126c0602b836134eb565b7f4552433131353523736166655472616e7366657246726f6d3a20494e56414c4981526a1117d49150d2541251539560aa1b602082015260400192915050565b600061270d601c83610318565b7f19457468657265756d205369676e6564204d6573736167653a0a3332000000008152601c0192915050565b60006127466037836134eb565b7f4c6962427974657323706f704c617374427974653a20475245415445525f544881527f414e5f5a45524f5f4c454e4754485f5245515549524544000000000000000000602082015260400192915050565b60006127a5602a836134eb565b7f4552433131353523736166655472616e7366657246726f6d3a20494e56414c49815269222fa7a822a920aa27a960b11b602082015260400192915050565b60006127f16017836134eb565b7f536166654d617468237375623a20554e444552464c4f57000000000000000000815260200192915050565b600061282a6035836134eb565b7f45524331313535235f7361666542617463685472616e7366657246726f6d3a208152740929cac82989288be82a4a482b2a6be988a9c8ea89605b1b602082015260400192915050565b6000612881603a836134eb565b6000805160206135ac83398151915281527f7572653a20554e535550504f525445445f5349474e4154555245000000000000602082015260400192915050565b60006128ce6033836134eb565b7f455243313135354d657461236d657461536166655472616e7366657246726f6d8152720e881253959053125117d49150d25412515395606a1b602082015260400192915050565b60006129236036836134eb565b6000805160206135ac8339815191528152757572653a20494c4c4547414c5f5349474e415455524560501b602082015260400192915050565b60006129696033836134eb565b7f455243313135354d657461235f7369676e617475726556616c69646174696f6e8152723a20494e56414c49445f5349474e415455524560681b602082015260400192915050565b60006129be6037836134eb565b6000805160206135ac83398151915281527f7572653a204c454e4754485f39375f5245515549524544000000000000000000602082015260400192915050565b6000612a0b6030836134eb565b7f45524331313535237361666542617463685472616e7366657246726f6d3a204981526f13959053125117d49150d2541251539560821b602082015260400192915050565b6000612a5d6030836134eb565b7f455243313135354d696e744275726e2362617463684275726e3a20494e56414c81526f09288be82a4a482b2a6be988a9c8ea8960831b602082015260400192915050565b6000612aaf600583610318565b64173539b7b760d91b815260050192915050565b6000612ad06027836134eb565b7f455243313135354d6574614d696e744275726e4d6f636b3a20494e56414c494481526617d351551213d160ca1b602082015260400192915050565b6000612b19602c836134eb565b7f455243313135352362616c616e63654f6642617463683a20494e56414c49445f81526b082a4a482b2be988a9c8ea8960a31b602082015260400192915050565b6000612b676032836134eb565b7f455243313135354d657461235f7472616e736665724761734665653a204552438152710c8c17d514905394d1915497d1905253115160721b602082015260400192915050565b6000612bbb6033836134eb565b6000805160206135ac8339815191528152723ab9329d1024a72b20a624a22fa9a4a3a722a960691b602082015260400192915050565b6000612bfe602f836134eb565b7f45524331313535237361666542617463685472616e7366657246726f6d3a204981526e272b20a624a22fa7a822a920aa27a960891b602082015260400192915050565b6000612c4f6043836134eb565b6000805160206135ac83398151915281527f7572653a204c454e4754485f475245415445525f5448414e5f305f524551554960208201526214915160ea1b604082015260600192915050565b6000612ca86030836134eb565b7f455243313135354d696e744275726e2362617463684d696e743a20494e56414c81526f09288be82a4a482b2a6be988a9c8ea8960831b602082015260400192915050565b6000612cfa6038836134eb565b7f455243313135354d657461236d6574615361666542617463685472616e73666581527f7246726f6d3a20494e56414c49445f524543495049454e540000000000000000602082015260400192915050565b60006102d06000836134eb565b6000612d66603f836134eb565b7f45524331313535235f63616c6c6f6e455243313135354261746368526563656981527f7665643a20494e56414c49445f4f4e5f524543454956455f4d45535341474500602082015260400192915050565b6000612dc5603a836134eb565b7f45524331313535235f63616c6c6f6e4552433131353552656365697665643a2081527f494e56414c49445f4f4e5f524543454956455f4d455353414745000000000000602082015260400192915050565b6000612e24603c836134eb565b7f4c696242797465732372656164427974657333323a20475245415445525f4f5281527f5f455155414c5f544f5f33325f4c454e4754485f524551554952454400000000602082015260400192915050565b6000612e836016836134eb565b75536166654d617468236164643a204f564552464c4f5760501b815260200192915050565b6000612eb5602f836134eb565b7f455243313135354d657461235f7369676e617475726556616c69646174696f6e81526e3a20494e56414c49445f4e4f4e434560881b602082015260400192915050565b6000612f06602e836134eb565b7f455243313135354d657461235f7472616e736665724761734665653a20554e5381526d2aa82827a92a22a22faa27a5a2a760911b602082015260400192915050565b6124ec81613520565b60006112ac8284612554565b6000612f6a82866125fd565b9150612f7682856125b4565b602082019150612f8682846125b4565b506020019392505050565b6000612f9d82866125fd565b9150612fa982856125b4565b602082019150612fb982846125fd565b95945050505050565b6000612fce828561262c565b9150612fda82846125fd565b9150610d0982612aa2565b6000612ff082612700565b9150612ffc82846125b4565b50602001919050565b60a0810161301382886124e3565b61302060208301876124f2565b818103604083015261303281866124fb565b9050818103606083015261304681856124fb565b9050818103608083015261305a81846125c5565b979650505050505050565b60a0810161307382886124e3565b61308060208301876124f2565b61308d60408301866125ab565b61309a60608301856125ab565b818103608083015261305a81846125c5565b606081016130ba82866124f2565b6130c760208301856124f2565b610d0960408301846125ab565b60a081016130e282876124f2565b6130ef60208301866124f2565b6130fc60408301856125ab565b61310960608301846125ab565b818103608083015261311a81612d4c565b9695505050505050565b602080825281016112ac81846124fb565b6040808252810161314681856124fb565b90508181036020830152610d0981846124fb565b602081016102d082846125a2565b6040810161317682856125ab565b6112ac60208301846124f2565b60c0810161319182896125ab565b61319e60208301886124f2565b6131ab60408301876124f2565b6131b860608301866125ab565b6131c560808301856125ab565b61305a60a08301846125ab565b60a081016131e082886125ab565b6131ed60208301876124f2565b6131fa60408301866124f2565b61320760608301856125ab565b61311a60808301846125ab565b6040810161322282856125ab565b8181036020830152610d0981846125c5565b6080810161324282876125ab565b61324f6020830186612f49565b61325c60408301856125ab565b612fb960608301846125ab565b6040808252810161327a81856125c5565b90508181036020830152610d0981846125c5565b602080825281016112ac81846125c5565b602080825281016102d0816126b3565b602080825281016102d081612739565b602080825281016102d081612798565b602080825281016102d0816127e4565b602080825281016102d08161281d565b602080825281016102d081612874565b602080825281016102d0816128c1565b602080825281016102d081612916565b602080825281016102d08161295c565b602080825281016102d0816129b1565b602080825281016102d0816129fe565b602080825281016102d081612a50565b602080825281016102d081612ac3565b602080825281016102d081612b0c565b602080825281016102d081612b5a565b602080825281016102d081612bae565b602080825281016102d081612bf1565b602080825281016102d081612c42565b602080825281016102d081612c9b565b602080825281016102d081612ced565b602080825281016102d081612d59565b602080825281016102d081612db8565b602080825281016102d081612e17565b602080825281016102d081612e76565b602080825281016102d081612ea8565b602080825281016102d081612ef9565b602081016102d082846125ab565b6040810161345b82856125ab565b6112ac60208301846125ab565b6040518181016001600160401b038111828210171561348657600080fd5b604052919050565b60006001600160401b038211156134a457600080fd5b5060209081020190565b60006001600160401b038211156134c457600080fd5b506020601f91909101601f19160190565b60200190565b60009081526020902090565b5190565b90815260200190565b60006102d082613514565b151590565b90565b6001600160e01b03191690565b6001600160a01b031690565b60ff1690565b60006102d08260006102d0826134f4565b82818337506000910152565b60005b8381101561355e578181015183820152602001613546565b838111156106a85750506000910152565b601f01601f191690565b613582816134f4565b811461358d57600080fd5b50565b613582816134ff565b61358281613504565b6135828161350756fe5369676e617475726556616c696461746f7223697356616c69645369676e6174a365627a7a723158202e20132578c6d795643fdbbcd27fc4e7989400cb83dd01fbba436656875d23b36c6578706572696d656e74616cf564736f6c63430005100040",
  "source": "pragma solidity ^0.5.16;\npragma experimental ABIEncoderV2;\n\nimport \"../tokens/ERC1155/ERC1155Meta.sol\";\nimport \"../tokens/ERC1155/ERC1155MintBurn.sol\";\nimport \"../tokens/ERC1155/ERC1155Metadata.sol\";\n\n\ncontract ERC1155MetaMintBurnMock is ERC1155Meta, ERC1155MintBurn, ERC1155Metadata {\n\n  /***********************************|\n  |         Minting Functions         |\n  |__________________________________*/\n\n  /**\n   * @dev Mint _value of tokens of a given id\n   * @param _to The address to mint tokens to.\n   * @param _id token id to mint\n   * @param _value The amount to be minted\n   * @param _data Data to be passed if receiver is contract\n   */\n  function mintMock(address _to, uint256 _id, uint256 _value, bytes memory _data)\n    public\n  {\n    super._mint(_to, _id, _value, _data);\n  }\n\n  /**\n   * @dev Mint tokens for each ids in _ids\n   * @param _to The address to mint tokens to.\n   * @param _ids Array of ids to mint\n   * @param _values Array of amount of tokens to mint per id\n   * @param _data Data to be passed if receiver is contract\n   */\n  function batchMintMock(address _to, uint256[] memory _ids, uint256[] memory _values, bytes memory _data)\n    public\n  {\n    super._batchMint(_to, _ids, _values, _data);\n  }\n\n\n  /***********************************|\n  |         Burning Functions         |\n  |__________________________________*/\n\n  /**\n   * @dev burn _value of tokens of a given token id\n   * @param _from The address to burn tokens from.\n   * @param _id token id to burn\n   * @param _value The amount to be burned\n   */\n  function burnMock(address _from, uint256 _id, uint256 _value)\n    public\n  {\n    super._burn(_from, _id, _value);\n  }\n\n  /**\n   * @dev burn _value of tokens of a given token id\n   * @param _from The address to burn tokens from.\n   * @param _ids Array of token ids to burn\n   * @param _values Array of the amount to be burned\n   */\n  function batchBurnMock(address _from, uint256[] memory _ids, uint256[] memory _values)\n    public\n  {\n    super._batchBurn(_from, _ids, _values);\n  }\n\n  /***********************************|\n  |       Unsupported Functions       |\n  |__________________________________*/\n\n  function () external {\n    revert(\"ERC1155MetaMintBurnMock: INVALID_METHOD\");\n  }\n}",
  "sourcePath": "multi-token-standard/contracts/mocks/ERC1155MetaMintBurnMock.sol",
  "compiler": {
    "name": "solc",
    "version": "0.5.16+commit.9c3226ce.Emscripten.clang"
  },
  "schemaVersion": "3.1.0",
  "updatedAt": "2020-06-26T16:37:43.022Z",
  "devdoc": {
    "methods": {
      "balanceOf(address,uint256)": {
        "params": {
          "_id": "ID of the Token",
          "_owner": "The address of the token holder"
        },
        "return": "The _owner's balance of the Token type requested"
      },
      "balanceOfBatch(address[],uint256[])": {
        "params": {
          "_ids": "ID of the Tokens",
          "_owners": "The addresses of the token holders"
        },
        "return": "The _owner's balance of the Token types requested (i.e. balance for each (owner, id) pair)"
      },
      "batchBurnMock(address,uint256[],uint256[])": {
        "details": "burn _value of tokens of a given token id",
        "params": {
          "_from": "The address to burn tokens from.",
          "_ids": "Array of token ids to burn",
          "_values": "Array of the amount to be burned"
        }
      },
      "batchMintMock(address,uint256[],uint256[],bytes)": {
        "details": "Mint tokens for each ids in _ids",
        "params": {
          "_data": "Data to be passed if receiver is contract",
          "_ids": "Array of ids to mint",
          "_to": "The address to mint tokens to.",
          "_values": "Array of amount of tokens to mint per id"
        }
      },
      "burnMock(address,uint256,uint256)": {
        "details": "burn _value of tokens of a given token id",
        "params": {
          "_from": "The address to burn tokens from.",
          "_id": "token id to burn",
          "_value": "The amount to be burned"
        }
      },
      "getNonce(address)": {
        "params": {
          "_signer": "Address to query signature nonce for"
        }
      },
      "isApprovedForAll(address,address)": {
        "params": {
          "_operator": "Address of authorized operator",
          "_owner": "The owner of the Tokens"
        },
        "return": "True if the operator is approved, false if not"
      },
      "isValidSignature(address,bytes32,bytes,bytes)": {
        "details": "Verifies that a hash has been signed by the given signer.",
        "params": {
          "_data": "Full EIP-712 data structure that was hashed and signed",
          "_hash": "Hash of the EIP-712 encoded data",
          "_sig": "Proof that the hash has been signed by signer.     For non wallet signatures, _sig is expected to be an array tightly encoded as     (bytes32 r, bytes32 s, uint8 v, uint256 nonce, SignatureType sigType)",
          "_signerAddress": "Address that should have signed the given hash."
        },
        "return": "True if the address recovered from the provided signature matches the input signer address."
      },
      "metaSafeBatchTransferFrom(address,address,uint256[],uint256[],bool,bytes)": {
        "params": {
          "_amounts": "Transfer amounts per token type",
          "_data": "Encodes a meta transfer indicator, signature, gas payment receipt and extra transfer data  _data should be encoded as (  (bytes32 r, bytes32 s, uint8 v, uint256 nonce, SignatureType sigType),  (GasReceipt g, ?bytes transferData) )  i.e. high level encoding should be (bytes, bytes), where the latter bytes array is a nested bytes array",
          "_from": "Source addresses",
          "_ids": "IDs of each token type",
          "_isGasFee": "Whether gas is reimbursed to executor or not",
          "_to": "Target addresses"
        }
      },
      "metaSafeTransferFrom(address,address,uint256,uint256,bool,bytes)": {
        "params": {
          "_amount": "Transfered amount",
          "_data": "Encodes a meta transfer indicator, signature, gas payment receipt and extra transfer data  _data should be encoded as (  (bytes32 r, bytes32 s, uint8 v, uint256 nonce, SignatureType sigType),  (GasReceipt g, ?bytes transferData) )  i.e. high level encoding should be (bytes, bytes), where the latter bytes array is a nested bytes array",
          "_from": "Source address",
          "_id": "ID of the token type",
          "_isGasFee": "Whether gas is reimbursed to executor or not",
          "_to": "Target address"
        }
      },
      "metaSetApprovalForAll(address,address,bool,bool,bytes)": {
        "params": {
          "_approved": "True if the operator is approved, false to revoke approval",
          "_data": "Encodes signature and gas payment receipt  _data should be encoded as (    (bytes32 r, bytes32 s, uint8 v, uint256 nonce, SignatureType sigType),    (GasReceipt g)  )  i.e. high level encoding should be (bytes, bytes), where the latter bytes array is a nested bytes array",
          "_isGasFee": "Whether gas will be reimbursed or not, with vlid signature",
          "_operator": "Address to add to the set of authorized operators",
          "_owner": "Address that wants to set operator status  _spender"
        }
      },
      "mintMock(address,uint256,uint256,bytes)": {
        "details": "Mint _value of tokens of a given id",
        "params": {
          "_data": "Data to be passed if receiver is contract",
          "_id": "token id to mint",
          "_to": "The address to mint tokens to.",
          "_value": "The amount to be minted"
        }
      },
      "safeBatchTransferFrom(address,address,uint256[],uint256[],bytes)": {
        "params": {
          "_amounts": "Transfer amounts per token type",
          "_data": "Additional data with no specified format, sent in call to `_to`",
          "_from": "Source addresses",
          "_ids": "IDs of each token type",
          "_to": "Target addresses"
        }
      },
      "safeTransferFrom(address,address,uint256,uint256,bytes)": {
        "params": {
          "_amount": "Transfered amount",
          "_data": "Additional data with no specified format, sent in call to `_to`",
          "_from": "Source address",
          "_id": "ID of the token type",
          "_to": "Target address"
        }
      },
      "setApprovalForAll(address,bool)": {
        "params": {
          "_approved": "True if the operator is approved, false to revoke approval",
          "_operator": "Address to add to the set of authorized operators"
        }
      },
      "supportsInterface(bytes4)": {
        "params": {
          "_interfaceID": "The interface identifier, as specified in ERC-165"
        },
        "return": "`true` if the contract implements `_interfaceID` and"
      },
      "uri(uint256)": {
        "details": "URIs are defined in RFC 3986.     URIs are assumed to be deterministically generated based on token ID     Token IDs are assumed to be represented in their hex format in URIs",
        "return": "URI string"
      }
    }
  },
  "userdoc": {
    "methods": {
      "balanceOf(address,uint256)": {
        "notice": "Get the balance of an account's Tokens"
      },
      "balanceOfBatch(address[],uint256[])": {
        "notice": "Get the balance of multiple account/token pairs"
      },
      "getNonce(address)": {
        "notice": "Returns the current nonce associated with a given address"
      },
      "isApprovedForAll(address,address)": {
        "notice": "Queries the approval status of an operator for a given owner"
      },
      "metaSafeBatchTransferFrom(address,address,uint256[],uint256[],bool,bytes)": {
        "notice": "Allows anyone with a valid signature to transfer multiple types of tokens on the bahalf of _from"
      },
      "metaSafeTransferFrom(address,address,uint256,uint256,bool,bytes)": {
        "notice": "Allows anyone with a valid signature to transfer _amount amount of a token _id on the bahalf of _from"
      },
      "metaSetApprovalForAll(address,address,bool,bool,bytes)": {
        "notice": "Approve the passed address to spend on behalf of _from if valid signature is provided"
      },
      "safeBatchTransferFrom(address,address,uint256[],uint256[],bytes)": {
        "notice": "Send multiple types of Tokens from the _from address to the _to address (with safety call)"
      },
      "safeTransferFrom(address,address,uint256,uint256,bytes)": {
        "notice": "Transfers amount amount of an _id from the _from address to the _to address specified"
      },
      "setApprovalForAll(address,bool)": {
        "notice": "Enable or disable approval for a third party (\"operator\") to manage all of caller's tokens"
      },
      "supportsInterface(bytes4)": {
        "notice": "Query if a contract implements an interface"
      },
      "uri(uint256)": {
        "notice": "A distinct Uniform Resource Identifier (URI) for a given token."
      }
    }
  }
}