{
  "contractName": "ERC1155Meta",
  "abi": [
    {
      "anonymous": false,
      "inputs": [
        {
          "indexed": true,
          "internalType": "address",
          "name": "_owner",
          "type": "address"
        },
        {
          "indexed": true,
          "internalType": "address",
          "name": "_operator",
          "type": "address"
        },
        {
          "indexed": false,
          "internalType": "bool",
          "name": "_approved",
          "type": "bool"
        }
      ],
      "name": "ApprovalForAll",
      "type": "event"
    },
    {
      "anonymous": false,
      "inputs": [
        {
          "indexed": true,
          "internalType": "address",
          "name": "signer",
          "type": "address"
        },
        {
          "indexed": false,
          "internalType": "uint256",
          "name": "newNonce",
          "type": "uint256"
        }
      ],
      "name": "NonceChange",
      "type": "event"
    },
    {
      "anonymous": false,
      "inputs": [
        {
          "indexed": true,
          "internalType": "address",
          "name": "_operator",
          "type": "address"
        },
        {
          "indexed": true,
          "internalType": "address",
          "name": "_from",
          "type": "address"
        },
        {
          "indexed": true,
          "internalType": "address",
          "name": "_to",
          "type": "address"
        },
        {
          "indexed": false,
          "internalType": "uint256[]",
          "name": "_ids",
          "type": "uint256[]"
        },
        {
          "indexed": false,
          "internalType": "uint256[]",
          "name": "_amounts",
          "type": "uint256[]"
        }
      ],
      "name": "TransferBatch",
      "type": "event"
    },
    {
      "anonymous": false,
      "inputs": [
        {
          "indexed": true,
          "internalType": "address",
          "name": "_operator",
          "type": "address"
        },
        {
          "indexed": true,
          "internalType": "address",
          "name": "_from",
          "type": "address"
        },
        {
          "indexed": true,
          "internalType": "address",
          "name": "_to",
          "type": "address"
        },
        {
          "indexed": false,
          "internalType": "uint256",
          "name": "_id",
          "type": "uint256"
        },
        {
          "indexed": false,
          "internalType": "uint256",
          "name": "_amount",
          "type": "uint256"
        }
      ],
      "name": "TransferSingle",
      "type": "event"
    },
    {
      "anonymous": false,
      "inputs": [
        {
          "indexed": false,
          "internalType": "string",
          "name": "_amount",
          "type": "string"
        },
        {
          "indexed": true,
          "internalType": "uint256",
          "name": "_id",
          "type": "uint256"
        }
      ],
      "name": "URI",
      "type": "event"
    },
    {
      "constant": true,
      "inputs": [
        {
          "internalType": "address",
          "name": "_owner",
          "type": "address"
        },
        {
          "internalType": "uint256",
          "name": "_id",
          "type": "uint256"
        }
      ],
      "name": "balanceOf",
      "outputs": [
        {
          "internalType": "uint256",
          "name": "",
          "type": "uint256"
        }
      ],
      "payable": false,
      "stateMutability": "view",
      "type": "function"
    },
    {
      "constant": true,
      "inputs": [
        {
          "internalType": "address[]",
          "name": "_owners",
          "type": "address[]"
        },
        {
          "internalType": "uint256[]",
          "name": "_ids",
          "type": "uint256[]"
        }
      ],
      "name": "balanceOfBatch",
      "outputs": [
        {
          "internalType": "uint256[]",
          "name": "",
          "type": "uint256[]"
        }
      ],
      "payable": false,
      "stateMutability": "view",
      "type": "function"
    },
    {
      "constant": true,
      "inputs": [
        {
          "internalType": "address",
          "name": "_owner",
          "type": "address"
        },
        {
          "internalType": "address",
          "name": "_operator",
          "type": "address"
        }
      ],
      "name": "isApprovedForAll",
      "outputs": [
        {
          "internalType": "bool",
          "name": "isOperator",
          "type": "bool"
        }
      ],
      "payable": false,
      "stateMutability": "view",
      "type": "function"
    },
    {
      "constant": true,
      "inputs": [
        {
          "internalType": "address",
          "name": "_signerAddress",
          "type": "address"
        },
        {
          "internalType": "bytes32",
          "name": "_hash",
          "type": "bytes32"
        },
        {
          "internalType": "bytes",
          "name": "_data",
          "type": "bytes"
        },
        {
          "internalType": "bytes",
          "name": "_sig",
          "type": "bytes"
        }
      ],
      "name": "isValidSignature",
      "outputs": [
        {
          "internalType": "bool",
          "name": "isValid",
          "type": "bool"
        }
      ],
      "payable": false,
      "stateMutability": "view",
      "type": "function"
    },
    {
      "constant": false,
      "inputs": [
        {
          "internalType": "address",
          "name": "_from",
          "type": "address"
        },
        {
          "internalType": "address",
          "name": "_to",
          "type": "address"
        },
        {
          "internalType": "uint256[]",
          "name": "_ids",
          "type": "uint256[]"
        },
        {
          "internalType": "uint256[]",
          "name": "_amounts",
          "type": "uint256[]"
        },
        {
          "internalType": "bytes",
          "name": "_data",
          "type": "bytes"
        }
      ],
      "name": "safeBatchTransferFrom",
      "outputs": [],
      "payable": false,
      "stateMutability": "nonpayable",
      "type": "function"
    },
    {
      "constant": false,
      "inputs": [
        {
          "internalType": "address",
          "name": "_from",
          "type": "address"
        },
        {
          "internalType": "address",
          "name": "_to",
          "type": "address"
        },
        {
          "internalType": "uint256",
          "name": "_id",
          "type": "uint256"
        },
        {
          "internalType": "uint256",
          "name": "_amount",
          "type": "uint256"
        },
        {
          "internalType": "bytes",
          "name": "_data",
          "type": "bytes"
        }
      ],
      "name": "safeTransferFrom",
      "outputs": [],
      "payable": false,
      "stateMutability": "nonpayable",
      "type": "function"
    },
    {
      "constant": false,
      "inputs": [
        {
          "internalType": "address",
          "name": "_operator",
          "type": "address"
        },
        {
          "internalType": "bool",
          "name": "_approved",
          "type": "bool"
        }
      ],
      "name": "setApprovalForAll",
      "outputs": [],
      "payable": false,
      "stateMutability": "nonpayable",
      "type": "function"
    },
    {
      "constant": true,
      "inputs": [
        {
          "internalType": "bytes4",
          "name": "_interfaceID",
          "type": "bytes4"
        }
      ],
      "name": "supportsInterface",
      "outputs": [
        {
          "internalType": "bool",
          "name": "",
          "type": "bool"
        }
      ],
      "payable": false,
      "stateMutability": "view",
      "type": "function"
    },
    {
      "constant": false,
      "inputs": [
        {
          "internalType": "address",
          "name": "_from",
          "type": "address"
        },
        {
          "internalType": "address",
          "name": "_to",
          "type": "address"
        },
        {
          "internalType": "uint256",
          "name": "_id",
          "type": "uint256"
        },
        {
          "internalType": "uint256",
          "name": "_amount",
          "type": "uint256"
        },
        {
          "internalType": "bool",
          "name": "_isGasFee",
          "type": "bool"
        },
        {
          "internalType": "bytes",
          "name": "_data",
          "type": "bytes"
        }
      ],
      "name": "metaSafeTransferFrom",
      "outputs": [],
      "payable": false,
      "stateMutability": "nonpayable",
      "type": "function"
    },
    {
      "constant": false,
      "inputs": [
        {
          "internalType": "address",
          "name": "_from",
          "type": "address"
        },
        {
          "internalType": "address",
          "name": "_to",
          "type": "address"
        },
        {
          "internalType": "uint256[]",
          "name": "_ids",
          "type": "uint256[]"
        },
        {
          "internalType": "uint256[]",
          "name": "_amounts",
          "type": "uint256[]"
        },
        {
          "internalType": "bool",
          "name": "_isGasFee",
          "type": "bool"
        },
        {
          "internalType": "bytes",
          "name": "_data",
          "type": "bytes"
        }
      ],
      "name": "metaSafeBatchTransferFrom",
      "outputs": [],
      "payable": false,
      "stateMutability": "nonpayable",
      "type": "function"
    },
    {
      "constant": false,
      "inputs": [
        {
          "internalType": "address",
          "name": "_owner",
          "type": "address"
        },
        {
          "internalType": "address",
          "name": "_operator",
          "type": "address"
        },
        {
          "internalType": "bool",
          "name": "_approved",
          "type": "bool"
        },
        {
          "internalType": "bool",
          "name": "_isGasFee",
          "type": "bool"
        },
        {
          "internalType": "bytes",
          "name": "_data",
          "type": "bytes"
        }
      ],
      "name": "metaSetApprovalForAll",
      "outputs": [],
      "payable": false,
      "stateMutability": "nonpayable",
      "type": "function"
    },
    {
      "constant": true,
      "inputs": [
        {
          "internalType": "address",
          "name": "_signer",
          "type": "address"
        }
      ],
      "name": "getNonce",
      "outputs": [
        {
          "internalType": "uint256",
          "name": "nonce",
          "type": "uint256"
        }
      ],
      "payable": false,
      "stateMutability": "view",
      "type": "function"
    }
  ],
  "bytecode": "0x608060405234801561001057600080fd5b50612ce8806100206000396000f3fe608060405234801561001057600080fd5b50600436106100b35760003560e01c8063a3d4926e11610071578063a3d4926e1461015c578063ce0b514b1461016f578063e985e9c514610182578063f242432a14610195578063f5d4c820146101a8578063fa4e12d7146101bb576100b3565b8062fdd58e146100b857806301ffc9a7146100e15780632d0335ab146101015780632eb2c2d6146101145780634e1273f414610129578063a22cb46514610149575b600080fd5b6100cb6100c6366004611bfd565b6101ce565b6040516100d89190612b21565b60405180910390f35b6100f46100ef366004611ca8565b6101f7565b6040516100d8919061287d565b6100cb61010f36600461180c565b61023e565b61012761012236600461197e565b610259565b005b61013c610137366004611c2d565b6102e1565b6040516100d89190612847565b610127610157366004611b3e565b6103c3565b61012761016a3660046118b2565b610432565b61012761017d366004611a8f565b610582565b6100f4610190366004611882565b61063d565b6101276101a3366004611ae7565b61066b565b6101276101b6366004611a38565b6106e3565b6100f46101c9366004611b6e565b6107e8565b6001600160a01b0382166000908152602081815260408083208484529091529020545b92915050565b60006001600160e01b031982166301ffc9a760e01b148061022857506001600160e01b03198216636cdb3d1360e11b145b1561023557506001610239565b5060005b919050565b6001600160a01b031660009081526002602052604090205490565b336001600160a01b03861614806102755750610275853361063d565b61029a5760405162461bcd60e51b815260040161029190612a91565b60405180910390fd5b6001600160a01b0384166102c05760405162461bcd60e51b815260040161029190612a51565b6102cc85858585610bce565b6102da858585855a86610dd8565b5050505050565b606081518351146103045760405162461bcd60e51b815260040161029190612a61565b60608351604051908082528060200260200182016040528015610331578160200160208202803883390190505b50905060005b84518110156103bb5760008086838151811061034f57fe5b60200260200101516001600160a01b03166001600160a01b03168152602001908152602001600020600085838151811061038557fe5b60200260200101518152602001908152602001600020548282815181106103a857fe5b6020908102919091010152600101610337565b509392505050565b3360008181526001602090815260408083206001600160a01b038716808552925291829020805460ff191685151517905590519091907f17307eab39ab6107e8899845ad3d59bd9653f200f220920489ca2b5937696c319061042690859061287d565b60405180910390a35050565b6001600160a01b0385166104585760405162461bcd60e51b815260040161029190612ab1565b6060610462611579565b606061051589857fa3d4926e8cf8fe8e020cd29f514c256bc2eec62aa2337e415f1a33a4828af5a060001b8c8c8c6040516020016104a09190612698565b604051602081830303815290604052805190602001208c6040516020016104c79190612698565b604051602081830303815290604052805190602001208c6104e95760006104ec565b60015b604051602001610501969594939291906128a6565b604051602081830303815290604052610eab565b905061052389898989610bce565b8415610569578080602001905161053d9190810190611d75565b602082015190945090925061055a908a908a908a908a9086610dd8565b6105648983611015565b610577565b610577898989895a86610dd8565b505050505050505050565b6001600160a01b0385166105a85760405162461bcd60e51b815260040161029190612a11565b60606105b2611579565b60606105ea89857fce0b514b3931bdbe4d5d44e4f035afe7113767b7db71949271f6a62d9c60f558828c8c8c8c6104e95760006104ec565b90506105f889898989611224565b841561062f57808060200190516106129190810190611d75565b602082015190945090925061055a908a908a908a908a908661130c565b610577898989895a8661130c565b6001600160a01b03918216600090815260016020908152604080832093909416825291909152205460ff1690565b336001600160a01b03861614806106875750610687853361063d565b6106a35760405162461bcd60e51b8152600401610291906129d1565b6001600160a01b0384166106c95760405162461bcd60e51b8152600401610291906129b1565b6106d585858585611224565b6102da858585855a8661130c565b606061073f86837ff5d4c820494c8595de274c7ff619bead38aac4fbc3d143b5bf956aa4b84fa52482898961071957600061071c565b60015b8961072857600061072b565b60015b6040516020016105019594939291906128f5565b6001600160a01b038781166000818152600160209081526040808320948b168084529490915290819020805460ff19168915151790555192935090917f17307eab39ab6107e8899845ad3d59bd9653f200f220920489ca2b5937696c31906107a890889061287d565b60405180910390a382156107e0576107be611579565b818060200190516107d29190810190611d41565b90506107de8782611015565b505b505050505050565b60008082511161080a5760405162461bcd60e51b815260040161029190612aa1565b6001600160a01b0385166108305760405162461bcd60e51b815260040161029190612a81565b600061083b836113df565b60f81c9050600581106108605760405162461bcd60e51b815260040161029190612a01565b60008160ff16600581111561087157fe5b905060008080808085600581111561088557fe5b14156108a35760405162461bcd60e51b815260040161029190612a21565b60018560058111156108b157fe5b14156109875787516061146108d85760405162461bcd60e51b815260040161029190612a41565b6108e988600063ffffffff61142d16565b92506108fc88602063ffffffff61142d16565b91508760408151811061090b57fe5b602001015160f81c60f81b60f81c935060018a8585856040516000815260200160405260405161093e9493929190612957565b6020604051602081039080840390855afa158015610960573d6000803e3d6000fd5b5050604051601f1901516001600160a01b038d81169116149750610bc69650505050505050565b600285600581111561099557fe5b1415610a485787516061146109bc5760405162461bcd60e51b815260040161029190612a41565b6109cd88600063ffffffff61142d16565b92506109e088602063ffffffff61142d16565b9150876040815181106109ef57fe5b602001015160f81c60f81b60f81c935060018a604051602001610a129190612708565b604051602081830303815290604052805190602001208585856040516000815260200160405260405161093e9493929190612957565b6003856005811115610a5657fe5b1415610afb576040516320c13b0b60e01b81526001600160a01b038c16906320c13b0b90610a8a908c908c9060040161298c565b60206040518083038186803b158015610aa257600080fd5b505afa158015610ab6573d6000803e3d6000fd5b505050506040513d601f19601f82011682018060405250610ada9190810190611cc6565b6001600160e01b0319166320c13b0b60e01b149650610bc695505050505050565b6004856005811115610b0957fe5b1415610bae57604051630b135d3f60e11b81526001600160a01b038c1690631626ba7e90610b3d908d908c90600401612937565b60206040518083038186803b158015610b5557600080fd5b505afa158015610b69573d6000803e3d6000fd5b505050506040513d601f19601f82011682018060405250610b8d9190810190611cc6565b6001600160e01b031916630b135d3f60e11b149650610bc695505050505050565b60405162461bcd60e51b815260040161029190612a01565b949350505050565b8051825114610bef5760405162461bcd60e51b8152600401610291906129f1565b815160005b81811015610d7957610c6a838281518110610c0b57fe5b6020026020010151600080896001600160a01b03166001600160a01b031681526020019081526020016000206000878581518110610c4557fe5b602002602001015181526020019081526020016000205461145c90919063ffffffff16565b600080886001600160a01b03166001600160a01b031681526020019081526020016000206000868481518110610c9c57fe5b6020026020010151815260200190815260200160002081905550610d24838281518110610cc557fe5b6020026020010151600080886001600160a01b03166001600160a01b031681526020019081526020016000206000878581518110610cff57fe5b602002602001015181526020019081526020016000205461148490919063ffffffff16565b600080876001600160a01b03166001600160a01b031681526020019081526020016000206000868481518110610d5657fe5b602090810291909101810151825281019190915260400160002055600101610bf4565b50836001600160a01b0316856001600160a01b0316336001600160a01b03167f4a39dc06d4c0dbc64b70af90fd698a233a518aa5d07e595d983b8c0526c8f7fb8686604051610dc9929190612858565b60405180910390a45050505050565b610dea856001600160a01b03166114a9565b156107e0576000856001600160a01b031663bc197c8184338a8989886040518763ffffffff1660e01b8152600401610e26959493929190612728565b602060405180830381600088803b158015610e4057600080fd5b5087f1158015610e54573d6000803e3d6000fd5b50505050506040513d601f19601f82011682018060405250610e799190810190611cc6565b90506001600160e01b0319811663bc197c8160e01b146107de5760405162461bcd60e51b815260040161029190612ac1565b60608083806020019051610ec29190810190611ce4565b6001600160a01b03871660009081526002602052604081205491945091925090610ef383604163ffffffff61142d16565b9050818110801590610f0757508160640181105b610f235760405162461bcd60e51b815260040161029190612b01565b6000610f5f86838780519060200120604051602001610f44939291906126a4565b604051602081830303815290604052805190602001206114e0565b90506060868387604051602001610f78939291906126d7565b60408051601f198184030181528282526001600160a01b038c166000818152600260205292909220600187019081905590935090917fb861b7bdbe611a846ab271b8d2810391bc8b5a968f390c322438ecab66bccf5991610fd891612b21565b60405180910390a2610fec898383886107e8565b6110085760405162461bcd60e51b815260040161029190612a31565b50505050505b9392505050565b600061102482606001516113df565b60f81c9050600281106110495760405162461bcd60e51b815260040161029190612b11565b60008160ff16600281111561105a57fe5b83516040850151919250600091829182916001600160a01b031615611083578660400151611085565b335b9250600085600281111561109557fe5b14156111615786606001518060200190516110b39190810190611848565b90945091506001600160a01b0384163014156110f7576110d588848484611224565b6110f28884845a856040518060200160405280600081525061130c565b61115c565b604051637921219560e11b81526001600160a01b0385169063f242432a90611129908b908790879087906004016127f7565b600060405180830381600087803b15801561114357600080fd5b505af1158015611157573d6000803e3d6000fd5b505050505b61121a565b8660600151806020019051611179919081019061182a565b6040516323b872dd60e01b81529094506001600160a01b038516906323b872dd906111ac908b90879086906004016127cf565b602060405180830381600087803b1580156111c657600080fd5b505af11580156111da573d6000803e3d6000fd5b505050506040513d601f19601f820116820180604052506111fe9190810190611c8a565b61121a5760405162461bcd60e51b815260040161029190612a71565b5050505050505050565b6001600160a01b038416600090815260208181526040808320858452909152902054611256908263ffffffff61145c16565b6001600160a01b038086166000908152602081815260408083208784528252808320949094559186168152808252828120858252909152205461129f908263ffffffff61148416565b6001600160a01b03808516600081815260208181526040808320888452909152908190209390935591519086169033907fc3d58168c5ae7397731d063d5bbf3d657854427343f4c083240f7aacaa2d0f62906112fe9087908790612b2f565b60405180910390a450505050565b61131e856001600160a01b03166114a9565b156107e0576000856001600160a01b031663f23a6e6184338a8989886040518763ffffffff1660e01b815260040161135a959493929190612788565b602060405180830381600088803b15801561137457600080fd5b5087f1158015611388573d6000803e3d6000fd5b50505050506040513d601f19601f820116820180604052506113ad9190810190611cc6565b90506001600160e01b0319811663f23a6e6160e01b146107de5760405162461bcd60e51b815260040161029190612ad1565b6000808251116114015760405162461bcd60e51b8152600401610291906129c1565b8160018351038151811061141157fe5b0160200151825160001901909252506001600160f81b03191690565b600081602001835110156114535760405162461bcd60e51b815260040161029190612ae1565b50016020015190565b60008282111561147e5760405162461bcd60e51b8152600401610291906129e1565b50900390565b60008282018381101561100e5760405162461bcd60e51b815260040161029190612af1565b6000813f801580159061100e57507fc5d2460186f7233c927e7db2dcc703c0e500b653ca82273b7bfad8045d85a470141592915050565b600060405180604001604052806002815260200161190160f01b8152507f035aff83d86937d35b32e04f0ddc6ff469290eef2f1b692d8a815c89404d474960001b3060405160200161153392919061288b565b604051602081830303815290604052805190602001208360405160200161155c939291906126a4565b604051602081830303815290604052805190602001209050919050565b6040518060800160405280600081526020016000815260200160006001600160a01b03168152602001606081525090565b80356101f181612c53565b80516101f181612c53565b600082601f8301126115d157600080fd5b81356115e46115df82612b70565b612b4a565b9150818183526020840193506020810190508385602084028201111561160957600080fd5b60005b83811015611635578161161f88826115aa565b845250602092830192919091019060010161160c565b5050505092915050565b600082601f83011261165057600080fd5b813561165e6115df82612b70565b9150818183526020840193506020810190508385602084028201111561168357600080fd5b60005b83811015611635578161169988826116c5565b8452506020928301929190910190600101611686565b80356101f181612c6a565b80516101f181612c6a565b80356101f181612c73565b80356101f181612c7c565b80516101f181612c7c565b600082601f8301126116f757600080fd5b81516117056115df82612b90565b9150808252602083016020830185838301111561172157600080fd5b61172c838284612c19565b50505092915050565b600082601f83011261174657600080fd5b81356117546115df82612b90565b9150808252602083016020830185838301111561177057600080fd5b61172c838284612c0d565b60006080828403121561178d57600080fd5b6117976080612b4a565b905060006117a58484611801565b82525060206117b684848301611801565b60208301525060406117ca848285016115b5565b60408301525060608201516001600160401b038111156117e957600080fd5b6117f5848285016116e6565b60608301525092915050565b80516101f181612c73565b60006020828403121561181e57600080fd5b6000610bc684846115aa565b60006020828403121561183c57600080fd5b6000610bc684846115b5565b6000806040838503121561185b57600080fd5b600061186785856115b5565b925050602061187885828601611801565b9150509250929050565b6000806040838503121561189557600080fd5b60006118a185856115aa565b9250506020611878858286016115aa565b60008060008060008060c087890312156118cb57600080fd5b60006118d789896115aa565b96505060206118e889828a016115aa565b95505060408701356001600160401b0381111561190457600080fd5b61191089828a0161163f565b94505060608701356001600160401b0381111561192c57600080fd5b61193889828a0161163f565b935050608061194989828a016116af565b92505060a08701356001600160401b0381111561196557600080fd5b61197189828a01611735565b9150509295509295509295565b600080600080600060a0868803121561199657600080fd5b60006119a288886115aa565b95505060206119b3888289016115aa565b94505060408601356001600160401b038111156119cf57600080fd5b6119db8882890161163f565b93505060608601356001600160401b038111156119f757600080fd5b611a038882890161163f565b92505060808601356001600160401b03811115611a1f57600080fd5b611a2b88828901611735565b9150509295509295909350565b600080600080600060a08688031215611a5057600080fd5b6000611a5c88886115aa565b9550506020611a6d888289016115aa565b9450506040611a7e888289016116af565b9350506060611a03888289016116af565b60008060008060008060c08789031215611aa857600080fd5b6000611ab489896115aa565b9650506020611ac589828a016115aa565b9550506040611ad689828a016116c5565b945050606061193889828a016116c5565b600080600080600060a08688031215611aff57600080fd5b6000611b0b88886115aa565b9550506020611b1c888289016115aa565b9450506040611b2d888289016116c5565b9350506060611a03888289016116c5565b60008060408385031215611b5157600080fd5b6000611b5d85856115aa565b9250506020611878858286016116af565b60008060008060808587031215611b8457600080fd5b6000611b9087876115aa565b9450506020611ba1878288016116c5565b93505060408501356001600160401b03811115611bbd57600080fd5b611bc987828801611735565b92505060608501356001600160401b03811115611be557600080fd5b611bf187828801611735565b91505092959194509250565b60008060408385031215611c1057600080fd5b6000611c1c85856115aa565b9250506020611878858286016116c5565b60008060408385031215611c4057600080fd5b82356001600160401b03811115611c5657600080fd5b611c62858286016115c0565b92505060208301356001600160401b03811115611c7e57600080fd5b6118788582860161163f565b600060208284031215611c9c57600080fd5b6000610bc684846116ba565b600060208284031215611cba57600080fd5b6000610bc684846116d0565b600060208284031215611cd857600080fd5b6000610bc684846116db565b60008060408385031215611cf757600080fd5b82516001600160401b03811115611d0d57600080fd5b611d19858286016116e6565b92505060208301516001600160401b03811115611d3557600080fd5b611878858286016116e6565b600060208284031215611d5357600080fd5b81516001600160401b03811115611d6957600080fd5b610bc68482850161177b565b60008060408385031215611d8857600080fd5b82516001600160401b03811115611d9e57600080fd5b611d198582860161177b565b6000611db68383611e86565b505060200190565b611dc781612bfc565b82525050565b611dc781612bca565b6000611de182612bbd565b611deb8185612bc1565b9350611df683612bb7565b8060005b83811015611e24578151611e0e8882611daa565b9750611e1983612bb7565b925050600101611dfa565b509495945050505050565b6000611e3a82612bbd565b611e448185610239565b9350611e4f83612bb7565b8060005b83811015611e24578151611e678882611daa565b9750611e7283612bb7565b925050600101611e53565b611dc781612bd5565b611dc781612bda565b611dc7611e9b82612bda565b612bda565b6000611eab82612bbd565b611eb58185612bc1565b9350611ec5818560208601612c19565b611ece81612c49565b9093019392505050565b6000611ee382612bbd565b611eed8185610239565b9350611efd818560208601612c19565b9290920192915050565b6000611f14602b83612bc1565b7f4552433131353523736166655472616e7366657246726f6d3a20494e56414c4981526a1117d49150d2541251539560aa1b602082015260400192915050565b6000611f61601c83610239565b7f19457468657265756d205369676e6564204d6573736167653a0a3332000000008152601c0192915050565b6000611f9a603783612bc1565b7f4c6962427974657323706f704c617374427974653a20475245415445525f544881527f414e5f5a45524f5f4c454e4754485f5245515549524544000000000000000000602082015260400192915050565b6000611ff9602a83612bc1565b7f4552433131353523736166655472616e7366657246726f6d3a20494e56414c49815269222fa7a822a920aa27a960b11b602082015260400192915050565b6000612045601783612bc1565b7f536166654d617468237375623a20554e444552464c4f57000000000000000000815260200192915050565b600061207e603583612bc1565b7f45524331313535235f7361666542617463685472616e7366657246726f6d3a208152740929cac82989288be82a4a482b2a6be988a9c8ea89605b1b602082015260400192915050565b60006120d5603a83612bc1565b600080516020612c8683398151915281527f7572653a20554e535550504f525445445f5349474e4154555245000000000000602082015260400192915050565b6000612122603383612bc1565b7f455243313135354d657461236d657461536166655472616e7366657246726f6d8152720e881253959053125117d49150d25412515395606a1b602082015260400192915050565b6000612177603683612bc1565b600080516020612c868339815191528152757572653a20494c4c4547414c5f5349474e415455524560501b602082015260400192915050565b60006121bd603383612bc1565b7f455243313135354d657461235f7369676e617475726556616c69646174696f6e8152723a20494e56414c49445f5349474e415455524560681b602082015260400192915050565b6000612212603783612bc1565b600080516020612c8683398151915281527f7572653a204c454e4754485f39375f5245515549524544000000000000000000602082015260400192915050565b600061225f603083612bc1565b7f45524331313535237361666542617463685472616e7366657246726f6d3a204981526f13959053125117d49150d2541251539560821b602082015260400192915050565b60006122b1602c83612bc1565b7f455243313135352362616c616e63654f6642617463683a20494e56414c49445f81526b082a4a482b2be988a9c8ea8960a31b602082015260400192915050565b60006122ff603283612bc1565b7f455243313135354d657461235f7472616e736665724761734665653a204552438152710c8c17d514905394d1915497d1905253115160721b602082015260400192915050565b6000612353603383612bc1565b600080516020612c868339815191528152723ab9329d1024a72b20a624a22fa9a4a3a722a960691b602082015260400192915050565b6000612396602f83612bc1565b7f45524331313535237361666542617463685472616e7366657246726f6d3a204981526e272b20a624a22fa7a822a920aa27a960891b602082015260400192915050565b60006123e7604383612bc1565b600080516020612c8683398151915281527f7572653a204c454e4754485f475245415445525f5448414e5f305f524551554960208201526214915160ea1b604082015260600192915050565b6000612440603883612bc1565b7f455243313135354d657461236d6574615361666542617463685472616e73666581527f7246726f6d3a20494e56414c49445f524543495049454e540000000000000000602082015260400192915050565b60006101f1600083612bc1565b60006124ac603f83612bc1565b7f45524331313535235f63616c6c6f6e455243313135354261746368526563656981527f7665643a20494e56414c49445f4f4e5f524543454956455f4d45535341474500602082015260400192915050565b600061250b603a83612bc1565b7f45524331313535235f63616c6c6f6e4552433131353552656365697665643a2081527f494e56414c49445f4f4e5f524543454956455f4d455353414745000000000000602082015260400192915050565b600061256a603c83612bc1565b7f4c696242797465732372656164427974657333323a20475245415445525f4f5281527f5f455155414c5f544f5f33325f4c454e4754485f524551554952454400000000602082015260400192915050565b60006125c9601683612bc1565b75536166654d617468236164643a204f564552464c4f5760501b815260200192915050565b60006125fb602f83612bc1565b7f455243313135354d657461235f7369676e617475726556616c69646174696f6e81526e3a20494e56414c49445f4e4f4e434560881b602082015260400192915050565b600061264c602e83612bc1565b7f455243313135354d657461235f7472616e736665724761734665653a20554e5381526d2aa82827a92a22a22faa27a5a2a760911b602082015260400192915050565b611dc781612bf6565b600061100e8284611e2f565b60006126b08286611ed8565b91506126bc8285611e8f565b6020820191506126cc8284611e8f565b506020019392505050565b60006126e38286611ed8565b91506126ef8285611e8f565b6020820191506126ff8284611ed8565b95945050505050565b600061271382611f54565b915061271f8284611e8f565b50602001919050565b60a081016127368288611dbe565b6127436020830187611dcd565b81810360408301526127558186611dd6565b905081810360608301526127698185611dd6565b9050818103608083015261277d8184611ea0565b979650505050505050565b60a081016127968288611dbe565b6127a36020830187611dcd565b6127b06040830186611e86565b6127bd6060830185611e86565b818103608083015261277d8184611ea0565b606081016127dd8286611dcd565b6127ea6020830185611dcd565b610bc66040830184611e86565b60a081016128058287611dcd565b6128126020830186611dcd565b61281f6040830185611e86565b61282c6060830184611e86565b818103608083015261283d81612492565b9695505050505050565b6020808252810161100e8184611dd6565b604080825281016128698185611dd6565b90508181036020830152610bc68184611dd6565b602081016101f18284611e7d565b604081016128998285611e86565b61100e6020830184611dcd565b60c081016128b48289611e86565b6128c16020830188611dcd565b6128ce6040830187611dcd565b6128db6060830186611e86565b6128e86080830185611e86565b61277d60a0830184611e86565b60a081016129038288611e86565b6129106020830187611dcd565b61291d6040830186611dcd565b61292a6060830185611e86565b61283d6080830184611e86565b604081016129458285611e86565b8181036020830152610bc68184611ea0565b608081016129658287611e86565b612972602083018661268f565b61297f6040830185611e86565b6126ff6060830184611e86565b6040808252810161299d8185611ea0565b90508181036020830152610bc68184611ea0565b602080825281016101f181611f07565b602080825281016101f181611f8d565b602080825281016101f181611fec565b602080825281016101f181612038565b602080825281016101f181612071565b602080825281016101f1816120c8565b602080825281016101f181612115565b602080825281016101f18161216a565b602080825281016101f1816121b0565b602080825281016101f181612205565b602080825281016101f181612252565b602080825281016101f1816122a4565b602080825281016101f1816122f2565b602080825281016101f181612346565b602080825281016101f181612389565b602080825281016101f1816123da565b602080825281016101f181612433565b602080825281016101f18161249f565b602080825281016101f1816124fe565b602080825281016101f18161255d565b602080825281016101f1816125bc565b602080825281016101f1816125ee565b602080825281016101f18161263f565b602081016101f18284611e86565b60408101612b3d8285611e86565b61100e6020830184611e86565b6040518181016001600160401b0381118282101715612b6857600080fd5b604052919050565b60006001600160401b03821115612b8657600080fd5b5060209081020190565b60006001600160401b03821115612ba657600080fd5b506020601f91909101601f19160190565b60200190565b5190565b90815260200190565b60006101f182612bea565b151590565b90565b6001600160e01b03191690565b6001600160a01b031690565b60ff1690565b60006101f18260006101f182612bca565b82818337506000910152565b60005b83811015612c34578181015183820152602001612c1c565b83811115612c43576000848401525b50505050565b601f01601f191690565b612c5c81612bca565b8114612c6757600080fd5b50565b612c5c81612bd5565b612c5c81612bda565b612c5c81612bdd56fe5369676e617475726556616c696461746f7223697356616c69645369676e6174a365627a7a723158202b5cc86afce31c477bc1d4ba11ddef5419fbfda24531588273aa6111b4d6c92c6c6578706572696d656e74616cf564736f6c63430005100040",
  "source": "pragma solidity ^0.5.16;\npragma experimental ABIEncoderV2;\n\nimport \"./ERC1155.sol\";\nimport \"../../interfaces/IERC20.sol\";\nimport \"../../interfaces/IERC1155.sol\";\nimport \"../../utils/LibBytes.sol\";\nimport \"../../utils/SignatureValidator.sol\";\n\n\n/**\n * @dev ERC-1155 with native metatransaction methods. These additional functions allow users\n *      to presign function calls and allow third parties to execute these on their behalf\n */\ncontract ERC1155Meta is ERC1155, SignatureValidator {\n  using LibBytes for bytes;\n\n  /***********************************|\n  |       Variables and Structs       |\n  |__________________________________*/\n\n  /**\n   * Gas Receipt\n   *   feeTokenData : (bool, address, ?unit256)\n   *     1st element should be the address of the token\n   *     2nd argument (if ERC-1155) should be the ID of the token\n   *     Last element should be a 0x0 if ERC-20 and 0x1 for ERC-1155\n   */\n  struct GasReceipt {\n    uint256 gasFee;           // Fixed cost for the tx\n    uint256 gasLimitCallback; // Maximum amount of gas the callback in transfer functions can use\n    address feeRecipient;     // Address to send payment to\n    bytes feeTokenData;       // Data for token to pay for gas\n  }\n\n  // Which token standard is used to pay gas fee\n  enum FeeTokenType {\n    ERC1155,    // 0x00, ERC-1155 token - DEFAULT\n    ERC20,      // 0x01, ERC-20 token\n    NTypes      // 0x02, number of signature types. Always leave at end.\n  }\n\n  // Signature nonce per address\n  mapping (address => uint256) internal nonces;\n\n\n  /***********************************|\n  |               Events              |\n  |__________________________________*/\n\n  event NonceChange(address indexed signer, uint256 newNonce);\n\n\n  /****************************************|\n  |     Public Meta Transfer Functions     |\n  |_______________________________________*/\n\n  /**\n   * @notice Allows anyone with a valid signature to transfer _amount amount of a token _id on the bahalf of _from\n   * @param _from     Source address\n   * @param _to       Target address\n   * @param _id       ID of the token type\n   * @param _amount   Transfered amount\n   * @param _isGasFee Whether gas is reimbursed to executor or not\n   * @param _data     Encodes a meta transfer indicator, signature, gas payment receipt and extra transfer data\n   *   _data should be encoded as (\n   *   (bytes32 r, bytes32 s, uint8 v, uint256 nonce, SignatureType sigType),\n   *   (GasReceipt g, ?bytes transferData)\n   * )\n   *   i.e. high level encoding should be (bytes, bytes), where the latter bytes array is a nested bytes array\n   */\n  function metaSafeTransferFrom(\n    address _from,\n    address _to,\n    uint256 _id,\n    uint256 _amount,\n    bool _isGasFee,\n    bytes memory _data)\n    public\n  {\n    require(_to != address(0), \"ERC1155Meta#metaSafeTransferFrom: INVALID_RECIPIENT\");\n\n    // Initializing\n    bytes memory transferData;\n    GasReceipt memory gasReceipt;\n\n    // Verify signature and extract the signed data\n    bytes memory signedData = _signatureValidation(\n      _from,\n      _data,\n      abi.encode(\n        META_TX_TYPEHASH,\n        _from, // Address as uint256\n        _to,   // Address as uint256\n        _id,\n        _amount,\n        _isGasFee ? uint256(1) : uint256(0)  // Boolean as uint256\n      )\n    );\n\n    // Transfer asset\n    _safeTransferFrom(_from, _to, _id, _amount);\n\n    // If Gas is being reimbursed\n    if (_isGasFee) {\n      (gasReceipt, transferData) = abi.decode(signedData, (GasReceipt, bytes));\n\n      // We need to somewhat protect relayers against gas griefing attacks in recipient contract.\n      // Hence we only pass the gasLimit to the recipient such that the relayer knows the griefing\n      // limit. Nothing can prevent the receiver to revert the transaction as close to the gasLimit as\n      // possible, but the relayer can now only accept meta-transaction gasLimit within a certain range.\n      _callonERC1155Received(_from, _to, _id, _amount, gasReceipt.gasLimitCallback, signedData);\n\n      // Transfer gas cost\n      _transferGasFee(_from, gasReceipt);\n\n    } else {\n      _callonERC1155Received(_from, _to, _id, _amount, gasleft(), signedData);\n    }\n  }\n\n  /**\n   * @notice Allows anyone with a valid signature to transfer multiple types of tokens on the bahalf of _from\n   * @param _from     Source addresses\n   * @param _to       Target addresses\n   * @param _ids      IDs of each token type\n   * @param _amounts  Transfer amounts per token type\n   * @param _isGasFee Whether gas is reimbursed to executor or not\n   * @param _data     Encodes a meta transfer indicator, signature, gas payment receipt and extra transfer data\n   *   _data should be encoded as (\n   *   (bytes32 r, bytes32 s, uint8 v, uint256 nonce, SignatureType sigType),\n   *   (GasReceipt g, ?bytes transferData)\n   * )\n   *   i.e. high level encoding should be (bytes, bytes), where the latter bytes array is a nested bytes array\n   */\n  function metaSafeBatchTransferFrom(\n    address _from,\n    address _to,\n    uint256[] memory _ids,\n    uint256[] memory _amounts,\n    bool _isGasFee,\n    bytes memory _data)\n    public\n  {\n    require(_to != address(0), \"ERC1155Meta#metaSafeBatchTransferFrom: INVALID_RECIPIENT\");\n\n    // Initializing\n    bytes memory transferData;\n    GasReceipt memory gasReceipt;\n\n    // Verify signature and extract the signed data\n    bytes memory signedData = _signatureValidation(\n      _from,\n      _data,\n      abi.encode(\n        META_BATCH_TX_TYPEHASH,\n        _from, // Address as uint256\n        _to,   // Address as uint256\n        keccak256(abi.encodePacked(_ids)),\n        keccak256(abi.encodePacked(_amounts)),\n        _isGasFee ? uint256(1) : uint256(0)  // Boolean as uint256\n      )\n    );\n\n    // Transfer assets\n    _safeBatchTransferFrom(_from, _to, _ids, _amounts);\n\n    // If gas fee being reimbursed\n    if (_isGasFee) {\n      (gasReceipt, transferData) = abi.decode(signedData, (GasReceipt, bytes));\n\n      // We need to somewhat protect relayers against gas griefing attacks in recipient contract.\n      // Hence we only pass the gasLimit to the recipient such that the relayer knows the griefing\n      // limit. Nothing can prevent the receiver to revert the transaction as close to the gasLimit as\n      // possible, but the relayer can now only accept meta-transaction gasLimit within a certain range.\n      _callonERC1155BatchReceived(_from, _to, _ids, _amounts, gasReceipt.gasLimitCallback, signedData);\n\n      // Handle gas reimbursement\n      _transferGasFee(_from, gasReceipt);\n\n    } else {\n      _callonERC1155BatchReceived(_from, _to, _ids, _amounts, gasleft(), signedData);\n    }\n  }\n\n\n  /***********************************|\n  |         Operator Functions        |\n  |__________________________________*/\n\n  /**\n   * @notice Approve the passed address to spend on behalf of _from if valid signature is provided\n   * @param _owner     Address that wants to set operator status  _spender\n   * @param _operator  Address to add to the set of authorized operators\n   * @param _approved  True if the operator is approved, false to revoke approval\n   * @param _isGasFee  Whether gas will be reimbursed or not, with vlid signature\n   * @param _data      Encodes signature and gas payment receipt\n   *   _data should be encoded as (\n   *     (bytes32 r, bytes32 s, uint8 v, uint256 nonce, SignatureType sigType),\n   *     (GasReceipt g)\n   *   )\n   *   i.e. high level encoding should be (bytes, bytes), where the latter bytes array is a nested bytes array\n   */\n  function metaSetApprovalForAll(\n    address _owner,\n    address _operator,\n    bool _approved,\n    bool _isGasFee,\n    bytes memory _data)\n    public\n  {\n    // Verify signature and extract the signed data\n    bytes memory signedData = _signatureValidation(\n      _owner,\n      _data,\n      abi.encode(\n        META_APPROVAL_TYPEHASH,\n        _owner,                              // Address as uint256\n        _operator,                           // Address as uint256\n        _approved ? uint256(1) : uint256(0), // Boolean as uint256\n        _isGasFee ? uint256(1) : uint256(0)  // Boolean as uint256\n      )\n    );\n\n    // Update operator status\n    operators[_owner][_operator] = _approved;\n\n    // Emit event\n    emit ApprovalForAll(_owner, _operator, _approved);\n\n    // Handle gas reimbursement\n    if (_isGasFee) {\n      GasReceipt memory gasReceipt = abi.decode(signedData, (GasReceipt));\n      _transferGasFee(_owner, gasReceipt);\n    }\n  }\n\n\n\n  /****************************************|\n  |      Signature Validation Functions     |\n  |_______________________________________*/\n\n  // keccak256(\n  //   \"metaSafeTransferFrom(address,address,uint256,uint256,bool,bytes)\"\n  // );\n  bytes32 internal constant META_TX_TYPEHASH = 0xce0b514b3931bdbe4d5d44e4f035afe7113767b7db71949271f6a62d9c60f558;\n\n  // keccak256(\n  //   \"metaSafeBatchTransferFrom(address,address,uint256[],uint256[],bool,bytes)\"\n  // );\n  bytes32 internal constant META_BATCH_TX_TYPEHASH = 0xa3d4926e8cf8fe8e020cd29f514c256bc2eec62aa2337e415f1a33a4828af5a0;\n\n  // keccak256(\n  //   \"metaSetApprovalForAll(address,address,bool,bool,bytes)\"\n  // );\n  bytes32 internal constant META_APPROVAL_TYPEHASH = 0xf5d4c820494c8595de274c7ff619bead38aac4fbc3d143b5bf956aa4b84fa524;\n\n  /**\n   * @notice Verifies signatures for this contract\n   * @param _signer     Address of signer\n   * @param _sigData    Encodes signature, gas payment receipt and transfer data (if any)\n   * @param _encMembers Encoded EIP-712 type members (except nonce and _data), all need to be 32 bytes size\n   * @dev _data should be encoded as (\n   *   (bytes32 r, bytes32 s, uint8 v, uint256 nonce, SignatureType sigType),\n   *   (GasReceipt g, ?bytes transferData)\n   * )\n   *   i.e. high level encoding should be (bytes, bytes), where the latter bytes array is a nested bytes array\n   * @dev A valid nonce is a nonce that is within 100 value from the current nonce\n   */\n  function _signatureValidation(\n    address _signer,\n    bytes memory _sigData,\n    bytes memory _encMembers)\n    internal returns (bytes memory signedData)\n  {\n    bytes memory sig;\n\n    // Get signature and data to sign\n    (sig, signedData) = abi.decode(_sigData, (bytes, bytes));\n\n    // Get current nonce and nonce used for signature\n    uint256 currentNonce = nonces[_signer];        // Lowest valid nonce for signer\n    uint256 nonce = uint256(sig.readBytes32(65));  // Nonce passed in the signature object\n\n    // Verify if nonce is valid\n    require(\n      (nonce >= currentNonce) && (nonce < (currentNonce + 100)),\n      \"ERC1155Meta#_signatureValidation: INVALID_NONCE\"\n    );\n\n    // Take hash of bytes arrays\n    bytes32 hash = hashEIP712Message(keccak256(abi.encodePacked(_encMembers, nonce, keccak256(signedData))));\n\n    // Complete data to pass to signer verifier\n    bytes memory fullData = abi.encodePacked(_encMembers, nonce, signedData);\n\n    //Update signature nonce\n    nonces[_signer] = nonce + 1;\n    emit NonceChange(_signer, nonce + 1);\n\n    // Verify if _from is the signer\n    require(isValidSignature(_signer, hash, fullData, sig), \"ERC1155Meta#_signatureValidation: INVALID_SIGNATURE\");\n    return signedData;\n  }\n\n  /**\n   * @notice Returns the current nonce associated with a given address\n   * @param _signer Address to query signature nonce for\n   */\n  function getNonce(address _signer)\n    public view returns (uint256 nonce)\n  {\n    return nonces[_signer];\n  }\n\n\n  /***********************************|\n  |    Gas Reimbursement Functions    |\n  |__________________________________*/\n\n  /**\n   * @notice Will reimburse tx.origin or fee recipient for the gas spent execution a transaction\n   *         Can reimbuse in any ERC-20 or ERC-1155 token\n   * @param _from  Address from which the payment will be made from\n   * @param _g     GasReceipt object that contains gas reimbursement information\n   */\n  function _transferGasFee(address _from, GasReceipt memory _g)\n      internal\n  {\n    // Pop last byte to get token fee type\n    uint8 feeTokenTypeRaw = uint8(_g.feeTokenData.popLastByte());\n\n    // Ensure valid fee token type\n    require(\n      feeTokenTypeRaw < uint8(FeeTokenType.NTypes),\n      \"ERC1155Meta#_transferGasFee: UNSUPPORTED_TOKEN\"\n    );\n\n    // Convert to FeeTokenType corresponding value\n    FeeTokenType feeTokenType = FeeTokenType(feeTokenTypeRaw);\n\n    // Declarations\n    address tokenAddress;\n    address feeRecipient;\n    uint256 tokenID;\n    uint256 fee = _g.gasFee;\n\n    // If receiver is 0x0, then anyone can claim, otherwise, refund addresse provided\n    feeRecipient = _g.feeRecipient == address(0) ? msg.sender : _g.feeRecipient;\n\n    // Fee token is ERC1155\n    if (feeTokenType == FeeTokenType.ERC1155) {\n      (tokenAddress, tokenID) = abi.decode(_g.feeTokenData, (address, uint256));\n\n      // Fee is paid from this ERC1155 contract\n      if (tokenAddress == address(this)) {\n        _safeTransferFrom(_from, feeRecipient, tokenID, fee);\n\n        // No need to protect against griefing since recipient (if contract) is most likely owned by the relayer\n        _callonERC1155Received(_from, feeRecipient, tokenID, gasleft(), fee, \"\");\n\n      // Fee is paid from another ERC-1155 contract\n      } else {\n        IERC1155(tokenAddress).safeTransferFrom(_from, feeRecipient, tokenID, fee, \"\");\n      }\n\n    // Fee token is ERC20\n    } else {\n      tokenAddress = abi.decode(_g.feeTokenData, (address));\n      require(\n        IERC20(tokenAddress).transferFrom(_from, feeRecipient, fee),\n        \"ERC1155Meta#_transferGasFee: ERC20_TRANSFER_FAILED\"\n      );\n    }\n  }\n}",
  "sourcePath": "multi-token-standard/contracts/tokens/ERC1155/ERC1155Meta.sol",
  "compiler": {
    "name": "solc",
    "version": "0.5.16+commit.9c3226ce.Emscripten.clang"
  },
  "schemaVersion": "3.1.0",
  "updatedAt": "2020-06-26T16:37:43.030Z",
  "devdoc": {
    "details": "ERC-1155 with native metatransaction methods. These additional functions allow users     to presign function calls and allow third parties to execute these on their behalf",
    "methods": {
      "balanceOf(address,uint256)": {
        "params": {
          "_id": "ID of the Token",
          "_owner": "The address of the token holder"
        },
        "return": "The _owner's balance of the Token type requested"
      },
      "balanceOfBatch(address[],uint256[])": {
        "params": {
          "_ids": "ID of the Tokens",
          "_owners": "The addresses of the token holders"
        },
        "return": "The _owner's balance of the Token types requested (i.e. balance for each (owner, id) pair)"
      },
      "getNonce(address)": {
        "params": {
          "_signer": "Address to query signature nonce for"
        }
      },
      "isApprovedForAll(address,address)": {
        "params": {
          "_operator": "Address of authorized operator",
          "_owner": "The owner of the Tokens"
        },
        "return": "True if the operator is approved, false if not"
      },
      "isValidSignature(address,bytes32,bytes,bytes)": {
        "details": "Verifies that a hash has been signed by the given signer.",
        "params": {
          "_data": "Full EIP-712 data structure that was hashed and signed",
          "_hash": "Hash of the EIP-712 encoded data",
          "_sig": "Proof that the hash has been signed by signer.     For non wallet signatures, _sig is expected to be an array tightly encoded as     (bytes32 r, bytes32 s, uint8 v, uint256 nonce, SignatureType sigType)",
          "_signerAddress": "Address that should have signed the given hash."
        },
        "return": "True if the address recovered from the provided signature matches the input signer address."
      },
      "metaSafeBatchTransferFrom(address,address,uint256[],uint256[],bool,bytes)": {
        "params": {
          "_amounts": "Transfer amounts per token type",
          "_data": "Encodes a meta transfer indicator, signature, gas payment receipt and extra transfer data  _data should be encoded as (  (bytes32 r, bytes32 s, uint8 v, uint256 nonce, SignatureType sigType),  (GasReceipt g, ?bytes transferData) )  i.e. high level encoding should be (bytes, bytes), where the latter bytes array is a nested bytes array",
          "_from": "Source addresses",
          "_ids": "IDs of each token type",
          "_isGasFee": "Whether gas is reimbursed to executor or not",
          "_to": "Target addresses"
        }
      },
      "metaSafeTransferFrom(address,address,uint256,uint256,bool,bytes)": {
        "params": {
          "_amount": "Transfered amount",
          "_data": "Encodes a meta transfer indicator, signature, gas payment receipt and extra transfer data  _data should be encoded as (  (bytes32 r, bytes32 s, uint8 v, uint256 nonce, SignatureType sigType),  (GasReceipt g, ?bytes transferData) )  i.e. high level encoding should be (bytes, bytes), where the latter bytes array is a nested bytes array",
          "_from": "Source address",
          "_id": "ID of the token type",
          "_isGasFee": "Whether gas is reimbursed to executor or not",
          "_to": "Target address"
        }
      },
      "metaSetApprovalForAll(address,address,bool,bool,bytes)": {
        "params": {
          "_approved": "True if the operator is approved, false to revoke approval",
          "_data": "Encodes signature and gas payment receipt  _data should be encoded as (    (bytes32 r, bytes32 s, uint8 v, uint256 nonce, SignatureType sigType),    (GasReceipt g)  )  i.e. high level encoding should be (bytes, bytes), where the latter bytes array is a nested bytes array",
          "_isGasFee": "Whether gas will be reimbursed or not, with vlid signature",
          "_operator": "Address to add to the set of authorized operators",
          "_owner": "Address that wants to set operator status  _spender"
        }
      },
      "safeBatchTransferFrom(address,address,uint256[],uint256[],bytes)": {
        "params": {
          "_amounts": "Transfer amounts per token type",
          "_data": "Additional data with no specified format, sent in call to `_to`",
          "_from": "Source addresses",
          "_ids": "IDs of each token type",
          "_to": "Target addresses"
        }
      },
      "safeTransferFrom(address,address,uint256,uint256,bytes)": {
        "params": {
          "_amount": "Transfered amount",
          "_data": "Additional data with no specified format, sent in call to `_to`",
          "_from": "Source address",
          "_id": "ID of the token type",
          "_to": "Target address"
        }
      },
      "setApprovalForAll(address,bool)": {
        "params": {
          "_approved": "True if the operator is approved, false to revoke approval",
          "_operator": "Address to add to the set of authorized operators"
        }
      },
      "supportsInterface(bytes4)": {
        "params": {
          "_interfaceID": "The interface identifier, as specified in ERC-165"
        },
        "return": "`true` if the contract implements `_interfaceID` and"
      }
    }
  },
  "userdoc": {
    "methods": {
      "balanceOf(address,uint256)": {
        "notice": "Get the balance of an account's Tokens"
      },
      "balanceOfBatch(address[],uint256[])": {
        "notice": "Get the balance of multiple account/token pairs"
      },
      "getNonce(address)": {
        "notice": "Returns the current nonce associated with a given address"
      },
      "isApprovedForAll(address,address)": {
        "notice": "Queries the approval status of an operator for a given owner"
      },
      "metaSafeBatchTransferFrom(address,address,uint256[],uint256[],bool,bytes)": {
        "notice": "Allows anyone with a valid signature to transfer multiple types of tokens on the bahalf of _from"
      },
      "metaSafeTransferFrom(address,address,uint256,uint256,bool,bytes)": {
        "notice": "Allows anyone with a valid signature to transfer _amount amount of a token _id on the bahalf of _from"
      },
      "metaSetApprovalForAll(address,address,bool,bool,bytes)": {
        "notice": "Approve the passed address to spend on behalf of _from if valid signature is provided"
      },
      "safeBatchTransferFrom(address,address,uint256[],uint256[],bytes)": {
        "notice": "Send multiple types of Tokens from the _from address to the _to address (with safety call)"
      },
      "safeTransferFrom(address,address,uint256,uint256,bytes)": {
        "notice": "Transfers amount amount of an _id from the _from address to the _to address specified"
      },
      "setApprovalForAll(address,bool)": {
        "notice": "Enable or disable approval for a third party (\"operator\") to manage all of caller's tokens"
      },
      "supportsInterface(bytes4)": {
        "notice": "Query if a contract implements an interface"
      }
    }
  }
}