{
  "contractName": "EternalHeroesFactory",
  "abi": [
    {
      "inputs": [
        {
          "internalType": "address",
          "name": "_factoryManagerAddr",
          "type": "address"
        },
        {
          "internalType": "address",
          "name": "_arcadeumCoinAddr",
          "type": "address"
        },
        {
          "internalType": "uint256",
          "name": "_arcadeumCoinID",
          "type": "uint256"
        },
        {
          "internalType": "uint256",
          "name": "_floorPrice",
          "type": "uint256"
        },
        {
          "internalType": "uint256",
          "name": "_tierSize",
          "type": "uint256"
        },
        {
          "internalType": "uint256",
          "name": "_priceIncrement",
          "type": "uint256"
        }
      ],
      "payable": false,
      "stateMutability": "nonpayable",
      "type": "constructor"
    },
    {
      "anonymous": false,
      "inputs": [
        {
          "indexed": true,
          "internalType": "address",
          "name": "recipient",
          "type": "address"
        },
        {
          "indexed": false,
          "internalType": "uint256[]",
          "name": "tokensBoughtIds",
          "type": "uint256[]"
        },
        {
          "indexed": false,
          "internalType": "uint256[]",
          "name": "tokensBoughtAmounts",
          "type": "uint256[]"
        },
        {
          "indexed": false,
          "internalType": "uint256",
          "name": "totalCost",
          "type": "uint256"
        }
      ],
      "name": "AssetsPurchased",
      "type": "event"
    },
    {
      "anonymous": false,
      "inputs": [
        {
          "indexed": false,
          "internalType": "uint256[]",
          "name": "ids",
          "type": "uint256[]"
        }
      ],
      "name": "IDsDeregistration",
      "type": "event"
    },
    {
      "anonymous": false,
      "inputs": [
        {
          "indexed": false,
          "internalType": "uint256[]",
          "name": "ids",
          "type": "uint256[]"
        }
      ],
      "name": "IDsRegistration",
      "type": "event"
    },
    {
      "anonymous": false,
      "inputs": [
        {
          "indexed": true,
          "internalType": "address",
          "name": "previousOwner",
          "type": "address"
        },
        {
          "indexed": true,
          "internalType": "address",
          "name": "newOwner",
          "type": "address"
        }
      ],
      "name": "OwnershipTransferred",
      "type": "event"
    },
    {
      "payable": false,
      "stateMutability": "nonpayable",
      "type": "fallback"
    },
    {
      "constant": true,
      "inputs": [],
      "name": "getOwner",
      "outputs": [
        {
          "internalType": "address",
          "name": "",
          "type": "address"
        }
      ],
      "payable": false,
      "stateMutability": "view",
      "type": "function"
    },
    {
      "constant": false,
      "inputs": [
        {
          "internalType": "address",
          "name": "_newOwner",
          "type": "address"
        }
      ],
      "name": "transferOwnership",
      "outputs": [],
      "payable": false,
      "stateMutability": "nonpayable",
      "type": "function"
    },
    {
      "constant": false,
      "inputs": [
        {
          "internalType": "uint256[]",
          "name": "_ids",
          "type": "uint256[]"
        }
      ],
      "name": "registerIDs",
      "outputs": [],
      "payable": false,
      "stateMutability": "nonpayable",
      "type": "function"
    },
    {
      "constant": false,
      "inputs": [
        {
          "internalType": "uint256[]",
          "name": "_ids",
          "type": "uint256[]"
        }
      ],
      "name": "deregisterIDs",
      "outputs": [],
      "payable": false,
      "stateMutability": "nonpayable",
      "type": "function"
    },
    {
      "constant": false,
      "inputs": [
        {
          "internalType": "address",
          "name": "_recipient",
          "type": "address"
        }
      ],
      "name": "withdraw",
      "outputs": [],
      "payable": false,
      "stateMutability": "nonpayable",
      "type": "function"
    },
    {
      "constant": false,
      "inputs": [
        {
          "internalType": "address",
          "name": "",
          "type": "address"
        },
        {
          "internalType": "address",
          "name": "_from",
          "type": "address"
        },
        {
          "internalType": "uint256",
          "name": "_id",
          "type": "uint256"
        },
        {
          "internalType": "uint256",
          "name": "_amount",
          "type": "uint256"
        },
        {
          "internalType": "bytes",
          "name": "_data",
          "type": "bytes"
        }
      ],
      "name": "onERC1155Received",
      "outputs": [
        {
          "internalType": "bytes4",
          "name": "",
          "type": "bytes4"
        }
      ],
      "payable": false,
      "stateMutability": "nonpayable",
      "type": "function"
    },
    {
      "constant": false,
      "inputs": [
        {
          "internalType": "address",
          "name": "_operator",
          "type": "address"
        },
        {
          "internalType": "address",
          "name": "_from",
          "type": "address"
        },
        {
          "internalType": "uint256[]",
          "name": "_ids",
          "type": "uint256[]"
        },
        {
          "internalType": "uint256[]",
          "name": "_amounts",
          "type": "uint256[]"
        },
        {
          "internalType": "bytes",
          "name": "_data",
          "type": "bytes"
        }
      ],
      "name": "onERC1155BatchReceived",
      "outputs": [
        {
          "internalType": "bytes4",
          "name": "",
          "type": "bytes4"
        }
      ],
      "payable": false,
      "stateMutability": "nonpayable",
      "type": "function"
    },
    {
      "constant": true,
      "inputs": [
        {
          "internalType": "uint256[]",
          "name": "_ids",
          "type": "uint256[]"
        }
      ],
      "name": "getPurchasableStatus",
      "outputs": [
        {
          "internalType": "bool[]",
          "name": "",
          "type": "bool[]"
        }
      ],
      "payable": false,
      "stateMutability": "view",
      "type": "function"
    },
    {
      "constant": true,
      "inputs": [],
      "name": "getFactoryManager",
      "outputs": [
        {
          "internalType": "address",
          "name": "",
          "type": "address"
        }
      ],
      "payable": false,
      "stateMutability": "view",
      "type": "function"
    },
    {
      "constant": true,
      "inputs": [],
      "name": "getArcadeumCoin",
      "outputs": [
        {
          "internalType": "address",
          "name": "",
          "type": "address"
        }
      ],
      "payable": false,
      "stateMutability": "view",
      "type": "function"
    },
    {
      "constant": true,
      "inputs": [],
      "name": "getArcadeumCoinID",
      "outputs": [
        {
          "internalType": "uint256",
          "name": "",
          "type": "uint256"
        }
      ],
      "payable": false,
      "stateMutability": "view",
      "type": "function"
    },
    {
      "constant": true,
      "inputs": [
        {
          "internalType": "uint256[]",
          "name": "_ids",
          "type": "uint256[]"
        }
      ],
      "name": "getPrices",
      "outputs": [
        {
          "internalType": "uint256[]",
          "name": "",
          "type": "uint256[]"
        }
      ],
      "payable": false,
      "stateMutability": "view",
      "type": "function"
    },
    {
      "constant": true,
      "inputs": [
        {
          "internalType": "uint256[]",
          "name": "_ids",
          "type": "uint256[]"
        }
      ],
      "name": "getPriceTiers",
      "outputs": [
        {
          "internalType": "uint256[]",
          "name": "",
          "type": "uint256[]"
        }
      ],
      "payable": false,
      "stateMutability": "view",
      "type": "function"
    },
    {
      "constant": true,
      "inputs": [
        {
          "internalType": "uint256[]",
          "name": "_ids",
          "type": "uint256[]"
        }
      ],
      "name": "getSuppliesCurrentTier",
      "outputs": [
        {
          "internalType": "uint256[]",
          "name": "tiers",
          "type": "uint256[]"
        },
        {
          "internalType": "uint256[]",
          "name": "supplies",
          "type": "uint256[]"
        }
      ],
      "payable": false,
      "stateMutability": "view",
      "type": "function"
    },
    {
      "constant": true,
      "inputs": [],
      "name": "getFloorPrice",
      "outputs": [
        {
          "internalType": "uint256",
          "name": "",
          "type": "uint256"
        }
      ],
      "payable": false,
      "stateMutability": "view",
      "type": "function"
    },
    {
      "constant": true,
      "inputs": [],
      "name": "getTierSize",
      "outputs": [
        {
          "internalType": "uint256",
          "name": "",
          "type": "uint256"
        }
      ],
      "payable": false,
      "stateMutability": "view",
      "type": "function"
    },
    {
      "constant": true,
      "inputs": [],
      "name": "getPriceIncrement",
      "outputs": [
        {
          "internalType": "uint256",
          "name": "",
          "type": "uint256"
        }
      ],
      "payable": false,
      "stateMutability": "view",
      "type": "function"
    },
    {
      "constant": true,
      "inputs": [
        {
          "internalType": "bytes4",
          "name": "interfaceID",
          "type": "bytes4"
        }
      ],
      "name": "supportsInterface",
      "outputs": [
        {
          "internalType": "bool",
          "name": "",
          "type": "bool"
        }
      ],
      "payable": false,
      "stateMutability": "view",
      "type": "function"
    }
  ],
  "bytecode": "0x60806040523480156200001157600080fd5b50604051620022de380380620022de833981016040819052620000349162000158565b600080546001600160a01b03191633178082556040516001600160a01b039190911691907f8be0079c531659141344cd1fd0a4f28419497f9722a3daafe3b4186f6b6457e0908290a36001600160a01b038616158015906200009e57506001600160a01b03851615155b8015620000ae57506305f5e10083115b8015620000bb5750600082115b8015620000c85750600081115b620000f05760405162461bcd60e51b8152600401620000e7906200023f565b60405180910390fd5b600180546001600160a01b039788166001600160a01b031991821617909155600280549690971695169490941790945560039190915560055560069190915560075562000294565b805162000145816200026f565b92915050565b8051620001458162000289565b60008060008060008060c087890312156200017257600080fd5b600062000180898962000138565b96505060206200019389828a0162000138565b9550506040620001a689828a016200014b565b9450506060620001b989828a016200014b565b9350506080620001cc89828a016200014b565b92505060a0620001df89828a016200014b565b9150509295509295509295565b6000620001fb602f8362000251565b7f457465726e616c4865726f6573466163746f727923636f6e7374727563746f7281526e0e881253959053125117d253941555608a1b602082015260400192915050565b602080825281016200014581620001ec565b90815260200190565b60006001600160a01b03821662000145565b90565b6200027a816200025a565b81146200028657600080fd5b50565b6200027a816200026c565b61203a80620002a46000396000f3fe608060405234801561001057600080fd5b50600436106101165760003560e01c80637141f0ad116100a2578063ebf04af011610071578063ebf04af014610269578063f23a6e6114610271578063f2fde38b14610284578063f5fdcfdc14610297578063ffb6ae741461029f57610116565b80637141f0ad1461021b57806379fd22151461022e578063893d20e814610241578063bc197c811461024957610116565b80631aab6842116100e95780631aab6842146101a85780632a33d6b2146101b057806351cff8d9146101c557806360e2d615146101da5780636547c20a146101fa57610116565b806301ffc9a71461013757806309cb3a4e146101605780630d2fe595146101805780630ed73b4714610193575b60405162461bcd60e51b815260040161012e90611e28565b60405180910390fd5b61014a61014536600461163a565b6102a7565b6040516101579190611dec565b60405180910390f35b61017361016e3660046115c5565b6102de565b6040516101579190611d82565b61017361018e3660046115c5565b610425565b61019b610520565b6040516101579190611c96565b61019b61052f565b6101b861053e565b6040516101579190611f08565b6101d86101d336600461148e565b610544565b005b6101ed6101e83660046115c5565b610686565b6040516101579190611d5f565b61020d6102083660046115c5565b610724565b604051610157929190611d93565b6101d86102293660046115c5565b6108a7565b6101d861023c3660046115c5565b61095c565b61019b610ace565b61025c6102573660046114b4565b610add565b6040516101579190611dfa565b6101b8610b76565b61025c61027f36600461156e565b610b7c565b6101d861029236600461148e565b610c34565b6101b8610cd2565b6101b8610cd8565b60006301ffc9a760e01b6001600160e01b0319831614806102d85750630271189760e51b6001600160e01b03198316145b92915050565b6060808383905060405190808252806020026020018201604052801561030e578160200160208202803883390190505b50600154604051636968368b60e01b81529192506060916001600160a01b0390911690636968368b906103479088908890600401611d70565b60006040518083038186803b15801561035f57600080fd5b505afa158015610373573d6000803e3d6000fd5b505050506040513d6000823e601f3d908101601f1916820160405261039b9190810190611606565b905060005b8481101561041b5760006103d26006548484815181106103bc57fe5b6020026020010151610cde90919063ffffffff16565b90506103fb6103ec60075483610d1390919063ffffffff16565b6005549063ffffffff610d5416565b84838151811061040757fe5b6020908102919091010152506001016103a0565b5090949350505050565b60608083839050604051908082528060200260200182016040528015610455578160200160208202803883390190505b50600154604051636968368b60e01b81529192506060916001600160a01b0390911690636968368b9061048e9088908890600401611d70565b60006040518083038186803b1580156104a657600080fd5b505afa1580156104ba573d6000803e3d6000fd5b505050506040513d6000823e601f3d908101601f191682016040526104e29190810190611606565b905060005b8481101561041b576105016006548383815181106103bc57fe5b83828151811061050d57fe5b60209081029190910101526001016104e7565b6002546001600160a01b031690565b6001546001600160a01b031690565b60055490565b6000546001600160a01b0316331461056e5760405162461bcd60e51b815260040161012e90611ed8565b6001600160a01b0381166105945760405162461bcd60e51b815260040161012e90611e08565b600254600354604051627eeac760e11b81526000926001600160a01b03169162fdd58e916105c6913091600401611d44565b60206040518083038186803b1580156105de57600080fd5b505afa1580156105f2573d6000803e3d6000fd5b505050506040513d601f19601f82011682018060405250610616919081019061168c565b600254600354604051637921219560e11b81529293506001600160a01b039091169163f242432a9161065091309187918790600401611ca4565b600060405180830381600087803b15801561066a57600080fd5b505af115801561067e573d6000803e3d6000fd5b505050505050565b604080518281526020808402820101909152606090829082908280156106b6578160200160208202803883390190505b50905060005b8281101561071b57600460008787848181106106d457fe5b90506020020135815260200190815260200160002060009054906101000a900460ff1682828151811061070357fe5b911515602092830291909101909101526001016106bc565b50949350505050565b60608083839050604051908082528060200260200182016040528015610754578160200160208202803883390190505b50604080518581526020808702820101909152909250838015610781578160200160208202803883390190505b50600154604051636968368b60e01b81529192506060916001600160a01b0390911690636968368b906107ba9088908890600401611d70565b60006040518083038186803b1580156107d257600080fd5b505afa1580156107e6573d6000803e3d6000fd5b505050506040513d6000823e601f3d908101601f1916820160405261080e9190810190611606565b60065490915060005b8581101561089c5761082f828483815181106103bc57fe5b85828151811061083b57fe5b60200260200101818152505061087d6108708385848151811061085a57fe5b6020026020010151610d7990919063ffffffff16565b839063ffffffff610da916565b84828151811061088957fe5b6020908102919091010152600101610817565b5050505b9250929050565b6000546001600160a01b031633146108d15760405162461bcd60e51b815260040161012e90611ed8565b60005b8181101561091e576000600460008585858181106108ee57fe5b60209081029290920135835250810191909152604001600020805460ff19169115159190911790556001016108d4565b507f9325b2ccabc86421ee926d519dfcb39be278f69994bc41d7f1e9aca206d462c58282604051610950929190611d70565b60405180910390a15050565b6000546001600160a01b031633146109865760405162461bcd60e51b815260040161012e90611ed8565b600154604051630cf383d760e01b81526060916001600160a01b031690630cf383d7906109b99086908690600401611d70565b60006040518083038186803b1580156109d157600080fd5b505afa1580156109e5573d6000803e3d6000fd5b505050506040513d6000823e601f3d908101601f19168201604052610a0d9190810190611606565b905060005b82811015610a8f576000828281518110610a2857fe5b602002602001015111610a4d5760405162461bcd60e51b815260040161012e90611e88565b600160046000868685818110610a5f57fe5b60209081029290920135835250810191909152604001600020805460ff1916911515919091179055600101610a12565b507fbbc922d5dddf6a6f1d736140ea2d340a9b979f9e9810131e15e7b74dac1639648383604051610ac1929190611d70565b60405180910390a1505050565b6000546001600160a01b031690565b60008351600114610b005760405162461bcd60e51b815260040161012e90611e78565b610b35868686600081518110610b1257fe5b602002602001015186600081518110610b2757fe5b602002602001015186610b7c565b6001600160e01b03191663f23a6e6160e01b14610b645760405162461bcd60e51b815260040161012e90611e98565b5063bc197c8160e01b95945050505050565b60075490565b6002546000906001600160a01b03163314610ba95760405162461bcd60e51b815260040161012e90611ee8565b6003548414610bca5760405162461bcd60e51b815260040161012e90611e18565b610bd2611183565b82806020019051610be69190810190611658565b80519091506000906001600160a01b031615610c03578151610c05565b865b9050610c208260200151836040015184606001518885610dd1565b5063f23a6e6160e01b979650505050505050565b6000546001600160a01b03163314610c5e5760405162461bcd60e51b815260040161012e90611ed8565b6001600160a01b038116610c845760405162461bcd60e51b815260040161012e90611e58565b600080546001600160a01b0319166001600160a01b0383811691821780845560405192939116917f8be0079c531659141344cd1fd0a4f28419497f9722a3daafe3b4186f6b6457e09190a350565b60035490565b60065490565b6000808211610cff5760405162461bcd60e51b815260040161012e90611eb8565b6000828481610d0a57fe5b04949350505050565b600082610d22575060006102d8565b82820282848281610d2f57fe5b0414610d4d5760405162461bcd60e51b815260040161012e90611e68565b9392505050565b600082820183811015610d4d5760405162461bcd60e51b815260040161012e90611ef8565b600081610d985760405162461bcd60e51b815260040161012e90611ea8565b818381610da157fe5b069392505050565b600082821115610dcb5760405162461bcd60e51b815260040161012e90611e48565b50900390565b8451600654600154604051636968368b60e01b81526060916001600160a01b031690636968368b90610e07908b90600401611d82565b60006040518083038186803b158015610e1f57600080fd5b505afa158015610e33573d6000803e3d6000fd5b505050506040513d6000823e601f3d908101601f19168201604052610e5b9190810190611606565b90506000809050606084604051908082528060200260200182016040528015610e8e578160200160208202803883390190505b50905060005b858110156110465760008b8281518110610eaa57fe5b602002602001015190506000858381518110610ec257fe5b60200260200101519050600080905060008d8581518110610edf57fe5b6020908102919091018101516000868152600490925260409091205490915060ff16610f1d5760405162461bcd60e51b815260040161012e90611e38565b8415610f5857838f6001870381518110610f3357fe5b602002602001015110610f585760405162461bcd60e51b815260040161012e90611ec8565b6000610f6a848b63ffffffff610cde16565b9050808e8781518110610f7957fe5b602002602001015114610faa576000878781518110610f9457fe5b602002602001018181525050505050505061103e565b6000610fc46103ec60075484610d1390919063ffffffff16565b90506000610fe8610fdb878e63ffffffff610d7916565b8d9063ffffffff610da916565b9050808410610ff75780610ff9565b835b945061101b61100e868463ffffffff610d1316565b8b9063ffffffff610d5416565b99508489898151811061102a57fe5b602002602001018181525050505050505050505b600101610e94565b506000611059888463ffffffff610da916565b905080156110cb57600254600354604051637921219560e11b81526001600160a01b039092169163f242432a916110989130918c918790600401611ca4565b600060405180830381600087803b1580156110b257600080fd5b505af11580156110c6573d6000803e3d6000fd5b505050505b600154604051635a455c5b60e11b81526001600160a01b039091169063b48ab8b6906110ff908a908f908790600401611cf4565b600060405180830381600087803b15801561111957600080fd5b505af115801561112d573d6000803e3d6000fd5b50505050866001600160a01b03167f5e9cab807736585ae041edf0c3ff295d7bc5f129ffa343efb458649eabed98748c848660405161116e93929190611db8565b60405180910390a25050505050505050505050565b604051806080016040528060006001600160a01b031681526020016060815260200160608152602001606081525090565b80356102d881611fce565b80516102d881611fce565b60008083601f8401126111dc57600080fd5b5081356001600160401b038111156111f357600080fd5b6020830191508360208202830111156108a057600080fd5b600082601f83011261121c57600080fd5b815161122f61122a82611f3c565b611f16565b9150818183526020840193506020810190508385602084028201111561125457600080fd5b60005b83811015611280578161126a8882611483565b8452506020928301929190910190600101611257565b5050505092915050565b600082601f83011261129b57600080fd5b81356112a961122a82611f3c565b915081818352602084019350602081019050838560208402820111156112ce57600080fd5b60005b8381101561128057816112e48882611478565b84525060209283019291909101906001016112d1565b600082601f83011261130b57600080fd5b815161131961122a82611f3c565b9150818183526020840193506020810190508385602084028201111561133e57600080fd5b60005b8381101561128057816113548882611483565b8452506020928301929190910190600101611341565b80356102d881611fe5565b600082601f83011261138657600080fd5b813561139461122a82611f5c565b915080825260208301602083018583830111156113b057600080fd5b6113bb838284611fc2565b50505092915050565b6000608082840312156113d657600080fd5b6113e06080611f16565b905060006113ee84846111bf565b82525060208201516001600160401b0381111561140a57600080fd5b6114168482850161120b565b60208301525060408201516001600160401b0381111561143557600080fd5b6114418482850161120b565b60408301525060608201516001600160401b0381111561146057600080fd5b61146c8482850161120b565b60608301525092915050565b80356102d881611fee565b80516102d881611fee565b6000602082840312156114a057600080fd5b60006114ac84846111b4565b949350505050565b600080600080600060a086880312156114cc57600080fd5b60006114d888886111b4565b95505060206114e9888289016111b4565b94505060408601356001600160401b0381111561150557600080fd5b6115118882890161128a565b93505060608601356001600160401b0381111561152d57600080fd5b6115398882890161128a565b92505060808601356001600160401b0381111561155557600080fd5b61156188828901611375565b9150509295509295909350565b600080600080600060a0868803121561158657600080fd5b600061159288886111b4565b95505060206115a3888289016111b4565b94505060406115b488828901611478565b935050606061153988828901611478565b600080602083850312156115d857600080fd5b82356001600160401b038111156115ee57600080fd5b6115fa858286016111ca565b92509250509250929050565b60006020828403121561161857600080fd5b81516001600160401b0381111561162e57600080fd5b6114ac848285016112fa565b60006020828403121561164c57600080fd5b60006114ac848461136a565b60006020828403121561166a57600080fd5b81516001600160401b0381111561168057600080fd5b6114ac848285016113c4565b60006020828403121561169e57600080fd5b60006114ac8484611483565b60006116b683836117b9565b505060200190565b60006116b68383611c8d565b6116d381611f96565b82525050565b60006116e482611f89565b6116ee8185611f8d565b93506116f983611f83565b8060005b8381101561172757815161171188826116aa565b975061171c83611f83565b9250506001016116fd565b509495945050505050565b600061173e8385611f8d565b93506001600160fb1b0383111561175457600080fd5b602083029250611765838584611fc2565b50500190565b600061177682611f89565b6117808185611f8d565b935061178b83611f83565b8060005b838110156117275781516117a388826116be565b97506117ae83611f83565b92505060010161178f565b6116d381611fa1565b6116d381611fa6565b60006117d8603083611f8d565b7f457465726e616c4865726f6573466163746f72792377697468647261773a204981526f13959053125117d49150d2541251539560821b602082015260400192915050565b600061182a603683611f8d565b7f457465726e616c4865726f6573466163746f7279236f6e45524331313535526581527518d95a5d99590e881253959053125117d05490d7d25160521b602082015260400192915050565b6000611882601283611f8d565b71155394d5541413d495115117d351551213d160721b815260200192915050565b60006118b0602d83611f8d565b7f457465726e616c4865726f6573466163746f7279235f6275793a2049445f4e4f81526c545f5055524348415341424c4560981b602082015260400192915050565b60006118ff601783611f8d565b7f536166654d617468237375623a20554e444552464c4f57000000000000000000815260200192915050565b6000611938602a83611f8d565b7f4f776e61626c65237472616e736665724f776e6572736869703a20494e56414c81526949445f4144445245535360b01b602082015260400192915050565b6000611984601683611f8d565b75536166654d617468236d756c3a204f564552464c4f5760501b815260200192915050565b60006119b6604383611f8d565b7f457465726e616c4865726f6573466163746f7279236f6e45524331313535426181527f74636852656365697665643a20494e56414c49445f42415443485f5452414e536020820152622322a960e91b604082015260600192915050565b6000611a21603183611f8d565b7f457465726e616c4865726f6573466163746f72792372656769737465724944738152703a20554e4341505045445f535550504c5960781b602082015260400192915050565b6000611a74604783611f8d565b7f457465726e616c4865726f6573466163746f7279236f6e45524331313535426181527f74636852656365697665643a20494e56414c49445f4f4e52454345495645445f6020820152664d45535341474560c81b604082015260600192915050565b6000611ae3601e83611f8d565b7f536166654d617468236d6f643a204449564953494f4e5f42595f5a45524f0000815260200192915050565b6000611b1c601e83611f8d565b7f536166654d617468236469763a204449564953494f4e5f42595f5a45524f0000815260200192915050565b60006102d8600083611f8d565b6000611b62603a83611f8d565b7f457465726e616c4865726f6573466163746f7279235f6275793a20554e534f5281527f5445445f4f525f4455504c49434154455f544f4b454e5f494453000000000000602082015260400192915050565b6000611bc1602683611f8d565b7f4f776e61626c65236f6e6c794f776e65723a2053454e4445525f49535f4e4f548152652fa7aba722a960d11b602082015260400192915050565b6000611c09603b83611f8d565b7f457465726e616c4865726f6573466163746f7279236f6e45524331313535526581527f6365697665643a20494e56414c49445f4152435f414444524553530000000000602082015260400192915050565b6000611c68601683611f8d565b75536166654d617468236164643a204f564552464c4f5760501b815260200192915050565b6116d381611fbf565b602081016102d882846116ca565b60a08101611cb282876116ca565b611cbf60208301866116ca565b611ccc6040830185611c8d565b611cd96060830184611c8d565b8181036080830152611cea81611b48565b9695505050505050565b60808101611d0282866116ca565b8181036020830152611d14818561176b565b90508181036040830152611d28818461176b565b90508181036060830152611d3b81611b48565b95945050505050565b60408101611d5282856116ca565b610d4d6020830184611c8d565b60208082528101610d4d81846116d9565b602080825281016114ac818486611732565b60208082528101610d4d818461176b565b60408082528101611da4818561176b565b905081810360208301526114ac818461176b565b60608082528101611dc9818661176b565b90508181036020830152611ddd818561176b565b90506114ac6040830184611c8d565b602081016102d882846117b9565b602081016102d882846117c2565b602080825281016102d8816117cb565b602080825281016102d88161181d565b602080825281016102d881611875565b602080825281016102d8816118a3565b602080825281016102d8816118f2565b602080825281016102d88161192b565b602080825281016102d881611977565b602080825281016102d8816119a9565b602080825281016102d881611a14565b602080825281016102d881611a67565b602080825281016102d881611ad6565b602080825281016102d881611b0f565b602080825281016102d881611b55565b602080825281016102d881611bb4565b602080825281016102d881611bfc565b602080825281016102d881611c5b565b602081016102d88284611c8d565b6040518181016001600160401b0381118282101715611f3457600080fd5b604052919050565b60006001600160401b03821115611f5257600080fd5b5060209081020190565b60006001600160401b03821115611f7257600080fd5b506020601f91909101601f19160190565b60200190565b5190565b90815260200190565b60006102d882611fb3565b151590565b6001600160e01b03191690565b6001600160a01b031690565b90565b82818337506000910152565b611fd781611f96565b8114611fe257600080fd5b50565b611fd781611fa6565b611fd781611fbf56fea365627a7a723158207102777b4798231f1e9db94aa5778c62be860e73b20dc3e4f46bf753f419102f6c6578706572696d656e74616cf564736f6c63430005100040",
  "source": "pragma solidity ^0.5.16;\npragma experimental ABIEncoderV2;\n\nimport \"../utils/Ownable.sol\";\nimport \"../interfaces/ISWSupplyManager.sol\";\nimport \"multi-token-standard/contracts/interfaces/IERC1155.sol\";\nimport \"multi-token-standard/contracts/utils/SafeMath.sol\";\n\n/**\n * This is a contract allowing users to mint eternal heroes from HorizonGames.\n * Price starts lower and increases\n */\ncontract EternalHeroesFactory is Ownable {\n  using SafeMath for uint256;\n\n  /**\n   * TO DO\n   *   - Check for SLOADs for stepsFrequency and stepSize in `_buy`\n   *   - Add getter function\n   */\n\n  /***********************************|\n  |        Variables && Events        |\n  |__________________________________*/\n\n  // Constants\n  uint256 constant internal decimals = 2; // Number of decimals\n\n  // Initiate Variables\n  ISWSupplyManager internal factoryManager;  // SkyWeaver Factory manager contract\n  IERC1155 internal arcadeumCoin;            // ERC-1155 Arcadeum Coin contract\n  uint256 internal arcadeumCoinID;           // ID of ARC token in respective ERC-1155 contract\n\n  // OnReceive Objects\n  struct Order {\n    address recipient;             // Who receives the tokens\n    uint256[] tokensBoughtIDs;     // Token IDs to buy\n    uint256[] tokensBoughtAmounts; // Amount of token to buy for each ID\n    uint256[] expectedTiers;       // Tiers the user is expecting to buy at\n  }\n\n  // Mapping variables\n  mapping(uint256 => bool) internal isPurchasable;  // Whether a token ID can be purchased or not\n\n  // Variables\n  uint256 internal floorPrice;     // Base, most discounted price\n  uint256 internal tierSize;       // How many asset need to be purchased to move to next discount tier\n  uint256 internal priceIncrement; // Discount you get when you move up a discount step\n\n  /***********************************|\n  |               Events              |\n  |__________________________________*/\n\n  event AssetsPurchased(address indexed recipient, uint256[] tokensBoughtIds, uint256[] tokensBoughtAmounts, uint256 totalCost);\n  event IDsRegistration(uint256[] ids);\n  event IDsDeregistration(uint256[] ids);\n\n  /***********************************|\n  |            Constructor            |\n  |__________________________________*/\n\n  /**\n   * @notice Create factory, link factory manager and store initial paramters\n   * @param _factoryManagerAddr  The address of the Skyweaver Factory Manager contract\n   * @param _arcadeumCoinAddr    The address of the ERC-1155 Base Token\n   * @param _arcadeumCoinID      The ID of the ERC-1155 Base Token\n   * @param _floorPrice          Base, most discounted price\n   * @param _tierSize            How many asset need to be purchased to move to next discount tier\n   * @param _priceIncrement       Discount you get when you move up a discount step\n   */\n  constructor(\n    address _factoryManagerAddr,\n    address _arcadeumCoinAddr,\n    uint256 _arcadeumCoinID,\n    uint256 _floorPrice,\n    uint256 _tierSize,\n    uint256 _priceIncrement\n  ) public {\n\n    //Input validation\n    require(\n      _factoryManagerAddr != address(0) &&\n      _arcadeumCoinAddr != address(0) &&\n      _floorPrice > 100000000 && //Sanity check to \"make sure\" decimals are accounted for\n      _tierSize > 0 &&\n      _priceIncrement > 0,\n      \"EternalHeroesFactory#constructor: INVALID_INPUT\"\n    );\n\n    // Set variables and constants\n    factoryManager = ISWSupplyManager(_factoryManagerAddr);\n    arcadeumCoin = IERC1155(_arcadeumCoinAddr);\n    arcadeumCoinID = _arcadeumCoinID;\n    floorPrice = _floorPrice;\n    tierSize = _tierSize;\n    priceIncrement = _priceIncrement;\n  }\n\n  /***********************************|\n  |         Management Methods        |\n  |__________________________________*/\n\n  /**\n   * @notice Will indicate that asset ids in _ids are purchasable\n   * @dev This contract assumes that there is a supply cap, which\n   *      if present, will enable total_supply tracking. To prevent\n   *      errors, a maxSupply must be set before an ID can be registered.\n   * @param _ids Array of asset IDs to allow for purchasing\n   */\n  function registerIDs(uint256[] calldata _ids) external onlyOwner() {\n    uint256[] memory maxSupplies = factoryManager.getMaxSupplies(_ids);\n    for (uint256 i = 0; i < _ids.length; i++) {\n      require(maxSupplies[i] > 0, \"EternalHeroesFactory#registerIDs: UNCAPPED_SUPPLY\");\n      isPurchasable[_ids[i]] = true;\n    }\n    emit IDsRegistration(_ids);\n  }\n\n  /**\n   * @notice Will indicate that asset ids in _ids are NOT purchasable\n   * @param _ids Array of card IDs to make non-purchasable\n   */\n  function deregisterIDs(uint256[] calldata _ids) external onlyOwner() {\n    for (uint256 i = 0; i < _ids.length; i++) {\n      isPurchasable[_ids[i]] = false;\n    }\n    emit IDsDeregistration(_ids);\n  }\n\n  /**\n   * @notice Send current ARC balance of sale contract to owner of the contract\n   * @param _recipient Address where the currency will be sent to\n   */\n  function withdraw(address _recipient) external onlyOwner() {\n    require(_recipient != address(0x0), \"EternalHeroesFactory#withdraw: INVALID_RECIPIENT\");\n    uint256 thisBalance = arcadeumCoin.balanceOf(address(this), arcadeumCoinID);\n    arcadeumCoin.safeTransferFrom(address(this), _recipient, arcadeumCoinID, thisBalance, \"\");\n  }\n\n\n  /***********************************|\n  |      Receiver Method Handler      |\n  |__________________________________*/\n\n  // On receive success messages\n  bytes4 constant internal ERC1155_RECEIVED_VALUE = 0xf23a6e61;\n  bytes4 constant internal ERC1155_BATCH_RECEIVED_VALUE = 0xbc197c81;\n\n  /**\n   * @notice Prevents receiving Ether or calls to unsuported methods\n   */\n  function () external {\n    revert(\"UNSUPPORTED_METHOD\");\n  }\n\n  /**\n   * @notice Handle which method is being called on transfer\n   * @dev `_data` must be encoded as follow: abi.encode(Order)\n   * @param _from     The address which previously owned the Token\n   * @param _id       Arcadeum coin ID\n   * @param _amount   Amount of Arcadeun Coin received\n   * @param _data     Encoded Order structure\n   * @return bytes4(keccak256(\"onERC1155Received(address,address,uint256,uint256,bytes)\")\n   */\n  function onERC1155Received(address, address _from, uint256 _id, uint256 _amount, bytes memory _data)\n    public returns(bytes4)\n  {\n    // Tokens received need to be Token contract\n    require(msg.sender == address(arcadeumCoin), \"EternalHeroesFactory#onERC1155Received: INVALID_ARC_ADDRESS\");\n    require(_id == arcadeumCoinID, \"EternalHeroesFactory#onERC1155Received: INVALID_ARC_ID\");\n\n    // Decode Order from _data to call _baseToToken()\n    Order memory order = abi.decode(_data, (Order));\n    address recipient = order.recipient == address(0x0) ? _from : order.recipient;\n    _buy(order.tokensBoughtIDs, order.tokensBoughtAmounts, order.expectedTiers, _amount, recipient);\n\n    return ERC1155_RECEIVED_VALUE;\n  }\n\n  /**\n   * @dev Will pass array to `onERC1155Received()`\n   */\n  function onERC1155BatchReceived(\n    address _operator,\n    address _from,\n    uint256[] memory _ids,\n    uint256[] memory _amounts,\n    bytes memory _data)\n    public returns(bytes4)\n  {\n    require(_ids.length == 1, \"EternalHeroesFactory#onERC1155BatchReceived: INVALID_BATCH_TRANSFER\");\n    require(\n      ERC1155_RECEIVED_VALUE == onERC1155Received(_operator, _from, _ids[0], _amounts[0], _data),\n      \"EternalHeroesFactory#onERC1155BatchReceived: INVALID_ONRECEIVED_MESSAGE\"\n    );\n\n    return ERC1155_BATCH_RECEIVED_VALUE;\n  }\n\n\n  /***********************************|\n  |         Purchase Function         |\n  |__________________________________*/\n\n  /**\n   * @notice Convert Base Tokens to Tokens _id and transfers Tokens to recipient.\n   * @dev Assumes that all trades will be successful, or revert the whole tx\n   * @param _ids           Array of Tokens ID that are bought (needs to be sorted, no duplicates)\n   * @param _amounts       Amount of Tokens id bought for each corresponding Token id in _tokenIds\n   * @param _expectedTiers Pirce tiers the user is expecting to buy at for each asset ID\n   * @param _arcAmount     Amount of ARC sent with the purchase\n   * @param _recipient     The address that receives output Tokens.\n   */\n  function _buy(\n    uint256[] memory _ids,\n    uint256[] memory _amounts,\n    uint256[] memory _expectedTiers,\n    uint256 _arcAmount,\n    address _recipient)\n    internal\n  {\n    // Input validation\n    uint256 nTokens = _ids.length;\n    uint256 tier_size = tierSize;\n\n    // Load tokens to purchase supplies\n    uint256[] memory current_supplies = factoryManager.getCurrentSupplies(_ids);\n\n    // Total amount of card to purchase\n    uint256 total_cost = 0;\n\n    // Keep track of amount for each hero the user actually purchases.\n    // While less efficient in case of amounts reduced to 0,\n    // it keeps the code simpler.\n    uint256[] memory amounts_to_mint = new uint256[](nTokens);\n\n    // Validate purchase and count # of cards to purchase\n    for (uint256 i = 0; i < nTokens; i++) {\n      uint256 id = _ids[i];\n      uint256 supply = current_supplies[i];\n      uint256 to_mint = 0;\n      uint256 amount = _amounts[i];\n\n      // Validate token id\n      require(isPurchasable[id], \"EternalHeroesFactory#_buy: ID_NOT_PURCHASABLE\");\n\n      // Assumes IDs are sorted to make sure there are no duplicates.\n      // Otherwise we would have to query supplies for each loop\n      if (i > 0) {\n        require(_ids[i-1] < id, \"EternalHeroesFactory#_buy: UNSORTED_OR_DUPLICATE_TOKEN_IDS\");\n      }\n\n      // Current discount step (division round down)\n      uint256 current_tier = supply.div(tier_size);\n\n      // Skip asset if tier is not the one expected, to not make the order fail\n      if (_expectedTiers[i] != current_tier) {\n        amounts_to_mint[i] = 0; // Set amount to mint for this hero to 0 and ignore in total_cost\n        continue;\n      }\n\n      // Get price for given tier\n      uint256 current_price = floorPrice.add(current_tier.mul(priceIncrement));\n\n      // How many left in current tier (remainers is what is available)\n      uint256 amount_left = tier_size.sub(supply.mod(tier_size));\n\n      // Amount of assets that user will purchase\n      to_mint = amount < amount_left ? amount : amount_left;\n\n      // Increase total cost\n      total_cost = total_cost.add(to_mint.mul(current_price));\n      amounts_to_mint[i] = to_mint;\n    }\n\n    // Check if enough ARC was sent and refund exceeding amount\n    // .sub() will revert if insufficient amount received for purchase\n    uint256 refundAmount = _arcAmount.sub(total_cost);\n    if (refundAmount > 0) {\n      arcadeumCoin.safeTransferFrom(address(this), _recipient, arcadeumCoinID, refundAmount, \"\");\n    }\n\n    // Mint tokens to recipient\n    factoryManager.batchMint(_recipient, _ids, amounts_to_mint, \"\");\n\n    // Emit event\n    emit AssetsPurchased(_recipient, _ids, amounts_to_mint, total_cost);\n  }\n\n\n  /***********************************|\n  |         Getter Functions          |\n  |__________________________________*/\n\n  /**\n   * @notice Get the purchasable status of card IDs provided\n   * @param _ids Array containing the assets IDs\n   * @return The purchasable status of card IDs provided\n   */\n  function getPurchasableStatus(uint256[] calldata _ids) external view returns (bool[] memory) {\n    uint256 nIds = _ids.length;\n    bool[] memory purchasableStatus = new bool[](nIds);\n\n    // Iterate over each owner and token ID\n    for (uint256 i = 0; i < nIds; i++) {\n      purchasableStatus[i] = isPurchasable[_ids[i]];\n    }\n\n    return purchasableStatus;\n  }\n\n  /**\n   * @notice Returns the address of the factory manager contract\n   */\n  function getFactoryManager() external view returns (address) {\n    return address(factoryManager);\n  }\n\n  /**\n   * @notice Returns the address of the Arcadeun Coin contract\n   */\n  function getArcadeumCoin() external view returns (address) {\n    return address(arcadeumCoin);\n  }\n\n  /**\n   * @notice Returns the token ID of Arcadeum Coin\n   */\n  function getArcadeumCoinID() external view returns (uint256) {\n    return arcadeumCoinID;\n  }\n\n  /**\n   * @notice Returns the current price of tokens in _ids\n   * @param _ids Array containing the assets IDs\n   */\n  function getPrices(uint256[] calldata _ids) external view returns (uint256[] memory) {\n    uint256[] memory current_prices = new uint256[](_ids.length);\n    uint256[] memory current_supplies = factoryManager.getCurrentSupplies(_ids);\n    for (uint256 i = 0;  i < _ids.length; i++) {\n      uint256 current_tier = current_supplies[i].div(tierSize);\n      current_prices[i] = floorPrice.add(current_tier.mul(priceIncrement));\n    }\n    return current_prices;\n  }\n\n  /**\n   * @notice Returns the current price tiers of tokens in _ids\n   * @param _ids Array containing the assets IDs\n   */\n  function getPriceTiers(uint256[] calldata _ids) external view returns (uint256[] memory) {\n    uint256[] memory current_tiers = new uint256[](_ids.length);\n    uint256[] memory current_supplies = factoryManager.getCurrentSupplies(_ids);\n    for (uint256 i = 0;  i < _ids.length; i++) {\n      current_tiers[i] = current_supplies[i].div(tierSize);\n    }\n    return current_tiers;\n  }\n\n  /**\n   * @notice Returns how many tokens left are in each tiers for given _ids\n   * @param _ids Array containing the assets IDs\n   * @return Supply left in current tier for each ID and tier number\n   */\n  function getSuppliesCurrentTier(uint256[] calldata _ids) external view returns (uint256[] memory tiers, uint256[] memory supplies) {\n    tiers = new uint256[](_ids.length);\n    supplies = new uint256[](_ids.length);\n\n    // Load supplies and tierSize\n    uint256[] memory current_supplies = factoryManager.getCurrentSupplies(_ids);\n    uint256 tier_size = tierSize;\n\n    // Get current tiers and asset left per tier\n    for (uint256 i = 0;  i < _ids.length; i++) {\n      tiers[i] = current_supplies[i].div(tier_size);\n      supplies[i] = tier_size.sub(current_supplies[i].mod(tier_size));\n    }\n    return (tiers, supplies);\n  }\n\n  /**\n   * @notice Returns the floor price\n   */\n  function getFloorPrice() external view returns (uint256) {\n    return floorPrice;\n  }\n\n  /**\n   * @notice Returns amount of token per price tier\n   */\n  function getTierSize() external view returns (uint256) {\n    return tierSize;\n  }\n\n  /**\n   * @notice Returns how much the price increase every tier increment\n   */\n  function getPriceIncrement() external view returns (uint256) {\n    return priceIncrement;\n  }\n\n\n  /***********************************|\n  |         Utility Functions         |\n  |__________________________________*/\n\n  /**\n   * @notice Indicates whether a contract implements the `ERC1155TokenReceiver` functions and so can accept ERC1155 token types.\n   * @param  interfaceID The ERC-165 interface ID that is queried for support.s\n   * @dev This function MUST return true if it implements the ERC1155TokenReceiver interface and ERC-165 interface.\n   *      This function MUST NOT consume more than 5,000 gas.\n   * @return Wheter ERC-165 or ERC1155TokenReceiver interfaces are supported.\n   */\n  function supportsInterface(bytes4 interfaceID) external view returns (bool) {\n    return  interfaceID == 0x01ffc9a7 || // ERC-165 support (i.e. `bytes4(keccak256('supportsInterface(bytes4)'))`).\n      interfaceID == 0x4e2312e0;         // ERC-1155 `ERC1155TokenReceiver` support (i.e. `bytes4(keccak256(\"onERC1155Received(address,address,uint256,uint256,bytes)\")) ^ bytes4(keccak256(\"onERC1155BatchReceived(address,address,uint256[],uint256[],bytes)\"))`).\n  }\n\n}\n",
  "sourcePath": "/home/michael/Documents/Projects/horizon-games/SkyWeaver-contracts/contracts/shop/EternalHeroesFactory.sol",
  "compiler": {
    "name": "solc",
    "version": "0.5.16+commit.9c3226ce.Emscripten.clang"
  },
  "schemaVersion": "3.1.0",
  "updatedAt": "2020-06-26T16:37:42.946Z",
  "devdoc": {
    "methods": {
      "constructor": {
        "params": {
          "_arcadeumCoinAddr": "The address of the ERC-1155 Base Token",
          "_arcadeumCoinID": "The ID of the ERC-1155 Base Token",
          "_factoryManagerAddr": "The address of the Skyweaver Factory Manager contract",
          "_floorPrice": "Base, most discounted price",
          "_priceIncrement": "Discount you get when you move up a discount step",
          "_tierSize": "How many asset need to be purchased to move to next discount tier"
        }
      },
      "deregisterIDs(uint256[])": {
        "params": {
          "_ids": "Array of card IDs to make non-purchasable"
        }
      },
      "getPriceTiers(uint256[])": {
        "params": {
          "_ids": "Array containing the assets IDs"
        }
      },
      "getPrices(uint256[])": {
        "params": {
          "_ids": "Array containing the assets IDs"
        }
      },
      "getPurchasableStatus(uint256[])": {
        "params": {
          "_ids": "Array containing the assets IDs"
        },
        "return": "The purchasable status of card IDs provided"
      },
      "getSuppliesCurrentTier(uint256[])": {
        "params": {
          "_ids": "Array containing the assets IDs"
        },
        "return": "Supply left in current tier for each ID and tier number"
      },
      "onERC1155BatchReceived(address,address,uint256[],uint256[],bytes)": {
        "details": "Will pass array to `onERC1155Received()`"
      },
      "onERC1155Received(address,address,uint256,uint256,bytes)": {
        "details": "`_data` must be encoded as follow: abi.encode(Order)",
        "params": {
          "_amount": "Amount of Arcadeun Coin received",
          "_data": "Encoded Order structure",
          "_from": "The address which previously owned the Token",
          "_id": "Arcadeum coin ID"
        },
        "return": "bytes4(keccak256(\"onERC1155Received(address,address,uint256,uint256,bytes)\")"
      },
      "registerIDs(uint256[])": {
        "details": "This contract assumes that there is a supply cap, which     if present, will enable total_supply tracking. To prevent     errors, a maxSupply must be set before an ID can be registered.",
        "params": {
          "_ids": "Array of asset IDs to allow for purchasing"
        }
      },
      "supportsInterface(bytes4)": {
        "details": "This function MUST return true if it implements the ERC1155TokenReceiver interface and ERC-165 interface.     This function MUST NOT consume more than 5,000 gas.",
        "params": {
          "interfaceID": "The ERC-165 interface ID that is queried for support.s"
        },
        "return": "Wheter ERC-165 or ERC1155TokenReceiver interfaces are supported."
      },
      "transferOwnership(address)": {
        "params": {
          "_newOwner": "Address of the new owner"
        }
      },
      "withdraw(address)": {
        "params": {
          "_recipient": "Address where the currency will be sent to"
        }
      }
    }
  },
  "userdoc": {
    "methods": {
      "constructor": "Create factory, link factory manager and store initial paramters",
      "deregisterIDs(uint256[])": {
        "notice": "Will indicate that asset ids in _ids are NOT purchasable"
      },
      "getArcadeumCoin()": {
        "notice": "Returns the address of the Arcadeun Coin contract"
      },
      "getArcadeumCoinID()": {
        "notice": "Returns the token ID of Arcadeum Coin"
      },
      "getFactoryManager()": {
        "notice": "Returns the address of the factory manager contract"
      },
      "getFloorPrice()": {
        "notice": "Returns the floor price"
      },
      "getOwner()": {
        "notice": "Returns the address of the owner."
      },
      "getPriceIncrement()": {
        "notice": "Returns how much the price increase every tier increment"
      },
      "getPriceTiers(uint256[])": {
        "notice": "Returns the current price tiers of tokens in _ids"
      },
      "getPrices(uint256[])": {
        "notice": "Returns the current price of tokens in _ids"
      },
      "getPurchasableStatus(uint256[])": {
        "notice": "Get the purchasable status of card IDs provided"
      },
      "getSuppliesCurrentTier(uint256[])": {
        "notice": "Returns how many tokens left are in each tiers for given _ids"
      },
      "getTierSize()": {
        "notice": "Returns amount of token per price tier"
      },
      "onERC1155Received(address,address,uint256,uint256,bytes)": {
        "notice": "Handle which method is being called on transfer"
      },
      "registerIDs(uint256[])": {
        "notice": "Will indicate that asset ids in _ids are purchasable"
      },
      "supportsInterface(bytes4)": {
        "notice": "Indicates whether a contract implements the `ERC1155TokenReceiver` functions and so can accept ERC1155 token types."
      },
      "transferOwnership(address)": {
        "notice": "Transfers the ownership of the contract to new address"
      },
      "withdraw(address)": {
        "notice": "Send current ARC balance of sale contract to owner of the contract"
      }
    },
    "notice": "This is a contract allowing users to mint eternal heroes from HorizonGames. Price starts lower and increases"
  }
}