{
  "contractName": "GoldCardsFactory",
  "abi": [
    {
      "inputs": [
        {
          "internalType": "address",
          "name": "_assetsAddr",
          "type": "address"
        },
        {
          "internalType": "address",
          "name": "_weaveAddr",
          "type": "address"
        },
        {
          "internalType": "uint256",
          "name": "_weaveID",
          "type": "uint256"
        },
        {
          "internalType": "uint256",
          "name": "_goldPrice",
          "type": "uint256"
        },
        {
          "internalType": "uint256",
          "name": "_goldRefund",
          "type": "uint256"
        },
        {
          "internalType": "uint256",
          "name": "_rngDelay",
          "type": "uint256"
        }
      ],
      "payable": false,
      "stateMutability": "nonpayable",
      "type": "constructor"
    },
    {
      "anonymous": false,
      "inputs": [
        {
          "indexed": false,
          "internalType": "uint256",
          "name": "oldPrice",
          "type": "uint256"
        },
        {
          "indexed": false,
          "internalType": "uint256",
          "name": "newPrice",
          "type": "uint256"
        }
      ],
      "name": "GoldPriceChanged",
      "type": "event"
    },
    {
      "anonymous": false,
      "inputs": [
        {
          "indexed": false,
          "internalType": "uint256",
          "name": "oldRefund",
          "type": "uint256"
        },
        {
          "indexed": false,
          "internalType": "uint256",
          "name": "newRefund",
          "type": "uint256"
        }
      ],
      "name": "GoldRefundChanged",
      "type": "event"
    },
    {
      "anonymous": false,
      "inputs": [
        {
          "indexed": false,
          "internalType": "uint256[]",
          "name": "ids",
          "type": "uint256[]"
        }
      ],
      "name": "IDsDeregistration",
      "type": "event"
    },
    {
      "anonymous": false,
      "inputs": [
        {
          "indexed": false,
          "internalType": "uint256[]",
          "name": "ids",
          "type": "uint256[]"
        }
      ],
      "name": "IDsRegistration",
      "type": "event"
    },
    {
      "anonymous": false,
      "inputs": [
        {
          "components": [
            {
              "internalType": "address",
              "name": "cardRecipient",
              "type": "address"
            },
            {
              "internalType": "address",
              "name": "feeRecipient",
              "type": "address"
            },
            {
              "internalType": "uint256",
              "name": "cardAmount",
              "type": "uint256"
            },
            {
              "internalType": "uint256",
              "name": "feeAmount",
              "type": "uint256"
            },
            {
              "internalType": "uint256",
              "name": "rngBlock",
              "type": "uint256"
            }
          ],
          "indexed": false,
          "internalType": "struct GoldCardsFactory.GoldOrder",
          "name": "order",
          "type": "tuple"
        }
      ],
      "name": "OrderCommited",
      "type": "event"
    },
    {
      "anonymous": false,
      "inputs": [
        {
          "indexed": false,
          "internalType": "bytes32",
          "name": "orderHash",
          "type": "bytes32"
        }
      ],
      "name": "OrderFulfilled",
      "type": "event"
    },
    {
      "anonymous": false,
      "inputs": [
        {
          "components": [
            {
              "internalType": "address",
              "name": "cardRecipient",
              "type": "address"
            },
            {
              "internalType": "address",
              "name": "feeRecipient",
              "type": "address"
            },
            {
              "internalType": "uint256",
              "name": "cardAmount",
              "type": "uint256"
            },
            {
              "internalType": "uint256",
              "name": "feeAmount",
              "type": "uint256"
            },
            {
              "internalType": "uint256",
              "name": "rngBlock",
              "type": "uint256"
            }
          ],
          "indexed": false,
          "internalType": "struct GoldCardsFactory.GoldOrder",
          "name": "order",
          "type": "tuple"
        }
      ],
      "name": "OrderRecommitted",
      "type": "event"
    },
    {
      "anonymous": false,
      "inputs": [
        {
          "indexed": true,
          "internalType": "address",
          "name": "previousOwner",
          "type": "address"
        },
        {
          "indexed": true,
          "internalType": "address",
          "name": "newOwner",
          "type": "address"
        }
      ],
      "name": "OwnershipTransferred",
      "type": "event"
    },
    {
      "anonymous": false,
      "inputs": [
        {
          "indexed": false,
          "internalType": "uint256",
          "name": "oldDelay",
          "type": "uint256"
        },
        {
          "indexed": false,
          "internalType": "uint256",
          "name": "newDelay",
          "type": "uint256"
        }
      ],
      "name": "RNGDelayChanged",
      "type": "event"
    },
    {
      "payable": false,
      "stateMutability": "nonpayable",
      "type": "fallback"
    },
    {
      "constant": true,
      "inputs": [],
      "name": "getOwner",
      "outputs": [
        {
          "internalType": "address",
          "name": "",
          "type": "address"
        }
      ],
      "payable": false,
      "stateMutability": "view",
      "type": "function"
    },
    {
      "constant": false,
      "inputs": [
        {
          "internalType": "address",
          "name": "_newOwner",
          "type": "address"
        }
      ],
      "name": "transferOwnership",
      "outputs": [],
      "payable": false,
      "stateMutability": "nonpayable",
      "type": "function"
    },
    {
      "constant": false,
      "inputs": [
        {
          "internalType": "uint256[]",
          "name": "_ids",
          "type": "uint256[]"
        }
      ],
      "name": "registerIDs",
      "outputs": [],
      "payable": false,
      "stateMutability": "nonpayable",
      "type": "function"
    },
    {
      "constant": false,
      "inputs": [
        {
          "internalType": "uint256[]",
          "name": "_ids",
          "type": "uint256[]"
        },
        {
          "internalType": "uint256[]",
          "name": "_cardPoolIndexes",
          "type": "uint256[]"
        }
      ],
      "name": "deregisterIDs",
      "outputs": [],
      "payable": false,
      "stateMutability": "nonpayable",
      "type": "function"
    },
    {
      "constant": false,
      "inputs": [
        {
          "internalType": "uint256",
          "name": "_newPrice",
          "type": "uint256"
        }
      ],
      "name": "updateGoldPrice",
      "outputs": [],
      "payable": false,
      "stateMutability": "nonpayable",
      "type": "function"
    },
    {
      "constant": false,
      "inputs": [
        {
          "internalType": "uint256",
          "name": "_newRefund",
          "type": "uint256"
        }
      ],
      "name": "updateGoldRefund",
      "outputs": [],
      "payable": false,
      "stateMutability": "nonpayable",
      "type": "function"
    },
    {
      "constant": false,
      "inputs": [
        {
          "internalType": "uint256",
          "name": "_newDelay",
          "type": "uint256"
        }
      ],
      "name": "updateRNGDelay",
      "outputs": [],
      "payable": false,
      "stateMutability": "nonpayable",
      "type": "function"
    },
    {
      "constant": false,
      "inputs": [
        {
          "internalType": "address",
          "name": "_operator",
          "type": "address"
        },
        {
          "internalType": "address",
          "name": "_from",
          "type": "address"
        },
        {
          "internalType": "uint256",
          "name": "_id",
          "type": "uint256"
        },
        {
          "internalType": "uint256",
          "name": "_amount",
          "type": "uint256"
        },
        {
          "internalType": "bytes",
          "name": "_data",
          "type": "bytes"
        }
      ],
      "name": "onERC1155Received",
      "outputs": [
        {
          "internalType": "bytes4",
          "name": "",
          "type": "bytes4"
        }
      ],
      "payable": false,
      "stateMutability": "nonpayable",
      "type": "function"
    },
    {
      "constant": false,
      "inputs": [
        {
          "internalType": "address",
          "name": "",
          "type": "address"
        },
        {
          "internalType": "address",
          "name": "_from",
          "type": "address"
        },
        {
          "internalType": "uint256[]",
          "name": "_ids",
          "type": "uint256[]"
        },
        {
          "internalType": "uint256[]",
          "name": "_amounts",
          "type": "uint256[]"
        },
        {
          "internalType": "bytes",
          "name": "_data",
          "type": "bytes"
        }
      ],
      "name": "onERC1155BatchReceived",
      "outputs": [
        {
          "internalType": "bytes4",
          "name": "",
          "type": "bytes4"
        }
      ],
      "payable": false,
      "stateMutability": "nonpayable",
      "type": "function"
    },
    {
      "constant": false,
      "inputs": [
        {
          "components": [
            {
              "internalType": "address",
              "name": "cardRecipient",
              "type": "address"
            },
            {
              "internalType": "address",
              "name": "feeRecipient",
              "type": "address"
            },
            {
              "internalType": "uint256",
              "name": "cardAmount",
              "type": "uint256"
            },
            {
              "internalType": "uint256",
              "name": "feeAmount",
              "type": "uint256"
            },
            {
              "internalType": "uint256",
              "name": "rngBlock",
              "type": "uint256"
            }
          ],
          "internalType": "struct GoldCardsFactory.GoldOrder",
          "name": "_order",
          "type": "tuple"
        }
      ],
      "name": "recommit",
      "outputs": [],
      "payable": false,
      "stateMutability": "nonpayable",
      "type": "function"
    },
    {
      "constant": false,
      "inputs": [
        {
          "components": [
            {
              "internalType": "address",
              "name": "cardRecipient",
              "type": "address"
            },
            {
              "internalType": "address",
              "name": "feeRecipient",
              "type": "address"
            },
            {
              "internalType": "uint256",
              "name": "cardAmount",
              "type": "uint256"
            },
            {
              "internalType": "uint256",
              "name": "feeAmount",
              "type": "uint256"
            },
            {
              "internalType": "uint256",
              "name": "rngBlock",
              "type": "uint256"
            }
          ],
          "internalType": "struct GoldCardsFactory.GoldOrder",
          "name": "_order",
          "type": "tuple"
        },
        {
          "internalType": "uint256[]",
          "name": "_ids",
          "type": "uint256[]"
        },
        {
          "internalType": "uint256[]",
          "name": "_indexes",
          "type": "uint256[]"
        }
      ],
      "name": "mineGolds",
      "outputs": [],
      "payable": false,
      "stateMutability": "nonpayable",
      "type": "function"
    },
    {
      "constant": true,
      "inputs": [
        {
          "internalType": "uint256[]",
          "name": "_ids",
          "type": "uint256[]"
        }
      ],
      "name": "getPurchasableStatus",
      "outputs": [
        {
          "internalType": "bool[]",
          "name": "",
          "type": "bool[]"
        }
      ],
      "payable": false,
      "stateMutability": "view",
      "type": "function"
    },
    {
      "constant": true,
      "inputs": [
        {
          "internalType": "bytes32[]",
          "name": "_orderHashes",
          "type": "bytes32[]"
        }
      ],
      "name": "getOrderStatuses",
      "outputs": [
        {
          "internalType": "bool[]",
          "name": "",
          "type": "bool[]"
        }
      ],
      "payable": false,
      "stateMutability": "view",
      "type": "function"
    },
    {
      "constant": true,
      "inputs": [
        {
          "components": [
            {
              "internalType": "address",
              "name": "cardRecipient",
              "type": "address"
            },
            {
              "internalType": "address",
              "name": "feeRecipient",
              "type": "address"
            },
            {
              "internalType": "uint256",
              "name": "cardAmount",
              "type": "uint256"
            },
            {
              "internalType": "uint256",
              "name": "feeAmount",
              "type": "uint256"
            },
            {
              "internalType": "uint256",
              "name": "rngBlock",
              "type": "uint256"
            }
          ],
          "internalType": "struct GoldCardsFactory.GoldOrder",
          "name": "_order",
          "type": "tuple"
        }
      ],
      "name": "getRNGSeed",
      "outputs": [
        {
          "internalType": "bytes32",
          "name": "rng_seed",
          "type": "bytes32"
        }
      ],
      "payable": false,
      "stateMutability": "view",
      "type": "function"
    },
    {
      "constant": true,
      "inputs": [],
      "name": "getCardPool",
      "outputs": [
        {
          "internalType": "uint256[]",
          "name": "",
          "type": "uint256[]"
        }
      ],
      "payable": false,
      "stateMutability": "view",
      "type": "function"
    },
    {
      "constant": true,
      "inputs": [],
      "name": "getFactoryManager",
      "outputs": [
        {
          "internalType": "address",
          "name": "",
          "type": "address"
        }
      ],
      "payable": false,
      "stateMutability": "view",
      "type": "function"
    },
    {
      "constant": true,
      "inputs": [],
      "name": "getWeave",
      "outputs": [
        {
          "internalType": "address",
          "name": "",
          "type": "address"
        }
      ],
      "payable": false,
      "stateMutability": "view",
      "type": "function"
    },
    {
      "constant": true,
      "inputs": [],
      "name": "getWeaveID",
      "outputs": [
        {
          "internalType": "uint256",
          "name": "",
          "type": "uint256"
        }
      ],
      "payable": false,
      "stateMutability": "view",
      "type": "function"
    },
    {
      "constant": true,
      "inputs": [],
      "name": "getGoldPrice",
      "outputs": [
        {
          "internalType": "uint256",
          "name": "",
          "type": "uint256"
        }
      ],
      "payable": false,
      "stateMutability": "view",
      "type": "function"
    },
    {
      "constant": true,
      "inputs": [],
      "name": "getGoldRefund",
      "outputs": [
        {
          "internalType": "uint256",
          "name": "",
          "type": "uint256"
        }
      ],
      "payable": false,
      "stateMutability": "view",
      "type": "function"
    },
    {
      "constant": true,
      "inputs": [],
      "name": "getRNGDelay",
      "outputs": [
        {
          "internalType": "uint256",
          "name": "",
          "type": "uint256"
        }
      ],
      "payable": false,
      "stateMutability": "view",
      "type": "function"
    },
    {
      "constant": false,
      "inputs": [
        {
          "internalType": "bytes32",
          "name": "_seed",
          "type": "bytes32"
        },
        {
          "internalType": "uint256[]",
          "name": "_ids",
          "type": "uint256[]"
        },
        {
          "internalType": "uint256[]",
          "name": "_indexes",
          "type": "uint256[]"
        }
      ],
      "name": "validateRandomCards",
      "outputs": [
        {
          "internalType": "uint256[]",
          "name": "",
          "type": "uint256[]"
        }
      ],
      "payable": false,
      "stateMutability": "nonpayable",
      "type": "function"
    },
    {
      "constant": true,
      "inputs": [
        {
          "internalType": "bytes32",
          "name": "_seed",
          "type": "bytes32"
        },
        {
          "internalType": "uint256",
          "name": "_amount",
          "type": "uint256"
        }
      ],
      "name": "getRandomCards",
      "outputs": [
        {
          "internalType": "uint256[]",
          "name": "",
          "type": "uint256[]"
        }
      ],
      "payable": false,
      "stateMutability": "view",
      "type": "function"
    },
    {
      "constant": true,
      "inputs": [
        {
          "internalType": "bytes4",
          "name": "interfaceID",
          "type": "bytes4"
        }
      ],
      "name": "supportsInterface",
      "outputs": [
        {
          "internalType": "bool",
          "name": "",
          "type": "bool"
        }
      ],
      "payable": false,
      "stateMutability": "view",
      "type": "function"
    }
  ],
  "bytecode": "0x60806040523480156200001157600080fd5b5060405162002f2138038062002f2183398101604081905262000034916200019f565b600080546001600160a01b03191633178082556040516001600160a01b039190911691907f8be0079c531659141344cd1fd0a4f28419497f9722a3daafe3b4186f6b6457e0908290a36001600160a01b038616158015906200009e57506001600160a01b03851615155b8015620000ae57506305f5e10083115b8015620000bd57506005548310155b8015620000ca5750600081115b620000f25760405162461bcd60e51b8152600401620000e990620002c4565b60405180910390fd5b600180546001600160a01b038089166001600160a01b031992831617909255600280549288169290911691909117905560038490556004839055600582905560068190556040517f4e8c2412424d86ea84f43effb3177a95c8a1711de529c2a01d999689c004a1ae906200016b9060009086906200029e565b60405180910390a150505050505062000326565b80516200018c8162000301565b92915050565b80516200018c816200031b565b60008060008060008060c08789031215620001b957600080fd5b6000620001c789896200017f565b9650506020620001da89828a016200017f565b9550506040620001ed89828a0162000192565b94505060606200020089828a0162000192565b93505060806200021389828a0162000192565b92505060a06200022689828a0162000192565b9150509295509295509295565b6200023e81620002f4565b82525050565b600062000253602b83620002d6565b7f476f6c644361726473466163746f727923636f6e7374727563746f723a20494e81526a159053125117d25394155560aa1b602082015260400192915050565b6200023e81620002f1565b60408101620002ae828562000233565b620002bd602083018462000293565b9392505050565b602080825281016200018c8162000244565b90815260200190565b60006001600160a01b0382166200018c565b90565b60006200018c82620002f1565b6200030c81620002df565b81146200031857600080fd5b50565b6200030c81620002f1565b612beb80620003366000396000f3fe608060405234801561001057600080fd5b50600436106101585760003560e01c80639abc5b63116100c3578063da6bae101161007c578063da6bae10146102e6578063dd6b0922146102ee578063e2324dd3146102f6578063eebc56f114610309578063f23a6e611461031c578063f2fde38b1461032f57610158565b80639abc5b631461027d578063ad90d46b14610285578063bc197c8114610298578063c19dd526146102b8578063c6d1bb00146102cb578063cdddae7c146102de57610158565b806360e2d6151161011557806360e2d6151461022c57806369f754691461023f57806379fd2215146102475780637c17929b1461025a578063888913561461026d578063893d20e81461027557610158565b806301ffc9a71461017957806313624c32146101a25780631aab6842146101c257806336c1b9b5146101d75780634b3e735a146101f75780634e6d71981461020c575b60405162461bcd60e51b815260040161017090612920565b60405180910390fd5b61018c610187366004611c6b565b610342565b60405161019991906128bb565b60405180910390f35b6101b56101b0366004611c89565b610379565b60405161019991906128c9565b6101ca6103d6565b60405161019991906127bc565b6101ea6101e5366004611c31565b6103e6565b6040516101999190612885565b61020a610205366004611ca7565b61049d565b005b61021f61021a366004611b07565b610828565b6040516101999190612862565b61021f61023a366004611b07565b6108c6565b6101ea61095b565b61020a610255366004611b07565b6109b3565b61020a610268366004611d4a565b610ac7565b6101b5610c33565b6101ca610c39565b6101b5610c48565b6101ea610293366004611bb6565b610c4e565b6102ab6102a63660046119f6565b610d84565b60405161019991906128f2565b61020a6102c6366004611b48565b610ea1565b61020a6102d9366004611d68565b611040565b6101b56110cc565b6101b56110d2565b6101ca6110d8565b61020a610304366004611d68565b6110e7565b61020a610317366004611d68565b611171565b6102ab61032a366004611ab0565b611220565b61020a61033d3660046119b2565b6112ed565b60006301ffc9a760e01b6001600160e01b0319831614806103735750630271189760e51b6001600160e01b03198316145b92915050565b60008160405160200161038c9190612a90565b604051602081830303815290604052805190602001208260800135406040516020016103b99291906128d7565b604051602081830303815290604052805190602001209050919050565b6001546001600160a01b03165b90565b60608082604051908082528060200260200182016040528015610413578160200160208202803883390190505b506009549091508460005b8581101561049257600983838161043157fe5b068154811061043c57fe5b906000526020600020015484828151811061045357fe5b6020026020010181815250508160405160200161047091906127a7565b60408051601f198184030181529190528051602090910120915060010161041e565b509195945050505050565b604085013581146104c05760405162461bcd60e51b815260040161017090612a00565b60ff6104e76104da6080880135600163ffffffff61138b16565b439063ffffffff6113b016565b11156105055760405162461bcd60e51b815260040161017090612a70565b6000856040516020016105189190612a90565b60408051601f1981840301815291815281516020928301206000818152600890935291205490915060ff1661055f5760405162461bcd60e51b815260040161017090612900565b6000818152600860209081526040808320805460ff191690555161058c91849160808b01354091016128d7565b60405160208183030381529060405280519060200120905060606106148288888080602002602001604051908101604052809392919081815260200183836020028082843760009201919091525050604080516020808c0282810182019093528b82529093508b92508a918291850190849080828437600092019190915250610c4e92505050565b905060006106586106346005548b604001356113d890919063ffffffff16565b60045461064c9060408d01359063ffffffff6113d816565b9063ffffffff6113b016565b60025460035460405163b390c0ab60e01b81529293506001600160a01b039091169163b390c0ab9161068e9185906004016128d7565b600060405180830381600087803b1580156106a857600080fd5b505af11580156106bc573d6000803e3d6000fd5b50506001546001600160a01b0316915063b48ab8b690506106e060208c018c6119b2565b8a8a866040518563ffffffff1660e01b8152600401610702949392919061281a565b600060405180830381600087803b15801561071c57600080fd5b505af1158015610730573d6000803e3d6000fd5b50505050606089013580156107e55760008061075260408d0160208e016119b2565b6001600160a01b0316146107755761077060408c0160208d016119b2565b610777565b335b600254600354604051637921219560e11b81529293506001600160a01b039091169163f242432a916107b1913091869188906004016127ca565b600060405180830381600087803b1580156107cb57600080fd5b505af11580156107df573d6000803e3d6000fd5b50505050505b7f48224e98144457f56f46e15959589d8155a9e29ca79439ab9ba37f60561b5c568560405161081491906128c9565b60405180910390a150505050505050505050565b60408051828152602080840282010190915260609082908290828015610858578160200160208202803883390190505b50905060005b828110156108bd576008600087878481811061087657fe5b90506020020135815260200190815260200160002060009054906101000a900460ff168282815181106108a557fe5b9115156020928302919091019091015260010161085e565b50949350505050565b604080518281526020808402820101909152606090829082908280156108f6578160200160208202803883390190505b50905060005b828110156108bd576007600087878481811061091457fe5b90506020020135815260200190815260200160002060009054906101000a900460ff1682828151811061094357fe5b911515602092830291909101909101526001016108fc565b606060098054806020026020016040519081016040528092919081815260200182805480156109a957602002820191906000526020600020905b815481526020019060010190808311610995575b5050505050905090565b6000546001600160a01b031633146109dd5760405162461bcd60e51b815260040161017090612a20565b60005b81811015610a895760008383838181106109f657fe5b60209081029290920135600081815260079093526040909220549192505060ff1615610a345760405162461bcd60e51b8152600401610170906129e0565b6000818152600760205260408120805460ff1916600190811790915560098054808301825592527f6e1540171b6c0c960b71a7020d9f60077f6af931a8bbf590da0223dacf75c7af90910191909155016109e0565b507fbbc922d5dddf6a6f1d736140ea2d340a9b979f9e9810131e15e7b74dac1639648282604051610abb929190612873565b60405180910390a15050565b600081604051602001610ada9190612a9e565b60408051601f1981840301815291815281516020928301206000818152600890935291205490915060ff1680610b225760405162461bcd60e51b815260040161017090612a80565b610100610b3c8460800151436113b090919063ffffffff16565b11610b595760405162461bcd60e51b815260040161017090612930565b600654610b6d90439063ffffffff61138b16565b6080840152604051600090610b86908590602001612a9e565b60408051601f19818403018152918152815160209283012060008681526008909352818320805460ff1916905580835291205490915060ff1615610bdc5760405162461bcd60e51b8152600401610170906129f0565b60008181526008602052604090819020805460ff19166001179055517f62ad647156ffd97435dfc3c2b4cb529f26ec8834224020df718c4e4e13a569c890610c25908690612a9e565b60405180910390a150505050565b60065490565b6000546001600160a01b031690565b60035490565b6060808351604051908082528060200260200182016040528015610c7c578160200160208202803883390190505b506009549091508560005b8551811015610d76576000868281518110610c9e57fe5b6020026020010151905060006009858581610cb557fe5b0681548110610cc057fe5b90600052602060002001549050888281518110610cd957fe5b60200260200101518114610cff5760405162461bcd60e51b815260040161017090612980565b610d296002600a0a878481518110610d1357fe5b602002602001015161138b90919063ffffffff16565b868381518110610d3557fe5b60200260200101818152505083604051602001610d5291906127a7565b60408051808303601f19018152919052805160209091012093505050600101610c87565b5091925050505b9392505050565b6002546000906001600160a01b0316331415610e32578351600114610dbb5760405162461bcd60e51b815260040161017090612910565b60035484600081518110610dcb57fe5b602002602001015114610df05760405162461bcd60e51b815260040161017090612a50565b610df86116cb565b82806020019051610e0c9190810190611d2c565b9050610e2c84600081518110610e1e57fe5b602002602001015182611412565b50610e8f565b6001546001600160a01b0316331415610e775760008251602014610e565785610e6a565b82806020019051610e6a91908101906119d8565b9050610e2c858583611594565b60405162461bcd60e51b815260040161017090612a30565b5063bc197c8160e01b95945050505050565b6000546001600160a01b03163314610ecb5760405162461bcd60e51b815260040161017090612a20565b60005b8381101561100e576000858583818110610ee457fe5b9050602002013590506000848484818110610efb57fe5b6000858152600760209081526040909120549102929092013592505060ff161515600114610f3b5760405162461bcd60e51b8152600401610170906129b0565b8160098281548110610f4957fe5b906000526020600020015414610f715760405162461bcd60e51b8152600401610170906129c0565b600060076000898987818110610f8357fe5b60209081029290920135835250810191909152604001600020805460ff191691151591909117905560095460001901811015610ff057600980546000198101908110610fcb57fe5b906000526020600020015460098281548110610fe357fe5b6000918252602090912001555b600980549061100390600019830161170c565b505050600101610ece565b507f9325b2ccabc86421ee926d519dfcb39be278f69994bc41d7f1e9aca206d462c58484604051610c25929190612873565b6000546001600160a01b0316331461106a5760405162461bcd60e51b815260040161017090612a20565b80600454101561108c5760405162461bcd60e51b815260040161017090612960565b7fb25cf40520376d506d516ec0a2ee2caa70007255cc9d8bcb8c7d6dd5fa477c6d600554826040516110bf9291906128d7565b60405180910390a1600555565b60055490565b60045490565b6002546001600160a01b031690565b6000546001600160a01b031633146111115760405162461bcd60e51b815260040161017090612a20565b600081116111315760405162461bcd60e51b815260040161017090612a60565b7fdc1a978729668f581c6e7f99442f67e8ae0aab63d324486e36185b5c9a723d7c600654826040516111649291906128d7565b60405180910390a1600655565b6000546001600160a01b0316331461119b5760405162461bcd60e51b815260040161017090612a20565b6305f5e10081116111be5760405162461bcd60e51b8152600401610170906129d0565b6005548110156111e05760405162461bcd60e51b815260040161017090612990565b7f4e8c2412424d86ea84f43effb3177a95c8a1711de529c2a01d999689c004a1ae600454826040516112139291906128d7565b60405180910390a1600455565b60408051600180825281830190925260009160609190602080830190803883395050604080516001808252818301909252929350606092915060208083019080388339019050509050858260008151811061127757fe5b602002602001018181525050848160008151811061129157fe5b6020026020010181815250506112aa8888848488610d84565b6001600160e01b03191663bc197c8160e01b146112d95760405162461bcd60e51b8152600401610170906129a0565b5063f23a6e6160e01b979650505050505050565b6000546001600160a01b031633146113175760405162461bcd60e51b815260040161017090612a20565b6001600160a01b03811661133d5760405162461bcd60e51b815260040161017090612950565b600080546001600160a01b0319166001600160a01b0383811691821780845560405192939116917f8be0079c531659141344cd1fd0a4f28419497f9722a3daafe3b4186f6b6457e09190a350565b600082820183811015610d7d5760405162461bcd60e51b815260040161017090612a40565b6000828211156113d25760405162461bcd60e51b815260040161017090612940565b50900390565b6000826113e757506000610373565b828202828482816113f457fe5b0414610d7d5760405162461bcd60e51b815260040161017090612970565b6000611441826060015161143560045485604001516113d890919063ffffffff16565b9063ffffffff61138b16565b90506000611455848363ffffffff6113b016565b905061146c6006544361138b90919063ffffffff16565b6080840152604051600090611485908590602001612a9e565b60408051601f1981840301815291815281516020928301206000818152600890935291205490915060ff16156114cd5760405162461bcd60e51b815260040161017090612a10565b6000818152600860205260409020805460ff191660011790558115611556576002548451600354604051637921219560e11b81526001600160a01b039093169263f242432a9261152392309288906004016127ca565b600060405180830381600087803b15801561153d57600080fd5b505af1158015611551573d6000803e3d6000fd5b505050505b7f64b0830eddc32be97d1f9a5a96500996ac2f07700a97447aed80877ed1949935846040516115859190612a9e565b60405180910390a15050505050565b6001546040516320ec271b60e01b81526000916001600160a01b0316906320ec271b906115c79087908790600401612896565b600060405180830381600087803b1580156115e157600080fd5b505af11580156115f5573d6000803e3d6000fd5b506000925050505b8451811015611642576116386002600a0a85838151811061161a57fe5b60200260200101518161162957fe5b8491900463ffffffff61138b16565b91506001016115fd565b506002546003546005546001600160a01b039092169163f242432a91309186919061167490879063ffffffff6113d816565b6040518563ffffffff1660e01b815260040161169394939291906127ca565b600060405180830381600087803b1580156116ad57600080fd5b505af11580156116c1573d6000803e3d6000fd5b5050505050505050565b6040518060a0016040528060006001600160a01b0316815260200160006001600160a01b031681526020016000815260200160008152602001600081525090565b81548183558181111561173057600083815260209020611730918101908301611735565b505050565b6103e391905b8082111561174f576000815560010161173b565b5090565b803561037381612b7f565b805161037381612b7f565b60008083601f84011261177b57600080fd5b5081356001600160401b0381111561179257600080fd5b6020830191508360208202830111156117aa57600080fd5b9250929050565b600082601f8301126117c257600080fd5b81356117d56117d082612ad2565b612aac565b915081818352602084019350602081019050838560208402820111156117fa57600080fd5b60005b8381101561182657816118108882611830565b84525060209283019291909101906001016117fd565b5050505092915050565b803561037381612b96565b803561037381612b9f565b600082601f83011261185757600080fd5b81356118656117d082612af2565b9150808252602083016020830185838301111561188157600080fd5b61188c838284612b73565b50505092915050565b600060a082840312156118a757600080fd5b50919050565b600060a082840312156118bf57600080fd5b6118c960a0612aac565b905060006118d7848461175e565b82525060206118e88484830161175e565b60208301525060406118fc848285016119a7565b6040830152506060611910848285016119a7565b6060830152506080611924848285016119a7565b60808301525092915050565b600060a0828403121561194257600080fd5b61194c60a0612aac565b9050600061195a8484611753565b825250602061196b84848301611753565b602083015250604061197f84828501611830565b604083015250606061199384828501611830565b606083015250608061192484828501611830565b805161037381612b96565b6000602082840312156119c457600080fd5b60006119d08484611753565b949350505050565b6000602082840312156119ea57600080fd5b60006119d0848461175e565b600080600080600060a08688031215611a0e57600080fd5b6000611a1a8888611753565b9550506020611a2b88828901611753565b94505060408601356001600160401b03811115611a4757600080fd5b611a53888289016117b1565b93505060608601356001600160401b03811115611a6f57600080fd5b611a7b888289016117b1565b92505060808601356001600160401b03811115611a9757600080fd5b611aa388828901611846565b9150509295509295909350565b600080600080600060a08688031215611ac857600080fd5b6000611ad48888611753565b9550506020611ae588828901611753565b9450506040611af688828901611830565b9350506060611a7b88828901611830565b60008060208385031215611b1a57600080fd5b82356001600160401b03811115611b3057600080fd5b611b3c85828601611769565b92509250509250929050565b60008060008060408587031215611b5e57600080fd5b84356001600160401b03811115611b7457600080fd5b611b8087828801611769565b945094505060208501356001600160401b03811115611b9e57600080fd5b611baa87828801611769565b95989497509550505050565b600080600060608486031215611bcb57600080fd5b6000611bd78686611830565b93505060208401356001600160401b03811115611bf357600080fd5b611bff868287016117b1565b92505060408401356001600160401b03811115611c1b57600080fd5b611c27868287016117b1565b9150509250925092565b60008060408385031215611c4457600080fd5b6000611c508585611830565b9250506020611c6185828601611830565b9150509250929050565b600060208284031215611c7d57600080fd5b60006119d0848461183b565b600060a08284031215611c9b57600080fd5b60006119d08484611895565b600080600080600060e08688031215611cbf57600080fd5b6000611ccb8888611895565b95505060a08601356001600160401b03811115611ce757600080fd5b611cf388828901611769565b945094505060c08601356001600160401b03811115611d1157600080fd5b611d1d88828901611769565b92509250509295509295909350565b600060a08284031215611d3e57600080fd5b60006119d084846118ad565b600060a08284031215611d5c57600080fd5b60006119d08484611930565b600060208284031215611d7a57600080fd5b60006119d08484611830565b6000611d928383611e95565b505060200190565b6000611d928383611e9e565b611daf81612b4a565b82525050565b6000611dc082612b1f565b611dca8185612b23565b9350611dd583612b19565b8060005b83811015611e03578151611ded8882611d86565b9750611df883612b19565b925050600101611dd9565b509495945050505050565b6000611e1a8385612b23565b93506001600160fb1b03831115611e3057600080fd5b602083029250611e41838584612b73565b50500190565b6000611e5282612b1f565b611e5c8185612b23565b9350611e6783612b19565b8060005b83811015611e03578151611e7f8882611d9a565b9750611e8a83612b19565b925050600101611e6b565b611daf81612b55565b611daf816103e3565b611daf81612b5a565b6000611ebd603a83612b23565b7f476f6c644361726473466163746f7279236d696e65476f6c64733a204f52444581527f525f4e4f4e5f4558495354414e545f4f525f4558454355544544000000000000602082015260400192915050565b6000611f1c603783612b23565b7f476f6c644361726473466163746f7279236f6e4552433131353542617463685281527f656365697665643a20494e56414c49445f415252415953000000000000000000602082015260400192915050565b6000611f7b601283612b23565b71155394d5541413d495115117d351551213d160721b815260200192915050565b6000611fa9602c83612b23565b7f476f6c644361726473466163746f7279237265636f6d6d69743a204f5244455281526b17d393d517d156141254915160a21b602082015260400192915050565b6000611ff7601783612b23565b7f536166654d617468237375623a20554e444552464c4f57000000000000000000815260200192915050565b6000612030602a83612b23565b7f4f776e61626c65237472616e736665724f776e6572736869703a20494e56414c81526949445f4144445245535360b01b602082015260400192915050565b600061207c603b83612b23565b7f476f6c644361726473466163746f727923757064617465476f6c64526566756e81527f643a2050524943455f4849474845525f5448414e5f524546554e440000000000602082015260400192915050565b60006120db601683612b23565b75536166654d617468236d756c3a204f564552464c4f5760501b815260200192915050565b600061210d603083612b23565b7f476f6c644361726473466163746f72792376616c696461746552616e646f6d4381526f185c991cce881253959053125117d25160821b602082015260400192915050565b600061215f603a83612b23565b7f476f6c644361726473466163746f727923757064617465476f6c64507269636581527f3a2050524943455f4849474845525f5448414e5f524546554e44000000000000602082015260400192915050565b60006121be603f83612b23565b7f4e696674797377617045786368616e6765236f6e45524331313535526563656981527f7665643a20494e56414c49445f4f4e52454345495645445f4d45535341474500602082015260400192915050565b600061221d603183612b23565b7f476f6c644361726473466163746f727923646572656769737465724944733a20815270125117d393d517d49151d254d511549151607a1b602082015260400192915050565b6000612270603783612b23565b7f476f6c644361726473466163746f727923646572656769737465724944733a2081527f494e56414c49445f434152445f504f4f4c5f494e444558000000000000000000602082015260400192915050565b60006122cf602f83612b23565b7f476f6c644361726473466163746f727923757064617465476f6c64507269636581526e3a20494e56414c49445f505249434560881b602082015260400192915050565b6000612320603383612b23565b7f476f6c644361726473466163746f72792372656769737465724944733a20494481527217d053149150511657d49151d254d511549151606a1b602082015260400192915050565b6000612375603283612b23565b7f476f6c644361726473466163746f7279237265636f6d6d69743a204f5244455281527117d21054d217d053149150511657d554d15160721b602082015260400192915050565b6000610373600083612b23565b60006123d6603883612b23565b7f476f6c644361726473466163746f7279236d696e65476f6c64733a20494e564181527f4c49445f494e44455845535f41525241595f4c454e4754480000000000000000602082015260400192915050565b6000612435603183612b23565b7f476f6c644361726473466163746f7279235f636f6d6d69743a204f524445525f815270121054d217d053149150511657d554d151607a1b602082015260400192915050565b6000612488602683612b23565b7f4f776e61626c65236f6e6c794f776e65723a2053454e4445525f49535f4e4f548152652fa7aba722a960d11b602082015260400192915050565b60006124d0603683612b23565b7f476f6c644361726473466163746f7279236f6e4552433131353542617463685281527532b1b2b4bb32b21d1024a72b20a624a22faa27a5a2a760511b602082015260400192915050565b6000612528601683612b23565b75536166654d617468236164643a204f564552464c4f5760501b815260200192915050565b600061255a603983612b23565b7f476f6c644361726473466163746f7279236f6e4552433131353542617463685281527f656365697665643a20494e56414c49445f57454156455f494400000000000000602082015260400192915050565b60006125b9602e83612b23565b7f476f6c644361726473466163746f727923757064617465524e4744656c61793a81526d20494e56414c49445f44454c415960901b602082015260400192915050565b6000612609603283612b23565b7f476f6c644361726473466163746f7279236d696e65476f6c64733a20524e475f815271424c4f434b5f4f55545f4f465f52414e474560701b602082015260400192915050565b600061265d603983612b23565b7f476f6c644361726473466163746f7279237265636f6d6d69743a204f5244455281527f5f4e4f4e5f4558495354414e545f4f525f455845435554454400000000000000602082015260400192915050565b60a082016126bd8280612b2c565b6126c78482611da6565b506126d56020830183612b2c565b6126e26020850182611da6565b506126f06040830183612b3b565b6126fd6040850182611e9e565b5061270b6060830183612b3b565b6127186060850182611e9e565b506127266080830183612b3b565b6127336080850182611e9e565b50505050565b805160a083019061274a8482611da6565b50602082015161275d6020850182611da6565b5060408201516127706040850182611e9e565b5060608201516127836060850182611e9e565b5060808201516127336080850182611e9e565b611daf6127a2826103e3565b6103e3565b60006127b38284612796565b50602001919050565b602081016103738284611da6565b60a081016127d88287611da6565b6127e56020830186611da6565b6127f26040830185611e9e565b6127ff6060830184611e9e565b8181036080830152612810816123bc565b9695505050505050565b608081016128288287611da6565b818103602083015261283b818587611e0e565b9050818103604083015261284f8184611e47565b90508181036060830152612810816123bc565b60208082528101610d7d8184611db5565b602080825281016119d0818486611e0e565b60208082528101610d7d8184611e47565b604080825281016128a78185611e47565b905081810360208301526119d08184611e47565b602081016103738284611e95565b602081016103738284611e9e565b604081016128e58285611e9e565b610d7d6020830184611e9e565b602081016103738284611ea7565b6020808252810161037381611eb0565b6020808252810161037381611f0f565b6020808252810161037381611f6e565b6020808252810161037381611f9c565b6020808252810161037381611fea565b6020808252810161037381612023565b602080825281016103738161206f565b60208082528101610373816120ce565b6020808252810161037381612100565b6020808252810161037381612152565b60208082528101610373816121b1565b6020808252810161037381612210565b6020808252810161037381612263565b60208082528101610373816122c2565b6020808252810161037381612313565b6020808252810161037381612368565b60208082528101610373816123c9565b6020808252810161037381612428565b602080825281016103738161247b565b60208082528101610373816124c3565b602080825281016103738161251b565b602080825281016103738161254d565b60208082528101610373816125ac565b60208082528101610373816125fc565b6020808252810161037381612650565b60a0810161037382846126af565b60a081016103738284612739565b6040518181016001600160401b0381118282101715612aca57600080fd5b604052919050565b60006001600160401b03821115612ae857600080fd5b5060209081020190565b60006001600160401b03821115612b0857600080fd5b506020601f91909101601f19160190565b60200190565b5190565b90815260200190565b6000610d7d6020840184611753565b6000610d7d6020840184611830565b600061037382612b67565b151590565b6001600160e01b03191690565b6001600160a01b031690565b82818337506000910152565b612b8881612b4a565b8114612b9357600080fd5b50565b612b88816103e3565b612b8881612b5a56fea365627a7a72315820cd0988a4066daba078a2040141d1bbb97e365a82e505ef980524a281df59e5406c6578706572696d656e74616cf564736f6c63430005100040",
  "source": "pragma solidity ^0.5.16;\npragma experimental ABIEncoderV2;\n\nimport \"../utils/Ownable.sol\";\nimport \"../interfaces/ISkyweaverAssets.sol\";\nimport \"multi-token-standard/contracts/utils/SafeMath.sol\";\n\n/**\n * This is a contract allowing users to mint random Skyweaver's\n * gold cards for a given weave amount using a future block hash commit scheme.\n */\ncontract GoldCardsFactory is Ownable {\n  using SafeMath for uint256;\n\n  /***********************************|\n  |        Variables && Events        |\n  |__________________________________*/\n\n  // Constants\n  uint256 constant internal decimals = 2; // Number of decimals\n\n  // Initiate Variables\n  ISkyweaverAssets internal skyweaverAssets; // ERC-1155 Skyweaver assets contract\n  ISkyweaverAssets internal weaveContract;   // ERC-1155 Weave contract\n  uint256 internal weaveID;                  // ID of Weave token in respective ERC-1155 contract\n  uint256 internal goldPrice;                // Price per Gold Card in weave, ignoring decimals\n  uint256 internal goldRefund;               // Amount of weave to receive when melting a gold card, ignoring decimals\n  uint256 internal rngDelay;                 // Amount of blocks after commit before one can mint gold cards\n\n  // OnReceive Objects\n  struct GoldOrder {\n    address cardRecipient;  // Who receives the tokens\n    address feeRecipient;   // Who will receive the minting fee, if any\n    uint256 cardAmount;     // Amount of gold cards to buy, ignoring decimals\n    uint256 feeAmount;      // Amount of weave sent for minting fee, if any\n    uint256 rngBlock;       // Block # to use for RNG\n  }\n\n  // Mapping variables\n  mapping(uint256 => bool) internal isPurchasable; // Whether a token ID can be purchased or not\n  mapping(bytes32 => bool) internal orderStatus;   // 0: Non-existant or executed, 1: Pending\n  uint256[] internal cardsPool;                    // Array containing all card ids registered\n\n  /***********************************|\n  |               Events              |\n  |__________________________________*/\n\n  event OrderCommited(GoldOrder order);\n  event OrderRecommitted(GoldOrder order);\n  event OrderFulfilled(bytes32 orderHash);\n  event GoldPriceChanged(uint256 oldPrice, uint256 newPrice);\n  event GoldRefundChanged(uint256 oldRefund, uint256 newRefund);\n  event RNGDelayChanged(uint256 oldDelay, uint256 newDelay);\n  event IDsRegistration(uint256[] ids);\n  event IDsDeregistration(uint256[] ids);\n\n  /***********************************|\n  |            Constructor            |\n  |__________________________________*/\n\n  /**\n   * @notice Create factory, link factory manager and store initial paramters\n   * @param _assetsAddr  The address of the ERC-1155 Assets Token\n   * @param _weaveAddr   The address of the ERC-1155 Base Token\n   * @param _weaveID     The ID of the ERC-1155 Base Token\n   * @param _goldPrice   Price for each card\n   * @param _goldRefund  Amount of weave to receive when melting a gold card\n   * @param _rngDelay    Amount of blocks after commit before one can mint cards\n   */\n  constructor(\n    address _assetsAddr,\n    address _weaveAddr,\n    uint256 _weaveID,\n    uint256 _goldPrice,\n    uint256 _goldRefund,\n    uint256 _rngDelay\n  ) public {\n\n    //Input validation\n    require(\n      _assetsAddr != address(0) &&\n      _weaveAddr != address(0) &&\n      _goldPrice > 100000000   && // Sanity check to \"make sure\" decimals are accounted for\n      _goldPrice >= goldRefund && // Sanity check\n      _rngDelay > 0,\n      \"GoldCardsFactory#constructor: INVALID_INPUT\"\n    );\n\n    // Set variables and constants\n    skyweaverAssets = ISkyweaverAssets(_assetsAddr);\n    weaveContract = ISkyweaverAssets(_weaveAddr);\n    weaveID = _weaveID;\n    goldPrice = _goldPrice;\n    goldRefund = _goldRefund;\n    rngDelay = _rngDelay;\n\n    emit GoldPriceChanged(0, _goldPrice);\n  }\n\n\n  /***********************************|\n  |         Management Methods        |\n  |__________________________________*/\n\n  /**\n   * @notice Will indicate that asset ids in _ids are purchasable & add them to card pool\n   * @dev Will throw if an ID is already registered to prevent duplicates\n   *      in cardPool array.\n   * @param _ids Array of asset IDs to allow for purchasing\n   */\n  function registerIDs(uint256[] calldata _ids) external onlyOwner() {\n    for (uint256 i = 0; i < _ids.length; i++) {\n      uint256 id = _ids[i];\n      require(isPurchasable[id] == false, \"GoldCardsFactory#registerIDs: ID_ALREADY_REGISTERED\");\n      isPurchasable[id] = true;\n      cardsPool.push(id);\n    }\n    emit IDsRegistration(_ids);\n  }\n\n  /**\n   * @notice Will indicate that asset ids in _ids are NOT mintable\n   * @dev Need to account for the fact that the array will change\n   *      as ids are removed, so the corresponding indexes will change\n   *      as well. Using decending order makes it easier.\n   * @param _ids             Array of card IDs to make non-purchasable\n   * @param _cardPoolIndexes The cardPools index for each id in _ids\n   */\n  function deregisterIDs(uint256[] calldata _ids, uint256[] calldata _cardPoolIndexes) external onlyOwner() {\n    for (uint256 i = 0; i < _ids.length; i++) {\n      uint256 id = _ids[i];\n      uint256 card_pool_index = _cardPoolIndexes[i];\n\n      // Check if valid deregistration\n      require(isPurchasable[id] == true, \"GoldCardsFactory#deregisterIDs: ID_NOT_REGISTERED\");\n      require(cardsPool[card_pool_index] == id, \"GoldCardsFactory#deregisterIDs: INVALID_CARD_POOL_INDEX\");\n\n      // Set`isPurchasable` to false.\n      isPurchasable[_ids[i]] = false;\n\n      // Overwrite id with last value in array and delete last element\n      if (card_pool_index < cardsPool.length-1) {\n        cardsPool[card_pool_index] = cardsPool[cardsPool.length-1];\n      }\n      cardsPool.length--; // Use .pop() for solc >= 0.6.0\n    }\n    emit IDsDeregistration(_ids);\n  }\n\n  /**\n   * @notice Will update the card price\n   * @dev Don't forget to account for currency's decimals\n   * @dev Does not account for card decimals\n   * @param _newPrice New card price\n   */\n  function updateGoldPrice(uint256 _newPrice) external onlyOwner() {\n    // Sanity check to \"make sure\" decimals are accounted for (18 decimals)\n    require(_newPrice > 100000000, \"GoldCardsFactory#updateGoldPrice: INVALID_PRICE\");\n    require(_newPrice >= goldRefund, \"GoldCardsFactory#updateGoldPrice: PRICE_HIGHER_THAN_REFUND\");\n    emit GoldPriceChanged(goldPrice, _newPrice);\n    goldPrice = _newPrice;\n  }\n\n  /**\n   * @notice Will update the card refund amount\n   * @dev Don't forget to account for the currency's decimals\n   @ @dev Should ignore card's decimals\n   * @param _newRefund New card refund amount\n   */\n  function updateGoldRefund(uint256 _newRefund) external onlyOwner() {\n    require(goldPrice >= _newRefund, \"GoldCardsFactory#updateGoldRefund: PRICE_HIGHER_THAN_REFUND\");\n    emit GoldRefundChanged(goldRefund, _newRefund);\n    goldRefund = _newRefund;\n  }\n\n  /**\n   * @notice Will update the rng delay amount\n   * @param _newDelay New rng block delay\n   */\n  function updateRNGDelay(uint256 _newDelay) external onlyOwner() {\n    require(_newDelay > 0, \"GoldCardsFactory#updateRNGDelay: INVALID_DELAY\");\n    emit RNGDelayChanged(rngDelay, _newDelay);\n    rngDelay = _newDelay;\n  }\n\n\n  /***********************************|\n  |      Receiver Method Handler      |\n  |__________________________________*/\n\n  // On receive success messages\n  bytes4 constant internal ERC1155_RECEIVED_VALUE = 0xf23a6e61;\n  bytes4 constant internal ERC1155_BATCH_RECEIVED_VALUE = 0xbc197c81;\n\n  /**\n   * @notice Prevents receiving Ether or calls to unsuported methods\n   */\n  function () external {\n    revert(\"UNSUPPORTED_METHOD\");\n  }\n\n  /**\n   * @dev Will pass array to `onERC1155BatchReceived()`\n   */\n  function onERC1155Received(address _operator, address _from, uint256 _id, uint256 _amount, bytes memory _data)\n    public returns(bytes4)\n  {\n    // Create arrays to pass to onERC1155BatchReceived()\n    uint256[] memory ids = new uint256[](1);\n    uint256[] memory amounts = new uint256[](1);\n    ids[0] = _id;\n    amounts[0] = _amount;\n\n    // call onERC1155BatchReceived()\n    require(\n      ERC1155_BATCH_RECEIVED_VALUE == onERC1155BatchReceived(_operator, _from, ids, amounts, _data),\n      \"NiftyswapExchange#onERC1155Received: INVALID_ONRECEIVED_MESSAGE\"\n    );\n\n    return ERC1155_RECEIVED_VALUE;\n  }\n\n  /**\n   * @notice Handle which method is being called on transfer\n   * @dev `_data` must be encoded as follow: abi.encode(BuyCardsObj)\n   * @param _from     The address which previously owned the Tokens\n   * @param _ids      An array containing ids of each Token being transferred\n   * @param _amounts  An array containing amounts of each Token being transferred\n   * @param _data     Encoded GoldOrder structure or recipient address if melting\n   * @return bytes4(keccak256(\"onERC1155Received(address,address,uint256,uint256,bytes)\")\n   */\n  function onERC1155BatchReceived(\n    address, // _operator\n    address _from,\n    uint256[] memory _ids,\n    uint256[] memory _amounts,\n    bytes memory _data)\n    public returns(bytes4)\n  {\n    // Commit for gold card creation\n    if (msg.sender == address(weaveContract)) {\n      require(_ids.length == 1, \"GoldCardsFactory#onERC1155BatchReceived: INVALID_ARRAYS\");\n      require(_ids[0] == weaveID, \"GoldCardsFactory#onERC1155BatchReceived: INVALID_WEAVE_ID\");\n\n      // Decode GoldOrder from _data to call _commit()\n      GoldOrder memory obj = abi.decode(_data, (GoldOrder));\n      _commit(_amounts[0], obj);\n\n    // Gold cards to melt back into weave\n    } else if (msg.sender == address(skyweaverAssets)) {\n\n      // If recipient is specified in _data, decode and use that\n      address recipient = _data.length == 32 ? abi.decode(_data, (address)) : _from;\n      _melt(_ids, _amounts, recipient);\n\n    } else {\n      revert(\"GoldCardsFactory#onERC1155BatchReceived: INVALID_TOKEN\");\n    }\n\n    return ERC1155_BATCH_RECEIVED_VALUE;\n  }\n\n\n  /***********************************|\n  |         Minting Functions         |\n  |__________________________________*/\n\n  /**\n   * @notice Commits weave for gold cards minting\n   * @param _weaveAmount  Amount of weave sent with the commit\n   * @param _order      GoldOrder object\n   *\n   */\n  function _commit(uint256 _weaveAmount, GoldOrder memory _order)\n    internal\n  {\n    // Check if weave sent is sufficient for order\n    uint256 total_cost = _order.cardAmount.mul(goldPrice).add(_order.feeAmount);\n    uint256 refund_amount = _weaveAmount.sub(total_cost); // Will throw if insufficient amount received\n\n    // Set RNG block\n    _order.rngBlock = block.number.add(rngDelay);\n\n    // Mark order as pending\n    bytes32 order_hash = keccak256(abi.encode(_order));\n    require(!orderStatus[order_hash], \"GoldCardsFactory#_commit: ORDER_HASH_ALREADY_USED\");\n    orderStatus[order_hash] = true;\n\n    // Check if more than enough weave was sent, refund exceeding amount\n    if (refund_amount > 0) {\n      weaveContract.safeTransferFrom(address(this), _order.cardRecipient, weaveID, refund_amount, \"\");\n    }\n\n    // Emit event\n    emit OrderCommited(_order);\n  }\n\n  /**\n   * @notice Recommit to future block for RNG if order wasn't executed in time\n   * @dev Can only be executed if an order is not executable anymore.\n   * @param _order GoldOrder object associated with the given order to recommit\n   */\n  function recommit(GoldOrder memory _order)\n    public\n  {\n    bytes32 old_order_hash = keccak256(abi.encode(_order));\n\n    // Get status of old order (1: pending)\n    bool old_order_status = orderStatus[old_order_hash];\n\n    // Check if order exists and hasn't been executed yet\n    require(old_order_status, \"GoldCardsFactory#recommit: ORDER_NON_EXISTANT_OR_EXECUTED\");\n    require(block.number.sub(_order.rngBlock) > 256, \"GoldCardsFactory#recommit: ORDER_NOT_EXPIRED\");\n\n    // Set new RNG block in order\n    // new_rng_block > _rngBlock as per previous require statement\n    _order.rngBlock = block.number.add(rngDelay);\n\n    // Get hash of the new order with new rngBlock\n    bytes32 new_order_hash = keccak256(abi.encode(_order));\n\n    // Delete old order\n    orderStatus[old_order_hash] = false;\n\n    // Store new hash\n    require(!orderStatus[new_order_hash], \"GoldCardsFactory#recommit: ORDER_HASH_ALREADY_USED\");\n    orderStatus[new_order_hash] = true;\n\n    // Emit event\n    emit OrderRecommitted(_order);\n  }\n\n  /**\n   * @notice Commits weave for gold cards minting\n   * @dev The ids to mint for a given order are generated and sorted off-chain\n   *      but their validity is verified on-chain before being minted.\n   * @param _order    GoldOrder object associated with the given order\n   * @param _ids      Sorted array of ids to mint\n   * @param _indexes  Array containing _ids indexes, ordered by the\n   *                  sequence in which they appear in the rng function.\n   */\n  function mineGolds(GoldOrder calldata _order, uint256[] calldata _ids, uint256[] calldata _indexes)\n    external\n  {\n    // Check if the total amount of token to mint correspond to array provided\n    require(_order.cardAmount == _indexes.length, \"GoldCardsFactory#mineGolds: INVALID_INDEXES_ARRAY_LENGTH\");\n\n    // If rngBlock is current block or block older than 256 ago, the rng_seed will be deterministic (blockhash will return 0x).\n    require(block.number.sub(_order.rngBlock.add(1)) <= 255, \"GoldCardsFactory#mineGolds: RNG_BLOCK_OUT_OF_RANGE\");\n\n    // Compute the order hash\n    bytes32 order_hash = keccak256(abi.encode(_order));\n\n    // Check whether the order exists or was already executed\n    require(orderStatus[order_hash], \"GoldCardsFactory#mineGolds: ORDER_NON_EXISTANT_OR_EXECUTED\");\n\n    // Mark the order as executed (and clean storage)\n    orderStatus[order_hash] = false;\n\n    // Get RNG seed\n    bytes32 rng_seed = keccak256(\n      abi.encode(\n        order_hash, // change to order_hash\n        blockhash(_order.rngBlock) //Should NEVER be 0x0\n      )\n    );\n\n    // Get random cards\n    uint256[] memory amounts = validateRandomCards(rng_seed, _ids, _indexes);\n\n    // Burn the non-refundable weave\n    uint256 weave_to_burn = (_order.cardAmount.mul(goldPrice)).sub(_order.cardAmount.mul(goldRefund));\n    weaveContract.burn(weaveID, weave_to_burn);\n\n    // Mint gold cards\n    skyweaverAssets.batchMint(_order.cardRecipient, _ids, amounts, \"\");\n\n    // Pay fee to operator\n    uint256 fee_amount = _order.feeAmount;\n    if (fee_amount > 0) {\n      // If send to `feeRecipient` if specified, else free for all\n      address fee_recipient = _order.feeRecipient == address(0x0) ? msg.sender : _order.feeRecipient;\n      weaveContract.safeTransferFrom(address(this), fee_recipient, weaveID, fee_amount, \"\");\n    }\n\n    // Emit event\n    emit OrderFulfilled(order_hash);\n  }\n\n\n  /***********************************|\n  |          Melting Function         |\n  |__________________________________*/\n\n  /**\n   * @notice Commits weave for gold cards minting\n   * @dev Sending fractions of card will not provide any refund (rounded down)\n   * @param _ids       Array of Gol cards that will be melted\n   * @param _amounts   Amount of Tokens id bought for each corresponding Token id in _tokenIds\n   * @param _recipient Which address will receive the weave\n   *\n   * todo ; check if tokens received are gold cards and not silvers!\n   */\n  function _melt(uint256[] memory _ids, uint256[] memory _amounts, address _recipient)\n    internal\n  {\n    // Amount to refund\n    uint256 n_burns = 0;\n\n    // Burn gold cards\n    skyweaverAssets.batchBurn(_ids, _amounts);\n\n    // Calculate refund\n    for (uint256 i = 0; i < _ids.length; i++) {\n      n_burns = n_burns.add(_amounts[i] / 10**decimals); //Removing card decimals\n    }\n\n    // Send refund\n    weaveContract.safeTransferFrom(address(this), _recipient, weaveID, n_burns.mul(goldRefund), \"\");\n  }\n\n\n  /***********************************|\n  |         Getter Functions          |\n  |__________________________________*/\n\n  /**\n   * @notice Get the purchasable status of card IDs provided\n   * @param _ids Array containing the assets IDs\n   * @return The purchasable status of card IDs provided\n   */\n  function getPurchasableStatus(uint256[] calldata _ids) external view returns (bool[] memory) {\n    uint256 nIds = _ids.length;\n    bool[] memory purchasableStatus = new bool[](nIds);\n\n    // Iterate over each token id\n    for (uint256 i = 0; i < nIds; i++) {\n      purchasableStatus[i] = isPurchasable[_ids[i]];\n    }\n\n    return purchasableStatus;\n  }\n\n  /**\n   * @notice Get the order status for a an array of orders\n   * @param _orderHashes Array containing the orders hashes\n   * @return Status of the corresponding orders, where F is non-existant or executed and T is pending.\n   */\n  function getOrderStatuses(bytes32[] calldata _orderHashes) external view returns (bool[] memory) {\n    uint256 nOrders = _orderHashes.length;\n    bool[] memory order_statuses = new bool[](nOrders);\n\n    // Iterate over order hashes\n    for (uint256 i = 0; i < nOrders; i++) {\n      order_statuses[i] = orderStatus[_orderHashes[i]];\n    }\n\n    return order_statuses;\n  }\n\n  /**\n   * @notice Returns the RNG seed for a given block # and given address\n   * @param _order Order to get the RNG seed of\n   * @return rng seed for a given order\n   */\n  function getRNGSeed(GoldOrder calldata _order) external view returns (bytes32 rng_seed) {\n    return keccak256(\n      abi.encode(\n        keccak256(abi.encode(_order)),\n        blockhash(_order.rngBlock)\n      )\n    );\n  }\n\n  /**\n   * @notice Returns the array containing all ids registered\n   */\n  function getCardPool() external view returns (uint256[] memory) {\n    return cardsPool;\n  }\n\n  /**\n   * @notice Returns the address of the factory manager contract\n   */\n  function getFactoryManager() external view returns (address) {\n    return address(skyweaverAssets);\n  }\n\n  /**\n   * @notice Returns the address of the Arcadeun Coin contract\n   */\n  function getWeave() external view returns (address) {\n    return address(weaveContract);\n  }\n\n  /**\n   * @notice Returns the token ID of weave\n   */\n  function getWeaveID() external view returns (uint256) {\n    return weaveID;\n  }\n\n  /**\n   * @notice Returns the current gold cards price in Weave\n   */\n  function getGoldPrice() external view returns (uint256) {\n    return goldPrice;\n  }\n\n  /**\n   * @notice Returns the current gold cards refund amount\n   */\n  function getGoldRefund() external view returns (uint256) {\n    return goldRefund;\n  }\n\n  /**\n   * @notice Returns the rng commit delay\n   */\n  function getRNGDelay() external view returns (uint256) {\n    return rngDelay;\n  }\n\n\n  /***********************************|\n  |         Utility Functions         |\n  |__________________________________*/\n\n  /**\n   * @notice Will verify that for a given seed, the _ids array provided is correct\n   * @dev The _order argument allows _ids to be sorted, which is necessary for\n   *      minting the asset (enforced by supply manager).\n   * @dev Using modulo for randomness can introduce a significant bias where low index\n   *      cards have higher probability of being selected than others. This bias becomes\n   *      less significant with larger number/modulo ratio. One can calculate the bias as\n   *      ceil(k/n)/K - floor(K/n)/K, where K is the number and n is the modulo. In our\n   *      case, since we use an integer field of 2**256, this bias should be negligeable.\n   *      This is especially true considering the total # of gold cards will be low, hence\n   *      this is an acceptable bias for uniform sampling.\n   * @param _seed    Value used for RNG seed\n   * @param _ids     Array of ids that will be generated from the _seed\n   * @param _indexes Indexes in _ids sorted by the sequence in which they\n   *                 will be generated from the random function.\n   * @return Array of how many copies for each ID was present\n   */\n  function validateRandomCards(bytes32 _seed, uint256[] memory _ids, uint256[] memory _indexes) public returns (uint256[] memory) {\n    // Amount of cards to be printed for each id\n    uint256[] memory amounts = new uint256[](_ids.length);\n\n    // Number of card ids that can be minted\n    uint256 pool_size = cardsPool.length;\n    uint256 rng = uint256(_seed);\n\n    // Get random index for each gold card to mint\n    for (uint256 i = 0; i < _indexes.length; i++) {\n\n      // Index of current rng id in _ids\n      uint256 idx = _indexes[i];\n\n      // Get token ID associated with random number\n      uint256 rand_id = cardsPool[rng % pool_size];\n\n      // Check if provided ID matches id found\n      require(rand_id == _ids[idx], \"GoldCardsFactory#validateRandomCards: INVALID_ID\");\n\n      // Increment amount to mint for the corresponding id (could be duplicate ids)\n      amounts[idx] = amounts[idx].add(10**decimals); // Adding the decimals\n\n      // New rng\n      rng = uint256(keccak256(abi.encodePacked(rng)));\n    }\n\n    return amounts;\n  }\n\n  /**\n   * @notice Will return _amount random ids based on seed (unsorted and doesn't stack duplicates)\n   * @dev Ids returned are unsorted and duplicates are not stacked\n   * @dev See validateRandomCards() for modulo bias explaination\n   * @param _seed   Value used for RNG seed\n   * @param _amount Amount of random indexes to return\n   * @return Array containing sampled IDs\n   */\n  function getRandomCards(bytes32 _seed, uint256 _amount) external view returns (uint256[] memory) {\n\n    // Amount of cards to be printed for each id\n    uint256[] memory ids = new uint256[](_amount);\n\n    // Number of card ids that can be minted\n    uint256 pool_size = cardsPool.length;\n    uint256 rng = uint256(_seed);\n\n    // Get random index for each gold card to mint\n    for (uint256 i = 0; i < _amount; i++) {\n\n      // Get token ID associated with random number\n      ids[i] = cardsPool[rng % pool_size];\n\n      // New rng\n      rng = uint256(keccak256(abi.encodePacked(rng)));\n    }\n\n    return ids;\n  }\n\n  /**\n   * @notice Indicates whether a contract implements the `ERC1155TokenReceiver` functions and so can accept ERC1155 token types.\n   * @param  interfaceID The ERC-165 interface ID that is queried for support.s\n   * @dev This function MUST return true if it implements the ERC1155TokenReceiver interface and ERC-165 interface.\n   *      This function MUST NOT consume more than 5,000 gas.\n   * @return Wheter ERC-165 or ERC1155TokenReceiver interfaces are supported.\n   */\n  function supportsInterface(bytes4 interfaceID) external view returns (bool) {\n    return  interfaceID == 0x01ffc9a7 || // ERC-165 support (i.e. `bytes4(keccak256('supportsInterface(bytes4)'))`).\n      interfaceID == 0x4e2312e0;         // ERC-1155 `ERC1155TokenReceiver` support (i.e. `bytes4(keccak256(\"onERC1155Received(address,address,uint256,uint256,bytes)\")) ^ bytes4(keccak256(\"onERC1155BatchReceived(address,address,uint256[],uint256[],bytes)\"))`).\n  }\n\n}\n",
  "sourcePath": "/home/michael/Documents/Projects/horizon-games/SkyWeaver-contracts/contracts/shop/GoldCardsFactory.sol",
  "compiler": {
    "name": "solc",
    "version": "0.5.16+commit.9c3226ce.Emscripten.clang"
  },
  "schemaVersion": "3.1.0",
  "updatedAt": "2020-06-26T16:37:42.962Z",
  "devdoc": {
    "methods": {
      "constructor": {
        "params": {
          "_assetsAddr": "The address of the ERC-1155 Assets Token",
          "_goldPrice": "Price for each card",
          "_goldRefund": "Amount of weave to receive when melting a gold card",
          "_rngDelay": "Amount of blocks after commit before one can mint cards",
          "_weaveAddr": "The address of the ERC-1155 Base Token",
          "_weaveID": "The ID of the ERC-1155 Base Token"
        }
      },
      "deregisterIDs(uint256[],uint256[])": {
        "details": "Need to account for the fact that the array will change     as ids are removed, so the corresponding indexes will change     as well. Using decending order makes it easier.",
        "params": {
          "_cardPoolIndexes": "The cardPools index for each id in _ids",
          "_ids": "Array of card IDs to make non-purchasable"
        }
      },
      "getOrderStatuses(bytes32[])": {
        "params": {
          "_orderHashes": "Array containing the orders hashes"
        },
        "return": "Status of the corresponding orders, where F is non-existant or executed and T is pending."
      },
      "getPurchasableStatus(uint256[])": {
        "params": {
          "_ids": "Array containing the assets IDs"
        },
        "return": "The purchasable status of card IDs provided"
      },
      "getRNGSeed((address,address,uint256,uint256,uint256))": {
        "params": {
          "_order": "Order to get the RNG seed of"
        },
        "return": "rng seed for a given order"
      },
      "getRandomCards(bytes32,uint256)": {
        "details": "Ids returned are unsorted and duplicates are not stackedSee validateRandomCards() for modulo bias explaination",
        "params": {
          "_amount": "Amount of random indexes to return",
          "_seed": "Value used for RNG seed"
        },
        "return": "Array containing sampled IDs"
      },
      "mineGolds((address,address,uint256,uint256,uint256),uint256[],uint256[])": {
        "details": "The ids to mint for a given order are generated and sorted off-chain     but their validity is verified on-chain before being minted.",
        "params": {
          "_ids": "Sorted array of ids to mint",
          "_indexes": "Array containing _ids indexes, ordered by the                 sequence in which they appear in the rng function.",
          "_order": "GoldOrder object associated with the given order"
        }
      },
      "onERC1155BatchReceived(address,address,uint256[],uint256[],bytes)": {
        "details": "`_data` must be encoded as follow: abi.encode(BuyCardsObj)",
        "params": {
          "_amounts": "An array containing amounts of each Token being transferred",
          "_data": "Encoded GoldOrder structure or recipient address if melting",
          "_from": "The address which previously owned the Tokens",
          "_ids": "An array containing ids of each Token being transferred"
        },
        "return": "bytes4(keccak256(\"onERC1155Received(address,address,uint256,uint256,bytes)\")"
      },
      "onERC1155Received(address,address,uint256,uint256,bytes)": {
        "details": "Will pass array to `onERC1155BatchReceived()`"
      },
      "recommit((address,address,uint256,uint256,uint256))": {
        "details": "Can only be executed if an order is not executable anymore.",
        "params": {
          "_order": "GoldOrder object associated with the given order to recommit"
        }
      },
      "registerIDs(uint256[])": {
        "details": "Will throw if an ID is already registered to prevent duplicates     in cardPool array.",
        "params": {
          "_ids": "Array of asset IDs to allow for purchasing"
        }
      },
      "supportsInterface(bytes4)": {
        "details": "This function MUST return true if it implements the ERC1155TokenReceiver interface and ERC-165 interface.     This function MUST NOT consume more than 5,000 gas.",
        "params": {
          "interfaceID": "The ERC-165 interface ID that is queried for support.s"
        },
        "return": "Wheter ERC-165 or ERC1155TokenReceiver interfaces are supported."
      },
      "transferOwnership(address)": {
        "params": {
          "_newOwner": "Address of the new owner"
        }
      },
      "updateGoldPrice(uint256)": {
        "details": "Don't forget to account for currency's decimalsDoes not account for card decimals",
        "params": {
          "_newPrice": "New card price"
        }
      },
      "updateGoldRefund(uint256)": {
        "details": "Don't forget to account for the currency's decimals @dev Should ignore card's decimals",
        "params": {
          "_newRefund": "New card refund amount"
        }
      },
      "updateRNGDelay(uint256)": {
        "params": {
          "_newDelay": "New rng block delay"
        }
      },
      "validateRandomCards(bytes32,uint256[],uint256[])": {
        "details": "The _order argument allows _ids to be sorted, which is necessary for     minting the asset (enforced by supply manager).Using modulo for randomness can introduce a significant bias where low index     cards have higher probability of being selected than others. This bias becomes     less significant with larger number/modulo ratio. One can calculate the bias as     ceil(k/n)/K - floor(K/n)/K, where K is the number and n is the modulo. In our     case, since we use an integer field of 2**256, this bias should be negligeable.     This is especially true considering the total # of gold cards will be low, hence     this is an acceptable bias for uniform sampling.",
        "params": {
          "_ids": "Array of ids that will be generated from the _seed",
          "_indexes": "Indexes in _ids sorted by the sequence in which they                will be generated from the random function.",
          "_seed": "Value used for RNG seed"
        },
        "return": "Array of how many copies for each ID was present"
      }
    }
  },
  "userdoc": {
    "methods": {
      "constructor": "Create factory, link factory manager and store initial paramters",
      "deregisterIDs(uint256[],uint256[])": {
        "notice": "Will indicate that asset ids in _ids are NOT mintable"
      },
      "getCardPool()": {
        "notice": "Returns the array containing all ids registered"
      },
      "getFactoryManager()": {
        "notice": "Returns the address of the factory manager contract"
      },
      "getGoldPrice()": {
        "notice": "Returns the current gold cards price in Weave"
      },
      "getGoldRefund()": {
        "notice": "Returns the current gold cards refund amount"
      },
      "getOrderStatuses(bytes32[])": {
        "notice": "Get the order status for a an array of orders"
      },
      "getOwner()": {
        "notice": "Returns the address of the owner."
      },
      "getPurchasableStatus(uint256[])": {
        "notice": "Get the purchasable status of card IDs provided"
      },
      "getRNGDelay()": {
        "notice": "Returns the rng commit delay"
      },
      "getRNGSeed((address,address,uint256,uint256,uint256))": {
        "notice": "Returns the RNG seed for a given block # and given address"
      },
      "getRandomCards(bytes32,uint256)": {
        "notice": "Will return _amount random ids based on seed (unsorted and doesn't stack duplicates)"
      },
      "getWeave()": {
        "notice": "Returns the address of the Arcadeun Coin contract"
      },
      "getWeaveID()": {
        "notice": "Returns the token ID of weave"
      },
      "mineGolds((address,address,uint256,uint256,uint256),uint256[],uint256[])": {
        "notice": "Commits weave for gold cards minting"
      },
      "onERC1155BatchReceived(address,address,uint256[],uint256[],bytes)": {
        "notice": "Handle which method is being called on transfer"
      },
      "recommit((address,address,uint256,uint256,uint256))": {
        "notice": "Recommit to future block for RNG if order wasn't executed in time"
      },
      "registerIDs(uint256[])": {
        "notice": "Will indicate that asset ids in _ids are purchasable & add them to card pool"
      },
      "supportsInterface(bytes4)": {
        "notice": "Indicates whether a contract implements the `ERC1155TokenReceiver` functions and so can accept ERC1155 token types."
      },
      "transferOwnership(address)": {
        "notice": "Transfers the ownership of the contract to new address"
      },
      "updateGoldPrice(uint256)": {
        "notice": "Will update the card price"
      },
      "updateGoldRefund(uint256)": {
        "notice": "Will update the card refund amount"
      },
      "updateRNGDelay(uint256)": {
        "notice": "Will update the rng delay amount"
      },
      "validateRandomCards(bytes32,uint256[],uint256[])": {
        "notice": "Will verify that for a given seed, the _ids array provided is correct"
      }
    },
    "notice": "This is a contract allowing users to mint random Skyweaver's gold cards for a given weave amount using a future block hash commit scheme."
  }
}