{
  "contractName": "MetaERC20Wrapper",
  "abi": [
    {
      "inputs": [],
      "payable": false,
      "stateMutability": "nonpayable",
      "type": "constructor"
    },
    {
      "anonymous": false,
      "inputs": [
        {
          "indexed": true,
          "internalType": "address",
          "name": "_owner",
          "type": "address"
        },
        {
          "indexed": true,
          "internalType": "address",
          "name": "_operator",
          "type": "address"
        },
        {
          "indexed": false,
          "internalType": "bool",
          "name": "_approved",
          "type": "bool"
        }
      ],
      "name": "ApprovalForAll",
      "type": "event"
    },
    {
      "anonymous": false,
      "inputs": [
        {
          "indexed": true,
          "internalType": "address",
          "name": "signer",
          "type": "address"
        },
        {
          "indexed": false,
          "internalType": "uint256",
          "name": "newNonce",
          "type": "uint256"
        }
      ],
      "name": "NonceChange",
      "type": "event"
    },
    {
      "anonymous": false,
      "inputs": [
        {
          "indexed": false,
          "internalType": "address",
          "name": "token_address",
          "type": "address"
        },
        {
          "indexed": false,
          "internalType": "uint256",
          "name": "token_id",
          "type": "uint256"
        }
      ],
      "name": "TokenRegistration",
      "type": "event"
    },
    {
      "anonymous": false,
      "inputs": [
        {
          "indexed": true,
          "internalType": "address",
          "name": "_operator",
          "type": "address"
        },
        {
          "indexed": true,
          "internalType": "address",
          "name": "_from",
          "type": "address"
        },
        {
          "indexed": true,
          "internalType": "address",
          "name": "_to",
          "type": "address"
        },
        {
          "indexed": false,
          "internalType": "uint256[]",
          "name": "_ids",
          "type": "uint256[]"
        },
        {
          "indexed": false,
          "internalType": "uint256[]",
          "name": "_amounts",
          "type": "uint256[]"
        }
      ],
      "name": "TransferBatch",
      "type": "event"
    },
    {
      "anonymous": false,
      "inputs": [
        {
          "indexed": true,
          "internalType": "address",
          "name": "_operator",
          "type": "address"
        },
        {
          "indexed": true,
          "internalType": "address",
          "name": "_from",
          "type": "address"
        },
        {
          "indexed": true,
          "internalType": "address",
          "name": "_to",
          "type": "address"
        },
        {
          "indexed": false,
          "internalType": "uint256",
          "name": "_id",
          "type": "uint256"
        },
        {
          "indexed": false,
          "internalType": "uint256",
          "name": "_amount",
          "type": "uint256"
        }
      ],
      "name": "TransferSingle",
      "type": "event"
    },
    {
      "anonymous": false,
      "inputs": [
        {
          "indexed": false,
          "internalType": "string",
          "name": "_amount",
          "type": "string"
        },
        {
          "indexed": true,
          "internalType": "uint256",
          "name": "_id",
          "type": "uint256"
        }
      ],
      "name": "URI",
      "type": "event"
    },
    {
      "payable": true,
      "stateMutability": "payable",
      "type": "fallback"
    },
    {
      "constant": true,
      "inputs": [
        {
          "internalType": "address",
          "name": "_owner",
          "type": "address"
        },
        {
          "internalType": "uint256",
          "name": "_id",
          "type": "uint256"
        }
      ],
      "name": "balanceOf",
      "outputs": [
        {
          "internalType": "uint256",
          "name": "",
          "type": "uint256"
        }
      ],
      "payable": false,
      "stateMutability": "view",
      "type": "function"
    },
    {
      "constant": true,
      "inputs": [
        {
          "internalType": "address[]",
          "name": "_owners",
          "type": "address[]"
        },
        {
          "internalType": "uint256[]",
          "name": "_ids",
          "type": "uint256[]"
        }
      ],
      "name": "balanceOfBatch",
      "outputs": [
        {
          "internalType": "uint256[]",
          "name": "",
          "type": "uint256[]"
        }
      ],
      "payable": false,
      "stateMutability": "view",
      "type": "function"
    },
    {
      "constant": true,
      "inputs": [
        {
          "internalType": "address",
          "name": "_signer",
          "type": "address"
        }
      ],
      "name": "getNonce",
      "outputs": [
        {
          "internalType": "uint256",
          "name": "nonce",
          "type": "uint256"
        }
      ],
      "payable": false,
      "stateMutability": "view",
      "type": "function"
    },
    {
      "constant": true,
      "inputs": [
        {
          "internalType": "address",
          "name": "_owner",
          "type": "address"
        },
        {
          "internalType": "address",
          "name": "_operator",
          "type": "address"
        }
      ],
      "name": "isApprovedForAll",
      "outputs": [
        {
          "internalType": "bool",
          "name": "isOperator",
          "type": "bool"
        }
      ],
      "payable": false,
      "stateMutability": "view",
      "type": "function"
    },
    {
      "constant": true,
      "inputs": [
        {
          "internalType": "address",
          "name": "_signerAddress",
          "type": "address"
        },
        {
          "internalType": "bytes32",
          "name": "_hash",
          "type": "bytes32"
        },
        {
          "internalType": "bytes",
          "name": "_data",
          "type": "bytes"
        },
        {
          "internalType": "bytes",
          "name": "_sig",
          "type": "bytes"
        }
      ],
      "name": "isValidSignature",
      "outputs": [
        {
          "internalType": "bool",
          "name": "isValid",
          "type": "bool"
        }
      ],
      "payable": false,
      "stateMutability": "view",
      "type": "function"
    },
    {
      "constant": false,
      "inputs": [
        {
          "internalType": "address",
          "name": "_from",
          "type": "address"
        },
        {
          "internalType": "address",
          "name": "_to",
          "type": "address"
        },
        {
          "internalType": "uint256[]",
          "name": "_ids",
          "type": "uint256[]"
        },
        {
          "internalType": "uint256[]",
          "name": "_amounts",
          "type": "uint256[]"
        },
        {
          "internalType": "bool",
          "name": "_isGasFee",
          "type": "bool"
        },
        {
          "internalType": "bytes",
          "name": "_data",
          "type": "bytes"
        }
      ],
      "name": "metaSafeBatchTransferFrom",
      "outputs": [],
      "payable": false,
      "stateMutability": "nonpayable",
      "type": "function"
    },
    {
      "constant": false,
      "inputs": [
        {
          "internalType": "address",
          "name": "_from",
          "type": "address"
        },
        {
          "internalType": "address",
          "name": "_to",
          "type": "address"
        },
        {
          "internalType": "uint256",
          "name": "_id",
          "type": "uint256"
        },
        {
          "internalType": "uint256",
          "name": "_amount",
          "type": "uint256"
        },
        {
          "internalType": "bool",
          "name": "_isGasFee",
          "type": "bool"
        },
        {
          "internalType": "bytes",
          "name": "_data",
          "type": "bytes"
        }
      ],
      "name": "metaSafeTransferFrom",
      "outputs": [],
      "payable": false,
      "stateMutability": "nonpayable",
      "type": "function"
    },
    {
      "constant": false,
      "inputs": [
        {
          "internalType": "address",
          "name": "_owner",
          "type": "address"
        },
        {
          "internalType": "address",
          "name": "_operator",
          "type": "address"
        },
        {
          "internalType": "bool",
          "name": "_approved",
          "type": "bool"
        },
        {
          "internalType": "bool",
          "name": "_isGasFee",
          "type": "bool"
        },
        {
          "internalType": "bytes",
          "name": "_data",
          "type": "bytes"
        }
      ],
      "name": "metaSetApprovalForAll",
      "outputs": [],
      "payable": false,
      "stateMutability": "nonpayable",
      "type": "function"
    },
    {
      "constant": false,
      "inputs": [
        {
          "internalType": "address",
          "name": "_from",
          "type": "address"
        },
        {
          "internalType": "address",
          "name": "_to",
          "type": "address"
        },
        {
          "internalType": "uint256[]",
          "name": "_ids",
          "type": "uint256[]"
        },
        {
          "internalType": "uint256[]",
          "name": "_amounts",
          "type": "uint256[]"
        },
        {
          "internalType": "bytes",
          "name": "_data",
          "type": "bytes"
        }
      ],
      "name": "safeBatchTransferFrom",
      "outputs": [],
      "payable": false,
      "stateMutability": "nonpayable",
      "type": "function"
    },
    {
      "constant": false,
      "inputs": [
        {
          "internalType": "address",
          "name": "_from",
          "type": "address"
        },
        {
          "internalType": "address",
          "name": "_to",
          "type": "address"
        },
        {
          "internalType": "uint256",
          "name": "_id",
          "type": "uint256"
        },
        {
          "internalType": "uint256",
          "name": "_amount",
          "type": "uint256"
        },
        {
          "internalType": "bytes",
          "name": "_data",
          "type": "bytes"
        }
      ],
      "name": "safeTransferFrom",
      "outputs": [],
      "payable": false,
      "stateMutability": "nonpayable",
      "type": "function"
    },
    {
      "constant": false,
      "inputs": [
        {
          "internalType": "address",
          "name": "_operator",
          "type": "address"
        },
        {
          "internalType": "bool",
          "name": "_approved",
          "type": "bool"
        }
      ],
      "name": "setApprovalForAll",
      "outputs": [],
      "payable": false,
      "stateMutability": "nonpayable",
      "type": "function"
    },
    {
      "constant": false,
      "inputs": [
        {
          "internalType": "address",
          "name": "_token",
          "type": "address"
        },
        {
          "internalType": "address",
          "name": "_recipient",
          "type": "address"
        },
        {
          "internalType": "uint256",
          "name": "_value",
          "type": "uint256"
        }
      ],
      "name": "deposit",
      "outputs": [],
      "payable": true,
      "stateMutability": "payable",
      "type": "function"
    },
    {
      "constant": false,
      "inputs": [
        {
          "internalType": "address",
          "name": "_token",
          "type": "address"
        },
        {
          "internalType": "address payable",
          "name": "_to",
          "type": "address"
        },
        {
          "internalType": "uint256",
          "name": "_value",
          "type": "uint256"
        }
      ],
      "name": "withdraw",
      "outputs": [],
      "payable": false,
      "stateMutability": "nonpayable",
      "type": "function"
    },
    {
      "constant": false,
      "inputs": [
        {
          "internalType": "address",
          "name": "",
          "type": "address"
        },
        {
          "internalType": "address payable",
          "name": "_from",
          "type": "address"
        },
        {
          "internalType": "uint256",
          "name": "_id",
          "type": "uint256"
        },
        {
          "internalType": "uint256",
          "name": "_value",
          "type": "uint256"
        },
        {
          "internalType": "bytes",
          "name": "",
          "type": "bytes"
        }
      ],
      "name": "onERC1155Received",
      "outputs": [
        {
          "internalType": "bytes4",
          "name": "",
          "type": "bytes4"
        }
      ],
      "payable": false,
      "stateMutability": "nonpayable",
      "type": "function"
    },
    {
      "constant": false,
      "inputs": [
        {
          "internalType": "address",
          "name": "",
          "type": "address"
        },
        {
          "internalType": "address payable",
          "name": "_from",
          "type": "address"
        },
        {
          "internalType": "uint256[]",
          "name": "_ids",
          "type": "uint256[]"
        },
        {
          "internalType": "uint256[]",
          "name": "_values",
          "type": "uint256[]"
        },
        {
          "internalType": "bytes",
          "name": "",
          "type": "bytes"
        }
      ],
      "name": "onERC1155BatchReceived",
      "outputs": [
        {
          "internalType": "bytes4",
          "name": "",
          "type": "bytes4"
        }
      ],
      "payable": false,
      "stateMutability": "nonpayable",
      "type": "function"
    },
    {
      "constant": true,
      "inputs": [
        {
          "internalType": "address",
          "name": "_token",
          "type": "address"
        }
      ],
      "name": "getTokenID",
      "outputs": [
        {
          "internalType": "uint256",
          "name": "tokenID",
          "type": "uint256"
        }
      ],
      "payable": false,
      "stateMutability": "view",
      "type": "function"
    },
    {
      "constant": true,
      "inputs": [
        {
          "internalType": "uint256",
          "name": "_id",
          "type": "uint256"
        }
      ],
      "name": "getIdAddress",
      "outputs": [
        {
          "internalType": "address",
          "name": "token",
          "type": "address"
        }
      ],
      "payable": false,
      "stateMutability": "view",
      "type": "function"
    },
    {
      "constant": true,
      "inputs": [],
      "name": "getNTokens",
      "outputs": [
        {
          "internalType": "uint256",
          "name": "",
          "type": "uint256"
        }
      ],
      "payable": false,
      "stateMutability": "view",
      "type": "function"
    },
    {
      "constant": true,
      "inputs": [
        {
          "internalType": "bytes4",
          "name": "interfaceID",
          "type": "bytes4"
        }
      ],
      "name": "supportsInterface",
      "outputs": [
        {
          "internalType": "bool",
          "name": "",
          "type": "bool"
        }
      ],
      "payable": false,
      "stateMutability": "view",
      "type": "function"
    }
  ],
  "bytecode": "0x6080604052600160035534801561001557600080fd5b50600160008190527fabd6e7cb50984ff9c2f3e18a2660c3353dadf4e3291deeb275dae2cd1e44fe0581905560056020527f1471eb6eb2c5e789fc3de43f8ce62938c7d1836ec861730447e2ada8fd81017b80546001600160a01b03191690911790556139ab806100876000396000f3fe6080604052600436106101135760003560e01c8063a22cb465116100a0578063e985e9c511610064578063e985e9c514610313578063f23a6e6114610333578063f242432a14610353578063f5d4c82014610373578063fa4e12d71461039357610113565b8063a22cb46514610266578063a3d4926e14610286578063bc197c81146102a6578063ce0b514b146102d3578063d9caed12146102f357610113565b80634e1273f4116100e75780634e1273f4146101c457806363f8071c146101f15780637358e9a5146102115780638340f5491461023e5780639040a9491461025157610113565b8062fdd58e1461012157806301ffc9a7146101575780632d0335ab146101845780632eb2c2d6146101a4575b61011f600133346103b3565b005b34801561012d57600080fd5b5061014161013c366004612460565b6105ac565b60405161014e91906137f5565b60405180910390f35b34801561016357600080fd5b5061017761017236600461250b565b6105d5565b60405161014e91906134a3565b34801561019057600080fd5b5061014161019f366004612022565b610608565b3480156101b057600080fd5b5061011f6101bf3660046120c8565b610623565b3480156101d057600080fd5b506101e46101df366004612490565b6106a2565b60405161014e919061346d565b3480156101fd57600080fd5b5061014161020c366004612022565b610784565b34801561021d57600080fd5b5061023161022c36600461260d565b6107bf565b60405161014e91906132fc565b61011f61024c366004612182565b6103b3565b34801561025d57600080fd5b506101416107f4565b34801561027257600080fd5b5061011f6102813660046123a1565b6107fa565b34801561029257600080fd5b5061011f6102a1366004612226565b610869565b3480156102b257600080fd5b506102c66102c13660046120c8565b6109b9565b60405161014e91906135b2565b3480156102df57600080fd5b5061011f6102ee366004612349565b610a52565b3480156102ff57600080fd5b5061011f61030e366004612182565b610b0d565b34801561031f57600080fd5b5061017761032e366004612098565b610b26565b34801561033f57600080fd5b506102c661034e3660046121cf565b610b54565b34801561035f57600080fd5b5061011f61036e3660046121cf565b610b9d565b34801561037f57600080fd5b5061011f61038e3660046122f2565b610c15565b34801561039f57600080fd5b506101776103ae3660046123d1565b610d1a565b6001600160a01b0382166103e25760405162461bcd60e51b81526004016103d990613605565b60405180910390fd5b60006001600160a01b0384166001146105685734156104135760405162461bcd60e51b81526004016103d990613665565b6040516323b872dd60e01b81526001600160a01b038516906323b872dd906104439033903090879060040161330a565b602060405180830381600087803b15801561045d57600080fd5b505af1158015610471573d6000803e3d6000fd5b505050506040513d601f19601f8201168201806040525061049591908101906124ed565b5061049e611100565b6104ba5760405162461bcd60e51b81526004016103d990613685565b6001600160a01b0384166000908152600460205260409020548061055e576003805460010190819055600081815260056020908152604080832080546001600160a01b0319166001600160a01b038b169081179091558352600490915290819020829055519092507ff977d54986414fc91816901629d1d788ad95448ab4198dcb9b6dc5ed2b930c1f90610551908790859061345f565b60405180910390a1610562565b8091505b5061058b565b3482146105875760405162461bcd60e51b81526004016103d9906135f5565b5060015b6105a683828460405180602001604052806000815250611134565b50505050565b6001600160a01b0382166000908152602081815260408083208484529091529020545b92915050565b60006301ffc9a760e01b6001600160e01b0319831614806105cf5750506001600160e01b031916630271189760e51b1490565b6001600160a01b031660009081526002602052604090205490565b336001600160a01b038616148061063f575061063f8533610b26565b61065b5760405162461bcd60e51b81526004016103d990613745565b6001600160a01b0384166106815760405162461bcd60e51b81526004016103d9906136e5565b61068d858585856111d9565b61069b858585855a866113e3565b5050505050565b606081518351146106c55760405162461bcd60e51b81526004016103d990613715565b606083516040519080825280602002602001820160405280156106f2578160200160208202803883390190505b50905060005b845181101561077c5760008086838151811061071057fe5b60200260200101516001600160a01b03166001600160a01b03168152602001908152602001600020600085838151811061074657fe5b602002602001015181526020019081526020016000205482828151811061076957fe5b60209081029190910101526001016106f8565b509392505050565b6001600160a01b038116600090815260046020526040902054806107ba5760405162461bcd60e51b81526004016103d9906137c5565b919050565b6000818152600560205260409020546001600160a01b0316806107ba5760405162461bcd60e51b81526004016103d990613705565b60035490565b3360008181526001602090815260408083206001600160a01b038716808552925291829020805460ff191685151517905590519091907f17307eab39ab6107e8899845ad3d59bd9653f200f220920489ca2b5937696c319061085d9085906134a3565b60405180910390a35050565b6001600160a01b03851661088f5760405162461bcd60e51b81526004016103d990613765565b6060610899611d8f565b606061094c89857fa3d4926e8cf8fe8e020cd29f514c256bc2eec62aa2337e415f1a33a4828af5a060001b8c8c8c6040516020016108d7919061326a565b604051602081830303815290604052805190602001208c6040516020016108fe919061326a565b604051602081830303815290604052805190602001208c610920576000610923565b60015b604051602001610938969594939291906134cc565b6040516020818303038152906040526114b6565b905061095a898989896111d9565b84156109a0578080602001905161097491908101906125d8565b6020820151909450909250610991908a908a908a908a90866113e3565b61099b8983611620565b6109ae565b6109ae898989895a866113e3565b505050505050505050565b60003330146109da5760405162461bcd60e51b81526004016103d9906136d5565b60005b8451811015610a3d57610a028582815181106109f557fe5b60200260200101516107bf565b50610a353087878481518110610a1457fe5b6020026020010151878581518110610a2857fe5b602002602001015161182f565b6001016109dd565b5063bc197c8160e01b90505b95945050505050565b6001600160a01b038516610a785760405162461bcd60e51b81526004016103d990613695565b6060610a82611d8f565b6060610aba89857fce0b514b3931bdbe4d5d44e4f035afe7113767b7db71949271f6a62d9c60f558828c8c8c8c610920576000610923565b9050610ac8898989896119a2565b8415610aff5780806020019051610ae291908101906125d8565b6020820151909450909250610991908a908a908a908a9086611a8a565b6109ae898989895a86611a8a565b6000610b1884610784565b90506105a63384838561182f565b6001600160a01b03918216600090815260016020908152604080832093909416825291909152205460ff1690565b6000333014610b755760405162461bcd60e51b81526004016103d990613625565b610b7e846107bf565b50610b8b3086868661182f565b5063f23a6e6160e01b95945050505050565b336001600160a01b0386161480610bb95750610bb98533610b26565b610bd55760405162461bcd60e51b81526004016103d990613635565b6001600160a01b038416610bfb5760405162461bcd60e51b81526004016103d9906135e5565b610c07858585856119a2565b61069b858585855a86611a8a565b6060610c7186837ff5d4c820494c8595de274c7ff619bead38aac4fbc3d143b5bf956aa4b84fa524828989610c4b576000610c4e565b60015b89610c5a576000610c5d565b60015b60405160200161093895949392919061351b565b6001600160a01b038781166000818152600160209081526040808320948b168084529490915290819020805460ff19168915151790555192935090917f17307eab39ab6107e8899845ad3d59bd9653f200f220920489ca2b5937696c3190610cda9088906134a3565b60405180910390a38215610d1257610cf0611d8f565b81806020019051610d0491908101906125a4565b9050610d108782611620565b505b505050505050565b600080825111610d3c5760405162461bcd60e51b81526004016103d990613755565b6001600160a01b038516610d625760405162461bcd60e51b81526004016103d990613735565b6000610d6d83611b5d565b60f81c905060058110610d925760405162461bcd60e51b81526004016103d990613675565b60008160ff166005811115610da357fe5b9050600080808080856005811115610db757fe5b1415610dd55760405162461bcd60e51b81526004016103d9906136a5565b6001856005811115610de357fe5b1415610eb9578751606114610e0a5760405162461bcd60e51b81526004016103d9906136c5565b610e1b88600063ffffffff611bab16565b9250610e2e88602063ffffffff611bab16565b915087604081518110610e3d57fe5b602001015160f81c60f81b60f81c935060018a85858560405160008152602001604052604051610e70949392919061357d565b6020604051602081039080840390855afa158015610e92573d6000803e3d6000fd5b5050604051601f1901516001600160a01b038d811691161497506110f89650505050505050565b6002856005811115610ec757fe5b1415610f7a578751606114610eee5760405162461bcd60e51b81526004016103d9906136c5565b610eff88600063ffffffff611bab16565b9250610f1288602063ffffffff611bab16565b915087604081518110610f2157fe5b602001015160f81c60f81b60f81c935060018a604051602001610f4491906132d1565b6040516020818303038152906040528051906020012085858560405160008152602001604052604051610e70949392919061357d565b6003856005811115610f8857fe5b141561102d576040516320c13b0b60e01b81526001600160a01b038c16906320c13b0b90610fbc908c908c906004016135c0565b60206040518083038186803b158015610fd457600080fd5b505afa158015610fe8573d6000803e3d6000fd5b505050506040513d601f19601f8201168201806040525061100c9190810190612529565b6001600160e01b0319166320c13b0b60e01b1496506110f895505050505050565b600485600581111561103b57fe5b14156110e057604051630b135d3f60e11b81526001600160a01b038c1690631626ba7e9061106f908d908c9060040161355d565b60206040518083038186803b15801561108757600080fd5b505afa15801561109b573d6000803e3d6000fd5b505050506040513d601f19601f820116820180604052506110bf9190810190612529565b6001600160e01b031916630b135d3f60e11b1496506110f895505050505050565b60405162461bcd60e51b81526004016103d990613675565b949350505050565b6000803d801561111757602081146111205761112c565b6001915061112c565b60206000803e60005191505b501515905090565b6001600160a01b038416600090815260208181526040808320868452909152902054611166908363ffffffff611bda16565b6001600160a01b03851660008181526020818152604080832088845290915280822093909355915190919033907fc3d58168c5ae7397731d063d5bbf3d657854427343f4c083240f7aacaa2d0f62906111c29088908890613803565b60405180910390a46105a660008585855a86611a8a565b80518251146111fa5760405162461bcd60e51b81526004016103d990613655565b815160005b818110156113845761127583828151811061121657fe5b6020026020010151600080896001600160a01b03166001600160a01b03168152602001908152602001600020600087858151811061125057fe5b6020026020010151815260200190815260200160002054611bff90919063ffffffff16565b600080886001600160a01b03166001600160a01b0316815260200190815260200160002060008684815181106112a757fe5b602002602001015181526020019081526020016000208190555061132f8382815181106112d057fe5b6020026020010151600080886001600160a01b03166001600160a01b03168152602001908152602001600020600087858151811061130a57fe5b6020026020010151815260200190815260200160002054611bda90919063ffffffff16565b600080876001600160a01b03166001600160a01b03168152602001908152602001600020600086848151811061136157fe5b6020908102919091018101518252810191909152604001600020556001016111ff565b50836001600160a01b0316856001600160a01b0316336001600160a01b03167f4a39dc06d4c0dbc64b70af90fd698a233a518aa5d07e595d983b8c0526c8f7fb86866040516113d492919061347e565b60405180910390a45050505050565b6113f5856001600160a01b0316611c27565b15610d12576000856001600160a01b031663bc197c8184338a8989886040518763ffffffff1660e01b8152600401611431959493929190613332565b602060405180830381600088803b15801561144b57600080fd5b5087f115801561145f573d6000803e3d6000fd5b50505050506040513d601f19601f820116820180604052506114849190810190612529565b90506001600160e01b0319811663bc197c8160e01b14610d105760405162461bcd60e51b81526004016103d990613775565b606080838060200190516114cd9190810190612547565b6001600160a01b038716600090815260026020526040812054919450919250906114fe83604163ffffffff611bab16565b905081811080159061151257508160640181105b61152e5760405162461bcd60e51b81526004016103d9906137d5565b600061156a8683878051906020012060405160200161154f93929190613276565b60405160208183030381529060405280519060200120611c5e565b90506060868387604051602001611583939291906132a9565b60408051601f198184030181528282526001600160a01b038c166000818152600260205292909220600187019081905590935090917fb861b7bdbe611a846ab271b8d2810391bc8b5a968f390c322438ecab66bccf59916115e3916137f5565b60405180910390a26115f789838388610d1a565b6116135760405162461bcd60e51b81526004016103d9906136b5565b50505050505b9392505050565b600061162f8260600151611b5d565b60f81c9050600281106116545760405162461bcd60e51b81526004016103d9906137e5565b60008160ff16600281111561166557fe5b83516040850151919250600091829182916001600160a01b03161561168e578660400151611690565b335b925060008560028111156116a057fe5b141561176c5786606001518060200190516116be919081019061205e565b90945091506001600160a01b038416301415611702576116e0888484846119a2565b6116fd8884845a8560405180602001604052806000815250611a8a565b611767565b604051637921219560e11b81526001600160a01b0385169063f242432a90611734908b9087908790879060040161340f565b600060405180830381600087803b15801561174e57600080fd5b505af1158015611762573d6000803e3d6000fd5b505050505b611825565b86606001518060200190516117849190810190612040565b6040516323b872dd60e01b81529094506001600160a01b038516906323b872dd906117b7908b90879086906004016133f4565b602060405180830381600087803b1580156117d157600080fd5b505af11580156117e5573d6000803e3d6000fd5b505050506040513d601f19601f8201168201806040525061180991908101906124ed565b6118255760405162461bcd60e51b81526004016103d990613725565b5050505050505050565b61183a848383611cf7565b60018214611900576000828152600560205260409081902054905163a9059cbb60e01b81526001600160a01b0390911690819063a9059cbb9061188390879086906004016133d9565b602060405180830381600087803b15801561189d57600080fd5b505af11580156118b1573d6000803e3d6000fd5b505050506040513d601f19601f820116820180604052506118d591908101906124ed565b506118de611100565b6118fa5760405162461bcd60e51b81526004016103d990613795565b506105a6565b6001600160a01b0383166119265760405162461bcd60e51b81526004016103d9906136f5565b6000836001600160a01b03168260405161193f906132f1565b60006040518083038185875af1925050503d806000811461197c576040519150601f19603f3d011682016040523d82523d6000602084013e611981565b606091505b505090508061069b5760405162461bcd60e51b81526004016103d990613795565b6001600160a01b0384166000908152602081815260408083208584529091529020546119d4908263ffffffff611bff16565b6001600160a01b0380861660009081526020818152604080832087845282528083209490945591861681528082528281208582529091522054611a1d908263ffffffff611bda16565b6001600160a01b03808516600081815260208181526040808320888452909152908190209390935591519086169033907fc3d58168c5ae7397731d063d5bbf3d657854427343f4c083240f7aacaa2d0f6290611a7c9087908790613803565b60405180910390a450505050565b611a9c856001600160a01b0316611c27565b15610d12576000856001600160a01b031663f23a6e6184338a8989886040518763ffffffff1660e01b8152600401611ad8959493929190613392565b602060405180830381600088803b158015611af257600080fd5b5087f1158015611b06573d6000803e3d6000fd5b50505050506040513d601f19601f82011682018060405250611b2b9190810190612529565b90506001600160e01b0319811663f23a6e6160e01b14610d105760405162461bcd60e51b81526004016103d990613785565b600080825111611b7f5760405162461bcd60e51b81526004016103d990613615565b81600183510381518110611b8f57fe5b0160200151825160001901909252506001600160f81b03191690565b60008160200183511015611bd15760405162461bcd60e51b81526004016103d9906137a5565b50016020015190565b6000828201838110156116195760405162461bcd60e51b81526004016103d9906137b5565b600082821115611c215760405162461bcd60e51b81526004016103d990613645565b50900390565b6000813f801580159061161957507fc5d2460186f7233c927e7db2dcc703c0e500b653ca82273b7bfad8045d85a470141592915050565b600060405180604001604052806002815260200161190160f01b8152507f035aff83d86937d35b32e04f0ddc6ff469290eef2f1b692d8a815c89404d474960001b30604051602001611cb19291906134b1565b6040516020818303038152906040528051906020012083604051602001611cda93929190613276565b604051602081830303815290604052805190602001209050919050565b6001600160a01b038316600090815260208181526040808320858452909152902054611d29908263ffffffff611bff16565b6001600160a01b03841660008181526020818152604080832087845290915280822093909355915133907fc3d58168c5ae7397731d063d5bbf3d657854427343f4c083240f7aacaa2d0f6290611d829087908790613803565b60405180910390a4505050565b6040518060800160405280600081526020016000815260200160006001600160a01b03168152602001606081525090565b80356105cf81613916565b80516105cf81613916565b600082601f830112611de757600080fd5b8135611dfa611df582613837565b613811565b91508181835260208401935060208101905083856020840282011115611e1f57600080fd5b60005b83811015611e4b5781611e358882611dc0565b8452506020928301929190910190600101611e22565b5050505092915050565b600082601f830112611e6657600080fd5b8135611e74611df582613837565b91508181835260208401935060208101905083856020840282011115611e9957600080fd5b60005b83811015611e4b5781611eaf8882611edb565b8452506020928301929190910190600101611e9c565b80356105cf8161392d565b80516105cf8161392d565b80356105cf81613936565b80356105cf8161393f565b80516105cf8161393f565b600082601f830112611f0d57600080fd5b8151611f1b611df582613857565b91508082526020830160208301858383011115611f3757600080fd5b611f428382846138e0565b50505092915050565b600082601f830112611f5c57600080fd5b8135611f6a611df582613857565b91508082526020830160208301858383011115611f8657600080fd5b611f428382846138d4565b600060808284031215611fa357600080fd5b611fad6080613811565b90506000611fbb8484612017565b8252506020611fcc84848301612017565b6020830152506040611fe084828501611dcb565b60408301525060608201516001600160401b03811115611fff57600080fd5b61200b84828501611efc565b60608301525092915050565b80516105cf81613936565b60006020828403121561203457600080fd5b60006110f88484611dc0565b60006020828403121561205257600080fd5b60006110f88484611dcb565b6000806040838503121561207157600080fd5b600061207d8585611dcb565b925050602061208e85828601612017565b9150509250929050565b600080604083850312156120ab57600080fd5b60006120b78585611dc0565b925050602061208e85828601611dc0565b600080600080600060a086880312156120e057600080fd5b60006120ec8888611dc0565b95505060206120fd88828901611dc0565b94505060408601356001600160401b0381111561211957600080fd5b61212588828901611e55565b93505060608601356001600160401b0381111561214157600080fd5b61214d88828901611e55565b92505060808601356001600160401b0381111561216957600080fd5b61217588828901611f4b565b9150509295509295909350565b60008060006060848603121561219757600080fd5b60006121a38686611dc0565b93505060206121b486828701611dc0565b92505060406121c586828701611edb565b9150509250925092565b600080600080600060a086880312156121e757600080fd5b60006121f38888611dc0565b955050602061220488828901611dc0565b945050604061221588828901611edb565b935050606061214d88828901611edb565b60008060008060008060c0878903121561223f57600080fd5b600061224b8989611dc0565b965050602061225c89828a01611dc0565b95505060408701356001600160401b0381111561227857600080fd5b61228489828a01611e55565b94505060608701356001600160401b038111156122a057600080fd5b6122ac89828a01611e55565b93505060806122bd89828a01611ec5565b92505060a08701356001600160401b038111156122d957600080fd5b6122e589828a01611f4b565b9150509295509295509295565b600080600080600060a0868803121561230a57600080fd5b60006123168888611dc0565b955050602061232788828901611dc0565b945050604061233888828901611ec5565b935050606061214d88828901611ec5565b60008060008060008060c0878903121561236257600080fd5b600061236e8989611dc0565b965050602061237f89828a01611dc0565b955050604061239089828a01611edb565b94505060606122ac89828a01611edb565b600080604083850312156123b457600080fd5b60006123c08585611dc0565b925050602061208e85828601611ec5565b600080600080608085870312156123e757600080fd5b60006123f38787611dc0565b945050602061240487828801611edb565b93505060408501356001600160401b0381111561242057600080fd5b61242c87828801611f4b565b92505060608501356001600160401b0381111561244857600080fd5b61245487828801611f4b565b91505092959194509250565b6000806040838503121561247357600080fd5b600061247f8585611dc0565b925050602061208e85828601611edb565b600080604083850312156124a357600080fd5b82356001600160401b038111156124b957600080fd5b6124c585828601611dd6565b92505060208301356001600160401b038111156124e157600080fd5b61208e85828601611e55565b6000602082840312156124ff57600080fd5b60006110f88484611ed0565b60006020828403121561251d57600080fd5b60006110f88484611ee6565b60006020828403121561253b57600080fd5b60006110f88484611ef1565b6000806040838503121561255a57600080fd5b82516001600160401b0381111561257057600080fd5b61257c85828601611efc565b92505060208301516001600160401b0381111561259857600080fd5b61208e85828601611efc565b6000602082840312156125b657600080fd5b81516001600160401b038111156125cc57600080fd5b6110f884828501611f91565b600080604083850312156125eb57600080fd5b82516001600160401b0381111561260157600080fd5b61257c85828601611f91565b60006020828403121561261f57600080fd5b60006110f88484611edb565b60006126378383612707565b505060200190565b612648816138c3565b82525050565b61264881613891565b600061266282613884565b61266c8185613888565b93506126778361387e565b8060005b838110156126a557815161268f888261262b565b975061269a8361387e565b92505060010161267b565b509495945050505050565b60006126bb82613884565b6126c581856107ba565b93506126d08361387e565b8060005b838110156126a55781516126e8888261262b565b97506126f38361387e565b9250506001016126d4565b6126488161389c565b612648816138a1565b61264861271c826138a1565b6138a1565b612648816138a4565b600061273582613884565b61273f8185613888565b935061274f8185602086016138e0565b6127588161390c565b9093019392505050565b600061276d82613884565b61277781856107ba565b93506127878185602086016138e0565b9290920192915050565b600061279e602b83613888565b7f4552433131353523736166655472616e7366657246726f6d3a20494e56414c4981526a1117d49150d2541251539560aa1b602082015260400192915050565b60006127eb601c836107ba565b7f19457468657265756d205369676e6564204d6573736167653a0a3332000000008152601c0192915050565b6000612824602d83613888565b7f4d657461455243323057726170706572236465706f7369743a20494e434f525281526c4543545f4d53475f56414c554560981b602082015260400192915050565b6000612873602b83613888565b7f4d657461455243323057726170706572236465706f7369743a20494e56414c4981526a1117d49150d2541251539560aa1b602082015260400192915050565b60006128c0603783613888565b7f4c6962427974657323706f704c617374427974653a20475245415445525f544881527f414e5f5a45524f5f4c454e4754485f5245515549524544000000000000000000602082015260400192915050565b600061291f603c83613888565b7f4d657461455243323057726170706572236f6e4552433131353552656365697681527f65643a20494e56414c49445f455243313135355f524543454956454400000000602082015260400192915050565b600061297e602a83613888565b7f4552433131353523736166655472616e7366657246726f6d3a20494e56414c49815269222fa7a822a920aa27a960b11b602082015260400192915050565b60006129ca601783613888565b7f536166654d617468237375623a20554e444552464c4f57000000000000000000815260200192915050565b6000612a03603583613888565b7f45524331313535235f7361666542617463685472616e7366657246726f6d3a208152740929cac82989288be82a4a482b2a6be988a9c8ea89605b1b602082015260400192915050565b6000612a5a602c83613888565b7f4d657461455243323057726170706572236465706f7369743a204e4f4e5f4e5581526b4c4c5f4d53475f56414c554560a01b602082015260400192915050565b6000612aa8603a83613888565b60008051602061394983398151915281527f7572653a20554e535550504f525445445f5349474e4154555245000000000000602082015260400192915050565b6000612af5602983613888565b7f4d657461455243323057726170706572236465706f7369743a205452414e5346815268115497d1905253115160ba1b602082015260400192915050565b6000612b40603383613888565b7f455243313135354d657461236d657461536166655472616e7366657246726f6d8152720e881253959053125117d49150d25412515395606a1b602082015260400192915050565b6000612b95603683613888565b6000805160206139498339815191528152757572653a20494c4c4547414c5f5349474e415455524560501b602082015260400192915050565b6000612bdb603383613888565b7f455243313135354d657461235f7369676e617475726556616c69646174696f6e8152723a20494e56414c49445f5349474e415455524560681b602082015260400192915050565b6000612c30603783613888565b60008051602061394983398151915281527f7572653a204c454e4754485f39375f5245515549524544000000000000000000602082015260400192915050565b6000612c7d604183613888565b7f4d657461455243323057726170706572236f6e4552433131353542617463685281527f656365697665643a20494e56414c49445f455243313135355f524543454956456020820152601160fa1b604082015260600192915050565b6000612ce6603083613888565b7f45524331313535237361666542617463685472616e7366657246726f6d3a204981526f13959053125117d49150d2541251539560821b602082015260400192915050565b6000612d38602c83613888565b7f4d6574614552433230577261707065722377697468647261773a20494e56414c81526b125117d49150d2541251539560a21b602082015260400192915050565b6000612d86603183613888565b7f4d657461455243323057726170706572236765744964416464726573733a2055815270272922a3a4a9aa22a922a22faa27a5a2a760791b602082015260400192915050565b6000612dd9602c83613888565b7f455243313135352362616c616e63654f6642617463683a20494e56414c49445f81526b082a4a482b2be988a9c8ea8960a31b602082015260400192915050565b6000612e27603283613888565b7f455243313135354d657461235f7472616e736665724761734665653a204552438152710c8c17d514905394d1915497d1905253115160721b602082015260400192915050565b6000612e7b603383613888565b6000805160206139498339815191528152723ab9329d1024a72b20a624a22fa9a4a3a722a960691b602082015260400192915050565b6000612ebe602f83613888565b7f45524331313535237361666542617463685472616e7366657246726f6d3a204981526e272b20a624a22fa7a822a920aa27a960891b602082015260400192915050565b6000612f0f604383613888565b60008051602061394983398151915281527f7572653a204c454e4754485f475245415445525f5448414e5f305f524551554960208201526214915160ea1b604082015260600192915050565b6000612f68603883613888565b7f455243313135354d657461236d6574615361666542617463685472616e73666581527f7246726f6d3a20494e56414c49445f524543495049454e540000000000000000602082015260400192915050565b60006105cf600083613888565b60006105cf6000836107ba565b6000612fe1603f83613888565b7f45524331313535235f63616c6c6f6e455243313135354261746368526563656981527f7665643a20494e56414c49445f4f4e5f524543454956455f4d45535341474500602082015260400192915050565b6000613040603a83613888565b7f45524331313535235f63616c6c6f6e4552433131353552656365697665643a2081527f494e56414c49445f4f4e5f524543454956455f4d455353414745000000000000602082015260400192915050565b600061309f602a83613888565b7f4d6574614552433230577261707065722377697468647261773a205452414e5381526911915497d1905253115160b21b602082015260400192915050565b60006130eb603c83613888565b7f4c696242797465732372656164427974657333323a20475245415445525f4f5281527f5f455155414c5f544f5f33325f4c454e4754485f524551554952454400000000602082015260400192915050565b600061314a601683613888565b75536166654d617468236164643a204f564552464c4f5760501b815260200192915050565b600061317c602f83613888565b7f4d65746145524332305772617070657223676574546f6b656e49443a20554e5281526e22a3a4a9aa22a922a22faa27a5a2a760891b602082015260400192915050565b60006131cd602f83613888565b7f455243313135354d657461235f7369676e617475726556616c69646174696f6e81526e3a20494e56414c49445f4e4f4e434560881b602082015260400192915050565b600061321e602e83613888565b7f455243313135354d657461235f7472616e736665724761734665653a20554e5381526d2aa82827a92a22a22faa27a5a2a760911b602082015260400192915050565b612648816138bd565b600061161982846126b0565b60006132828286612762565b915061328e8285612710565b60208201915061329e8284612710565b506020019392505050565b60006132b58286612762565b91506132c18285612710565b602082019150610a498284612762565b60006132dc826127de565b91506132e88284612710565b50602001919050565b60006105cf82612fc7565b602081016105cf828461264e565b60608101613318828661263f565b613325602083018561263f565b6110f86040830184612707565b60a08101613340828861263f565b61334d602083018761264e565b818103604083015261335f8186612657565b905081810360608301526133738185612657565b90508181036080830152613387818461272a565b979650505050505050565b60a081016133a0828861263f565b6133ad602083018761264e565b6133ba6040830186612707565b6133c76060830185612707565b8181036080830152613387818461272a565b604081016133e7828561263f565b6116196020830184612707565b60608101613402828661264e565b613325602083018561264e565b60a0810161341d828761264e565b61342a602083018661264e565b6134376040830185612707565b6134446060830184612707565b818103608083015261345581612fba565b9695505050505050565b604081016133e7828561264e565b602080825281016116198184612657565b6040808252810161348f8185612657565b905081810360208301526110f88184612657565b602081016105cf82846126fe565b604081016134bf8285612707565b611619602083018461264e565b60c081016134da8289612707565b6134e7602083018861264e565b6134f4604083018761264e565b6135016060830186612707565b61350e6080830185612707565b61338760a0830184612707565b60a081016135298288612707565b613536602083018761264e565b613543604083018661264e565b6135506060830185612707565b6134556080830184612707565b6040810161356b8285612707565b81810360208301526110f8818461272a565b6080810161358b8287612707565b6135986020830186613261565b6135a56040830185612707565b610a496060830184612707565b602081016105cf8284612721565b604080825281016135d1818561272a565b905081810360208301526110f8818461272a565b602080825281016105cf81612791565b602080825281016105cf81612817565b602080825281016105cf81612866565b602080825281016105cf816128b3565b602080825281016105cf81612912565b602080825281016105cf81612971565b602080825281016105cf816129bd565b602080825281016105cf816129f6565b602080825281016105cf81612a4d565b602080825281016105cf81612a9b565b602080825281016105cf81612ae8565b602080825281016105cf81612b33565b602080825281016105cf81612b88565b602080825281016105cf81612bce565b602080825281016105cf81612c23565b602080825281016105cf81612c70565b602080825281016105cf81612cd9565b602080825281016105cf81612d2b565b602080825281016105cf81612d79565b602080825281016105cf81612dcc565b602080825281016105cf81612e1a565b602080825281016105cf81612e6e565b602080825281016105cf81612eb1565b602080825281016105cf81612f02565b602080825281016105cf81612f5b565b602080825281016105cf81612fd4565b602080825281016105cf81613033565b602080825281016105cf81613092565b602080825281016105cf816130de565b602080825281016105cf8161313d565b602080825281016105cf8161316f565b602080825281016105cf816131c0565b602080825281016105cf81613211565b602081016105cf8284612707565b604081016133e78285612707565b6040518181016001600160401b038111828210171561382f57600080fd5b604052919050565b60006001600160401b0382111561384d57600080fd5b5060209081020190565b60006001600160401b0382111561386d57600080fd5b506020601f91909101601f19160190565b60200190565b5190565b90815260200190565b60006105cf826138b1565b151590565b90565b6001600160e01b03191690565b6001600160a01b031690565b60ff1690565b60006105cf8260006105cf82613891565b82818337506000910152565b60005b838110156138fb5781810151838201526020016138e3565b838111156105a65750506000910152565b601f01601f191690565b61391f81613891565b811461392a57600080fd5b50565b61391f8161389c565b61391f816138a1565b61391f816138a456fe5369676e617475726556616c696461746f7223697356616c69645369676e6174a365627a7a72315820cbb87e4546c553702b30a0496fab2576e31ffbbbb691ba9ea26f49c0836458856c6578706572696d656e74616cf564736f6c63430005100040",
  "source": "pragma solidity ^0.5.16;\npragma experimental ABIEncoderV2;\n\nimport \"multi-token-standard/contracts/interfaces/IERC20.sol\";\nimport \"multi-token-standard/contracts/tokens/ERC1155/ERC1155Meta.sol\";\nimport \"multi-token-standard/contracts/tokens/ERC1155/ERC1155MintBurn.sol\";\n\n\n/**\n * @notice Allows users to wrap any amount of any ERC-20 token with a 1:1 ratio\n *   of corresponding ERC-1155 tokens with native metaTransaction methods. Each\n *   ERC-20 is assigned an ERC-1155 id for more efficient CALLDATA usage when\n *   doing transfers.\n */\ncontract MetaERC20Wrapper is ERC1155Meta, ERC1155MintBurn {\n\n  // Variables\n  uint256 internal nTokens = 1;                         // Number of ERC-20 tokens registered\n  uint256 constant internal ETH_ID = 0x1;               // ID fo tokens representing Ether is 1\n  address constant internal ETH_ADDRESS = address(0x1); // Address for tokens representing Ether is 0x00...01\n  mapping (address => uint256) internal addressToID;    // Maps the ERC-20 addresses to their metaERC20 id\n  mapping (uint256 => address) internal IDtoAddress;    // Maps the metaERC20 ids to their ERC-20 address\n\n  // onReceive function signatures\n  bytes4 constant internal ERC1155_RECEIVED_VALUE = 0xf23a6e61;\n  bytes4 constant internal ERC1155_BATCH_RECEIVED_VALUE = 0xbc197c81;\n\n  /***********************************|\n  |               Events              |\n  |__________________________________*/\n\n  event TokenRegistration(address token_address, uint256 token_id);\n\n\n  /***********************************|\n  |            Constructor            |\n  |__________________________________*/\n\n  // Register ETH as ID #1 and address 0x1\n  constructor() public {\n    addressToID[ETH_ADDRESS] = ETH_ID;\n    IDtoAddress[ETH_ID] = ETH_ADDRESS;\n  }\n\n\n  /***********************************|\n  |         Deposit Functions         |\n  |__________________________________*/\n\n  /**\n   * Fallback function\n   * @dev Deposit ETH in this contract to receive wrapped ETH\n   * No parameters provided\n   */\n  function() external payable {\n    // Deposit ETH sent with transaction\n    deposit(ETH_ADDRESS, msg.sender, msg.value);\n  }\n\n  /**\n   * @dev Deposit ERC20 tokens or ETH in this contract to receive wrapped ERC20s\n   * @param _token     The addess of the token to deposit in this contract\n   * @param _recipient Address that will receive the ERC-1155 tokens\n   * @param _value     The amount of token to deposit in this contract\n   * Note: Users must first approve this contract addres on the contract of the ERC20 to be deposited\n   */\n  function deposit(address _token, address _recipient, uint256 _value)\n    public payable\n  {\n    require(_recipient != address(0x0), \"MetaERC20Wrapper#deposit: INVALID_RECIPIENT\");\n\n    // Internal ID of ERC-20 token deposited\n    uint256 id;\n\n    // Deposit ERC-20 tokens or ETH\n    if (_token != ETH_ADDRESS) {\n\n      // Check if transfer passes\n      require(msg.value == 0, \"MetaERC20Wrapper#deposit: NON_NULL_MSG_VALUE\");\n      IERC20(_token).transferFrom(msg.sender, address(this), _value);\n      require(checkSuccess(), \"MetaERC20Wrapper#deposit: TRANSFER_FAILED\");\n\n      // Load address token ID\n      uint256 addressId = addressToID[_token];\n\n      // Register ID if not already done\n      if (addressId == 0) {\n        nTokens += 1;             // Increment number of tokens registered\n        id = nTokens;             // id of token is the current # of tokens\n        IDtoAddress[id] = _token; // Map id to token address\n        addressToID[_token] = id; // Register token\n\n        // Emit registration event\n        emit TokenRegistration(_token, id);\n\n      } else {\n        id = addressId;\n      }\n\n    } else {\n      require(_value == msg.value, \"MetaERC20Wrapper#deposit: INCORRECT_MSG_VALUE\");\n      id = ETH_ID;\n    }\n\n    // Mint meta tokens\n    _mint(_recipient, id, _value, \"\");\n  }\n\n\n  /***********************************|\n  |         Withdraw Functions        |\n  |__________________________________*/\n\n  /**\n   * @dev Withdraw wrapped ERC20 tokens in this contract to receive the original ERC20s or ETH\n   * @param _token The addess of the token to withdrww from this contract\n   * @param _to The address where the withdrawn tokens will go to\n   * @param _value The amount of tokens to withdraw\n   */\n  function withdraw(address _token, address payable _to, uint256 _value) public {\n    uint256 tokenID = getTokenID(_token);\n    _withdraw(msg.sender, _to, tokenID, _value);\n  }\n\n  /**\n   * @dev Withdraw wrapped ERC20 tokens in this contract to receive the original ERC20s or ETH\n   * @param _from    Address of users sending the Meta tokens\n   * @param _to      The address where the withdrawn tokens will go to\n   * @param _tokenID The token ID of the ERC-20 token to withdraw from this contract\n   * @param _value   The amount of tokens to withdraw\n   */\n  function _withdraw(\n    address _from,\n    address payable _to,\n    uint256 _tokenID,\n    uint256 _value)\n    internal\n  {\n    // Burn meta tokens\n    _burn(_from, _tokenID, _value);\n\n     // Withdraw ERC-20 tokens or ETH\n    if (_tokenID != ETH_ID) {\n      address token = IDtoAddress[_tokenID];\n      IERC20(token).transfer(_to, _value);\n      require(checkSuccess(), \"MetaERC20Wrapper#withdraw: TRANSFER_FAILED\");\n\n    } else {\n      require(_to != address(0), \"MetaERC20Wrapper#withdraw: INVALID_RECIPIENT\");\n      (bool success, ) = _to.call.value(_value)(\"\");\n      require(success, \"MetaERC20Wrapper#withdraw: TRANSFER_FAILED\");\n    }\n\n\n  }\n  /**\n   * @notice Withdraw ERC-20 tokens when receiving their ERC-1155 counterpart\n   * @param _from      The address which previously owned the token\n   * @param _id        The id of the token being transferred\n   * @param _value     The amount of tokens being transferred\n   * @return `bytes4(keccak256(\"onERC1155Received(address,address,uint256,uint256,bytes)\"))`\n   */\n  function onERC1155Received(address, address payable _from, uint256 _id, uint256 _value, bytes memory)\n    public returns(bytes4)\n  {\n    // Only ERC-1155 from this contract are valid\n    require(msg.sender == address(this), \"MetaERC20Wrapper#onERC1155Received: INVALID_ERC1155_RECEIVED\");\n    getIdAddress(_id); // Checks if id is registered\n\n    // Tokens are received, hence need to burn them here\n    _withdraw(address(this), _from, _id, _value);\n\n    return ERC1155_RECEIVED_VALUE;\n  }\n\n  /**\n   * @notice Withdraw ERC-20 tokens when receiving their ERC-1155 counterpart\n   * @param _from      The address which previously owned the token\n   * @param _ids       An array containing ids of each token being transferred\n   * @param _values    An array containing amounts of each token being transferred\n   * @return `bytes4(keccak256(\"onERC1155BatchReceived(address,address,uint256[],uint256[],bytes)\"))`\n   */\n  function onERC1155BatchReceived(address, address payable _from, uint256[] memory _ids, uint256[] memory _values, bytes memory)\n    public returns(bytes4)\n  {\n    // Only ERC-1155 from this contract are valid\n    require(msg.sender == address(this), \"MetaERC20Wrapper#onERC1155BatchReceived: INVALID_ERC1155_RECEIVED\");\n\n    // Withdraw all tokens\n    for ( uint256 i = 0; i < _ids.length; i++) {\n      // Checks if id is registered\n      getIdAddress(_ids[i]);\n\n      // Tokens are received, hence need to burn them here\n      _withdraw(address(this), _from, _ids[i], _values[i]);\n    }\n\n    return ERC1155_BATCH_RECEIVED_VALUE;\n  }\n\n  /**\n   * @notice Return the Meta-ERC20 token ID for the given ERC-20 token address\n   * @param _token ERC-20 token address to get the corresponding Meta-ERC20 token ID\n   * @return Meta-ERC20 token ID\n   */\n  function getTokenID(address _token) public view returns (uint256 tokenID) {\n    tokenID = addressToID[_token];\n    require(tokenID != 0, \"MetaERC20Wrapper#getTokenID: UNREGISTERED_TOKEN\");\n    return tokenID;\n  }\n\n  /**\n   * @notice Return the ERC-20 token address for the given Meta-ERC20 token ID\n   * @param _id Meta-ERC20 token ID to get the corresponding ERC-20 token address\n   * @return ERC-20 token address\n   */\n  function getIdAddress(uint256 _id) public view returns (address token) {\n    token = IDtoAddress[_id];\n    require(token != address(0x0), \"MetaERC20Wrapper#getIdAddress: UNREGISTERED_TOKEN\");\n    return token;\n  }\n\n  /**\n   * @notice Returns number of tokens currently registered\n   */\n  function getNTokens() external view returns (uint256) {\n    return nTokens;\n  }\n\n\n\n  /***********************************|\n  |          Helper Functions         |\n  |__________________________________*/\n\n  /**\n    * Checks the return value of the previous function up to 32 bytes. Returns true if the previous\n    * function returned 0 bytes or 32 bytes that are not all-zero.\n    * Code taken from: https://github.com/dydxprotocol/solo/blob/10baf8e4c3fb9db4d0919043d3e6fdd6ba834046/contracts/protocol/lib/Token.sol\n    */\n  function checkSuccess()\n    private pure\n    returns (bool)\n  {\n    uint256 returnValue = 0;\n\n    /* solium-disable-next-line security/no-inline-assembly */\n    assembly {\n      // check number of bytes returned from last function call\n      switch returndatasize\n\n      // no bytes returned: assume success\n      case 0x0 {\n        returnValue := 1\n      }\n\n      // 32 bytes returned: check if non-zero\n      case 0x20 {\n        // copy 32 bytes into scratch space\n        returndatacopy(0x0, 0x0, 0x20)\n\n        // load those bytes into returnValue\n        returnValue := mload(0x0)\n      }\n\n      // not sure what was returned: dont mark as success\n      default { }\n    }\n\n    return returnValue != 0;\n  }\n\n  /**\n   * @notice Indicates whether a contract implements the `ERC1155TokenReceiver` functions and so can accept ERC1155 token types.\n   * @param  interfaceID The ERC-165 interface ID that is queried for support.s\n   * @dev This function MUST return true if it implements the ERC1155TokenReceiver interface and ERC-165 interface.\n   *      This function MUST NOT consume more thsan 5,000 gas.\n   * @return Wheter ERC-165 or ERC1155TokenReceiver interfaces are supported.\n   */\n  function supportsInterface(bytes4 interfaceID) external view returns (bool) {\n    return  interfaceID == 0x01ffc9a7 || // ERC-165 support (i.e. `bytes4(keccak256('supportsInterface(bytes4)'))`).\n      interfaceID == 0x4e2312e0;         // ERC-1155 `ERC1155TokenReceiver` support (i.e. `bytes4(keccak256(\"onERC1155Received(address,address,uint256,uint256,bytes)\")) ^ bytes4(keccak256(\"onERC1155BatchReceived(address,address,uint256[],uint256[],bytes)\"))`).\n  }\n\n}",
  "sourcePath": "erc20-meta-token/contracts/wrapper/MetaERC20Wrapper.sol",
  "compiler": {
    "name": "solc",
    "version": "0.5.16+commit.9c3226ce.Emscripten.clang"
  },
  "schemaVersion": "3.1.0",
  "updatedAt": "2020-06-26T16:37:43.014Z",
  "devdoc": {
    "methods": {
      "balanceOf(address,uint256)": {
        "params": {
          "_id": "ID of the Token",
          "_owner": "The address of the token holder"
        },
        "return": "The _owner's balance of the Token type requested"
      },
      "balanceOfBatch(address[],uint256[])": {
        "params": {
          "_ids": "ID of the Tokens",
          "_owners": "The addresses of the token holders"
        },
        "return": "The _owner's balance of the Token types requested (i.e. balance for each (owner, id) pair)"
      },
      "deposit(address,address,uint256)": {
        "details": "Deposit ERC20 tokens or ETH in this contract to receive wrapped ERC20s",
        "params": {
          "_recipient": "Address that will receive the ERC-1155 tokens",
          "_token": "The addess of the token to deposit in this contract",
          "_value": "The amount of token to deposit in this contract Note: Users must first approve this contract addres on the contract of the ERC20 to be deposited"
        }
      },
      "getIdAddress(uint256)": {
        "params": {
          "_id": "Meta-ERC20 token ID to get the corresponding ERC-20 token address"
        },
        "return": "ERC-20 token address"
      },
      "getNonce(address)": {
        "params": {
          "_signer": "Address to query signature nonce for"
        }
      },
      "getTokenID(address)": {
        "params": {
          "_token": "ERC-20 token address to get the corresponding Meta-ERC20 token ID"
        },
        "return": "Meta-ERC20 token ID"
      },
      "isApprovedForAll(address,address)": {
        "params": {
          "_operator": "Address of authorized operator",
          "_owner": "The owner of the Tokens"
        },
        "return": "True if the operator is approved, false if not"
      },
      "isValidSignature(address,bytes32,bytes,bytes)": {
        "details": "Verifies that a hash has been signed by the given signer.",
        "params": {
          "_data": "Full EIP-712 data structure that was hashed and signed",
          "_hash": "Hash of the EIP-712 encoded data",
          "_sig": "Proof that the hash has been signed by signer.     For non wallet signatures, _sig is expected to be an array tightly encoded as     (bytes32 r, bytes32 s, uint8 v, uint256 nonce, SignatureType sigType)",
          "_signerAddress": "Address that should have signed the given hash."
        },
        "return": "True if the address recovered from the provided signature matches the input signer address."
      },
      "metaSafeBatchTransferFrom(address,address,uint256[],uint256[],bool,bytes)": {
        "params": {
          "_amounts": "Transfer amounts per token type",
          "_data": "Encodes a meta transfer indicator, signature, gas payment receipt and extra transfer data  _data should be encoded as (  (bytes32 r, bytes32 s, uint8 v, uint256 nonce, SignatureType sigType),  (GasReceipt g, ?bytes transferData) )  i.e. high level encoding should be (bytes, bytes), where the latter bytes array is a nested bytes array",
          "_from": "Source addresses",
          "_ids": "IDs of each token type",
          "_isGasFee": "Whether gas is reimbursed to executor or not",
          "_to": "Target addresses"
        }
      },
      "metaSafeTransferFrom(address,address,uint256,uint256,bool,bytes)": {
        "params": {
          "_amount": "Transfered amount",
          "_data": "Encodes a meta transfer indicator, signature, gas payment receipt and extra transfer data  _data should be encoded as (  (bytes32 r, bytes32 s, uint8 v, uint256 nonce, SignatureType sigType),  (GasReceipt g, ?bytes transferData) )  i.e. high level encoding should be (bytes, bytes), where the latter bytes array is a nested bytes array",
          "_from": "Source address",
          "_id": "ID of the token type",
          "_isGasFee": "Whether gas is reimbursed to executor or not",
          "_to": "Target address"
        }
      },
      "metaSetApprovalForAll(address,address,bool,bool,bytes)": {
        "params": {
          "_approved": "True if the operator is approved, false to revoke approval",
          "_data": "Encodes signature and gas payment receipt  _data should be encoded as (    (bytes32 r, bytes32 s, uint8 v, uint256 nonce, SignatureType sigType),    (GasReceipt g)  )  i.e. high level encoding should be (bytes, bytes), where the latter bytes array is a nested bytes array",
          "_isGasFee": "Whether gas will be reimbursed or not, with vlid signature",
          "_operator": "Address to add to the set of authorized operators",
          "_owner": "Address that wants to set operator status  _spender"
        }
      },
      "onERC1155BatchReceived(address,address,uint256[],uint256[],bytes)": {
        "params": {
          "_from": "The address which previously owned the token",
          "_ids": "An array containing ids of each token being transferred",
          "_values": "An array containing amounts of each token being transferred"
        },
        "return": "`bytes4(keccak256(\"onERC1155BatchReceived(address,address,uint256[],uint256[],bytes)\"))`"
      },
      "onERC1155Received(address,address,uint256,uint256,bytes)": {
        "params": {
          "_from": "The address which previously owned the token",
          "_id": "The id of the token being transferred",
          "_value": "The amount of tokens being transferred"
        },
        "return": "`bytes4(keccak256(\"onERC1155Received(address,address,uint256,uint256,bytes)\"))`"
      },
      "safeBatchTransferFrom(address,address,uint256[],uint256[],bytes)": {
        "params": {
          "_amounts": "Transfer amounts per token type",
          "_data": "Additional data with no specified format, sent in call to `_to`",
          "_from": "Source addresses",
          "_ids": "IDs of each token type",
          "_to": "Target addresses"
        }
      },
      "safeTransferFrom(address,address,uint256,uint256,bytes)": {
        "params": {
          "_amount": "Transfered amount",
          "_data": "Additional data with no specified format, sent in call to `_to`",
          "_from": "Source address",
          "_id": "ID of the token type",
          "_to": "Target address"
        }
      },
      "setApprovalForAll(address,bool)": {
        "params": {
          "_approved": "True if the operator is approved, false to revoke approval",
          "_operator": "Address to add to the set of authorized operators"
        }
      },
      "supportsInterface(bytes4)": {
        "details": "This function MUST return true if it implements the ERC1155TokenReceiver interface and ERC-165 interface.     This function MUST NOT consume more thsan 5,000 gas.",
        "params": {
          "interfaceID": "The ERC-165 interface ID that is queried for support.s"
        },
        "return": "Wheter ERC-165 or ERC1155TokenReceiver interfaces are supported."
      },
      "withdraw(address,address,uint256)": {
        "details": "Withdraw wrapped ERC20 tokens in this contract to receive the original ERC20s or ETH",
        "params": {
          "_to": "The address where the withdrawn tokens will go to",
          "_token": "The addess of the token to withdrww from this contract",
          "_value": "The amount of tokens to withdraw"
        }
      }
    }
  },
  "userdoc": {
    "methods": {
      "balanceOf(address,uint256)": {
        "notice": "Get the balance of an account's Tokens"
      },
      "balanceOfBatch(address[],uint256[])": {
        "notice": "Get the balance of multiple account/token pairs"
      },
      "constructor": "*********************************| |            Constructor            | |__________________________________",
      "getIdAddress(uint256)": {
        "notice": "Return the ERC-20 token address for the given Meta-ERC20 token ID"
      },
      "getNTokens()": {
        "notice": "Returns number of tokens currently registered"
      },
      "getNonce(address)": {
        "notice": "Returns the current nonce associated with a given address"
      },
      "getTokenID(address)": {
        "notice": "Return the Meta-ERC20 token ID for the given ERC-20 token address"
      },
      "isApprovedForAll(address,address)": {
        "notice": "Queries the approval status of an operator for a given owner"
      },
      "metaSafeBatchTransferFrom(address,address,uint256[],uint256[],bool,bytes)": {
        "notice": "Allows anyone with a valid signature to transfer multiple types of tokens on the bahalf of _from"
      },
      "metaSafeTransferFrom(address,address,uint256,uint256,bool,bytes)": {
        "notice": "Allows anyone with a valid signature to transfer _amount amount of a token _id on the bahalf of _from"
      },
      "metaSetApprovalForAll(address,address,bool,bool,bytes)": {
        "notice": "Approve the passed address to spend on behalf of _from if valid signature is provided"
      },
      "onERC1155BatchReceived(address,address,uint256[],uint256[],bytes)": {
        "notice": "Withdraw ERC-20 tokens when receiving their ERC-1155 counterpart"
      },
      "onERC1155Received(address,address,uint256,uint256,bytes)": {
        "notice": "Withdraw ERC-20 tokens when receiving their ERC-1155 counterpart"
      },
      "safeBatchTransferFrom(address,address,uint256[],uint256[],bytes)": {
        "notice": "Send multiple types of Tokens from the _from address to the _to address (with safety call)"
      },
      "safeTransferFrom(address,address,uint256,uint256,bytes)": {
        "notice": "Transfers amount amount of an _id from the _from address to the _to address specified"
      },
      "setApprovalForAll(address,bool)": {
        "notice": "Enable or disable approval for a third party (\"operator\") to manage all of caller's tokens"
      },
      "supportsInterface(bytes4)": {
        "notice": "Indicates whether a contract implements the `ERC1155TokenReceiver` functions and so can accept ERC1155 token types."
      }
    },
    "notice": "Allows users to wrap any amount of any ERC-20 token with a 1:1 ratio  of corresponding ERC-1155 tokens with native metaTransaction methods. Each  ERC-20 is assigned an ERC-1155 id for more efficient CALLDATA usage when  doing transfers."
  }
}