{
  "contractName": "NiftyswapV1",
  "abi": [
    {
      "inputs": [
        {
          "internalType": "address",
          "name": "_tokenAddr",
          "type": "address"
        },
        {
          "internalType": "address",
          "name": "_baseTokenAddr",
          "type": "address"
        },
        {
          "internalType": "uint256",
          "name": "_baseTokenID",
          "type": "uint256"
        }
      ],
      "payable": false,
      "stateMutability": "nonpayable",
      "type": "constructor"
    },
    {
      "anonymous": false,
      "inputs": [
        {
          "indexed": true,
          "internalType": "address",
          "name": "_owner",
          "type": "address"
        },
        {
          "indexed": true,
          "internalType": "address",
          "name": "_operator",
          "type": "address"
        },
        {
          "indexed": false,
          "internalType": "bool",
          "name": "_approved",
          "type": "bool"
        }
      ],
      "name": "ApprovalForAll",
      "type": "event"
    },
    {
      "anonymous": false,
      "inputs": [
        {
          "indexed": true,
          "internalType": "address",
          "name": "buyer",
          "type": "address"
        },
        {
          "indexed": true,
          "internalType": "address",
          "name": "recipient",
          "type": "address"
        },
        {
          "indexed": false,
          "internalType": "uint256[]",
          "name": "tokensSoldIds",
          "type": "uint256[]"
        },
        {
          "indexed": false,
          "internalType": "uint256[]",
          "name": "tokensSoldAmounts",
          "type": "uint256[]"
        },
        {
          "indexed": false,
          "internalType": "uint256[]",
          "name": "currencyBoughtAmounts",
          "type": "uint256[]"
        }
      ],
      "name": "CurrencyPurchase",
      "type": "event"
    },
    {
      "anonymous": false,
      "inputs": [
        {
          "indexed": true,
          "internalType": "address",
          "name": "provider",
          "type": "address"
        },
        {
          "indexed": false,
          "internalType": "uint256[]",
          "name": "tokenIds",
          "type": "uint256[]"
        },
        {
          "indexed": false,
          "internalType": "uint256[]",
          "name": "tokenAmounts",
          "type": "uint256[]"
        },
        {
          "indexed": false,
          "internalType": "uint256[]",
          "name": "currencyAmounts",
          "type": "uint256[]"
        }
      ],
      "name": "LiquidityAdded",
      "type": "event"
    },
    {
      "anonymous": false,
      "inputs": [
        {
          "indexed": true,
          "internalType": "address",
          "name": "provider",
          "type": "address"
        },
        {
          "indexed": false,
          "internalType": "uint256[]",
          "name": "tokenIds",
          "type": "uint256[]"
        },
        {
          "indexed": false,
          "internalType": "uint256[]",
          "name": "tokenAmounts",
          "type": "uint256[]"
        },
        {
          "indexed": false,
          "internalType": "uint256[]",
          "name": "currencyAmounts",
          "type": "uint256[]"
        }
      ],
      "name": "LiquidityRemoved",
      "type": "event"
    },
    {
      "anonymous": false,
      "inputs": [
        {
          "indexed": true,
          "internalType": "address",
          "name": "signer",
          "type": "address"
        },
        {
          "indexed": false,
          "internalType": "uint256",
          "name": "newNonce",
          "type": "uint256"
        }
      ],
      "name": "NonceChange",
      "type": "event"
    },
    {
      "anonymous": false,
      "inputs": [
        {
          "indexed": true,
          "internalType": "address",
          "name": "buyer",
          "type": "address"
        },
        {
          "indexed": true,
          "internalType": "address",
          "name": "recipient",
          "type": "address"
        },
        {
          "indexed": false,
          "internalType": "uint256[]",
          "name": "tokensBoughtIds",
          "type": "uint256[]"
        },
        {
          "indexed": false,
          "internalType": "uint256[]",
          "name": "tokensBoughtAmounts",
          "type": "uint256[]"
        },
        {
          "indexed": false,
          "internalType": "uint256[]",
          "name": "currencySoldAmounts",
          "type": "uint256[]"
        }
      ],
      "name": "TokensPurchase",
      "type": "event"
    },
    {
      "anonymous": false,
      "inputs": [
        {
          "indexed": true,
          "internalType": "address",
          "name": "_operator",
          "type": "address"
        },
        {
          "indexed": true,
          "internalType": "address",
          "name": "_from",
          "type": "address"
        },
        {
          "indexed": true,
          "internalType": "address",
          "name": "_to",
          "type": "address"
        },
        {
          "indexed": false,
          "internalType": "uint256[]",
          "name": "_ids",
          "type": "uint256[]"
        },
        {
          "indexed": false,
          "internalType": "uint256[]",
          "name": "_amounts",
          "type": "uint256[]"
        }
      ],
      "name": "TransferBatch",
      "type": "event"
    },
    {
      "anonymous": false,
      "inputs": [
        {
          "indexed": true,
          "internalType": "address",
          "name": "_operator",
          "type": "address"
        },
        {
          "indexed": true,
          "internalType": "address",
          "name": "_from",
          "type": "address"
        },
        {
          "indexed": true,
          "internalType": "address",
          "name": "_to",
          "type": "address"
        },
        {
          "indexed": false,
          "internalType": "uint256",
          "name": "_id",
          "type": "uint256"
        },
        {
          "indexed": false,
          "internalType": "uint256",
          "name": "_amount",
          "type": "uint256"
        }
      ],
      "name": "TransferSingle",
      "type": "event"
    },
    {
      "anonymous": false,
      "inputs": [
        {
          "indexed": false,
          "internalType": "string",
          "name": "_amount",
          "type": "string"
        },
        {
          "indexed": true,
          "internalType": "uint256",
          "name": "_id",
          "type": "uint256"
        }
      ],
      "name": "URI",
      "type": "event"
    },
    {
      "payable": false,
      "stateMutability": "nonpayable",
      "type": "fallback"
    },
    {
      "constant": true,
      "inputs": [
        {
          "internalType": "address",
          "name": "_owner",
          "type": "address"
        },
        {
          "internalType": "uint256",
          "name": "_id",
          "type": "uint256"
        }
      ],
      "name": "balanceOf",
      "outputs": [
        {
          "internalType": "uint256",
          "name": "",
          "type": "uint256"
        }
      ],
      "payable": false,
      "stateMutability": "view",
      "type": "function"
    },
    {
      "constant": true,
      "inputs": [
        {
          "internalType": "address[]",
          "name": "_owners",
          "type": "address[]"
        },
        {
          "internalType": "uint256[]",
          "name": "_ids",
          "type": "uint256[]"
        }
      ],
      "name": "balanceOfBatch",
      "outputs": [
        {
          "internalType": "uint256[]",
          "name": "",
          "type": "uint256[]"
        }
      ],
      "payable": false,
      "stateMutability": "view",
      "type": "function"
    },
    {
      "constant": true,
      "inputs": [
        {
          "internalType": "uint256",
          "name": "_assetBoughtAmount",
          "type": "uint256"
        },
        {
          "internalType": "uint256",
          "name": "_assetSoldReserve",
          "type": "uint256"
        },
        {
          "internalType": "uint256",
          "name": "_assetBoughtReserve",
          "type": "uint256"
        }
      ],
      "name": "getBuyPrice",
      "outputs": [
        {
          "internalType": "uint256",
          "name": "price",
          "type": "uint256"
        }
      ],
      "payable": false,
      "stateMutability": "pure",
      "type": "function"
    },
    {
      "constant": true,
      "inputs": [],
      "name": "getCurrencyInfo",
      "outputs": [
        {
          "internalType": "address",
          "name": "",
          "type": "address"
        },
        {
          "internalType": "uint256",
          "name": "",
          "type": "uint256"
        }
      ],
      "payable": false,
      "stateMutability": "view",
      "type": "function"
    },
    {
      "constant": true,
      "inputs": [
        {
          "internalType": "uint256[]",
          "name": "_ids",
          "type": "uint256[]"
        }
      ],
      "name": "getCurrencyReserves",
      "outputs": [
        {
          "internalType": "uint256[]",
          "name": "",
          "type": "uint256[]"
        }
      ],
      "payable": false,
      "stateMutability": "view",
      "type": "function"
    },
    {
      "constant": true,
      "inputs": [],
      "name": "getFactoryAddress",
      "outputs": [
        {
          "internalType": "address",
          "name": "",
          "type": "address"
        }
      ],
      "payable": false,
      "stateMutability": "view",
      "type": "function"
    },
    {
      "constant": true,
      "inputs": [
        {
          "internalType": "address",
          "name": "_signer",
          "type": "address"
        }
      ],
      "name": "getNonce",
      "outputs": [
        {
          "internalType": "uint256",
          "name": "nonce",
          "type": "uint256"
        }
      ],
      "payable": false,
      "stateMutability": "view",
      "type": "function"
    },
    {
      "constant": true,
      "inputs": [
        {
          "internalType": "uint256[]",
          "name": "_ids",
          "type": "uint256[]"
        },
        {
          "internalType": "uint256[]",
          "name": "_tokensBought",
          "type": "uint256[]"
        }
      ],
      "name": "getPrice_currencyToToken",
      "outputs": [
        {
          "internalType": "uint256[]",
          "name": "",
          "type": "uint256[]"
        }
      ],
      "payable": false,
      "stateMutability": "view",
      "type": "function"
    },
    {
      "constant": true,
      "inputs": [
        {
          "internalType": "uint256[]",
          "name": "_ids",
          "type": "uint256[]"
        },
        {
          "internalType": "uint256[]",
          "name": "_tokensSold",
          "type": "uint256[]"
        }
      ],
      "name": "getPrice_tokenToCurrency",
      "outputs": [
        {
          "internalType": "uint256[]",
          "name": "",
          "type": "uint256[]"
        }
      ],
      "payable": false,
      "stateMutability": "view",
      "type": "function"
    },
    {
      "constant": true,
      "inputs": [
        {
          "internalType": "uint256",
          "name": "_assetSoldAmount",
          "type": "uint256"
        },
        {
          "internalType": "uint256",
          "name": "_assetSoldReserve",
          "type": "uint256"
        },
        {
          "internalType": "uint256",
          "name": "_assetBoughtReserve",
          "type": "uint256"
        }
      ],
      "name": "getSellPrice",
      "outputs": [
        {
          "internalType": "uint256",
          "name": "",
          "type": "uint256"
        }
      ],
      "payable": false,
      "stateMutability": "pure",
      "type": "function"
    },
    {
      "constant": true,
      "inputs": [],
      "name": "getTokenAddress",
      "outputs": [
        {
          "internalType": "address",
          "name": "",
          "type": "address"
        }
      ],
      "payable": false,
      "stateMutability": "view",
      "type": "function"
    },
    {
      "constant": true,
      "inputs": [
        {
          "internalType": "uint256[]",
          "name": "_ids",
          "type": "uint256[]"
        }
      ],
      "name": "getTotalSupply",
      "outputs": [
        {
          "internalType": "uint256[]",
          "name": "",
          "type": "uint256[]"
        }
      ],
      "payable": false,
      "stateMutability": "view",
      "type": "function"
    },
    {
      "constant": true,
      "inputs": [
        {
          "internalType": "address",
          "name": "_owner",
          "type": "address"
        },
        {
          "internalType": "address",
          "name": "_operator",
          "type": "address"
        }
      ],
      "name": "isApprovedForAll",
      "outputs": [
        {
          "internalType": "bool",
          "name": "isOperator",
          "type": "bool"
        }
      ],
      "payable": false,
      "stateMutability": "view",
      "type": "function"
    },
    {
      "constant": true,
      "inputs": [
        {
          "internalType": "address",
          "name": "_signerAddress",
          "type": "address"
        },
        {
          "internalType": "bytes32",
          "name": "_hash",
          "type": "bytes32"
        },
        {
          "internalType": "bytes",
          "name": "_data",
          "type": "bytes"
        },
        {
          "internalType": "bytes",
          "name": "_sig",
          "type": "bytes"
        }
      ],
      "name": "isValidSignature",
      "outputs": [
        {
          "internalType": "bool",
          "name": "isValid",
          "type": "bool"
        }
      ],
      "payable": false,
      "stateMutability": "view",
      "type": "function"
    },
    {
      "constant": false,
      "inputs": [
        {
          "internalType": "address",
          "name": "_from",
          "type": "address"
        },
        {
          "internalType": "address",
          "name": "_to",
          "type": "address"
        },
        {
          "internalType": "uint256[]",
          "name": "_ids",
          "type": "uint256[]"
        },
        {
          "internalType": "uint256[]",
          "name": "_amounts",
          "type": "uint256[]"
        },
        {
          "internalType": "bool",
          "name": "_isGasFee",
          "type": "bool"
        },
        {
          "internalType": "bytes",
          "name": "_data",
          "type": "bytes"
        }
      ],
      "name": "metaSafeBatchTransferFrom",
      "outputs": [],
      "payable": false,
      "stateMutability": "nonpayable",
      "type": "function"
    },
    {
      "constant": false,
      "inputs": [
        {
          "internalType": "address",
          "name": "_from",
          "type": "address"
        },
        {
          "internalType": "address",
          "name": "_to",
          "type": "address"
        },
        {
          "internalType": "uint256",
          "name": "_id",
          "type": "uint256"
        },
        {
          "internalType": "uint256",
          "name": "_amount",
          "type": "uint256"
        },
        {
          "internalType": "bool",
          "name": "_isGasFee",
          "type": "bool"
        },
        {
          "internalType": "bytes",
          "name": "_data",
          "type": "bytes"
        }
      ],
      "name": "metaSafeTransferFrom",
      "outputs": [],
      "payable": false,
      "stateMutability": "nonpayable",
      "type": "function"
    },
    {
      "constant": false,
      "inputs": [
        {
          "internalType": "address",
          "name": "_owner",
          "type": "address"
        },
        {
          "internalType": "address",
          "name": "_operator",
          "type": "address"
        },
        {
          "internalType": "bool",
          "name": "_approved",
          "type": "bool"
        },
        {
          "internalType": "bool",
          "name": "_isGasFee",
          "type": "bool"
        },
        {
          "internalType": "bytes",
          "name": "_data",
          "type": "bytes"
        }
      ],
      "name": "metaSetApprovalForAll",
      "outputs": [],
      "payable": false,
      "stateMutability": "nonpayable",
      "type": "function"
    },
    {
      "constant": false,
      "inputs": [
        {
          "internalType": "address",
          "name": "",
          "type": "address"
        },
        {
          "internalType": "address",
          "name": "_from",
          "type": "address"
        },
        {
          "internalType": "uint256[]",
          "name": "_ids",
          "type": "uint256[]"
        },
        {
          "internalType": "uint256[]",
          "name": "_amounts",
          "type": "uint256[]"
        },
        {
          "internalType": "bytes",
          "name": "_data",
          "type": "bytes"
        }
      ],
      "name": "onERC1155BatchReceived",
      "outputs": [
        {
          "internalType": "bytes4",
          "name": "",
          "type": "bytes4"
        }
      ],
      "payable": false,
      "stateMutability": "nonpayable",
      "type": "function"
    },
    {
      "constant": false,
      "inputs": [
        {
          "internalType": "address",
          "name": "_operator",
          "type": "address"
        },
        {
          "internalType": "address",
          "name": "_from",
          "type": "address"
        },
        {
          "internalType": "uint256",
          "name": "_id",
          "type": "uint256"
        },
        {
          "internalType": "uint256",
          "name": "_amount",
          "type": "uint256"
        },
        {
          "internalType": "bytes",
          "name": "_data",
          "type": "bytes"
        }
      ],
      "name": "onERC1155Received",
      "outputs": [
        {
          "internalType": "bytes4",
          "name": "",
          "type": "bytes4"
        }
      ],
      "payable": false,
      "stateMutability": "nonpayable",
      "type": "function"
    },
    {
      "constant": false,
      "inputs": [
        {
          "internalType": "address",
          "name": "_from",
          "type": "address"
        },
        {
          "internalType": "address",
          "name": "_to",
          "type": "address"
        },
        {
          "internalType": "uint256[]",
          "name": "_ids",
          "type": "uint256[]"
        },
        {
          "internalType": "uint256[]",
          "name": "_amounts",
          "type": "uint256[]"
        },
        {
          "internalType": "bytes",
          "name": "_data",
          "type": "bytes"
        }
      ],
      "name": "safeBatchTransferFrom",
      "outputs": [],
      "payable": false,
      "stateMutability": "nonpayable",
      "type": "function"
    },
    {
      "constant": false,
      "inputs": [
        {
          "internalType": "address",
          "name": "_from",
          "type": "address"
        },
        {
          "internalType": "address",
          "name": "_to",
          "type": "address"
        },
        {
          "internalType": "uint256",
          "name": "_id",
          "type": "uint256"
        },
        {
          "internalType": "uint256",
          "name": "_amount",
          "type": "uint256"
        },
        {
          "internalType": "bytes",
          "name": "_data",
          "type": "bytes"
        }
      ],
      "name": "safeTransferFrom",
      "outputs": [],
      "payable": false,
      "stateMutability": "nonpayable",
      "type": "function"
    },
    {
      "constant": false,
      "inputs": [
        {
          "internalType": "address",
          "name": "_operator",
          "type": "address"
        },
        {
          "internalType": "bool",
          "name": "_approved",
          "type": "bool"
        }
      ],
      "name": "setApprovalForAll",
      "outputs": [],
      "payable": false,
      "stateMutability": "nonpayable",
      "type": "function"
    },
    {
      "constant": true,
      "inputs": [
        {
          "internalType": "bytes4",
          "name": "interfaceID",
          "type": "bytes4"
        }
      ],
      "name": "supportsInterface",
      "outputs": [
        {
          "internalType": "bool",
          "name": "",
          "type": "bool"
        }
      ],
      "payable": false,
      "stateMutability": "view",
      "type": "function"
    }
  ],
  "bytecode": "0x60806040523480156200001157600080fd5b506040516200609238038062006092833981016040819052620000349162000128565b6000805460ff191660011790558282826001600160a01b038316158015906200006557506001600160a01b03821615155b6200008d5760405162461bcd60e51b81526004016200008490620001cb565b60405180910390fd5b600680546001600160a01b03199081163317909155600480546001600160a01b03868116918416821790925560058054928616929093168217909255600783905514620000dc576000620000df565b60015b60058054911515600160a01b0260ff60a01b199092169190911790555062000220945050505050565b80516200011581620001fb565b92915050565b8051620001158162000215565b6000806000606084860312156200013e57600080fd5b60006200014c868662000108565b93505060206200015f8682870162000108565b925050604062000172868287016200011b565b9150509250925092565b60006200018b602b83620001dd565b7f4e696674797377617045786368616e676523636f6e7374727563746f723a494e81526a159053125117d25394155560aa1b602082015260400192915050565b6020808252810162000115816200017c565b90815260200190565b60006001600160a01b03821662000115565b90565b6200020681620001e6565b81146200021257600080fd5b50565b6200020681620001f8565b615e6280620002306000396000f3fe608060405234801561001057600080fd5b506004361061014c5760003560e01c8063a22cb465116100c3578063e985e9c51161007c578063e985e9c5146102e9578063f23a6e61146102fc578063f242432a1461030f578063f5d4c82014610322578063fa4e12d714610335578063fca16c3b146103485761014c565b8063a22cb46514610275578063a3d4926e14610288578063a9c2e36c1461029b578063bc197c81146102a3578063be571468146102c3578063ce0b514b146102d65761014c565b80632d0335ab116101155780632d0335ab146101fe5780632eb2c2d61461021157806346adf5ca146102265780634e1273f41461023c5780636ee8e1341461024f578063863ed300146102625761014c565b8062fdd58e1461016d57806301ffc9a71461019657806310fe9ae8146101b6578063209b96c5146101cb5780632bef5e38146101eb575b60405162461bcd60e51b815260040161016490615a58565b60405180910390fd5b61018061017b366004613d13565b61035b565b60405161018d9190615c48565b60405180910390f35b6101a96101a4366004613ea1565b610386565b60405161018d9190615796565b6101be6103bf565b60405161018d9190615547565b6101de6101d9366004613da0565b6103ce565b60405161018d9190615716565b6101de6101f9366004613da0565b61045a565b61018061020c366004613922565b6104dd565b61022461021f366004613a94565b6104f8565b005b61022e610577565b60405161018d9291906156d6565b6101de61024a366004613d43565b61058b565b61018061025d3660046140c6565b61066e565b6101de610270366004613de1565b610702565b610224610283366004613c54565b610845565b6102246102963660046139c8565b6108b4565b6101be610a04565b6102b66102b1366004613a94565b610a13565b60405161018d91906158a5565b6101de6102d1366004613de1565b610e12565b6102246102e4366004613ba5565b610f48565b6101a96102f7366004613998565b611003565b6102b661030a366004613bfd565b611031565b61022461031d366004613bfd565b6110fe565b610224610330366004613b4e565b611176565b6101a9610343366004613c84565b61127b565b6101806103563660046140c6565b611659565b6001600160a01b03821660009081526001602090815260408083208484529091529020545b92915050565b60006301ffc9a760e01b6001600160e01b0319831614806103b75750630271189760e51b6001600160e01b03198316145b90505b919050565b6004546001600160a01b031690565b604080518281526020808402820101909152606090829082908280156103fe578160200160208202803883390190505b50905060005b82811015610451576009600087878481811061041c57fe5b9050602002013581526020019081526020016000205482828151811061043e57fe5b6020908102919091010152600101610404565b50949350505050565b6040805182815260208084028201019091526060908290829082801561048a578160200160208202803883390190505b50905060005b8281101561045157600860008787848181106104a857fe5b905060200201358152602001908152602001600020548282815181106104ca57fe5b6020908102919091010152600101610490565b6001600160a01b031660009081526003602052604090205490565b336001600160a01b038616148061051457506105148533611003565b6105305760405162461bcd60e51b815260040161016490615b68565b6001600160a01b0384166105565760405162461bcd60e51b815260040161016490615ad8565b610562858585856116db565b610570858585855a866118d5565b5050505050565b6005546007546001600160a01b0390911691565b606081518351146105ae5760405162461bcd60e51b815260040161016490615b28565b606083516040519080825280602002602001820160405280156105db578160200160208202803883390190505b50905060005b845181101561066657600160008683815181106105fa57fe5b60200260200101516001600160a01b03166001600160a01b03168152602001908152602001600020600085838151811061063057fe5b602002602001015181526020019081526020016000205482828151811061065357fe5b60209081029190910101526001016105e1565b509392505050565b6000808311801561067f5750600082115b61069b5760405162461bcd60e51b815260040161016490615b78565b60006106af856103e363ffffffff6119a816565b905060006106c3828563ffffffff6119a816565b905060006106e9836106dd886103e863ffffffff6119a816565b9063ffffffff6119e216565b90508082816106f457fe5b0493505050505b9392505050565b60408051848152602080860282010190915260609084908290828015610732578160200160208202803883390190505b50905060005b82811015610838576004546000906001600160a01b031662fdd58e308b8b8681811061076057fe5b905060200201356040518363ffffffff1660e01b81526004016107849291906156d6565b60206040518083038186803b15801561079c57600080fd5b505afa1580156107b0573d6000803e3d6000fd5b505050506040513d601f19601f820116820180604052506107d491908101906140a8565b90506108188787848181106107e557fe5b9050602002013582600960008d8d888181106107fd57fe5b9050602002013581526020019081526020016000205461066e565b83838151811061082457fe5b602090810291909101015250600101610738565b509150505b949350505050565b3360008181526002602090815260408083206001600160a01b038716808552925291829020805460ff191685151517905590519091907f17307eab39ab6107e8899845ad3d59bd9653f200f220920489ca2b5937696c31906108a8908590615796565b60405180910390a35050565b6001600160a01b0385166108da5760405162461bcd60e51b815260040161016490615bb8565b60606108e4613329565b606061099789857fa3d4926e8cf8fe8e020cd29f514c256bc2eec62aa2337e415f1a33a4828af5a060001b8c8c8c60405160200161092291906154c0565b604051602081830303815290604052805190602001208c60405160200161094991906154c0565b604051602081830303815290604052805190602001208c61096b57600061096e565b60015b604051602001610983969594939291906157bf565b604051602081830303815290604052611a07565b90506109a5898989896116db565b84156109eb57808060200190516109bf9190810190614073565b60208201519094509092506109dc908a908a908a908a90866118d5565b6109e68983611b70565b6109f9565b6109f9898989895a866118d5565b505050505050505050565b6006546001600160a01b031690565b60008082806020019051610a2a9190810190613ebf565b90506001600160e01b0319811663b2d8104760e01b1415610b93576005546001600160a01b03163314610a6f5760405162461bcd60e51b815260040161016490615bc8565b8451600114610a905760405162461bcd60e51b815260040161016490615948565b60075485600081518110610aa057fe5b602002602001015114610ac55760405162461bcd60e51b815260040161016490615918565b610acd61335a565b83806020019051610ae19190810190613f24565b8051909250600091506001600160a01b031615610aff578151610b01565b875b90506060610b328360200151846040015189600081518110610b1f57fe5b6020026020010151866060015186611d7f565b9050816001600160a01b0316896001600160a01b03167fd38bc77e62e239476b3e25620d73f29a4a188e808aad79f4a81aaf44871a7a308560200151866040015185604051610b8393929190615771565b60405180910390a3505050610dfd565b6001600160e01b0319811663db08ec9760e01b1415610c74576004546001600160a01b03163314610bd65760405162461bcd60e51b8152600401610164906159a8565b610bde61338b565b83806020019051610bf29190810190613fb2565b8051909250600091506001600160a01b031615610c10578151610c12565b875b90506060610c2b88888560200151866040015186612016565b9050816001600160a01b0316896001600160a01b03167f89e4dbdd48f69e7920342e9ad9691b9a7150f254e6a0af177ccfd2556aab8bcd8a8a85604051610b8393929190615738565b6001600160e01b031981166382da2b7360e01b1415610cf3576004546001600160a01b03163314610cb75760405162461bcd60e51b815260040161016490615928565b610cbf6133b5565b83806020019051610cd39190810190613edd565b80516020820151919350610ced9250899189918991612224565b50610dfd565b6001600160e01b03198116635c0bf25960e01b1415610d6857333014610d2b5760405162461bcd60e51b8152600401610164906159f8565b610d336133cf565b83806020019051610d479190810190613f6b565b805160208201516040830151929450610ced93508a928a928a929091612708565b6001600160e01b0319811663c8c323f960e01b1415610de5576005546001600160a01b03163314610dab5760405162461bcd60e51b815260040161016490615958565b60075485600081518110610dbb57fe5b602002602001015114610de05760405162461bcd60e51b815260040161016490615918565b610dfd565b60405162461bcd60e51b815260040161016490615b88565b5063bc197c8160e01b90505b95945050505050565b60408051848152602080860282010190915260609084908290828015610e42578160200160208202803883390190505b50905060005b82811015610838576004546000906001600160a01b031662fdd58e308b8b86818110610e7057fe5b905060200201356040518363ffffffff1660e01b8152600401610e949291906156d6565b60206040518083038186803b158015610eac57600080fd5b505afa158015610ec0573d6000803e3d6000fd5b505050506040513d601f19601f82011682018060405250610ee491908101906140a8565b9050610f28878784818110610ef557fe5b90506020020135600960008c8c87818110610f0c57fe5b9050602002013581526020019081526020016000205483611659565b838381518110610f3457fe5b602090810291909101015250600101610e48565b6001600160a01b038516610f6e5760405162461bcd60e51b815260040161016490615a18565b6060610f78613329565b6060610fb089857fce0b514b3931bdbe4d5d44e4f035afe7113767b7db71949271f6a62d9c60f558828c8c8c8c61096b57600061096e565b9050610fbe89898989612b1c565b8415610ff55780806020019051610fd89190810190614073565b60208201519094509092506109dc908a908a908a908a9086612c09565b6109f9898989895a86612c09565b6001600160a01b03918216600090815260026020908152604080832093909416825291909152205460ff1690565b60408051600180825281830190925260009160609190602080830190803883395050604080516001808252818301909252929350606092915060208083019080388339019050509050858260008151811061108857fe5b60200260200101818152505084816000815181106110a257fe5b6020026020010181815250506110bb8888848488610a13565b6001600160e01b03191663bc197c8160e01b146110ea5760405162461bcd60e51b815260040161016490615a88565b5063f23a6e6160e01b979650505050505050565b336001600160a01b038616148061111a575061111a8533611003565b6111365760405162461bcd60e51b815260040161016490615988565b6001600160a01b03841661115c5760405162461bcd60e51b8152600401610164906158e8565b61116885858585612b1c565b610570858585855a86612c09565b60606111d286837ff5d4c820494c8595de274c7ff619bead38aac4fbc3d143b5bf956aa4b84fa5248289896111ac5760006111af565b60015b896111bb5760006111be565b60015b60405160200161098395949392919061580e565b6001600160a01b038781166000818152600260209081526040808320948b168084529490915290819020805460ff19168915151790555192935090917f17307eab39ab6107e8899845ad3d59bd9653f200f220920489ca2b5937696c319061123b908890615796565b60405180910390a3821561127357611251613329565b81806020019051611265919081019061403f565b90506112718782611b70565b505b505050505050565b60008082511161129d5760405162461bcd60e51b815260040161016490615b98565b6001600160a01b0385166112c35760405162461bcd60e51b815260040161016490615b58565b60006112ce83612cdc565b60f81c9050600581106112f35760405162461bcd60e51b815260040161016490615a08565b60008160ff16600581111561130457fe5b905060008080808085600581111561131857fe5b14156113365760405162461bcd60e51b815260040161016490615a28565b600185600581111561134457fe5b141561141a57875160611461136b5760405162461bcd60e51b815260040161016490615a78565b61137c88600063ffffffff612d2a16565b925061138f88602063ffffffff612d2a16565b91508760408151811061139e57fe5b602001015160f81c60f81b60f81c935060018a858585604051600081526020016040526040516113d19493929190615870565b6020604051602081039080840390855afa1580156113f3573d6000803e3d6000fd5b5050604051601f1901516001600160a01b038d8116911614975061083d9650505050505050565b600285600581111561142857fe5b14156114db57875160611461144f5760405162461bcd60e51b815260040161016490615a78565b61146088600063ffffffff612d2a16565b925061147388602063ffffffff612d2a16565b91508760408151811061148257fe5b602001015160f81c60f81b60f81c935060018a6040516020016114a59190615527565b60405160208183030381529060405280519060200120858585604051600081526020016040526040516113d19493929190615870565b60038560058111156114e957fe5b141561158e576040516320c13b0b60e01b81526001600160a01b038c16906320c13b0b9061151d908c908c906004016158b3565b60206040518083038186803b15801561153557600080fd5b505afa158015611549573d6000803e3d6000fd5b505050506040513d601f19601f8201168201806040525061156d9190810190613ebf565b6001600160e01b0319166320c13b0b60e01b14965061083d95505050505050565b600485600581111561159c57fe5b141561164157604051630b135d3f60e11b81526001600160a01b038c1690631626ba7e906115d0908d908c90600401615850565b60206040518083038186803b1580156115e857600080fd5b505afa1580156115fc573d6000803e3d6000fd5b505050506040513d601f19601f820116820180604052506116209190810190613ebf565b6001600160e01b031916630b135d3f60e11b14965061083d95505050505050565b60405162461bcd60e51b815260040161016490615a08565b6000808311801561166a5750600082115b6116865760405162461bcd60e51b815260040161016490615b48565b60006116aa6103e861169e868863ffffffff6119a816565b9063ffffffff6119a816565b905060006116c46103e361169e868963ffffffff612d5916565b90506116d08282612d81565b509695505050505050565b80518251146116fc5760405162461bcd60e51b8152600401610164906159e8565b815160005b818110156118765761177883828151811061171857fe5b602002602001015160016000896001600160a01b03166001600160a01b03168152602001908152602001600020600087858151811061175357fe5b6020026020010151815260200190815260200160002054612d5990919063ffffffff16565b6001600160a01b038716600090815260016020526040812086519091908790859081106117a157fe5b602002602001015181526020019081526020016000208190555061182a8382815181106117ca57fe5b602002602001015160016000886001600160a01b03166001600160a01b03168152602001908152602001600020600087858151811061180557fe5b60200260200101518152602001908152602001600020546119e290919063ffffffff16565b6001600160a01b0386166000908152600160205260408120865190919087908590811061185357fe5b602090810291909101810151825281019190915260400160002055600101611701565b50836001600160a01b0316856001600160a01b0316336001600160a01b03167f4a39dc06d4c0dbc64b70af90fd698a233a518aa5d07e595d983b8c0526c8f7fb86866040516118c6929190615727565b60405180910390a45050505050565b6118e7856001600160a01b0316612dce565b15611273576000856001600160a01b031663bc197c8184338a8989886040518763ffffffff1660e01b8152600401611923959493929190615555565b602060405180830381600088803b15801561193d57600080fd5b5087f1158015611951573d6000803e3d6000fd5b50505050506040513d601f19601f820116820180604052506119769190810190613ebf565b90506001600160e01b0319811663bc197c8160e01b146112715760405162461bcd60e51b815260040161016490615bd8565b6000826119b757506000610380565b828202828482816119c457fe5b04146106fb5760405162461bcd60e51b815260040161016490615a38565b6000828201838110156106fb5760405162461bcd60e51b815260040161016490615c08565b60608083806020019051611a1e9190810190613fe2565b6001600160a01b03871660009081526003602052604081205491945091925090611a4f83604163ffffffff612d2a16565b9050818110801590611a6357508160640181105b611a7f5760405162461bcd60e51b815260040161016490615c28565b6000611abb86838780519060200120604051602001611aa0939291906154cc565b60405160208183030381529060405280519060200120612e05565b90506060868387604051602001611ad4939291906154ff565b60408051601f198184030181528282526001600160a01b038c166000818152600360205292909220600187019081905590935090917fb861b7bdbe611a846ab271b8d2810391bc8b5a968f390c322438ecab66bccf5991611b3491615c48565b60405180910390a2611b488983838861127b565b611b645760405162461bcd60e51b815260040161016490615a68565b50505050509392505050565b6000611b7f8260600151612cdc565b60f81c905060028110611ba45760405162461bcd60e51b815260040161016490615c38565b60008160ff166002811115611bb557fe5b83516040850151919250600091829182916001600160a01b031615611bde578660400151611be0565b335b92506000856002811115611bf057fe5b1415611cbc578660600151806020019051611c0e919081019061395e565b90945091506001600160a01b038416301415611c5257611c3088848484612b1c565b611c4d8884845a8560405180602001604052806000815250612c09565b611cb7565b604051637921219560e11b81526001600160a01b0385169063f242432a90611c84908b90879087908790600401615690565b600060405180830381600087803b158015611c9e57600080fd5b505af1158015611cb2573d6000803e3d6000fd5b505050505b611d75565b8660600151806020019051611cd49190810190613940565b6040516323b872dd60e01b81529094506001600160a01b038516906323b872dd90611d07908b908790869060040161565a565b602060405180830381600087803b158015611d2157600080fd5b505af1158015611d35573d6000803e3d6000fd5b505050506040513d601f19601f82011682018060405250611d599190810190613e83565b611d755760405162461bcd60e51b815260040161016490615b38565b5050505050505050565b60005460609060ff16611da45760405162461bcd60e51b815260040161016490615c18565b6000805460ff1916905543831015611dce5760405162461bcd60e51b815260040161016490615908565b85516040805182815260208084028201019091528590828015611dfb578160200160208202803883390190505b509250606082604051908082528060200260200182016040528015611e2a578160200160208202803883390190505b509050611e3689612e9e565b905060005b83811015611f255760008a8281518110611e5157fe5b6020026020010151905060008a8381518110611e6957fe5b602002602001015190506000848481518110611e8157fe5b6020026020010151905060008211611eab5760405162461bcd60e51b815260040161016490615aa8565b60008381526009602052604081205490611ec6848385611659565b9050611ed8888263ffffffff612d5916565b9750808a8781518110611ee757fe5b6020908102919091010152611f02828263ffffffff6119e216565b60009586526009602052604090952094909455505060019092019150611e3b9050565b508115611f9657600554600754604051637921219560e11b81526001600160a01b039092169163f242432a91611f639130918a918890600401615690565b600060405180830381600087803b158015611f7d57600080fd5b505af1158015611f91573d6000803e3d6000fd5b505050505b60048054604051631759616b60e11b81526001600160a01b0390911691632eb2c2d691611fcb9130918a918f918f91016155fc565b600060405180830381600087803b158015611fe557600080fd5b505af1158015611ff9573d6000803e3d6000fd5b505050505050506000805460ff1916600117905595945050505050565b60005460609060ff1661203b5760405162461bcd60e51b815260040161016490615c18565b6000805460ff191690558551438410156120675760405162461bcd60e51b815260040161016490615968565b604080518281526020808402820101909152600090828015612093578160200160208202803883390190505b5092506060826040519080825280602002602001820160405280156120c2578160200160208202803883390190505b5090506120ce89612e9e565b905060005b838110156121cc5760008a82815181106120e957fe5b6020026020010151905060008a838151811061210157fe5b60200260200101519050600084848151811061211957fe5b60200260200101519050600082116121435760405162461bcd60e51b815260040161016490615b18565b6000838152600960205260408120549061216d84612167858263ffffffff612d5916565b8461066e565b905061217f888263ffffffff6119e216565b9750612191828263ffffffff612d5916565b600086815260096020526040902055895181908b90889081106121b057fe5b60209081029190910101525050600190930192506120d3915050565b50868210156121ed5760405162461bcd60e51b815260040161016490615978565b600554600754604051637921219560e11b81526001600160a01b039092169163f242432a91611fcb9130918a918890600401615690565b60005460ff166122465760405162461bcd60e51b815260040161016490615c18565b6000805460ff19169055438110156122705760405162461bcd60e51b815260040161016490615ab8565b83516040805182815260208084028201019091526000906060908380156122a1578160200160208202803883390190505b5090506060836040519080825280602002602001820160405280156122d0578160200160208202803883390190505b5090506060846040519080825280602002602001820160405280156122ff578160200160208202803883390190505b50905061230b89612e9e565b905060005b858110156125f65760008a828151811061232657fe5b6020026020010151905060008a838151811061233e57fe5b6020026020010151905060008a848151811061235657fe5b60200260200101511161237b5760405162461bcd60e51b8152600401610164906158d8565b6000811161239b5760405162461bcd60e51b815260040161016490615b08565b600554600160a01b900460ff16156123cf576007548214156123cf5760405162461bcd60e51b815260040161016490615ac8565b600082815260086020526040902054801561254357600083815260096020526040812054865190919087908790811061240457fe5b6020026020010151905060008061243c61242785886119a890919063ffffffff16565b612437858963ffffffff612d5916565b612d81565b91509150818f898151811061244d57fe5b602002602001015110156124735760405162461bcd60e51b8152600401610164906159d8565b612483848363ffffffff6119e216565b6000888152600960205260409020556124a28c8363ffffffff6119e216565b9b50836124cb8661169e846124b85760006124bb565b60015b869060ff1663ffffffff612d5916565b816124d257fe5b048b89815181106124df57fe5b602002602001018181525050818a89815181106124f857fe5b60200260200101818152505061252a8b898151811061251357fe5b6020026020010151866119e290919063ffffffff16565b600088815260086020526040902055506125eb92505050565b60008b858151811061255157fe5b60200260200101519050633b9aca0081101561257f5760405162461bcd60e51b8152600401610164906159b8565b60008481526009602052604090208190556125a0898263ffffffff6119e216565b6000858152600860205260409020829055885190995081908990879081106125c457fe5b602002602001018181525050808786815181106125dd57fe5b602002602001018181525050505b505050600101612310565b506126128a8a85604051806020016040528060008152506130e9565b6005546007546040516001600160a01b039092169163f242432a918d9130919089906126499063c8c323f960e01b906020016158a5565b6040516020818303038152906040526040518663ffffffff1660e01b8152600401612678959493929190615682565b600060405180830381600087803b15801561269257600080fd5b505af11580156126a6573d6000803e3d6000fd5b50505050896001600160a01b03167f403f9dc4582dae52d3eeb4a22d37540ffb13c32d964c92ec5ac0d3d5628da3168a8a856040516126e793929190615738565b60405180910390a250506000805460ff191660011790555050505050505050565b60005460ff1661272a5760405162461bcd60e51b815260040161016490615c18565b6000805460ff191690554381116127535760405162461bcd60e51b815260040161016490615a48565b8451604080518281526020808402820101909152600090606090838015612784578160200160208202803883390190505b5090506060836040519080825280602002602001820160405280156127b3578160200160208202803883390190505b5090506060846040519080825280602002602001820160405280156127e2578160200160208202803883390190505b5090506127ee8a612e9e565b905060005b858110156129bd5760008b828151811061280957fe5b6020026020010151905060008b838151811061282157fe5b60200260200101519050600084848151811061283957fe5b602002602001015190506000600860008581526020019081526020016000205490506000811161287b5760405162461bcd60e51b8152600401610164906158f8565b600084815260096020526040812054908261289c868463ffffffff6119a816565b816128a357fe5b0490506000836128b9878763ffffffff6119a816565b816128c057fe5b0490508f88815181106128cf57fe5b60200260200101518210156128f65760405162461bcd60e51b815260040161016490615a98565b8e888151811061290257fe5b60200260200101518110156129295760405162461bcd60e51b815260040161016490615af8565b612939848763ffffffff612d5916565b600088815260086020526040902055612958838363ffffffff612d5916565b6000888152600960205260409020556129778c8363ffffffff6119e216565b9b50808b898151811061298657fe5b602002602001018181525050818a898151811061299f57fe5b60209081029190910101525050600190950194506127f39350505050565b506129c9308b8b613215565b600560009054906101000a90046001600160a01b03166001600160a01b031663f242432a308d600754886040518563ffffffff1660e01b8152600401612a129493929190615690565b600060405180830381600087803b158015612a2c57600080fd5b505af1158015612a40573d6000803e3d6000fd5b50505050600460009054906101000a90046001600160a01b03166001600160a01b0316632eb2c2d6308d8d876040518563ffffffff1660e01b8152600401612a8b94939291906155fc565b600060405180830381600087803b158015612aa557600080fd5b505af1158015612ab9573d6000803e3d6000fd5b505050508a6001600160a01b03167f711e9bcb94b4cf7bc99c1cb938edc75ac7e85a136838e90abf6ee1f5adebd4238b8585604051612afa93929190615738565b60405180910390a250506000805460ff19166001179055505050505050505050565b6001600160a01b0384166000908152600160209081526040808320858452909152902054612b50908263ffffffff612d5916565b6001600160a01b038086166000908152600160208181526040808420888552825280842095909555928716825282528281208582529091522054612b9a908263ffffffff6119e216565b6001600160a01b038085166000818152600160209081526040808320888452909152908190209390935591519086169033907fc3d58168c5ae7397731d063d5bbf3d657854427343f4c083240f7aacaa2d0f6290612bfb9087908790615c56565b60405180910390a450505050565b612c1b856001600160a01b0316612dce565b15611273576000856001600160a01b031663f23a6e6184338a8989886040518763ffffffff1660e01b8152600401612c579594939291906155b5565b602060405180830381600088803b158015612c7157600080fd5b5087f1158015612c85573d6000803e3d6000fd5b50505050506040513d601f19601f82011682018060405250612caa9190810190613ebf565b90506001600160e01b0319811663f23a6e6160e01b146112715760405162461bcd60e51b815260040161016490615be8565b600080825111612cfe5760405162461bcd60e51b815260040161016490615938565b81600183510381518110612d0e57fe5b0160200151825160001901909252506001600160f81b03191690565b60008160200183511015612d505760405162461bcd60e51b815260040161016490615bf8565b50016020015190565b600082821115612d7b5760405162461bcd60e51b8152600401610164906159c8565b50900390565b600080828481612d8d57fe5b0615612db557612dae6001848681612da157fe5b049063ffffffff6119e216565b6001612dc2565b828481612dbe57fe5b0460005b915091505b9250929050565b6000813f80158015906106fb57507fc5d2460186f7233c927e7db2dcc703c0e500b653ca82273b7bfad8045d85a470141592915050565b600060405180604001604052806002815260200161190160f01b8152507f035aff83d86937d35b32e04f0ddc6ff469290eef2f1b692d8a815c89404d474960001b30604051602001612e589291906157a4565b6040516020818303038152906040528051906020012083604051602001612e81939291906154cc565b604051602081830303815290604052805190602001209050919050565b80516060906001811415612f855760408051600180825281830190925260609160208083019080388339505060045486519293506001600160a01b03169162fdd58e915030908790600090612eef57fe5b60200260200101516040518363ffffffff1660e01b8152600401612f149291906156d6565b60206040518083038186803b158015612f2c57600080fd5b505afa158015612f40573d6000803e3d6000fd5b505050506040513d601f19601f82011682018060405250612f6491908101906140a8565b81600081518110612f7157fe5b602090810291909101015291506103ba9050565b606081604051908082528060200260200182016040528015612fb1578160200160208202803883390190505b5090503081600081518110612fc257fe5b6001600160a01b039092166020928302919091019091015260015b8281101561305a57848181518110612ff157fe5b602002602001015185600183038151811061300857fe5b60200260200101511061302d5760405162461bcd60e51b815260040161016490615998565b3082828151811061303a57fe5b6001600160a01b0390921660209283029190910190910152600101612fdd565b50600480546040516313849cfd60e21b81526001600160a01b0390911691634e1273f49161308c9185918991016156f1565b60006040518083038186803b1580156130a457600080fd5b505afa1580156130b8573d6000803e3d6000fd5b505050506040513d6000823e601f3d908101601f191682016040526130e09190810190613e4f565b925050506103ba565b815183511461310a5760405162461bcd60e51b815260040161016490615ba8565b825160005b818110156131ad5761316184828151811061312657fe5b602002602001015160016000896001600160a01b03166001600160a01b03168152602001908152602001600020600088858151811061180557fe5b6001600160a01b0387166000908152600160205260408120875190919088908590811061318a57fe5b60209081029190910181015182528101919091526040016000205560010161310f565b50846001600160a01b031660006001600160a01b0316336001600160a01b03167f4a39dc06d4c0dbc64b70af90fd698a233a518aa5d07e595d983b8c0526c8f7fb87876040516131fe929190615727565b60405180910390a461057060008686865a876118d5565b8151815181146132375760405162461bcd60e51b815260040161016490615ae8565b60005b818110156132d85761328c83828151811061325157fe5b602002602001015160016000886001600160a01b03166001600160a01b03168152602001908152602001600020600087858151811061175357fe5b6001600160a01b038616600090815260016020526040812086519091908790859081106132b557fe5b60209081029190910181015182528101919091526040016000205560010161323a565b5060006001600160a01b0316846001600160a01b0316336001600160a01b03167f4a39dc06d4c0dbc64b70af90fd698a233a518aa5d07e595d983b8c0526c8f7fb8686604051612bfb929190615727565b6040518060800160405280600081526020016000815260200160006001600160a01b03168152602001606081525090565b604051806080016040528060006001600160a01b031681526020016060815260200160608152602001600081525090565b604051806060016040528060006001600160a01b0316815260200160008152602001600081525090565b604051806040016040528060608152602001600081525090565b60405180606001604052806060815260200160608152602001600081525090565b803561038081615d6d565b805161038081615d6d565b600082601f83011261341757600080fd5b813561342a61342582615c8a565b615c64565b9150818183526020840193506020810190508385602084028201111561344f57600080fd5b60005b8381101561347b578161346588826133f0565b8452506020928301929190910190600101613452565b5050505092915050565b60008083601f84011261349757600080fd5b5081356001600160401b038111156134ae57600080fd5b602083019150836020820283011115612dc757600080fd5b600082601f8301126134d757600080fd5b81516134e561342582615c8a565b9150818183526020840193506020810190508385602084028201111561350a57600080fd5b60005b8381101561347b57816135208882613917565b845250602092830192919091019060010161350d565b600082601f83011261354757600080fd5b813561355561342582615c8a565b9150818183526020840193506020810190508385602084028201111561357a57600080fd5b60005b8381101561347b5781613590888261362c565b845250602092830192919091019060010161357d565b600082601f8301126135b757600080fd5b81516135c561342582615c8a565b915081818352602084019350602081019050838560208402820111156135ea57600080fd5b60005b8381101561347b57816136008882613917565b84525060209283019291909101906001016135ed565b803561038081615d84565b805161038081615d84565b803561038081615d8d565b803561038081615d96565b805161038081615d96565b600082601f83011261365e57600080fd5b815161366c61342582615caa565b9150808252602083016020830185838301111561368857600080fd5b613693838284615d33565b50505092915050565b600082601f8301126136ad57600080fd5b81356136bb61342582615caa565b915080825260208301602083018583830111156136d757600080fd5b613693838284615d27565b6000604082840312156136f457600080fd5b6136fe6040615c64565b82519091506001600160401b0381111561371757600080fd5b613723848285016134c6565b825250602061373484848301613917565b60208301525092915050565b60006080828403121561375257600080fd5b61375c6080615c64565b9050600061376a84846133fb565b82525060208201516001600160401b0381111561378657600080fd5b613792848285016134c6565b60208301525060408201516001600160401b038111156137b157600080fd5b6137bd848285016134c6565b60408301525060606137d184828501613917565b60608301525092915050565b6000608082840312156137ef57600080fd5b6137f96080615c64565b905060006138078484613917565b825250602061381884848301613917565b602083015250604061382c848285016133fb565b60408301525060608201516001600160401b0381111561384b57600080fd5b6137d18482850161364d565b60006060828403121561386957600080fd5b6138736060615c64565b82519091506001600160401b0381111561388c57600080fd5b613898848285016134c6565b82525060208201516001600160401b038111156138b457600080fd5b6138c0848285016134c6565b60208301525060406138d484828501613917565b60408301525092915050565b6000606082840312156138f257600080fd5b6138fc6060615c64565b9050600061390a84846133fb565b82525060206138c0848483015b805161038081615d8d565b60006020828403121561393457600080fd5b600061083d84846133f0565b60006020828403121561395257600080fd5b600061083d84846133fb565b6000806040838503121561397157600080fd5b600061397d85856133fb565b925050602061398e85828601613917565b9150509250929050565b600080604083850312156139ab57600080fd5b60006139b785856133f0565b925050602061398e858286016133f0565b60008060008060008060c087890312156139e157600080fd5b60006139ed89896133f0565b96505060206139fe89828a016133f0565b95505060408701356001600160401b03811115613a1a57600080fd5b613a2689828a01613536565b94505060608701356001600160401b03811115613a4257600080fd5b613a4e89828a01613536565b9350506080613a5f89828a01613616565b92505060a08701356001600160401b03811115613a7b57600080fd5b613a8789828a0161369c565b9150509295509295509295565b600080600080600060a08688031215613aac57600080fd5b6000613ab888886133f0565b9550506020613ac9888289016133f0565b94505060408601356001600160401b03811115613ae557600080fd5b613af188828901613536565b93505060608601356001600160401b03811115613b0d57600080fd5b613b1988828901613536565b92505060808601356001600160401b03811115613b3557600080fd5b613b418882890161369c565b9150509295509295909350565b600080600080600060a08688031215613b6657600080fd5b6000613b7288886133f0565b9550506020613b83888289016133f0565b9450506040613b9488828901613616565b9350506060613b1988828901613616565b60008060008060008060c08789031215613bbe57600080fd5b6000613bca89896133f0565b9650506020613bdb89828a016133f0565b9550506040613bec89828a0161362c565b9450506060613a4e89828a0161362c565b600080600080600060a08688031215613c1557600080fd5b6000613c2188886133f0565b9550506020613c32888289016133f0565b9450506040613c438882890161362c565b9350506060613b198882890161362c565b60008060408385031215613c6757600080fd5b6000613c7385856133f0565b925050602061398e85828601613616565b60008060008060808587031215613c9a57600080fd5b6000613ca687876133f0565b9450506020613cb78782880161362c565b93505060408501356001600160401b03811115613cd357600080fd5b613cdf8782880161369c565b92505060608501356001600160401b03811115613cfb57600080fd5b613d078782880161369c565b91505092959194509250565b60008060408385031215613d2657600080fd5b6000613d3285856133f0565b925050602061398e8582860161362c565b60008060408385031215613d5657600080fd5b82356001600160401b03811115613d6c57600080fd5b613d7885828601613406565b92505060208301356001600160401b03811115613d9457600080fd5b61398e85828601613536565b60008060208385031215613db357600080fd5b82356001600160401b03811115613dc957600080fd5b613dd585828601613485565b92509250509250929050565b60008060008060408587031215613df757600080fd5b84356001600160401b03811115613e0d57600080fd5b613e1987828801613485565b945094505060208501356001600160401b03811115613e3757600080fd5b613e4387828801613485565b95989497509550505050565b600060208284031215613e6157600080fd5b81516001600160401b03811115613e7757600080fd5b61083d848285016135a6565b600060208284031215613e9557600080fd5b600061083d8484613621565b600060208284031215613eb357600080fd5b600061083d8484613637565b600060208284031215613ed157600080fd5b600061083d8484613642565b60008060408385031215613ef057600080fd5b6000613efc8585613642565b92505060208301516001600160401b03811115613f1857600080fd5b61398e858286016136e2565b60008060408385031215613f3757600080fd5b6000613f438585613642565b92505060208301516001600160401b03811115613f5f57600080fd5b61398e85828601613740565b60008060408385031215613f7e57600080fd5b6000613f8a8585613642565b92505060208301516001600160401b03811115613fa657600080fd5b61398e85828601613857565b60008060808385031215613fc557600080fd5b6000613fd18585613642565b925050602061398e858286016138e0565b60008060408385031215613ff557600080fd5b82516001600160401b0381111561400b57600080fd5b6140178582860161364d565b92505060208301516001600160401b0381111561403357600080fd5b61398e8582860161364d565b60006020828403121561405157600080fd5b81516001600160401b0381111561406757600080fd5b61083d848285016137dd565b6000806040838503121561408657600080fd5b82516001600160401b0381111561409c57600080fd5b614017858286016137dd565b6000602082840312156140ba57600080fd5b600061083d8484613917565b6000806000606084860312156140db57600080fd5b60006140e7868661362c565b93505060206140f88682870161362c565b92505060406141098682870161362c565b9150509250925092565b600061411f8383614142565b505060200190565b600061411f8383614297565b61413c81615d16565b82525050565b61413c81615ce4565b600061415682615cd7565b6141608185615cdb565b935061416b83615cd1565b8060005b838110156141995781516141838882614113565b975061418e83615cd1565b92505060010161416f565b509495945050505050565b60006141af82615cd7565b6141b98185615cdb565b93506141c483615cd1565b8060005b838110156141995781516141dc8882614127565b97506141e783615cd1565b9250506001016141c8565b60006141fd82615cd7565b61420781856103ba565b935061421283615cd1565b8060005b8381101561419957815161422a8882614127565b975061423583615cd1565b925050600101614216565b600061424b82615cd7565b6142558185615cdb565b935061426083615cd1565b8060005b838110156141995781516142788882614127565b975061428383615cd1565b925050600101614264565b61413c81615cef565b61413c81615cf4565b61413c6142ac82615cf4565b615cf4565b61413c81615cf7565b60006142c582615cd7565b6142cf8185615cdb565b93506142df818560208601615d33565b6142e881615d63565b9093019392505050565b60006142fd82615cd7565b61430781856103ba565b9350614317818560208601615d33565b9290920192915050565b600061432e603283615cdb565b600080516020615de0833981519152815271204e554c4c5f4d41585f43555252454e435960701b602082015260400192915050565b6000614370602b83615cdb565b7f4552433131353523736166655472616e7366657246726f6d3a20494e56414c4981526a1117d49150d2541251539560aa1b602082015260400192915050565b60006143bd601c836103ba565b7f19457468657265756d205369676e6564204d6573736167653a0a3332000000008152601c0192915050565b60006143f6603883615cdb565b600080516020615dc083398151915281527f74793a204e554c4c5f544f54414c5f4c49515549444954590000000000000000602082015260400192915050565b6000614443603583615cdb565b7f4e696674797377617045786368616e6765235f63757272656e6379546f546f6b815274195b8e88111150511312539157d15610d151511151605a1b602082015260400192915050565b600061449a603d83615cdb565b600080516020615e0083398151915281527f52656365697665643a20494e56414c49445f43555252454e43595f4944000000602082015260400192915050565b60006144e7604383615cdb565b600080516020615e0083398151915281527f52656365697665643a20494e56414c49445f544f4b454e5f5452414e5346455260208201526214915160ea1b604082015260600192915050565b6000614540603783615cdb565b7f4c6962427974657323706f704c617374427974653a20475245415445525f544881527f414e5f5a45524f5f4c454e4754485f5245515549524544000000000000000000602082015260400192915050565b600061459f604583615cdb565b600080516020615e0083398151915281527f52656365697665643a20494e56414c49445f43555252454e43595f4944535f416020820152641353d5539560da1b604082015260600192915050565b60006145fa604283615cdb565b600080516020615e0083398151915281527f52656365697665643a20494e56414c49445f544f4b454e535f4445504f534954602082015261115160f21b604082015260600192915050565b6000614652603583615cdb565b7f4e696674797377617045786368616e6765235f746f6b656e546f43757272656e81527418de4e88111150511312539157d15610d151511151605a1b602082015260400192915050565b60006146a9604083615cdb565b7f4e696674797377617045786368616e6765235f746f6b656e546f43757272656e81527f63793a20494e53554646494349454e545f43555252454e43595f414d4f554e54602082015260400192915050565b6000614708602a83615cdb565b7f4552433131353523736166655472616e7366657246726f6d3a20494e56414c49815269222fa7a822a920aa27a960b11b602082015260400192915050565b6000614754604483615cdb565b7f4e696674797377617045786368616e6765235f676574546f6b656e526573657281527f7665733a20554e534f525445445f4f525f4455504c49434154455f544f4b454e6020820152635f49445360e01b604082015260600192915050565b60006147c0604483615cdb565b600080516020615e0083398151915281527f52656365697665643a20494e56414c49445f544f4b454e535f5452414e5346456020820152631494915160e21b604082015260600192915050565b600061481a603883615cdb565b600080516020615de083398151915281527f20494e56414c49445f43555252454e43595f414d4f554e540000000000000000602082015260400192915050565b6000614867601783615cdb565b7f536166654d617468237375623a20554e444552464c4f57000000000000000000815260200192915050565b60006148a0603d83615cdb565b600080516020615de083398151915281527f204d41585f43555252454e43595f414d4f554e545f4558434545444544000000602082015260400192915050565b60006148ed603583615cdb565b7f45524331313535235f7361666542617463685472616e7366657246726f6d3a208152740929cac82989288be82a4a482b2a6be988a9c8ea89605b1b602082015260400192915050565b6000614944604a83615cdb565b600080516020615e0083398151915281527f52656365697665643a20494e56414c49445f4e494654595f544f4b454e535f5460208201526914905394d1915494915160b21b604082015260600192915050565b60006149a4603a83615cdb565b600080516020615da083398151915281527f7572653a20554e535550504f525445445f5349474e4154555245000000000000602082015260400192915050565b60006149f1603383615cdb565b7f455243313135354d657461236d657461536166655472616e7366657246726f6d8152720e881253959053125117d49150d25412515395606a1b602082015260400192915050565b6000614a46603683615cdb565b600080516020615da08339815191528152757572653a20494c4c4547414c5f5349474e415455524560501b602082015260400192915050565b6000614a8c601683615cdb565b75536166654d617468236d756c3a204f564552464c4f5760501b815260200192915050565b6000614abe603583615cdb565b600080516020615dc08339815191528152741d1e4e88111150511312539157d15610d151511151605a1b602082015260400192915050565b6000614b03602483615cdb565b7f4e696674797377617045786368616e67653a554e535550504f525445445f4d45815263151213d160e21b602082015260400192915050565b6000614b49603383615cdb565b7f455243313135354d657461235f7369676e617475726556616c69646174696f6e8152723a20494e56414c49445f5349474e415455524560681b602082015260400192915050565b6000614b9e603783615cdb565b600080516020615da083398151915281527f7572653a204c454e4754485f39375f5245515549524544000000000000000000602082015260400192915050565b6000614beb603f83615cdb565b7f4e696674797377617045786368616e6765236f6e45524331313535526563656981527f7665643a20494e56414c49445f4f4e52454345495645445f4d45535341474500602082015260400192915050565b6000614c4a604083615cdb565b600080516020615dc083398151915281527f74793a20494e53554646494349454e545f43555252454e43595f414d4f554e54602082015260400192915050565b6000614c97603683615cdb565b7f4e696674797377617045786368616e6765235f63757272656e6379546f546f6b815275195b8e881395531317d513d2d15394d7d093d551d21560521b602082015260400192915050565b6000614cef603283615cdb565b600080516020615de083398151915281527108111150511312539157d15610d15151115160721b602082015260400192915050565b6000614d31603883615cdb565b600080516020615de083398151915281527f2043555252454e43595f504f4f4c5f464f5242494444454e0000000000000000602082015260400192915050565b6000614d7e603083615cdb565b7f45524331313535237361666542617463685472616e7366657246726f6d3a204981526f13959053125117d49150d2541251539560821b602082015260400192915050565b6000614dd0603083615cdb565b7f455243313135354d696e744275726e2362617463684275726e3a20494e56414c81526f09288be82a4a482b2a6be988a9c8ea8960831b602082015260400192915050565b6000614e22603783615cdb565b600080516020615dc083398151915281527f74793a20494e53554646494349454e545f544f4b454e53000000000000000000602082015260400192915050565b6000614e6f603383615cdb565b600080516020615de0833981519152815272081395531317d513d2d15394d7d05353d55395606a1b602082015260400192915050565b6000614eb2603483615cdb565b7f4e696674797377617045786368616e6765235f746f6b656e546f43757272656e81527318de4e881395531317d513d2d15394d7d4d3d31160621b602082015260400192915050565b6000614f08602c83615cdb565b7f455243313135352362616c616e63654f6642617463683a20494e56414c49445f81526b082a4a482b2be988a9c8ea8960a31b602082015260400192915050565b6000614f56603283615cdb565b7f455243313135354d657461235f7472616e736665724761734665653a204552438152710c8c17d514905394d1915497d1905253115160721b602082015260400192915050565b6000614faa602c83615cdb565b7f4e696674797377617045786368616e67652367657442757950726963653a204581526b4d5054595f5245534552564560a01b602082015260400192915050565b6000614ff8603383615cdb565b600080516020615da08339815191528152723ab9329d1024a72b20a624a22fa9a4a3a722a960691b602082015260400192915050565b600061503b602f83615cdb565b7f45524331313535237361666542617463685472616e7366657246726f6d3a204981526e272b20a624a22fa7a822a920aa27a960891b602082015260400192915050565b600061508c602d83615cdb565b7f4e696674797377617045786368616e67652367657453656c6c50726963653a2081526c454d5054595f5245534552564560981b602082015260400192915050565b60006150db603883615cdb565b600080516020615e0083398151915281527f52656365697665643a20494e56414c49445f4d4554484f440000000000000000602082015260400192915050565b6000615128604383615cdb565b600080516020615da083398151915281527f7572653a204c454e4754485f475245415445525f5448414e5f305f524551554960208201526214915160ea1b604082015260600192915050565b6000615181603083615cdb565b7f455243313135354d696e744275726e2362617463684d696e743a20494e56414c81526f09288be82a4a482b2a6be988a9c8ea8960831b602082015260400192915050565b60006151d3603883615cdb565b7f455243313135354d657461236d6574615361666542617463685472616e73666581527f7246726f6d3a20494e56414c49445f524543495049454e540000000000000000602082015260400192915050565b6000610380600083615cdb565b600061523f604683615cdb565b600080516020615e0083398151915281527f52656365697665643a20494e56414c49445f43555252454e43595f5452414e5360208201526511915494915160d21b604082015260600192915050565b600061529b603f83615cdb565b7f45524331313535235f63616c6c6f6e455243313135354261746368526563656981527f7665643a20494e56414c49445f4f4e5f524543454956455f4d45535341474500602082015260400192915050565b60006152fa603a83615cdb565b7f45524331313535235f63616c6c6f6e4552433131353552656365697665643a2081527f494e56414c49445f4f4e5f524543454956455f4d455353414745000000000000602082015260400192915050565b6000615359603c83615cdb565b7f4c696242797465732372656164427974657333323a20475245415445525f4f5281527f5f455155414c5f544f5f33325f4c454e4754485f524551554952454400000000602082015260400192915050565b60006153b8601683615cdb565b75536166654d617468236164643a204f564552464c4f5760501b815260200192915050565b60006153ea601f83615cdb565b7f5265656e7472616e637947756172643a207265656e7472616e742063616c6c00815260200192915050565b6000615423602f83615cdb565b7f455243313135354d657461235f7369676e617475726556616c69646174696f6e81526e3a20494e56414c49445f4e4f4e434560881b602082015260400192915050565b6000615474602e83615cdb565b7f455243313135354d657461235f7472616e736665724761734665653a20554e5381526d2aa82827a92a22a22faa27a5a2a760911b602082015260400192915050565b61413c81615d10565b60006106fb82846141f2565b60006154d882866142f2565b91506154e482856142a0565b6020820191506154f482846142a0565b506020019392505050565b600061550b82866142f2565b915061551782856142a0565b602082019150610e0982846142f2565b6000615532826143b0565b915061553e82846142a0565b50602001919050565b602081016103808284614142565b60a081016155638288614133565b6155706020830187614142565b818103604083015261558281866141a4565b9050818103606083015261559681856141a4565b905081810360808301526155aa81846142ba565b979650505050505050565b60a081016155c38288614133565b6155d06020830187614142565b6155dd6040830186614297565b6155ea6060830185614297565b81810360808301526155aa81846142ba565b60a0810161560a8287614142565b6156176020830186614142565b818103604083015261562981856141a4565b9050818103606083015261563d81846141a4565b9050818103608083015261565081615225565b9695505050505050565b606081016156688286614142565b6156756020830185614142565b61083d6040830184614297565b60a081016155c38288614142565b60a0810161569e8287614142565b6156ab6020830186614142565b6156b86040830185614297565b6156c56060830184614297565b818103608083015261565081615225565b604081016156e48285614142565b6106fb6020830184614297565b60408082528101615702818561414b565b9050818103602083015261083d81846141a4565b602080825281016106fb81846141a4565b6040808252810161570281856141a4565b6060808252810161574981866141a4565b9050818103602083015261575d81856141a4565b90508181036040830152610e0981846141a4565b606080825281016157828186614240565b9050818103602083015261575d8185614240565b60208101610380828461428e565b604081016157b28285614297565b6106fb6020830184614142565b60c081016157cd8289614297565b6157da6020830188614142565b6157e76040830187614142565b6157f46060830186614297565b6158016080830185614297565b6155aa60a0830184614297565b60a0810161581c8288614297565b6158296020830187614142565b6158366040830186614142565b6158436060830185614297565b6156506080830184614297565b6040810161585e8285614297565b818103602083015261083d81846142ba565b6080810161587e8287614297565b61588b60208301866154b7565b6158986040830185614297565b610e096060830184614297565b6020810161038082846142b1565b604080825281016158c481856142ba565b9050818103602083015261083d81846142ba565b602080825281016103b781614321565b602080825281016103b781614363565b602080825281016103b7816143e9565b602080825281016103b781614436565b602080825281016103b78161448d565b602080825281016103b7816144da565b602080825281016103b781614533565b602080825281016103b781614592565b602080825281016103b7816145ed565b602080825281016103b781614645565b602080825281016103b78161469c565b602080825281016103b7816146fb565b602080825281016103b781614747565b602080825281016103b7816147b3565b602080825281016103b78161480d565b602080825281016103b78161485a565b602080825281016103b781614893565b602080825281016103b7816148e0565b602080825281016103b781614937565b602080825281016103b781614997565b602080825281016103b7816149e4565b602080825281016103b781614a39565b602080825281016103b781614a7f565b602080825281016103b781614ab1565b602080825281016103b781614af6565b602080825281016103b781614b3c565b602080825281016103b781614b91565b602080825281016103b781614bde565b602080825281016103b781614c3d565b602080825281016103b781614c8a565b602080825281016103b781614ce2565b602080825281016103b781614d24565b602080825281016103b781614d71565b602080825281016103b781614dc3565b602080825281016103b781614e15565b602080825281016103b781614e62565b602080825281016103b781614ea5565b602080825281016103b781614efb565b602080825281016103b781614f49565b602080825281016103b781614f9d565b602080825281016103b781614feb565b602080825281016103b78161502e565b602080825281016103b78161507f565b602080825281016103b7816150ce565b602080825281016103b78161511b565b602080825281016103b781615174565b602080825281016103b7816151c6565b602080825281016103b781615232565b602080825281016103b78161528e565b602080825281016103b7816152ed565b602080825281016103b78161534c565b602080825281016103b7816153ab565b602080825281016103b7816153dd565b602080825281016103b781615416565b602080825281016103b781615467565b602081016103808284614297565b604081016156e48285614297565b6040518181016001600160401b0381118282101715615c8257600080fd5b604052919050565b60006001600160401b03821115615ca057600080fd5b5060209081020190565b60006001600160401b03821115615cc057600080fd5b506020601f91909101601f19160190565b60200190565b5190565b90815260200190565b60006103b782615d04565b151590565b90565b6001600160e01b03191690565b6001600160a01b031690565b60ff1690565b60006103b78260006103b782615ce4565b82818337506000910152565b60005b83811015615d4e578181015183820152602001615d36565b83811115615d5d576000848401525b50505050565b601f01601f191690565b615d7681615ce4565b8114615d8157600080fd5b50565b615d7681615cef565b615d7681615cf4565b615d7681615cf756fe5369676e617475726556616c696461746f7223697356616c69645369676e61744e696674797377617045786368616e6765235f72656d6f76654c6971756964694e696674797377617045786368616e6765235f6164644c69717569646974793a4e696674797377617045786368616e6765236f6e455243313135354261746368a365627a7a72315820acbdbe748eda03932ea2a33d2ae08337564a202618c3e05d56f59f8568c9b7ee6c6578706572696d656e74616cf564736f6c63430005100040",
  "source": "pragma solidity ^0.5.16;\npragma experimental ABIEncoderV2;\n\nimport \"niftyswap/contracts/exchange/NiftyswapExchange.sol\";\n\ncontract NiftyswapV1 is NiftyswapExchange {\n  constructor(address _tokenAddr, address _baseTokenAddr, uint256 _baseTokenID) public NiftyswapExchange(_tokenAddr, _baseTokenAddr, _baseTokenID) {}\n}",
  "sourcePath": "/home/michael/Documents/Projects/horizon-games/SkyWeaver-contracts/contracts/mocks/NiftyswapV1.sol",
  "compiler": {
    "name": "solc",
    "version": "0.5.16+commit.9c3226ce.Emscripten.clang"
  },
  "schemaVersion": "3.1.0",
  "updatedAt": "2020-06-26T16:37:42.944Z",
  "devdoc": {
    "methods": {
      "balanceOf(address,uint256)": {
        "params": {
          "_id": "ID of the Token",
          "_owner": "The address of the token holder"
        },
        "return": "The _owner's balance of the Token type requested"
      },
      "balanceOfBatch(address[],uint256[])": {
        "params": {
          "_ids": "ID of the Tokens",
          "_owners": "The addresses of the token holders"
        },
        "return": "The _owner's balance of the Token types requested (i.e. balance for each (owner, id) pair)"
      },
      "getBuyPrice(uint256,uint256,uint256)": {
        "details": "Pricing function used for converting between currency token to Tokens.",
        "params": {
          "_assetBoughtAmount": "Amount of Tokens being bought.",
          "_assetBoughtReserve": "Amount of Tokens (output type) in exchange reserves.",
          "_assetSoldReserve": "Amount of currency tokens in exchange reserves."
        },
        "return": "Amount of currency tokens to send to Niftyswap."
      },
      "getCurrencyInfo()": {
        "return": "Address of the currency contract that is used as currency and its corresponding id"
      },
      "getCurrencyReserves(uint256[])": {
        "params": {
          "_ids": "Array of ID sto query currency reserve of"
        },
        "return": "amount of currency in reserve for each Token _id"
      },
      "getFactoryAddress()": {
        "return": "Address of factory that created this exchange."
      },
      "getNonce(address)": {
        "params": {
          "_signer": "Address to query signature nonce for"
        }
      },
      "getPrice_currencyToToken(uint256[],uint256[])": {
        "params": {
          "_ids": "Array of ID of tokens bought.",
          "_tokensBought": "Amount of Tokens bought."
        },
        "return": "Amount of currency needed to buy Tokens in _ids for amounts in _tokensBought"
      },
      "getPrice_tokenToCurrency(uint256[],uint256[])": {
        "params": {
          "_ids": "Array of IDs  token sold.",
          "_tokensSold": "Array of amount of each Token sold."
        },
        "return": "Amount of currency that can be bought for Tokens in _ids for amounts in _tokensSold"
      },
      "getSellPrice(uint256,uint256,uint256)": {
        "details": "Pricing function used for converting Tokens to currency token.",
        "params": {
          "_assetBoughtReserve": "Amount of currency tokens in exchange reserves.",
          "_assetSoldAmount": "Amount of Tokens being sold.",
          "_assetSoldReserve": "Amount of Tokens in exchange reserves."
        },
        "return": "Amount of currency tokens to receive from Niftyswap."
      },
      "getTokenAddress()": {
        "return": "Address of Token that is sold on this exchange."
      },
      "getTotalSupply(uint256[])": {
        "params": {
          "_ids": "ID of the Tokens"
        },
        "return": "The total supply of each liquidity token id provided in _ids"
      },
      "isApprovedForAll(address,address)": {
        "params": {
          "_operator": "Address of authorized operator",
          "_owner": "The owner of the Tokens"
        },
        "return": "True if the operator is approved, false if not"
      },
      "isValidSignature(address,bytes32,bytes,bytes)": {
        "details": "Verifies that a hash has been signed by the given signer.",
        "params": {
          "_data": "Full EIP-712 data structure that was hashed and signed",
          "_hash": "Hash of the EIP-712 encoded data",
          "_sig": "Proof that the hash has been signed by signer.     For non wallet signatures, _sig is expected to be an array tightly encoded as     (bytes32 r, bytes32 s, uint8 v, uint256 nonce, SignatureType sigType)",
          "_signerAddress": "Address that should have signed the given hash."
        },
        "return": "True if the address recovered from the provided signature matches the input signer address."
      },
      "metaSafeBatchTransferFrom(address,address,uint256[],uint256[],bool,bytes)": {
        "params": {
          "_amounts": "Transfer amounts per token type",
          "_data": "Encodes a meta transfer indicator, signature, gas payment receipt and extra transfer data  _data should be encoded as (  (bytes32 r, bytes32 s, uint8 v, uint256 nonce, SignatureType sigType),  (GasReceipt g, ?bytes transferData) )  i.e. high level encoding should be (bytes, bytes), where the latter bytes array is a nested bytes array",
          "_from": "Source addresses",
          "_ids": "IDs of each token type",
          "_isGasFee": "Whether gas is reimbursed to executor or not",
          "_to": "Target addresses"
        }
      },
      "metaSafeTransferFrom(address,address,uint256,uint256,bool,bytes)": {
        "params": {
          "_amount": "Transfered amount",
          "_data": "Encodes a meta transfer indicator, signature, gas payment receipt and extra transfer data  _data should be encoded as (  (bytes32 r, bytes32 s, uint8 v, uint256 nonce, SignatureType sigType),  (GasReceipt g, ?bytes transferData) )  i.e. high level encoding should be (bytes, bytes), where the latter bytes array is a nested bytes array",
          "_from": "Source address",
          "_id": "ID of the token type",
          "_isGasFee": "Whether gas is reimbursed to executor or not",
          "_to": "Target address"
        }
      },
      "metaSetApprovalForAll(address,address,bool,bool,bytes)": {
        "params": {
          "_approved": "True if the operator is approved, false to revoke approval",
          "_data": "Encodes signature and gas payment receipt  _data should be encoded as (    (bytes32 r, bytes32 s, uint8 v, uint256 nonce, SignatureType sigType),    (GasReceipt g)  )  i.e. high level encoding should be (bytes, bytes), where the latter bytes array is a nested bytes array",
          "_isGasFee": "Whether gas will be reimbursed or not, with vlid signature",
          "_operator": "Address to add to the set of authorized operators",
          "_owner": "Address that wants to set operator status  _spender"
        }
      },
      "onERC1155BatchReceived(address,address,uint256[],uint256[],bytes)": {
        "details": "`_data` must be encoded as follow: abi.encode(bytes4, MethodObj)  where bytes4 argument is the MethodObj object signature passed as defined  in the `Signatures for onReceive control logic` section above",
        "params": {
          "_amounts": "An array containing amounts of each Token being transferred",
          "_data": "Method signature and corresponding encoded arguments for method to call on *this* contract",
          "_from": "The address which previously owned the Token",
          "_ids": "An array containing ids of each Token being transferred"
        },
        "return": "bytes4(keccak256(\"onERC1155BatchReceived(address,address,uint256[],uint256[],bytes)\")"
      },
      "onERC1155Received(address,address,uint256,uint256,bytes)": {
        "details": "Will pass to onERC115Batch5Received"
      },
      "safeBatchTransferFrom(address,address,uint256[],uint256[],bytes)": {
        "params": {
          "_amounts": "Transfer amounts per token type",
          "_data": "Additional data with no specified format, sent in call to `_to`",
          "_from": "Source addresses",
          "_ids": "IDs of each token type",
          "_to": "Target addresses"
        }
      },
      "safeTransferFrom(address,address,uint256,uint256,bytes)": {
        "params": {
          "_amount": "Transfered amount",
          "_data": "Additional data with no specified format, sent in call to `_to`",
          "_from": "Source address",
          "_id": "ID of the token type",
          "_to": "Target address"
        }
      },
      "setApprovalForAll(address,bool)": {
        "params": {
          "_approved": "True if the operator is approved, false to revoke approval",
          "_operator": "Address to add to the set of authorized operators"
        }
      },
      "supportsInterface(bytes4)": {
        "details": "This function MUST return true if it implements the ERC1155TokenReceiver interface and ERC-165 interface.     This function MUST NOT consume more than 5,000 gas.",
        "params": {
          "interfaceID": "The ERC-165 interface ID that is queried for support.s"
        },
        "return": "Wheter ERC-165 or ERC1155TokenReceiver interfaces are supported."
      }
    }
  },
  "userdoc": {
    "methods": {
      "balanceOf(address,uint256)": {
        "notice": "Get the balance of an account's Tokens"
      },
      "balanceOfBatch(address[],uint256[])": {
        "notice": "Get the balance of multiple account/token pairs"
      },
      "getCurrencyReserves(uint256[])": {
        "notice": "Get amount of currency in reserve for each Token _id in _ids"
      },
      "getNonce(address)": {
        "notice": "Returns the current nonce associated with a given address"
      },
      "getPrice_currencyToToken(uint256[],uint256[])": {
        "notice": "Return price for `currency => Token _id` trades with an exact token amount."
      },
      "getPrice_tokenToCurrency(uint256[],uint256[])": {
        "notice": "Return price for `Token _id => currency` trades with an exact token amount."
      },
      "getTotalSupply(uint256[])": {
        "notice": "Get total supply of liquidity tokens"
      },
      "isApprovedForAll(address,address)": {
        "notice": "Queries the approval status of an operator for a given owner"
      },
      "metaSafeBatchTransferFrom(address,address,uint256[],uint256[],bool,bytes)": {
        "notice": "Allows anyone with a valid signature to transfer multiple types of tokens on the bahalf of _from"
      },
      "metaSafeTransferFrom(address,address,uint256,uint256,bool,bytes)": {
        "notice": "Allows anyone with a valid signature to transfer _amount amount of a token _id on the bahalf of _from"
      },
      "metaSetApprovalForAll(address,address,bool,bool,bytes)": {
        "notice": "Approve the passed address to spend on behalf of _from if valid signature is provided"
      },
      "onERC1155BatchReceived(address,address,uint256[],uint256[],bytes)": {
        "notice": "Handle which method is being called on transfer"
      },
      "safeBatchTransferFrom(address,address,uint256[],uint256[],bytes)": {
        "notice": "Send multiple types of Tokens from the _from address to the _to address (with safety call)"
      },
      "safeTransferFrom(address,address,uint256,uint256,bytes)": {
        "notice": "Transfers amount amount of an _id from the _from address to the _to address specified"
      },
      "setApprovalForAll(address,bool)": {
        "notice": "Enable or disable approval for a third party (\"operator\") to manage all of caller's tokens"
      },
      "supportsInterface(bytes4)": {
        "notice": "Indicates whether a contract implements the `ERC1155TokenReceiver` functions and so can accept ERC1155 token types."
      }
    }
  }
}