{
  "contractName": "OwnedTxnAggregator",
  "abi": [
    {
      "anonymous": false,
      "inputs": [
        {
          "indexed": false,
          "internalType": "uint256",
          "name": "tx_id",
          "type": "uint256"
        },
        {
          "indexed": false,
          "internalType": "bytes",
          "name": "error",
          "type": "bytes"
        }
      ],
      "name": "Error",
      "type": "event"
    },
    {
      "anonymous": false,
      "inputs": [
        {
          "indexed": true,
          "internalType": "address",
          "name": "previousOwner",
          "type": "address"
        },
        {
          "indexed": true,
          "internalType": "address",
          "name": "newOwner",
          "type": "address"
        }
      ],
      "name": "OwnershipTransferred",
      "type": "event"
    },
    {
      "constant": true,
      "inputs": [],
      "name": "getOwner",
      "outputs": [
        {
          "internalType": "address",
          "name": "",
          "type": "address"
        }
      ],
      "payable": false,
      "stateMutability": "view",
      "type": "function"
    },
    {
      "constant": false,
      "inputs": [
        {
          "internalType": "address",
          "name": "_newOwner",
          "type": "address"
        }
      ],
      "name": "transferOwnership",
      "outputs": [],
      "payable": false,
      "stateMutability": "nonpayable",
      "type": "function"
    },
    {
      "constant": false,
      "inputs": [
        {
          "components": [
            {
              "internalType": "address",
              "name": "dest",
              "type": "address"
            },
            {
              "internalType": "bytes",
              "name": "data",
              "type": "bytes"
            }
          ],
          "internalType": "struct OwnedTxnAggregator.ContractCall[]",
          "name": "_txns",
          "type": "tuple[]"
        },
        {
          "internalType": "bool",
          "name": "_revert",
          "type": "bool"
        }
      ],
      "name": "executeTxns",
      "outputs": [],
      "payable": false,
      "stateMutability": "nonpayable",
      "type": "function"
    },
    {
      "constant": false,
      "inputs": [
        {
          "internalType": "address",
          "name": "_contract",
          "type": "address"
        },
        {
          "internalType": "bytes[]",
          "name": "_txns",
          "type": "bytes[]"
        },
        {
          "internalType": "bool",
          "name": "_revert",
          "type": "bool"
        }
      ],
      "name": "singleContract_executeTxns",
      "outputs": [],
      "payable": false,
      "stateMutability": "nonpayable",
      "type": "function"
    },
    {
      "constant": true,
      "inputs": [
        {
          "components": [
            {
              "internalType": "address",
              "name": "dest",
              "type": "address"
            },
            {
              "internalType": "bytes",
              "name": "data",
              "type": "bytes"
            }
          ],
          "internalType": "struct OwnedTxnAggregator.ContractCall[]",
          "name": "_txns",
          "type": "tuple[]"
        }
      ],
      "name": "viewTxns",
      "outputs": [
        {
          "internalType": "bytes[]",
          "name": "",
          "type": "bytes[]"
        }
      ],
      "payable": false,
      "stateMutability": "view",
      "type": "function"
    }
  ],
  "bytecode": "0x60806040819052600080546001600160a01b03191633178082556001600160a01b0316917f8be0079c531659141344cd1fd0a4f28419497f9722a3daafe3b4186f6b6457e0908290a3610ab0806100576000396000f3fe608060405234801561001057600080fd5b50600436106100575760003560e01c8063405a58ca1461005c57806349af69da14610071578063893d20e814610084578063ab630d7c146100a2578063f2fde38b146100c2575b600080fd5b61006f61006a3660046106d2565b6100d5565b005b61006f61007f36600461077e565b61023d565b61008c6103f1565b6040516100999190610964565b60405180910390f35b6100b56100b036600461073c565b610400565b6040516100999190610972565b61006f6100d03660046106ac565b6105a9565b6000546001600160a01b031633146101085760405162461bcd60e51b81526004016100ff906109a4565b60405180910390fd5b60005b828110156102365760006060866001600160a01b031686868581811061012d57fe5b602002820190508035601e193684900301811261014957600080fd5b9091016020810191503567ffffffffffffffff81111561016857600080fd5b3681900382131561017857600080fd5b604051610186929190610957565b6000604051808303816000865af19150503d80600081146101c3576040519150601f19603f3d011682016040523d82523d6000602084013e6101c8565b606091505b50915091508161022c5783156101f2578060405162461bcd60e51b81526004016100ff9190610983565b7f23c750491cd24c6992996cb270fa0e629e9de3b597588f71e9e362cdb0b8af8d83826040516102239291906109b4565b60405180910390a15b505060010161010b565b5050505050565b6000546001600160a01b031633146102675760405162461bcd60e51b81526004016100ff906109a4565b60005b828110156103eb576000606085858481811061028257fe5b602002820190508035603e193684900301811261029e57600080fd5b6102ae92016020810191506106ac565b6001600160a01b03168686858181106102c357fe5b602002820190508035603e19368490030181126102df57600080fd5b919091019050602081018035601e19368490030181126102fe57600080fd5b9091016020810191503567ffffffffffffffff81111561031d57600080fd5b3681900382131561032d57600080fd5b60405161033b929190610957565b6000604051808303816000865af19150503d8060008114610378576040519150601f19603f3d011682016040523d82523d6000602084013e61037d565b606091505b5091509150816103e15783156103a7578060405162461bcd60e51b81526004016100ff9190610983565b7f23c750491cd24c6992996cb270fa0e629e9de3b597588f71e9e362cdb0b8af8d83826040516103d89291906109b4565b60405180910390a15b505060010161026a565b50505050565b6000546001600160a01b031690565b6000546060906001600160a01b0316331461042d5760405162461bcd60e51b81526004016100ff906109a4565b604080518381526020808502820101909152600090839060609082801561046857816020015b60608152602001906001900390816104535790505b50905060005b8281101561059f5786868281811061048257fe5b602002820190508035603e193684900301811261049e57600080fd5b6104ae92016020810191506106ac565b6001600160a01b03168787838181106104c357fe5b602002820190508035603e19368490030181126104df57600080fd5b919091019050602081018035601e19368490030181126104fe57600080fd5b9091016020810191503567ffffffffffffffff81111561051d57600080fd5b3681900382131561052d57600080fd5b60405161053b929190610957565b600060405180830381855afa9150503d8060008114610576576040519150601f19603f3d011682016040523d82523d6000602084013e61057b565b606091505b50835184908490811061058a57fe5b6020908102919091010152935060010161046e565b5050505092915050565b6000546001600160a01b031633146105d35760405162461bcd60e51b81526004016100ff906109a4565b6001600160a01b0381166105f95760405162461bcd60e51b81526004016100ff90610994565b600080546001600160a01b0319166001600160a01b0383811691821780845560405192939116917f8be0079c531659141344cd1fd0a4f28419497f9722a3daafe3b4186f6b6457e09190a350565b803561065281610a4d565b92915050565b60008083601f84011261066a57600080fd5b50813567ffffffffffffffff81111561068257600080fd5b60208301915083602082028301111561069a57600080fd5b9250929050565b803561065281610a64565b6000602082840312156106be57600080fd5b60006106ca8484610647565b949350505050565b600080600080606085870312156106e857600080fd5b60006106f48787610647565b945050602085013567ffffffffffffffff81111561071157600080fd5b61071d87828801610658565b93509350506040610730878288016106a1565b91505092959194509250565b6000806020838503121561074f57600080fd5b823567ffffffffffffffff81111561076657600080fd5b61077285828601610658565b92509250509250929050565b60008060006040848603121561079357600080fd5b833567ffffffffffffffff8111156107aa57600080fd5b6107b686828701610658565b935093505060206107c9868287016106a1565b9150509250925092565b60006107df8383610882565b9392505050565b6107ef816109ec565b82525050565b6000610800826109da565b61080a81856109de565b93508360208202850161081c856109d4565b8060005b85811015610856578484038952815161083985826107d3565b9450610844836109d4565b60209a909a0199925050600101610820565b5091979650505050505050565b600061086f83856109e7565b935061087c838584610a0b565b50500190565b600061088d826109da565b61089781856109de565b93506108a7818560208601610a17565b6108b081610a43565b9093019392505050565b60006108c7602a836109de565b7f4f776e61626c65237472616e736665724f776e6572736869703a20494e56414c81526949445f4144445245535360b01b602082015260400192915050565b60006109136026836109de565b7f4f776e61626c65236f6e6c794f776e65723a2053454e4445525f49535f4e4f548152652fa7aba722a960d11b602082015260400192915050565b6107ef81610a08565b60006106ca828486610863565b6020810161065282846107e6565b602080825281016107df81846107f5565b602080825281016107df8184610882565b60208082528101610652816108ba565b6020808252810161065281610906565b604081016109c2828561094e565b81810360208301526106ca8184610882565b60200190565b5190565b90815260200190565b919050565b6000610652826109fc565b151590565b6001600160a01b031690565b90565b82818337506000910152565b60005b83811015610a32578181015183820152602001610a1a565b838111156103eb5750506000910152565b601f01601f191690565b610a56816109ec565b8114610a6157600080fd5b50565b610a56816109f756fea365627a7a72315820c12d6797b416502fb45e4d7442652baeb4929185cf1805138e628dfc81796fe76c6578706572696d656e74616cf564736f6c63430005100040",
  "source": "pragma solidity ^0.5.16;\npragma experimental ABIEncoderV2;\n\nimport \"./Ownable.sol\";\n\n/**\n * This is a contract allowing to batch execute contract calls or\n * contract queries.\n * only owner callable\n */\ncontract OwnedTxnAggregator is Ownable {\n\n  /*\n  * TO DO:\n  *   - Put into seperate repo\n  */\n\n  struct ContractCall {\n    address dest; // Contract to call\n    bytes data;   // Calldata to pass to contract\n  }\n\n  /***********************************|\n  |         BATCH TRANSACTIONS        |\n  |__________________________________*/\n\n  event Error(uint256 tx_id, bytes error);\n\n  /**\n   * @notice Will execute transactions with possibly different contracts\n   * @param _txns    ContractCall struct array containing all the txns and target contract\n   * @param _revert  To revert if a txn fail or to log the error\n   */\n  function executeTxns(ContractCall[] calldata _txns, bool _revert) external onlyOwner{\n    // Execute all txns\n    for (uint256 i = 0; i < _txns.length; i++) {\n      (bool success, bytes memory resp) = _txns[i].dest.call(_txns[i].data);\n      if (!success) {\n        // Will either revert on error or log it\n        if (_revert) {\n          revert(string(resp));\n        } else {\n          emit Error(i, resp);\n        }\n      }\n    }\n  }\n\n  /**\n   * @notice Will execute transactions calling _contract\n   * @param _contract Target contract that txns are calling\n   * @param _txns     Array containing encoded function calls to _contract\n   * @param _revert   To revert if a txn fail or to log the error\n   */\n  function singleContract_executeTxns(address _contract, bytes[] calldata _txns, bool _revert) external onlyOwner{\n    // Execute all txns\n    for (uint256 i = 0; i < _txns.length; i++) {\n      (bool success, bytes memory resp) = _contract.call(_txns[i]);\n      if (!success) {\n        // Will either revert on error or log it\n        if (_revert) {\n          revert(string(resp));\n        } else {\n          emit Error(i, resp);\n        }\n      }\n    }\n  }\n\n  /***********************************|\n  |           BATCH QUERIES           |\n  |__________________________________*/\n\n  /**\n   * @notice Will call functions to retrieve data calling _contract\n   * @param _txns ContractCall struct array containing all the queries data and target contract\n   */\n  function viewTxns(ContractCall[] calldata _txns) external view onlyOwner returns (bytes[] memory) {\n    // Declaration\n    bool success;\n    uint256 n_txns = _txns.length;\n    bytes[] memory responses = new bytes[](n_txns);\n\n    // Execute all txns\n    for (uint256 i = 0; i < n_txns; i++) {\n      (success, responses[i]) = _txns[i].dest.staticcall(_txns[i].data);\n    }\n  }\n}\n\n",
  "sourcePath": "/home/michael/Documents/Projects/horizon-games/SkyWeaver-contracts/contracts/utils/OwnedTxnAggregator.sol",
  "compiler": {
    "name": "solc",
    "version": "0.5.16+commit.9c3226ce.Emscripten.clang"
  },
  "schemaVersion": "3.1.0",
  "updatedAt": "2020-06-26T16:37:43.001Z",
  "devdoc": {
    "methods": {
      "executeTxns((address,bytes)[],bool)": {
        "params": {
          "_revert": "To revert if a txn fail or to log the error",
          "_txns": "ContractCall struct array containing all the txns and target contract"
        }
      },
      "singleContract_executeTxns(address,bytes[],bool)": {
        "params": {
          "_contract": "Target contract that txns are calling",
          "_revert": "To revert if a txn fail or to log the error",
          "_txns": "Array containing encoded function calls to _contract"
        }
      },
      "transferOwnership(address)": {
        "params": {
          "_newOwner": "Address of the new owner"
        }
      },
      "viewTxns((address,bytes)[])": {
        "params": {
          "_txns": "ContractCall struct array containing all the queries data and target contract"
        }
      }
    }
  },
  "userdoc": {
    "methods": {
      "executeTxns((address,bytes)[],bool)": {
        "notice": "Will execute transactions with possibly different contracts"
      },
      "getOwner()": {
        "notice": "Returns the address of the owner."
      },
      "singleContract_executeTxns(address,bytes[],bool)": {
        "notice": "Will execute transactions calling _contract"
      },
      "transferOwnership(address)": {
        "notice": "Transfers the ownership of the contract to new address"
      },
      "viewTxns((address,bytes)[])": {
        "notice": "Will call functions to retrieve data calling _contract"
      }
    },
    "notice": "This is a contract allowing to batch execute contract calls or contract queries. only owner callable"
  }
}