{
  "contractName": "SilverCardsFactory",
  "abi": [
    {
      "inputs": [
        {
          "internalType": "address",
          "name": "_factoryManagerAddr",
          "type": "address"
        },
        {
          "internalType": "address",
          "name": "_arcadeumCoinAddr",
          "type": "address"
        },
        {
          "internalType": "uint256",
          "name": "_arcadeumCoinID",
          "type": "uint256"
        },
        {
          "internalType": "uint256",
          "name": "_cardPrice",
          "type": "uint256"
        }
      ],
      "payable": false,
      "stateMutability": "nonpayable",
      "type": "constructor"
    },
    {
      "anonymous": false,
      "inputs": [
        {
          "indexed": false,
          "internalType": "uint256",
          "name": "oldPrice",
          "type": "uint256"
        },
        {
          "indexed": false,
          "internalType": "uint256",
          "name": "newPrice",
          "type": "uint256"
        }
      ],
      "name": "CardPriceChange",
      "type": "event"
    },
    {
      "anonymous": false,
      "inputs": [
        {
          "indexed": true,
          "internalType": "address",
          "name": "recipient",
          "type": "address"
        },
        {
          "indexed": false,
          "internalType": "uint256[]",
          "name": "tokensBoughtIds",
          "type": "uint256[]"
        },
        {
          "indexed": false,
          "internalType": "uint256[]",
          "name": "tokensBoughtAmounts",
          "type": "uint256[]"
        },
        {
          "indexed": false,
          "internalType": "uint256",
          "name": "totalCost",
          "type": "uint256"
        }
      ],
      "name": "CardsPurchased",
      "type": "event"
    },
    {
      "anonymous": false,
      "inputs": [
        {
          "indexed": false,
          "internalType": "uint256[]",
          "name": "ids",
          "type": "uint256[]"
        }
      ],
      "name": "IDsDeregistration",
      "type": "event"
    },
    {
      "anonymous": false,
      "inputs": [
        {
          "indexed": false,
          "internalType": "uint256[]",
          "name": "ids",
          "type": "uint256[]"
        }
      ],
      "name": "IDsRegistration",
      "type": "event"
    },
    {
      "anonymous": false,
      "inputs": [
        {
          "indexed": true,
          "internalType": "address",
          "name": "previousOwner",
          "type": "address"
        },
        {
          "indexed": true,
          "internalType": "address",
          "name": "newOwner",
          "type": "address"
        }
      ],
      "name": "OwnershipTransferred",
      "type": "event"
    },
    {
      "payable": false,
      "stateMutability": "nonpayable",
      "type": "fallback"
    },
    {
      "constant": true,
      "inputs": [],
      "name": "getOwner",
      "outputs": [
        {
          "internalType": "address",
          "name": "",
          "type": "address"
        }
      ],
      "payable": false,
      "stateMutability": "view",
      "type": "function"
    },
    {
      "constant": false,
      "inputs": [
        {
          "internalType": "address",
          "name": "_newOwner",
          "type": "address"
        }
      ],
      "name": "transferOwnership",
      "outputs": [],
      "payable": false,
      "stateMutability": "nonpayable",
      "type": "function"
    },
    {
      "constant": false,
      "inputs": [
        {
          "internalType": "uint256[]",
          "name": "_ids",
          "type": "uint256[]"
        }
      ],
      "name": "registerIDs",
      "outputs": [],
      "payable": false,
      "stateMutability": "nonpayable",
      "type": "function"
    },
    {
      "constant": false,
      "inputs": [
        {
          "internalType": "uint256[]",
          "name": "_ids",
          "type": "uint256[]"
        }
      ],
      "name": "deregisterIDs",
      "outputs": [],
      "payable": false,
      "stateMutability": "nonpayable",
      "type": "function"
    },
    {
      "constant": false,
      "inputs": [
        {
          "internalType": "uint256",
          "name": "_newPrice",
          "type": "uint256"
        }
      ],
      "name": "updateCardPrice",
      "outputs": [],
      "payable": false,
      "stateMutability": "nonpayable",
      "type": "function"
    },
    {
      "constant": false,
      "inputs": [
        {
          "internalType": "address",
          "name": "_recipient",
          "type": "address"
        }
      ],
      "name": "withdraw",
      "outputs": [],
      "payable": false,
      "stateMutability": "nonpayable",
      "type": "function"
    },
    {
      "constant": false,
      "inputs": [
        {
          "internalType": "address",
          "name": "",
          "type": "address"
        },
        {
          "internalType": "address",
          "name": "_from",
          "type": "address"
        },
        {
          "internalType": "uint256",
          "name": "_id",
          "type": "uint256"
        },
        {
          "internalType": "uint256",
          "name": "_amount",
          "type": "uint256"
        },
        {
          "internalType": "bytes",
          "name": "_data",
          "type": "bytes"
        }
      ],
      "name": "onERC1155Received",
      "outputs": [
        {
          "internalType": "bytes4",
          "name": "",
          "type": "bytes4"
        }
      ],
      "payable": false,
      "stateMutability": "nonpayable",
      "type": "function"
    },
    {
      "constant": false,
      "inputs": [
        {
          "internalType": "address",
          "name": "_operator",
          "type": "address"
        },
        {
          "internalType": "address",
          "name": "_from",
          "type": "address"
        },
        {
          "internalType": "uint256[]",
          "name": "_ids",
          "type": "uint256[]"
        },
        {
          "internalType": "uint256[]",
          "name": "_amounts",
          "type": "uint256[]"
        },
        {
          "internalType": "bytes",
          "name": "_data",
          "type": "bytes"
        }
      ],
      "name": "onERC1155BatchReceived",
      "outputs": [
        {
          "internalType": "bytes4",
          "name": "",
          "type": "bytes4"
        }
      ],
      "payable": false,
      "stateMutability": "nonpayable",
      "type": "function"
    },
    {
      "constant": true,
      "inputs": [
        {
          "internalType": "uint256[]",
          "name": "_ids",
          "type": "uint256[]"
        }
      ],
      "name": "getPurchasableStatus",
      "outputs": [
        {
          "internalType": "bool[]",
          "name": "",
          "type": "bool[]"
        }
      ],
      "payable": false,
      "stateMutability": "view",
      "type": "function"
    },
    {
      "constant": true,
      "inputs": [],
      "name": "getFactoryManager",
      "outputs": [
        {
          "internalType": "address",
          "name": "",
          "type": "address"
        }
      ],
      "payable": false,
      "stateMutability": "view",
      "type": "function"
    },
    {
      "constant": true,
      "inputs": [],
      "name": "getArcadeumCoin",
      "outputs": [
        {
          "internalType": "address",
          "name": "",
          "type": "address"
        }
      ],
      "payable": false,
      "stateMutability": "view",
      "type": "function"
    },
    {
      "constant": true,
      "inputs": [],
      "name": "getArcadeumCoinID",
      "outputs": [
        {
          "internalType": "uint256",
          "name": "",
          "type": "uint256"
        }
      ],
      "payable": false,
      "stateMutability": "view",
      "type": "function"
    },
    {
      "constant": true,
      "inputs": [],
      "name": "getCardPrice",
      "outputs": [
        {
          "internalType": "uint256",
          "name": "",
          "type": "uint256"
        }
      ],
      "payable": false,
      "stateMutability": "view",
      "type": "function"
    },
    {
      "constant": true,
      "inputs": [
        {
          "internalType": "bytes4",
          "name": "interfaceID",
          "type": "bytes4"
        }
      ],
      "name": "supportsInterface",
      "outputs": [
        {
          "internalType": "bool",
          "name": "",
          "type": "bool"
        }
      ],
      "payable": false,
      "stateMutability": "view",
      "type": "function"
    }
  ],
  "bytecode": "0x60806040523480156200001157600080fd5b5060405162001a7c38038062001a7c833981016040819052620000349162000177565b600080546001600160a01b03191633178082556040516001600160a01b039190911691907f8be0079c531659141344cd1fd0a4f28419497f9722a3daafe3b4186f6b6457e0908290a36001600160a01b038416158015906200009e57506001600160a01b03831615155b8015620000ae57506305f5e10081115b620000d65760405162461bcd60e51b8152600401620000cd9062000274565b60405180910390fd5b600180546001600160a01b038087166001600160a01b0319928316179092556002805492861692909116919091179055600382905560048190556040517f269fb7a920993ac9f1eb4a4c8c7740e8951262fb1e1f8c685a4128b27a96ebc890620001459060009084906200024e565b60405180910390a150505050620002d6565b80516200016481620002b1565b92915050565b80516200016481620002cb565b600080600080608085870312156200018e57600080fd5b60006200019c878762000157565b9450506020620001af8782880162000157565b9350506040620001c2878288016200016a565b9250506060620001d5878288016200016a565b91505092959194509250565b620001ec81620002a4565b82525050565b600062000201602d8362000286565b7f53696c7665724361726473466163746f727923636f6e7374727563746f723a2081526c1253959053125117d253941555609a1b602082015260400192915050565b620001ec81620002a1565b604081016200025e8285620001e1565b6200026d602083018462000243565b9392505050565b602080825281016200016481620001f2565b90815260200190565b60006001600160a01b03821662000164565b90565b60006200016482620002a1565b620002bc816200028f565b8114620002c857600080fd5b50565b620002bc81620002a1565b61179680620002e66000396000f3fe608060405234801561001057600080fd5b50600436106100ea5760003560e01c806379fd22151161008c578063d79d63be11610066578063d79d63be146101e7578063f23a6e61146101fc578063f2fde38b1461020f578063f5fdcfdc14610222576100ea565b806379fd2215146101ac578063893d20e8146101bf578063bc197c81146101c7576100ea565b80632e455801116100c85780632e4558011461015157806351cff8d91461016657806360e2d615146101795780637141f0ad14610199576100ea565b806301ffc9a71461010b5780630ed73b47146101345780631aab684214610149575b60405162461bcd60e51b8152600401610102906115b3565b60405180910390fd5b61011e610119366004610ea7565b61022a565b60405161012b9190611567565b60405180910390f35b61013c610261565b60405161012b9190611447565b61013c610270565b61016461015f366004610efa565b61027f565b005b610164610174366004610d2b565b61030c565b61018c610187366004610e65565b61044e565b60405161012b9190611510565b6101646101a7366004610e65565b6104ec565b6101646101ba366004610e65565b6105a1565b61013c61064a565b6101da6101d5366004610d51565b610659565b60405161012b9190611575565b6101ef6106f2565b60405161012b9190611653565b6101da61020a366004610e0e565b6106f8565b61016461021d366004610d2b565b6107ab565b6101ef610849565b60006301ffc9a760e01b6001600160e01b03198316148061025b5750630271189760e51b6001600160e01b03198316145b92915050565b6002546001600160a01b031690565b6001546001600160a01b031690565b6000546001600160a01b031633146102a95760405162461bcd60e51b815260040161010290611633565b6305f5e10081116102cc5760405162461bcd60e51b815260040161010290611593565b7f269fb7a920993ac9f1eb4a4c8c7740e8951262fb1e1f8c685a4128b27a96ebc8600454826040516102ff929190611661565b60405180910390a1600455565b6000546001600160a01b031633146103365760405162461bcd60e51b815260040161010290611633565b6001600160a01b03811661035c5760405162461bcd60e51b815260040161010290611623565b600254600354604051627eeac760e11b81526000926001600160a01b03169162fdd58e9161038e9130916004016114f5565b60206040518083038186803b1580156103a657600080fd5b505afa1580156103ba573d6000803e3d6000fd5b505050506040513d601f19601f820116820180604052506103de9190810190610f18565b600254600354604051637921219560e11b81529293506001600160a01b039091169163f242432a9161041891309187918790600401611455565b600060405180830381600087803b15801561043257600080fd5b505af1158015610446573d6000803e3d6000fd5b505050505050565b6040805182815260208084028201019091526060908290829082801561047e578160200160208202803883390190505b50905060005b828110156104e3576005600087878481811061049c57fe5b90506020020135815260200190815260200160002060009054906101000a900460ff168282815181106104cb57fe5b91151560209283029190910190910152600101610484565b50949350505050565b6000546001600160a01b031633146105165760405162461bcd60e51b815260040161010290611633565b60005b818110156105635760006005600085858581811061053357fe5b60209081029290920135835250810191909152604001600020805460ff1916911515919091179055600101610519565b507f9325b2ccabc86421ee926d519dfcb39be278f69994bc41d7f1e9aca206d462c58282604051610595929190611521565b60405180910390a15050565b6000546001600160a01b031633146105cb5760405162461bcd60e51b815260040161010290611633565b60005b81811015610618576001600560008585858181106105e857fe5b60209081029290920135835250810191909152604001600020805460ff19169115159190911790556001016105ce565b507fbbc922d5dddf6a6f1d736140ea2d340a9b979f9e9810131e15e7b74dac1639648282604051610595929190611521565b6000546001600160a01b031690565b6000835160011461067c5760405162461bcd60e51b8152600401610102906115f3565b6106b186868660008151811061068e57fe5b6020026020010151866000815181106106a357fe5b6020026020010151866106f8565b6001600160e01b03191663f23a6e6160e01b146106e05760405162461bcd60e51b815260040161010290611613565b5063bc197c8160e01b95945050505050565b60045490565b6002546000906001600160a01b031633146107255760405162461bcd60e51b815260040161010290611583565b60035484146107465760405162461bcd60e51b8152600401610102906115a3565b61074e610ab8565b828060200190516107629190810190610ec5565b80519091506000906001600160a01b03161561077f578151610781565b865b905061079782602001518360400151878461084f565b5063f23a6e6160e01b979650505050505050565b6000546001600160a01b031633146107d55760405162461bcd60e51b815260040161010290611633565b6001600160a01b0381166107fb5760405162461bcd60e51b8152600401610102906115e3565b600080546001600160a01b0319166001600160a01b0383811691821780845560405192939116917f8be0079c531659141344cd1fd0a4f28419497f9722a3daafe3b4186f6b6457e09190a350565b60035490565b83516000805b828110156108d7576005600088838151811061086d57fe5b60209081029190910181015182528101919091526040016000205460ff166108a75760405162461bcd60e51b8152600401610102906115d3565b6108cd8682815181106108b657fe5b602002602001015183610a2a90919063ffffffff16565b9150600101610855565b5060006108ef60045483610a5690919063ffffffff16565b90506000610903868363ffffffff610a9016565b9050801561097557600254600354604051637921219560e11b81526001600160a01b039092169163f242432a916109429130918a918790600401611455565b600060405180830381600087803b15801561095c57600080fd5b505af1158015610970573d6000803e3d6000fd5b505050505b600154604051635a455c5b60e11b81526001600160a01b039091169063b48ab8b6906109a99088908c908c906004016114a5565b600060405180830381600087803b1580156109c357600080fd5b505af11580156109d7573d6000803e3d6000fd5b50505050846001600160a01b03167f360f57a539293c9f7f19f8b3529087f5366bfa980d020e3ec6da8189ad206e96898985604051610a1893929190611533565b60405180910390a25050505050505050565b600082820183811015610a4f5760405162461bcd60e51b815260040161010290611643565b9392505050565b600082610a655750600061025b565b82820282848281610a7257fe5b0414610a4f5760405162461bcd60e51b815260040161010290611603565b600082821115610ab25760405162461bcd60e51b8152600401610102906115c3565b50900390565b604051806060016040528060006001600160a01b0316815260200160608152602001606081525090565b803561025b8161172a565b805161025b8161172a565b60008083601f840112610b0a57600080fd5b50813567ffffffffffffffff811115610b2257600080fd5b602083019150836020820283011115610b3a57600080fd5b9250929050565b600082601f830112610b5257600080fd5b8151610b65610b6082611696565b61166f565b91508181835260208401935060208101905083856020840282011115610b8a57600080fd5b60005b83811015610bb65781610ba08882610d20565b8452506020928301929190910190600101610b8d565b5050505092915050565b600082601f830112610bd157600080fd5b8135610bdf610b6082611696565b91508181835260208401935060208101905083856020840282011115610c0457600080fd5b60005b83811015610bb65781610c1a8882610d15565b8452506020928301929190910190600101610c07565b803561025b81611741565b600082601f830112610c4c57600080fd5b8135610c5a610b60826116b7565b91508082526020830160208301858383011115610c7657600080fd5b610c8183828461171e565b50505092915050565b600060608284031215610c9c57600080fd5b610ca6606061166f565b90506000610cb48484610aed565b825250602082015167ffffffffffffffff811115610cd157600080fd5b610cdd84828501610b41565b602083015250604082015167ffffffffffffffff811115610cfd57600080fd5b610d0984828501610b41565b60408301525092915050565b803561025b8161174a565b805161025b8161174a565b600060208284031215610d3d57600080fd5b6000610d498484610ae2565b949350505050565b600080600080600060a08688031215610d6957600080fd5b6000610d758888610ae2565b9550506020610d8688828901610ae2565b945050604086013567ffffffffffffffff811115610da357600080fd5b610daf88828901610bc0565b935050606086013567ffffffffffffffff811115610dcc57600080fd5b610dd888828901610bc0565b925050608086013567ffffffffffffffff811115610df557600080fd5b610e0188828901610c3b565b9150509295509295909350565b600080600080600060a08688031215610e2657600080fd5b6000610e328888610ae2565b9550506020610e4388828901610ae2565b9450506040610e5488828901610d15565b9350506060610dd888828901610d15565b60008060208385031215610e7857600080fd5b823567ffffffffffffffff811115610e8f57600080fd5b610e9b85828601610af8565b92509250509250929050565b600060208284031215610eb957600080fd5b6000610d498484610c30565b600060208284031215610ed757600080fd5b815167ffffffffffffffff811115610eee57600080fd5b610d4984828501610c8a565b600060208284031215610f0c57600080fd5b6000610d498484610d15565b600060208284031215610f2a57600080fd5b6000610d498484610d20565b6000610f428383611045565b505060200190565b6000610f42838361143e565b610f5f816116f2565b82525050565b6000610f70826116e5565b610f7a81856116e9565b9350610f85836116df565b8060005b83811015610fb3578151610f9d8882610f36565b9750610fa8836116df565b925050600101610f89565b509495945050505050565b6000610fca83856116e9565b93506001600160fb1b03831115610fe057600080fd5b602083029250610ff183858461171e565b50500190565b6000611002826116e5565b61100c81856116e9565b9350611017836116df565b8060005b83811015610fb357815161102f8882610f4a565b975061103a836116df565b92505060010161101b565b610f5f816116fd565b610f5f81611702565b60006110646039836116e9565b7f53696c7665724361726473466163746f7279236f6e455243313135355265636581527f697665643a20494e56414c49445f4152435f4144445245535300000000000000602082015260400192915050565b60006110c36031836116e9565b7f53696c7665724361726473466163746f7279237570646174654361726450726981527063653a20494e56414c49445f505249434560781b602082015260400192915050565b60006111166034836116e9565b7f53696c7665724361726473466163746f7279236f6e45524331313535526563658152731a5d99590e881253959053125117d05490d7d25160621b602082015260400192915050565b600061116c6012836116e9565b71155394d5541413d495115117d351551213d160721b815260200192915050565b600061119a6017836116e9565b7f536166654d617468237375623a20554e444552464c4f57000000000000000000815260200192915050565b60006111d3602b836116e9565b7f53696c7665724361726473466163746f7279235f6275793a2049445f4e4f545f81526a5055524348415341424c4560a81b602082015260400192915050565b6000611220602a836116e9565b7f4f776e61626c65237472616e736665724f776e6572736869703a20494e56414c81526949445f4144445245535360b01b602082015260400192915050565b600061126c6041836116e9565b7f53696c7665724361726473466163746f7279236f6e455243313135354261746381527f6852656365697665643a20494e56414c49445f42415443485f5452414e5346456020820152602960f91b604082015260600192915050565b60006112d56016836116e9565b75536166654d617468236d756c3a204f564552464c4f5760501b815260200192915050565b60006113076045836116e9565b7f53696c7665724361726473466163746f7279236f6e455243313135354261746381527f6852656365697665643a20494e56414c49445f4f4e52454345495645445f4d45602082015264535341474560d81b604082015260600192915050565b6000611374602e836116e9565b7f53696c7665724361726473466163746f72792377697468647261773a20494e5681526d1053125117d49150d2541251539560921b602082015260400192915050565b600061025b6000836116e9565b60006113d16026836116e9565b7f4f776e61626c65236f6e6c794f776e65723a2053454e4445525f49535f4e4f548152652fa7aba722a960d11b602082015260400192915050565b60006114196016836116e9565b75536166654d617468236164643a204f564552464c4f5760501b815260200192915050565b610f5f8161171b565b6020810161025b8284610f56565b60a081016114638287610f56565b6114706020830186610f56565b61147d604083018561143e565b61148a606083018461143e565b818103608083015261149b816113b7565b9695505050505050565b608081016114b38286610f56565b81810360208301526114c58185610ff7565b905081810360408301526114d98184610ff7565b905081810360608301526114ec816113b7565b95945050505050565b604081016115038285610f56565b610a4f602083018461143e565b60208082528101610a4f8184610f65565b60208082528101610d49818486610fbe565b606080825281016115448186610ff7565b905081810360208301526115588185610ff7565b9050610d49604083018461143e565b6020810161025b8284611045565b6020810161025b828461104e565b6020808252810161025b81611057565b6020808252810161025b816110b6565b6020808252810161025b81611109565b6020808252810161025b8161115f565b6020808252810161025b8161118d565b6020808252810161025b816111c6565b6020808252810161025b81611213565b6020808252810161025b8161125f565b6020808252810161025b816112c8565b6020808252810161025b816112fa565b6020808252810161025b81611367565b6020808252810161025b816113c4565b6020808252810161025b8161140c565b6020810161025b828461143e565b60408101611503828561143e565b60405181810167ffffffffffffffff8111828210171561168e57600080fd5b604052919050565b600067ffffffffffffffff8211156116ad57600080fd5b5060209081020190565b600067ffffffffffffffff8211156116ce57600080fd5b506020601f91909101601f19160190565b60200190565b5190565b90815260200190565b600061025b8261170f565b151590565b6001600160e01b03191690565b6001600160a01b031690565b90565b82818337506000910152565b611733816116f2565b811461173e57600080fd5b50565b61173381611702565b6117338161171b56fea365627a7a72315820328bea6b532b2715574434211aca7d8dc2520408c8e8e7b24128f90c5664277f6c6578706572696d656e74616cf564736f6c63430005100040",
  "source": "pragma solidity ^0.5.16;\npragma experimental ABIEncoderV2;\n\nimport \"../utils/Ownable.sol\";\nimport \"../interfaces/ISWSupplyManager.sol\";\nimport \"multi-token-standard/contracts/interfaces/IERC1155.sol\";\nimport \"multi-token-standard/contracts/utils/SafeMath.sol\";\n\n/**\n * This is a contract allowing users to mint Skyweaver's silver card\n * at a common price.\n */\ncontract SilverCardsFactory is Ownable {\n  using SafeMath for uint256;\n\n  /***********************************|\n  |        Variables && Events        |\n  |__________________________________*/\n\n  // Constants\n  uint256 constant internal decimals = 2; // Number of decimals\n\n  // Initiate Variables\n  ISWSupplyManager internal factoryManager;  // SkyWeaver Asset contract\n  IERC1155 internal arcadeumCoin;            // ERC-1155 Arcadeum Coin contract\n  uint256 internal arcadeumCoinID;           // ID of ARC token in respective ERC-1155 contract\n  uint256 internal cardPrice;                // Price per Silver Card\n\n  // OnReceive Objects\n  struct Order {\n    address recipient;             // Who receives the tokens\n    uint256[] tokensBoughtIDs;     // Token IDs to buy\n    uint256[] tokensBoughtAmounts; // Amount of token to buy for each ID\n  }\n\n  // Mapping variables\n  mapping(uint256 => bool) internal isPurchasable;  // Whether a token ID can be purchased or not\n\n  /***********************************|\n  |               Events              |\n  |__________________________________*/\n\n  event CardsPurchased(address indexed recipient, uint256[] tokensBoughtIds, uint256[] tokensBoughtAmounts, uint256 totalCost);\n  event CardPriceChange(uint256 oldPrice, uint256 newPrice);\n  event IDsRegistration(uint256[] ids);\n  event IDsDeregistration(uint256[] ids);\n\n\n  /***********************************|\n  |            Constructor            |\n  |__________________________________*/\n\n  /**\n   * @notice Create factory, link factory manager and store initial paramters\n   * @dev The _cardPrice should be per fraction of a card\n   * @param _factoryManagerAddr The address of the Skyweaver Factory Manager contract\n   * @param _arcadeumCoinAddr   The address of the ERC-1155 Base Token\n   * @param _arcadeumCoinID     The ID of the ERC-1155 Base Token\n   * @param _cardPrice          Price for each card\n   */\n  constructor(\n    address _factoryManagerAddr,\n    address _arcadeumCoinAddr,\n    uint256 _arcadeumCoinID,\n    uint256 _cardPrice\n  ) public {\n\n    //Input validation\n    require(\n      _factoryManagerAddr != address(0) &&\n      _arcadeumCoinAddr != address(0) &&\n      _cardPrice > 100000000, //Sanity check to \"make sure\" decimals are accounted for\n      \"SilverCardsFactory#constructor: INVALID_INPUT\"\n    );\n\n    // Set variables and constants\n    factoryManager = ISWSupplyManager(_factoryManagerAddr);\n    arcadeumCoin = IERC1155(_arcadeumCoinAddr);\n    arcadeumCoinID = _arcadeumCoinID;\n    cardPrice = _cardPrice;\n    emit CardPriceChange(0, _cardPrice);\n  }\n\n\n  /***********************************|\n  |         Management Methods        |\n  |__________________________________*/\n\n  /**\n   * @notice Will indicate that asset ids in _ids are purchasable\n   * @param _ids Array of asset IDs to allow for purchasing\n   * @dev Next version should pack isPurchasable to reduce SLOADs cost\n   *      for bulk purchases\n   */\n  function registerIDs(uint256[] calldata _ids) external onlyOwner() {\n    for (uint256 i = 0; i < _ids.length; i++) {\n      isPurchasable[_ids[i]] = true;\n    }\n    emit IDsRegistration(_ids);\n  }\n\n  /**\n   * @notice Will indicate that asset ids in _ids are NOT purchasable\n   * @param _ids Array of card IDs to make non-purchasable\n   */\n  function deregisterIDs(uint256[] calldata _ids) external onlyOwner() {\n    for (uint256 i = 0; i < _ids.length; i++) {\n      isPurchasable[_ids[i]] = false;\n    }\n    emit IDsDeregistration(_ids);\n  }\n\n  /**\n   * @notice Will update the card price\n   * @dev Don't forget to account for the decimals\n   * @param _newPrice New card price\n   */\n  function updateCardPrice(uint256 _newPrice) external onlyOwner() {\n    // Sanity check to \"make sure\" decimals are accounted for (18 decimals)\n    require(_newPrice > 100000000, \"SilverCardsFactory#updateCardPrice: INVALID_PRICE\");\n    emit CardPriceChange(cardPrice, _newPrice);\n    cardPrice = _newPrice;\n  }\n\n  /**\n   * @notice Send current ARC balance of sale contract to owner of the contract\n   * @param _recipient Address where the currency will be sent to\n   */\n  function withdraw(address _recipient) external onlyOwner() {\n    require(_recipient != address(0x0), \"SilverCardsFactory#withdraw: INVALID_RECIPIENT\");\n    uint256 thisBalance = arcadeumCoin.balanceOf(address(this), arcadeumCoinID);\n    arcadeumCoin.safeTransferFrom(address(this), _recipient, arcadeumCoinID, thisBalance, \"\");\n  }\n\n\n  /***********************************|\n  |      Receiver Method Handler      |\n  |__________________________________*/\n\n  // On receive success messages\n  bytes4 constant internal ERC1155_RECEIVED_VALUE = 0xf23a6e61;\n  bytes4 constant internal ERC1155_BATCH_RECEIVED_VALUE = 0xbc197c81;\n\n  /**\n   * @notice Prevents receiving Ether or calls to unsuported methods\n   */\n  function () external {\n    revert(\"UNSUPPORTED_METHOD\");\n  }\n\n  /**\n   * @notice Handle which method is being called on transfer\n   * @dev `_data` must be encoded as follow: abi.encode(Order)\n   * @param _from     The address which previously owned the Token\n   * @param _id       Arcadeum coin ID\n   * @param _amount   Amount of Arcadeun Coin received\n   * @param _data     Encoded Order structure\n   * @return bytes4(keccak256(\"onERC1155Received(address,address,uint256,uint256,bytes)\")\n   */\n  function onERC1155Received(address, address _from, uint256 _id, uint256 _amount, bytes memory _data)\n    public returns(bytes4)\n  {\n    // Tokens received need to be Token contract\n    require(msg.sender == address(arcadeumCoin), \"SilverCardsFactory#onERC1155Received: INVALID_ARC_ADDRESS\");\n    require(_id == arcadeumCoinID, \"SilverCardsFactory#onERC1155Received: INVALID_ARC_ID\");\n\n    // Decode Order from _data to call _buy()\n    Order memory order = abi.decode(_data, (Order));\n    address recipient = order.recipient == address(0x0) ? _from : order.recipient;\n    _buy(order.tokensBoughtIDs, order.tokensBoughtAmounts, _amount, recipient);\n\n    return ERC1155_RECEIVED_VALUE;\n  }\n\n  /**\n   * @dev Will pass array to `onERC1155Received()`\n   */\n  function onERC1155BatchReceived(\n    address _operator,\n    address _from,\n    uint256[] memory _ids,\n    uint256[] memory _amounts,\n    bytes memory _data)\n    public returns(bytes4)\n  {\n    require(_ids.length == 1, \"SilverCardsFactory#onERC1155BatchReceived: INVALID_BATCH_TRANSFER\");\n    require(\n      ERC1155_RECEIVED_VALUE == onERC1155Received(_operator, _from, _ids[0], _amounts[0], _data),\n      \"SilverCardsFactory#onERC1155BatchReceived: INVALID_ONRECEIVED_MESSAGE\"\n    );\n\n    return ERC1155_BATCH_RECEIVED_VALUE;\n  }\n\n\n  /***********************************|\n  |         Purchase Function         |\n  |__________________________________*/\n\n  /**\n   * @notice Convert Base Tokens to Tokens _id and transfers Tokens to recipient.\n   * @dev Assumes that all trades will be successful, or revert the whole tx\n   * @param _ids         Array of Tokens ID that are bought\n   * @param _amounts     Amount of Tokens id bought for each corresponding Token id in _tokenIds\n   * @param _arcAmount   Amount of ARC sent with the purchase\n   * @param _recipient   The address that receives output Tokens.\n   */\n  function _buy(\n    uint256[] memory _ids,\n    uint256[] memory _amounts,\n    uint256 _arcAmount,\n    address _recipient)\n    internal\n  {\n    // Input validation\n    uint256 nTokens = _ids.length;\n\n    // Total amount of card to purchase\n    uint256 total_quantity = 0;\n\n    // Validate purchase and count # of cards to purchase\n    for (uint256 i = 0; i < nTokens; i++) {\n      // Validate token id\n      require(isPurchasable[_ids[i]], \"SilverCardsFactory#_buy: ID_NOT_PURCHASABLE\");\n\n      // Increment cost\n      total_quantity = total_quantity.add(_amounts[i]);\n    }\n\n    // Calculate purchase cost\n    uint256 total_cost = total_quantity.mul(cardPrice);\n\n    // Check if enough ARC was sent and refund exceeding amount\n    uint256 refundAmount = _arcAmount.sub(total_cost); // Will throw if insufficient amount received\n    if (refundAmount > 0) {\n      arcadeumCoin.safeTransferFrom(address(this), _recipient, arcadeumCoinID, refundAmount, \"\");\n    }\n\n    // Mint tokens to recipient\n    factoryManager.batchMint(_recipient, _ids, _amounts, \"\");\n\n    // Emit event\n    emit CardsPurchased(_recipient, _ids, _amounts, total_cost);\n  }\n\n\n  /***********************************|\n  |         Getter Functions          |\n  |__________________________________*/\n\n  /**\n   * @notice Get the purchasable status of card IDs provided\n   * @param _ids Array containing the assets IDs\n   * @return The purchasable status of card IDs provided\n   */\n  function getPurchasableStatus(uint256[] calldata _ids) external view returns (bool[] memory) {\n    uint256 nIds = _ids.length;\n    bool[] memory purchasableStatus = new bool[](nIds);\n\n    // Iterate over each owner and token ID\n    for (uint256 i = 0; i < nIds; i++) {\n      purchasableStatus[i] = isPurchasable[_ids[i]];\n    }\n\n    return purchasableStatus;\n  }\n\n  /**\n   * @notice Returns the address of the factory manager contract\n   */\n  function getFactoryManager() external view returns (address) {\n    return address(factoryManager);\n  }\n\n  /**\n   * @notice Returns the address of the Arcadeun Coin contract\n   */\n  function getArcadeumCoin() external view returns (address) {\n    return address(arcadeumCoin);\n  }\n\n  /**\n   * @notice Returns the token ID of Arcadeum Coin\n   */\n  function getArcadeumCoinID() external view returns (uint256) {\n    return arcadeumCoinID;\n  }\n\n  /**\n   * @notice Returns the current silver cards price\n   */\n  function getCardPrice() external view returns (uint256) {\n    return cardPrice;\n  }\n\n\n  /***********************************|\n  |         Utility Functions         |\n  |__________________________________*/\n\n  /**\n   * @notice Indicates whether a contract implements the `ERC1155TokenReceiver` functions and so can accept ERC1155 token types.\n   * @param  interfaceID The ERC-165 interface ID that is queried for support.s\n   * @dev This function MUST return true if it implements the ERC1155TokenReceiver interface and ERC-165 interface.\n   *      This function MUST NOT consume more than 5,000 gas.\n   * @return Wheter ERC-165 or ERC1155TokenReceiver interfaces are supported.\n   */\n  function supportsInterface(bytes4 interfaceID) external view returns (bool) {\n    return  interfaceID == 0x01ffc9a7 || // ERC-165 support (i.e. `bytes4(keccak256('supportsInterface(bytes4)'))`).\n      interfaceID == 0x4e2312e0;         // ERC-1155 `ERC1155TokenReceiver` support (i.e. `bytes4(keccak256(\"onERC1155Received(address,address,uint256,uint256,bytes)\")) ^ bytes4(keccak256(\"onERC1155BatchReceived(address,address,uint256[],uint256[],bytes)\"))`).\n  }\n}\n",
  "sourcePath": "/home/michael/Documents/Projects/horizon-games/SkyWeaver-contracts/contracts/shop/SilverCardsFactory.sol",
  "compiler": {
    "name": "solc",
    "version": "0.5.16+commit.9c3226ce.Emscripten.clang"
  },
  "schemaVersion": "3.1.0",
  "updatedAt": "2020-06-26T16:37:42.988Z",
  "devdoc": {
    "methods": {
      "constructor": {
        "details": "The _cardPrice should be per fraction of a card",
        "params": {
          "_arcadeumCoinAddr": "The address of the ERC-1155 Base Token",
          "_arcadeumCoinID": "The ID of the ERC-1155 Base Token",
          "_cardPrice": "Price for each card",
          "_factoryManagerAddr": "The address of the Skyweaver Factory Manager contract"
        }
      },
      "deregisterIDs(uint256[])": {
        "params": {
          "_ids": "Array of card IDs to make non-purchasable"
        }
      },
      "getPurchasableStatus(uint256[])": {
        "params": {
          "_ids": "Array containing the assets IDs"
        },
        "return": "The purchasable status of card IDs provided"
      },
      "onERC1155BatchReceived(address,address,uint256[],uint256[],bytes)": {
        "details": "Will pass array to `onERC1155Received()`"
      },
      "onERC1155Received(address,address,uint256,uint256,bytes)": {
        "details": "`_data` must be encoded as follow: abi.encode(Order)",
        "params": {
          "_amount": "Amount of Arcadeun Coin received",
          "_data": "Encoded Order structure",
          "_from": "The address which previously owned the Token",
          "_id": "Arcadeum coin ID"
        },
        "return": "bytes4(keccak256(\"onERC1155Received(address,address,uint256,uint256,bytes)\")"
      },
      "registerIDs(uint256[])": {
        "details": "Next version should pack isPurchasable to reduce SLOADs cost     for bulk purchases",
        "params": {
          "_ids": "Array of asset IDs to allow for purchasing"
        }
      },
      "supportsInterface(bytes4)": {
        "details": "This function MUST return true if it implements the ERC1155TokenReceiver interface and ERC-165 interface.     This function MUST NOT consume more than 5,000 gas.",
        "params": {
          "interfaceID": "The ERC-165 interface ID that is queried for support.s"
        },
        "return": "Wheter ERC-165 or ERC1155TokenReceiver interfaces are supported."
      },
      "transferOwnership(address)": {
        "params": {
          "_newOwner": "Address of the new owner"
        }
      },
      "updateCardPrice(uint256)": {
        "details": "Don't forget to account for the decimals",
        "params": {
          "_newPrice": "New card price"
        }
      },
      "withdraw(address)": {
        "params": {
          "_recipient": "Address where the currency will be sent to"
        }
      }
    }
  },
  "userdoc": {
    "methods": {
      "constructor": "Create factory, link factory manager and store initial paramters",
      "deregisterIDs(uint256[])": {
        "notice": "Will indicate that asset ids in _ids are NOT purchasable"
      },
      "getArcadeumCoin()": {
        "notice": "Returns the address of the Arcadeun Coin contract"
      },
      "getArcadeumCoinID()": {
        "notice": "Returns the token ID of Arcadeum Coin"
      },
      "getCardPrice()": {
        "notice": "Returns the current silver cards price"
      },
      "getFactoryManager()": {
        "notice": "Returns the address of the factory manager contract"
      },
      "getOwner()": {
        "notice": "Returns the address of the owner."
      },
      "getPurchasableStatus(uint256[])": {
        "notice": "Get the purchasable status of card IDs provided"
      },
      "onERC1155Received(address,address,uint256,uint256,bytes)": {
        "notice": "Handle which method is being called on transfer"
      },
      "registerIDs(uint256[])": {
        "notice": "Will indicate that asset ids in _ids are purchasable"
      },
      "supportsInterface(bytes4)": {
        "notice": "Indicates whether a contract implements the `ERC1155TokenReceiver` functions and so can accept ERC1155 token types."
      },
      "transferOwnership(address)": {
        "notice": "Transfers the ownership of the contract to new address"
      },
      "updateCardPrice(uint256)": {
        "notice": "Will update the card price"
      },
      "withdraw(address)": {
        "notice": "Send current ARC balance of sale contract to owner of the contract"
      }
    },
    "notice": "This is a contract allowing users to mint Skyweaver's silver card at a common price."
  }
}