{
  "contractName": "SkyweaverCurrencies",
  "abi": [
    {
      "anonymous": false,
      "inputs": [
        {
          "indexed": true,
          "internalType": "address",
          "name": "_owner",
          "type": "address"
        },
        {
          "indexed": true,
          "internalType": "address",
          "name": "_operator",
          "type": "address"
        },
        {
          "indexed": false,
          "internalType": "bool",
          "name": "_approved",
          "type": "bool"
        }
      ],
      "name": "ApprovalForAll",
      "type": "event"
    },
    {
      "anonymous": false,
      "inputs": [
        {
          "indexed": true,
          "internalType": "address",
          "name": "factory",
          "type": "address"
        }
      ],
      "name": "FactoryActivation",
      "type": "event"
    },
    {
      "anonymous": false,
      "inputs": [
        {
          "indexed": true,
          "internalType": "address",
          "name": "factory",
          "type": "address"
        }
      ],
      "name": "FactoryShutdown",
      "type": "event"
    },
    {
      "anonymous": false,
      "inputs": [
        {
          "indexed": false,
          "internalType": "uint256[]",
          "name": "ids",
          "type": "uint256[]"
        },
        {
          "indexed": false,
          "internalType": "uint256[]",
          "name": "newMaxSupplies",
          "type": "uint256[]"
        }
      ],
      "name": "MaxSuppliesChanged",
      "type": "event"
    },
    {
      "anonymous": false,
      "inputs": [
        {
          "indexed": true,
          "internalType": "address",
          "name": "factory",
          "type": "address"
        },
        {
          "components": [
            {
              "internalType": "uint256",
              "name": "minID",
              "type": "uint256"
            },
            {
              "internalType": "uint256",
              "name": "maxID",
              "type": "uint256"
            }
          ],
          "indexed": false,
          "internalType": "struct SWSupplyManager.AssetRange",
          "name": "new_range",
          "type": "tuple"
        }
      ],
      "name": "MintPermissionAdded",
      "type": "event"
    },
    {
      "anonymous": false,
      "inputs": [
        {
          "indexed": true,
          "internalType": "address",
          "name": "factory",
          "type": "address"
        },
        {
          "components": [
            {
              "internalType": "uint256",
              "name": "minID",
              "type": "uint256"
            },
            {
              "internalType": "uint256",
              "name": "maxID",
              "type": "uint256"
            }
          ],
          "indexed": false,
          "internalType": "struct SWSupplyManager.AssetRange",
          "name": "deleted_range",
          "type": "tuple"
        }
      ],
      "name": "MintPermissionRemoved",
      "type": "event"
    },
    {
      "anonymous": false,
      "inputs": [
        {
          "indexed": true,
          "internalType": "address",
          "name": "signer",
          "type": "address"
        },
        {
          "indexed": false,
          "internalType": "uint256",
          "name": "newNonce",
          "type": "uint256"
        }
      ],
      "name": "NonceChange",
      "type": "event"
    },
    {
      "anonymous": false,
      "inputs": [
        {
          "indexed": true,
          "internalType": "address",
          "name": "previousOwner",
          "type": "address"
        },
        {
          "indexed": true,
          "internalType": "address",
          "name": "newOwner",
          "type": "address"
        }
      ],
      "name": "OwnershipTransferred",
      "type": "event"
    },
    {
      "anonymous": false,
      "inputs": [
        {
          "components": [
            {
              "internalType": "uint256",
              "name": "minID",
              "type": "uint256"
            },
            {
              "internalType": "uint256",
              "name": "maxID",
              "type": "uint256"
            }
          ],
          "indexed": false,
          "internalType": "struct SWSupplyManager.AssetRange",
          "name": "locked_range",
          "type": "tuple"
        }
      ],
      "name": "RangeLocked",
      "type": "event"
    },
    {
      "anonymous": false,
      "inputs": [
        {
          "indexed": true,
          "internalType": "address",
          "name": "_operator",
          "type": "address"
        },
        {
          "indexed": true,
          "internalType": "address",
          "name": "_from",
          "type": "address"
        },
        {
          "indexed": true,
          "internalType": "address",
          "name": "_to",
          "type": "address"
        },
        {
          "indexed": false,
          "internalType": "uint256[]",
          "name": "_ids",
          "type": "uint256[]"
        },
        {
          "indexed": false,
          "internalType": "uint256[]",
          "name": "_amounts",
          "type": "uint256[]"
        }
      ],
      "name": "TransferBatch",
      "type": "event"
    },
    {
      "anonymous": false,
      "inputs": [
        {
          "indexed": true,
          "internalType": "address",
          "name": "_operator",
          "type": "address"
        },
        {
          "indexed": true,
          "internalType": "address",
          "name": "_from",
          "type": "address"
        },
        {
          "indexed": true,
          "internalType": "address",
          "name": "_to",
          "type": "address"
        },
        {
          "indexed": false,
          "internalType": "uint256",
          "name": "_id",
          "type": "uint256"
        },
        {
          "indexed": false,
          "internalType": "uint256",
          "name": "_amount",
          "type": "uint256"
        }
      ],
      "name": "TransferSingle",
      "type": "event"
    },
    {
      "anonymous": false,
      "inputs": [
        {
          "indexed": false,
          "internalType": "string",
          "name": "_uri",
          "type": "string"
        },
        {
          "indexed": true,
          "internalType": "uint256",
          "name": "_id",
          "type": "uint256"
        }
      ],
      "name": "URI",
      "type": "event"
    },
    {
      "payable": false,
      "stateMutability": "nonpayable",
      "type": "fallback"
    },
    {
      "constant": false,
      "inputs": [
        {
          "internalType": "address",
          "name": "_factory",
          "type": "address"
        }
      ],
      "name": "activateFactory",
      "outputs": [],
      "payable": false,
      "stateMutability": "nonpayable",
      "type": "function"
    },
    {
      "constant": false,
      "inputs": [
        {
          "internalType": "address",
          "name": "_factory",
          "type": "address"
        },
        {
          "internalType": "uint256",
          "name": "_minRange",
          "type": "uint256"
        },
        {
          "internalType": "uint256",
          "name": "_maxRange",
          "type": "uint256"
        }
      ],
      "name": "addMintPermission",
      "outputs": [],
      "payable": false,
      "stateMutability": "nonpayable",
      "type": "function"
    },
    {
      "constant": true,
      "inputs": [
        {
          "internalType": "address",
          "name": "_owner",
          "type": "address"
        },
        {
          "internalType": "uint256",
          "name": "_id",
          "type": "uint256"
        }
      ],
      "name": "balanceOf",
      "outputs": [
        {
          "internalType": "uint256",
          "name": "",
          "type": "uint256"
        }
      ],
      "payable": false,
      "stateMutability": "view",
      "type": "function"
    },
    {
      "constant": true,
      "inputs": [
        {
          "internalType": "address[]",
          "name": "_owners",
          "type": "address[]"
        },
        {
          "internalType": "uint256[]",
          "name": "_ids",
          "type": "uint256[]"
        }
      ],
      "name": "balanceOfBatch",
      "outputs": [
        {
          "internalType": "uint256[]",
          "name": "",
          "type": "uint256[]"
        }
      ],
      "payable": false,
      "stateMutability": "view",
      "type": "function"
    },
    {
      "constant": false,
      "inputs": [
        {
          "internalType": "uint256[]",
          "name": "_ids",
          "type": "uint256[]"
        },
        {
          "internalType": "uint256[]",
          "name": "_amounts",
          "type": "uint256[]"
        }
      ],
      "name": "batchBurn",
      "outputs": [],
      "payable": false,
      "stateMutability": "nonpayable",
      "type": "function"
    },
    {
      "constant": false,
      "inputs": [
        {
          "internalType": "address",
          "name": "_to",
          "type": "address"
        },
        {
          "internalType": "uint256[]",
          "name": "_ids",
          "type": "uint256[]"
        },
        {
          "internalType": "uint256[]",
          "name": "_amounts",
          "type": "uint256[]"
        },
        {
          "internalType": "bytes",
          "name": "_data",
          "type": "bytes"
        }
      ],
      "name": "batchMint",
      "outputs": [],
      "payable": false,
      "stateMutability": "nonpayable",
      "type": "function"
    },
    {
      "constant": false,
      "inputs": [
        {
          "internalType": "uint256",
          "name": "_id",
          "type": "uint256"
        },
        {
          "internalType": "uint256",
          "name": "_amount",
          "type": "uint256"
        }
      ],
      "name": "burn",
      "outputs": [],
      "payable": false,
      "stateMutability": "nonpayable",
      "type": "function"
    },
    {
      "constant": true,
      "inputs": [
        {
          "internalType": "uint256[]",
          "name": "_ids",
          "type": "uint256[]"
        }
      ],
      "name": "getCurrentSupplies",
      "outputs": [
        {
          "internalType": "uint256[]",
          "name": "",
          "type": "uint256[]"
        }
      ],
      "payable": false,
      "stateMutability": "view",
      "type": "function"
    },
    {
      "constant": true,
      "inputs": [
        {
          "internalType": "address",
          "name": "_factory",
          "type": "address"
        }
      ],
      "name": "getFactoryAccessRanges",
      "outputs": [
        {
          "components": [
            {
              "internalType": "uint256",
              "name": "minID",
              "type": "uint256"
            },
            {
              "internalType": "uint256",
              "name": "maxID",
              "type": "uint256"
            }
          ],
          "internalType": "struct SWSupplyManager.AssetRange[]",
          "name": "",
          "type": "tuple[]"
        }
      ],
      "payable": false,
      "stateMutability": "view",
      "type": "function"
    },
    {
      "constant": true,
      "inputs": [
        {
          "internalType": "address",
          "name": "_factory",
          "type": "address"
        }
      ],
      "name": "getFactoryStatus",
      "outputs": [
        {
          "internalType": "bool",
          "name": "",
          "type": "bool"
        }
      ],
      "payable": false,
      "stateMutability": "view",
      "type": "function"
    },
    {
      "constant": true,
      "inputs": [],
      "name": "getLockedRanges",
      "outputs": [
        {
          "components": [
            {
              "internalType": "uint256",
              "name": "minID",
              "type": "uint256"
            },
            {
              "internalType": "uint256",
              "name": "maxID",
              "type": "uint256"
            }
          ],
          "internalType": "struct SWSupplyManager.AssetRange[]",
          "name": "",
          "type": "tuple[]"
        }
      ],
      "payable": false,
      "stateMutability": "view",
      "type": "function"
    },
    {
      "constant": true,
      "inputs": [
        {
          "internalType": "uint256[]",
          "name": "_ids",
          "type": "uint256[]"
        }
      ],
      "name": "getMaxSupplies",
      "outputs": [
        {
          "internalType": "uint256[]",
          "name": "",
          "type": "uint256[]"
        }
      ],
      "payable": false,
      "stateMutability": "view",
      "type": "function"
    },
    {
      "constant": true,
      "inputs": [
        {
          "internalType": "address",
          "name": "_signer",
          "type": "address"
        }
      ],
      "name": "getNonce",
      "outputs": [
        {
          "internalType": "uint256",
          "name": "nonce",
          "type": "uint256"
        }
      ],
      "payable": false,
      "stateMutability": "view",
      "type": "function"
    },
    {
      "constant": true,
      "inputs": [],
      "name": "getOwner",
      "outputs": [
        {
          "internalType": "address",
          "name": "",
          "type": "address"
        }
      ],
      "payable": false,
      "stateMutability": "view",
      "type": "function"
    },
    {
      "constant": true,
      "inputs": [
        {
          "internalType": "address",
          "name": "_owner",
          "type": "address"
        },
        {
          "internalType": "address",
          "name": "_operator",
          "type": "address"
        }
      ],
      "name": "isApprovedForAll",
      "outputs": [
        {
          "internalType": "bool",
          "name": "isOperator",
          "type": "bool"
        }
      ],
      "payable": false,
      "stateMutability": "view",
      "type": "function"
    },
    {
      "constant": true,
      "inputs": [
        {
          "internalType": "address",
          "name": "_signerAddress",
          "type": "address"
        },
        {
          "internalType": "bytes32",
          "name": "_hash",
          "type": "bytes32"
        },
        {
          "internalType": "bytes",
          "name": "_data",
          "type": "bytes"
        },
        {
          "internalType": "bytes",
          "name": "_sig",
          "type": "bytes"
        }
      ],
      "name": "isValidSignature",
      "outputs": [
        {
          "internalType": "bool",
          "name": "isValid",
          "type": "bool"
        }
      ],
      "payable": false,
      "stateMutability": "view",
      "type": "function"
    },
    {
      "constant": false,
      "inputs": [
        {
          "components": [
            {
              "internalType": "uint256",
              "name": "minID",
              "type": "uint256"
            },
            {
              "internalType": "uint256",
              "name": "maxID",
              "type": "uint256"
            }
          ],
          "internalType": "struct SWSupplyManager.AssetRange",
          "name": "_range",
          "type": "tuple"
        }
      ],
      "name": "lockRangeMintPermissions",
      "outputs": [],
      "payable": false,
      "stateMutability": "nonpayable",
      "type": "function"
    },
    {
      "constant": false,
      "inputs": [
        {
          "internalType": "uint256[]",
          "name": "_tokenIDs",
          "type": "uint256[]"
        }
      ],
      "name": "logURIs",
      "outputs": [],
      "payable": false,
      "stateMutability": "nonpayable",
      "type": "function"
    },
    {
      "constant": false,
      "inputs": [
        {
          "internalType": "address",
          "name": "_from",
          "type": "address"
        },
        {
          "internalType": "address",
          "name": "_to",
          "type": "address"
        },
        {
          "internalType": "uint256[]",
          "name": "_ids",
          "type": "uint256[]"
        },
        {
          "internalType": "uint256[]",
          "name": "_amounts",
          "type": "uint256[]"
        },
        {
          "internalType": "bool",
          "name": "_isGasFee",
          "type": "bool"
        },
        {
          "internalType": "bytes",
          "name": "_data",
          "type": "bytes"
        }
      ],
      "name": "metaSafeBatchTransferFrom",
      "outputs": [],
      "payable": false,
      "stateMutability": "nonpayable",
      "type": "function"
    },
    {
      "constant": false,
      "inputs": [
        {
          "internalType": "address",
          "name": "_from",
          "type": "address"
        },
        {
          "internalType": "address",
          "name": "_to",
          "type": "address"
        },
        {
          "internalType": "uint256",
          "name": "_id",
          "type": "uint256"
        },
        {
          "internalType": "uint256",
          "name": "_amount",
          "type": "uint256"
        },
        {
          "internalType": "bool",
          "name": "_isGasFee",
          "type": "bool"
        },
        {
          "internalType": "bytes",
          "name": "_data",
          "type": "bytes"
        }
      ],
      "name": "metaSafeTransferFrom",
      "outputs": [],
      "payable": false,
      "stateMutability": "nonpayable",
      "type": "function"
    },
    {
      "constant": false,
      "inputs": [
        {
          "internalType": "address",
          "name": "_owner",
          "type": "address"
        },
        {
          "internalType": "address",
          "name": "_operator",
          "type": "address"
        },
        {
          "internalType": "bool",
          "name": "_approved",
          "type": "bool"
        },
        {
          "internalType": "bool",
          "name": "_isGasFee",
          "type": "bool"
        },
        {
          "internalType": "bytes",
          "name": "_data",
          "type": "bytes"
        }
      ],
      "name": "metaSetApprovalForAll",
      "outputs": [],
      "payable": false,
      "stateMutability": "nonpayable",
      "type": "function"
    },
    {
      "constant": false,
      "inputs": [
        {
          "internalType": "address",
          "name": "_to",
          "type": "address"
        },
        {
          "internalType": "uint256",
          "name": "_id",
          "type": "uint256"
        },
        {
          "internalType": "uint256",
          "name": "_amount",
          "type": "uint256"
        },
        {
          "internalType": "bytes",
          "name": "_data",
          "type": "bytes"
        }
      ],
      "name": "mint",
      "outputs": [],
      "payable": false,
      "stateMutability": "nonpayable",
      "type": "function"
    },
    {
      "constant": false,
      "inputs": [
        {
          "internalType": "address",
          "name": "_factory",
          "type": "address"
        },
        {
          "internalType": "uint256",
          "name": "_rangeIndex",
          "type": "uint256"
        }
      ],
      "name": "removeMintPermission",
      "outputs": [],
      "payable": false,
      "stateMutability": "nonpayable",
      "type": "function"
    },
    {
      "constant": false,
      "inputs": [
        {
          "internalType": "address",
          "name": "_from",
          "type": "address"
        },
        {
          "internalType": "address",
          "name": "_to",
          "type": "address"
        },
        {
          "internalType": "uint256[]",
          "name": "_ids",
          "type": "uint256[]"
        },
        {
          "internalType": "uint256[]",
          "name": "_amounts",
          "type": "uint256[]"
        },
        {
          "internalType": "bytes",
          "name": "_data",
          "type": "bytes"
        }
      ],
      "name": "safeBatchTransferFrom",
      "outputs": [],
      "payable": false,
      "stateMutability": "nonpayable",
      "type": "function"
    },
    {
      "constant": false,
      "inputs": [
        {
          "internalType": "address",
          "name": "_from",
          "type": "address"
        },
        {
          "internalType": "address",
          "name": "_to",
          "type": "address"
        },
        {
          "internalType": "uint256",
          "name": "_id",
          "type": "uint256"
        },
        {
          "internalType": "uint256",
          "name": "_amount",
          "type": "uint256"
        },
        {
          "internalType": "bytes",
          "name": "_data",
          "type": "bytes"
        }
      ],
      "name": "safeTransferFrom",
      "outputs": [],
      "payable": false,
      "stateMutability": "nonpayable",
      "type": "function"
    },
    {
      "constant": false,
      "inputs": [
        {
          "internalType": "address",
          "name": "_operator",
          "type": "address"
        },
        {
          "internalType": "bool",
          "name": "_approved",
          "type": "bool"
        }
      ],
      "name": "setApprovalForAll",
      "outputs": [],
      "payable": false,
      "stateMutability": "nonpayable",
      "type": "function"
    },
    {
      "constant": false,
      "inputs": [
        {
          "internalType": "string",
          "name": "_newBaseMetadataURI",
          "type": "string"
        }
      ],
      "name": "setBaseMetadataURI",
      "outputs": [],
      "payable": false,
      "stateMutability": "nonpayable",
      "type": "function"
    },
    {
      "constant": false,
      "inputs": [
        {
          "internalType": "uint256[]",
          "name": "_ids",
          "type": "uint256[]"
        },
        {
          "internalType": "uint256[]",
          "name": "_newMaxSupplies",
          "type": "uint256[]"
        }
      ],
      "name": "setMaxSupplies",
      "outputs": [],
      "payable": false,
      "stateMutability": "nonpayable",
      "type": "function"
    },
    {
      "constant": false,
      "inputs": [
        {
          "internalType": "address",
          "name": "_factory",
          "type": "address"
        }
      ],
      "name": "shutdownFactory",
      "outputs": [],
      "payable": false,
      "stateMutability": "nonpayable",
      "type": "function"
    },
    {
      "constant": true,
      "inputs": [
        {
          "internalType": "bytes4",
          "name": "_interfaceID",
          "type": "bytes4"
        }
      ],
      "name": "supportsInterface",
      "outputs": [
        {
          "internalType": "bool",
          "name": "",
          "type": "bool"
        }
      ],
      "payable": false,
      "stateMutability": "view",
      "type": "function"
    },
    {
      "constant": false,
      "inputs": [
        {
          "internalType": "address",
          "name": "_newOwner",
          "type": "address"
        }
      ],
      "name": "transferOwnership",
      "outputs": [],
      "payable": false,
      "stateMutability": "nonpayable",
      "type": "function"
    },
    {
      "constant": true,
      "inputs": [
        {
          "internalType": "uint256",
          "name": "_id",
          "type": "uint256"
        }
      ],
      "name": "uri",
      "outputs": [
        {
          "internalType": "string",
          "name": "",
          "type": "string"
        }
      ],
      "payable": false,
      "stateMutability": "view",
      "type": "function"
    }
  ],
  "bytecode": "0x60806040819052600180546001600160a01b0319163317908190556001600160a01b0316906000907f8be0079c531659141344cd1fd0a4f28419497f9722a3daafe3b4186f6b6457e0908290a3614de78061005b6000396000f3fe608060405234801561001057600080fd5b50600436106101ef5760003560e01c8063893d20e81161010f578063d46c069e116100a2578063f2fde38b11610071578063f2fde38b14610467578063f5d4c8201461047a578063f795ab751461048d578063fa4e12d7146104a0576101ef565b8063d46c069e1461041b578063de8580911461042e578063e985e9c514610441578063f242432a14610454576101ef565b8063a3d4926e116100de578063a3d4926e146103cf578063b390c0ab146103e2578063b48ab8b6146103f5578063ce0b514b14610408576101ef565b8063893d20e8146103815780639136ce1f14610396578063a22cb465146103a9578063a36b3f29146103bc576101ef565b80634e1273f411610187578063731133e911610156578063731133e9146103355780637c44a8bb146103485780637e518ec81461035b5780638674c6941461036e576101ef565b80634e1273f4146102e7578063657afa89146102fa5780636968368b1461030f5780636c0d172f14610322576101ef565b806320ec271b116101c357806320ec271b146102995780632d0335ab146102ae5780632eb2c2d6146102c1578063458d2844146102d4576101ef565b8062fdd58e1461021057806301ffc9a7146102395780630cf383d7146102595780630e89341c14610279575b60405162461bcd60e51b815260040161020790614a1d565b60405180910390fd5b61022361021e366004613418565b6104b3565b6040516102309190614c1b565b60405180910390f35b61024c61024736600461363c565b6104de565b6040516102309190614888565b61026c61026736600461356f565b610525565b6040516102309190614852565b61028c610287366004613791565b6105b1565b60405161023091906149bc565b6102ac6102a73660046135b0565b6105e5565b005b6102236102bc366004612fb5565b610659565b6102ac6102cf366004613127565b610674565b6102ac6102e2366004613418565b6106f3565b61026c6102f5366004613512565b6108a6565b610302610989565b604051610230919061481a565b61026c61031d36600461356f565b6109fd565b6102ac610330366004613448565b610a80565b6102ac610343366004613495565b610c00565b6102ac610356366004612fb5565b610cce565b6102ac6103693660046136d5565b610d41565b6102ac61037c3660046135b0565b610dae565b610389610f2d565b60405161023091906146ed565b6102ac6103a4366004612fb5565b610f3c565b6102ac6103b736600461338d565b610fb2565b6103026103ca366004612fb5565b611021565b6102ac6103dd36600461305b565b6110aa565b6102ac6103f03660046137af565b6111fa565b6102ac6104033660046132e7565b611205565b6102ac610416366004613238565b61121b565b6102ac61042936600461356f565b6112d6565b6102ac61043c36600461370a565b61133c565b61024c61044f36600461302b565b611407565b6102ac610462366004613290565b611435565b6102ac610475366004612fb5565b6114ad565b6102ac6104883660046131e1565b61154d565b61024c61049b366004612fb5565b611650565b61024c6104ae3660046133bd565b61166e565b6001600160a01b03821660009081526007602090815260408083208484529091529020545b92915050565b60006001600160e01b031982166301ffc9a760e01b148061050f57506001600160e01b03198216636cdb3d1360e11b145b1561051c57506001610520565b5060005b919050565b60408051828152602080840282010190915260609082908290828015610555578160200160208202803883390190505b50905060005b828110156105a8576006600087878481811061057357fe5b9050602002013581526020019081526020016000205482828151811061059557fe5b602090810291909101015260010161055b565b50949350505050565b606060006105be83611a54565b6040516020016105cf9291906146c1565b6040516020818303038152906040529050919050565b6106533385858080602002602001604051908101604052809392919081815260200183836020028082843760009201919091525050604080516020808902828101820190935288825290935088925087918291850190849080828437600092019190915250611b1792505050565b50505050565b6001600160a01b031660009081526009602052604090205490565b336001600160a01b038616148061069057506106908533611407565b6106ac5760405162461bcd60e51b815260040161020790614b2d565b6001600160a01b0384166106d25760405162461bcd60e51b815260040161020790614acd565b6106de85858585611c5e565b6106ec858585855a86611e33565b5050505050565b6001546001600160a01b0316331461071d5760405162461bcd60e51b815260040161020790614bad565b6001600160a01b03821660009081526003602052604090205460001901610742612b4f565b6001600160a01b038416600090815260036020526040902080548490811061076657fe5b9060005260206000209060020201604051806040016040529081600082015481526020016001820154815250509050818314610835576107a4612b4f565b6001600160a01b03851660009081526003602052604090208054849081106107c857fe5b6000918252602080832060408051808201825260029094029091018054845260010154838301526001600160a01b03891684526003909152909120805491925082918690811061081457fe5b60009182526020918290208351600290920201908155910151600190910155505b6001600160a01b038416600090815260036020526040902080549061085e906000198301612b69565b50836001600160a01b03167f9cf6eb7f8948503042c3afb1917f77a803b3e1b64d74ffe4592515976e32d3d0826040516108989190614c0d565b60405180910390a250505050565b606081518351146108c95760405162461bcd60e51b815260040161020790614afd565b606083516040519080825280602002602001820160405280156108f6578160200160208202803883390190505b50905060005b8451811015610981576007600086838151811061091557fe5b60200260200101516001600160a01b03166001600160a01b03168152602001908152602001600020600085838151811061094b57fe5b602002602001015181526020019081526020016000205482828151811061096e57fe5b60209081029190910101526001016108fc565b509392505050565b60606004805480602002602001604051908101604052809291908181526020016000905b828210156109f3578382906000526020600020906002020160405180604001604052908160008201548152602001600182015481525050815260200190600101906109ad565b5050505090505b90565b60408051828152602080840282010190915260609082908290828015610a2d578160200160208202803883390190505b50905060005b828110156105a85760056000878784818110610a4b57fe5b90506020020135815260200190815260200160002054828281518110610a6d57fe5b6020908102919091010152600101610a33565b6001546001600160a01b03163314610aaa5760405162461bcd60e51b815260040161020790614bad565b60008111610aca5760405162461bcd60e51b815260040161020790614abd565b80821115610aea5760405162461bcd60e51b815260040161020790614a0d565b60005b600454811015610b7557610aff612b4f565b60048281548110610b0c57fe5b90600052602060002090600202016040518060400160405290816000820154815260200160018201548152505090508060000151831080610b505750838160200151105b610b6c5760405162461bcd60e51b815260040161020790614b7d565b50600101610aed565b50610b7e612b4f565b5060408051808201825283815260208082018481526001600160a01b0387166000818152600384528581208054600181810183559183529490912085516002909502019384559151929091019190915591519091907f965a50e19029dc4d98264ddfbaabb6e167ad0f25f17e1faa46157cc83d28fe4090610898908490614c0d565b6040805160018082528183019092526060916020808301908038833950506040805160018082528183019092529293506060929150602080830190803883390190505090508582600081518110610c5357fe5b6020026020010181815250508481600081518110610c6d57fe5b602002602001018181525050610c838282611f06565b610cc587878787878080601f0160208091040260200160405190810160405280939291908181526020018383808284376000920191909152506120d092505050565b50505050505050565b6001546001600160a01b03163314610cf85760405162461bcd60e51b815260040161020790614bad565b6001600160a01b038116600081815260026020526040808220805460ff19169055517f472ecaf428225ecdcc1f686a662ed1ba0627c365542e086b483bacca0fcfa5f99190a250565b6001546001600160a01b03163314610d6b5760405162461bcd60e51b815260040161020790614bad565b610daa82828080601f01602080910402602001604051908101604052809392919081815260200183838082843760009201919091525061217992505050565b5050565b6001546001600160a01b03163314610dd85760405162461bcd60e51b815260040161020790614bad565b828114610df75760405162461bcd60e51b815260040161020790614b9d565b60005b83811015610ee957600060066000878785818110610e1457fe5b905060200201358152602001908152602001600020541115610ea457828282818110610e3c57fe5b905060200201356000108015610e88575060066000868684818110610e5d57fe5b90506020020135815260200190815260200160002054838383818110610e7f57fe5b90506020020135105b610ea45760405162461bcd60e51b815260040161020790614bed565b828282818110610eb057fe5b9050602002013560066000878785818110610ec757fe5b6020908102929092013583525081019190915260400160002055600101610dfa565b507f5dc98454e9ef221d2c326d38ca85665e2dd41e43340dba1064d38d424695dc4484848484604051610f1f949392919061482b565b60405180910390a150505050565b6001546001600160a01b031690565b6001546001600160a01b03163314610f665760405162461bcd60e51b815260040161020790614bad565b6001600160a01b038116600081815260026020526040808220805460ff19166001179055517f672dbf7f8dabd5b1b39124540440a9ef2537a03c053f111f7e90850e57e2efb69190a250565b3360008181526008602090815260408083206001600160a01b038716808552925291829020805460ff191685151517905590519091907f17307eab39ab6107e8899845ad3d59bd9653f200f220920489ca2b5937696c3190611015908590614888565b60405180910390a35050565b6001600160a01b0381166000908152600360209081526040808320805482518185028101850190935280835260609492939192909184015b8282101561109f57838290600052602060002090600202016040518060400160405290816000820154815260200160018201548152505081526020019060010190611059565b505050509050919050565b6001600160a01b0385166110d05760405162461bcd60e51b815260040161020790614b5d565b60606110da612b9a565b606061118d89857fa3d4926e8cf8fe8e020cd29f514c256bc2eec62aa2337e415f1a33a4828af5a060001b8c8c8c604051602001611118919061462e565b604051602081830303815290604052805190602001208c60405160200161113f919061462e565b604051602081830303815290604052805190602001208c611161576000611164565b60015b604051602001611179969594939291906148b1565b60405160208183030381529060405261218c565b905061119b89898989611c5e565b84156111e157808060200190516111b5919081019061375c565b60208201519094509092506111d2908a908a908a908a9086611e33565b6111dc89836122f6565b6111ef565b6111ef898989895a86611e33565b505050505050505050565b610daa338383612505565b61120f8383611f06565b610653848484846125a1565b6001600160a01b0385166112415760405162461bcd60e51b815260040161020790614a6d565b606061124b612b9a565b606061128389857fce0b514b3931bdbe4d5d44e4f035afe7113767b7db71949271f6a62d9c60f558828c8c8c8c611161576000611164565b9050611291898989896126cd565b84156112c857808060200190516112ab919081019061375c565b60208201519094509092506111d2908a908a908a908a90866127ac565b6111ef898989895a866127ac565b6001546001600160a01b031633146113005760405162461bcd60e51b815260040161020790614bad565b610daa82828080602002602001604051908101604052809392919081815260200183836020028082843760009201919091525061287f92505050565b6001546001600160a01b031633146113665760405162461bcd60e51b815260040161020790614bad565b6004805460018101825560009190915281517f8a35acfbc15ff81a39ae7d344fd709f28e8600b4aa8c65c6b64bfe7fe36bd19b60029092029182015560208201517f8a35acfbc15ff81a39ae7d344fd709f28e8600b4aa8c65c6b64bfe7fe36bd19c909101556040517fdd7262568b5f7de0e9b83b70898738f6dd20fe8da4fe0c02b55f1d25e26ba8ca906113fc908390614c0d565b60405180910390a150565b6001600160a01b03918216600090815260086020908152604080832093909416825291909152205460ff1690565b336001600160a01b038616148061145157506114518533611407565b61146d5760405162461bcd60e51b8152600401610207906149fd565b6001600160a01b0384166114935760405162461bcd60e51b8152600401610207906149cd565b61149f858585856126cd565b6106ec858585855a866127ac565b6001546001600160a01b031633146114d75760405162461bcd60e51b815260040161020790614bad565b6001600160a01b0381166114fd5760405162461bcd60e51b815260040161020790614a4d565b600180546001600160a01b0319166001600160a01b0383811691821792839055604051919216907f8be0079c531659141344cd1fd0a4f28419497f9722a3daafe3b4186f6b6457e090600090a350565b60606115a986837ff5d4c820494c8595de274c7ff619bead38aac4fbc3d143b5bf956aa4b84fa524828989611583576000611586565b60015b89611592576000611595565b60015b604051602001611179959493929190614900565b6001600160a01b038781166000818152600860209081526040808320948b168084529490915290819020805460ff19168915151790555192935090917f17307eab39ab6107e8899845ad3d59bd9653f200f220920489ca2b5937696c3190611612908890614888565b60405180910390a3821561164857611628612b9a565b8180602001905161163c9190810190613728565b9050610cc587826122f6565b505050505050565b6001600160a01b031660009081526002602052604090205460ff1690565b6000808251116116905760405162461bcd60e51b815260040161020790614b3d565b6001600160a01b0385166116b65760405162461bcd60e51b815260040161020790614b1d565b60006116c1836129b5565b60f81c9050600581106116e65760405162461bcd60e51b815260040161020790614a5d565b60008160ff1660058111156116f757fe5b905060008080808085600581111561170b57fe5b14156117295760405162461bcd60e51b815260040161020790614a7d565b600185600581111561173757fe5b141561180d57875160611461175e5760405162461bcd60e51b815260040161020790614a9d565b61176f88600063ffffffff612a0316565b925061178288602063ffffffff612a0316565b91508760408151811061179157fe5b602001015160f81c60f81b60f81c935060018a858585604051600081526020016040526040516117c49493929190614962565b6020604051602081039080840390855afa1580156117e6573d6000803e3d6000fd5b5050604051601f1901516001600160a01b038d81169116149750611a4c9650505050505050565b600285600581111561181b57fe5b14156118ce5787516061146118425760405162461bcd60e51b815260040161020790614a9d565b61185388600063ffffffff612a0316565b925061186688602063ffffffff612a0316565b91508760408151811061187557fe5b602001015160f81c60f81b60f81c935060018a60405160200161189891906146cd565b60405160208183030381529060405280519060200120858585604051600081526020016040526040516117c49493929190614962565b60038560058111156118dc57fe5b1415611981576040516320c13b0b60e01b81526001600160a01b038c16906320c13b0b90611910908c908c90600401614997565b60206040518083038186803b15801561192857600080fd5b505afa15801561193c573d6000803e3d6000fd5b505050506040513d601f19601f82011682018060405250611960919081019061365a565b6001600160e01b0319166320c13b0b60e01b149650611a4c95505050505050565b600485600581111561198f57fe5b1415611a3457604051630b135d3f60e11b81526001600160a01b038c1690631626ba7e906119c3908d908c90600401614942565b60206040518083038186803b1580156119db57600080fd5b505afa1580156119ef573d6000803e3d6000fd5b505050506040513d601f19601f82011682018060405250611a13919081019061365a565b6001600160e01b031916630b135d3f60e11b149650611a4c95505050505050565b60405162461bcd60e51b815260040161020790614a5d565b949350505050565b606081611a7957506040805180820190915260018152600360fc1b6020820152610520565b818060005b8215611a9257600101600a83049250611a7e565b6060816040519080825280601f01601f191660200182016040528015611abf576020820181803883390190505b50905060001982015b8315611b0d57600a840660300160f81b82828060019003935081518110611aeb57fe5b60200101906001600160f81b031916908160001a905350600a84049350611ac8565b5095945050505050565b815181518114611b395760405162461bcd60e51b815260040161020790614add565b60005b81811015611bff57611bb3838281518110611b5357fe5b602002602001015160076000886001600160a01b03166001600160a01b031681526020019081526020016000206000878581518110611b8e57fe5b6020026020010151815260200190815260200160002054612a3290919063ffffffff16565b6001600160a01b03861660009081526007602052604081208651909190879085908110611bdc57fe5b602090810291909101810151825281019190915260400160002055600101611b3c565b5060006001600160a01b0316846001600160a01b0316336001600160a01b03167f4a39dc06d4c0dbc64b70af90fd698a233a518aa5d07e595d983b8c0526c8f7fb8686604051611c50929190614863565b60405180910390a450505050565b8051825114611c7f5760405162461bcd60e51b815260040161020790614a3d565b815160005b81811015611dd457611cd6838281518110611c9b57fe5b602002602001015160076000896001600160a01b03166001600160a01b031681526020019081526020016000206000878581518110611b8e57fe5b6001600160a01b03871660009081526007602052604081208651909190879085908110611cff57fe5b6020026020010151815260200190815260200160002081905550611d88838281518110611d2857fe5b602002602001015160076000886001600160a01b03166001600160a01b031681526020019081526020016000206000878581518110611d6357fe5b6020026020010151815260200190815260200160002054612a5a90919063ffffffff16565b6001600160a01b03861660009081526007602052604081208651909190879085908110611db157fe5b602090810291909101810151825281019190915260400160002055600101611c84565b50836001600160a01b0316856001600160a01b0316336001600160a01b03167f4a39dc06d4c0dbc64b70af90fd698a233a518aa5d07e595d983b8c0526c8f7fb8686604051611e24929190614863565b60405180910390a45050505050565b611e45856001600160a01b0316612a7f565b15611648576000856001600160a01b031663bc197c8184338a8989886040518763ffffffff1660e01b8152600401611e819594939291906146fb565b602060405180830381600088803b158015611e9b57600080fd5b5087f1158015611eaf573d6000803e3d6000fd5b50505050506040513d601f19601f82011682018060405250611ed4919081019061365a565b90506001600160e01b0319811663bc197c8160e01b14610cc55760405162461bcd60e51b815260040161020790614b6d565b3360009081526002602052604090205460ff16611f355760405162461bcd60e51b815260040161020790614aed565b33600090815260036020526040902054611f4d612b4f565b3360009081526003602052604081208054909190611f6757fe5b60009182526020808320604080518082019091526002909302018054835260010154908201529150805b8551811015611648576000868281518110611fa857fe5b602002602001015190506000868381518110611fc057fe5b602002602001015190506000600660008481526020019081526020016000205490505b8551831080611ff55750828660200151105b1561206e5760018501945086851061201f5760405162461bcd60e51b8152600401610207906149dd565b33600090815260036020526040902080548690811061203a57fe5b9060005260206000209060020201604051806040016040529081600082015481526020016001820154815250509550611fe3565b80156120c557600083815260056020526040812054612093908463ffffffff612a5a16565b9050818111156120b55760405162461bcd60e51b815260040161020790614aad565b6000848152600560205260409020555b505050600101611f91565b6001600160a01b0384166000908152600760209081526040808320868452909152902054612104908363ffffffff612a5a16565b6001600160a01b038516600081815260076020908152604080832088845290915280822093909355915190919033907fc3d58168c5ae7397731d063d5bbf3d657854427343f4c083240f7aacaa2d0f62906121629088908890614c29565b60405180910390a461065360008585855a866127ac565b8051610daa906000906020840190612bcb565b606080838060200190516121a39190810190613678565b6001600160a01b038716600090815260096020526040812054919450919250906121d483604163ffffffff612a0316565b90508181108015906121e857508160640181105b6122045760405162461bcd60e51b815260040161020790614bdd565b6000612240868387805190602001206040516020016122259392919061463a565b60405160208183030381529060405280519060200120612ab6565b905060608683876040516020016122599392919061466d565b60408051601f198184030181528282526001600160a01b038c166000818152600960205292909220600187019081905590935090917fb861b7bdbe611a846ab271b8d2810391bc8b5a968f390c322438ecab66bccf59916122b991614c1b565b60405180910390a26122cd8983838861166e565b6122e95760405162461bcd60e51b815260040161020790614a8d565b50505050505b9392505050565b600061230582606001516129b5565b60f81c90506002811061232a5760405162461bcd60e51b815260040161020790614bfd565b60008160ff16600281111561233b57fe5b83516040850151919250600091829182916001600160a01b031615612364578660400151612366565b335b9250600085600281111561237657fe5b14156124425786606001518060200190516123949190810190612ff1565b90945091506001600160a01b0384163014156123d8576123b6888484846126cd565b6123d38884845a85604051806020016040528060008152506127ac565b61243d565b604051637921219560e11b81526001600160a01b0385169063f242432a9061240a908b908790879087906004016147ca565b600060405180830381600087803b15801561242457600080fd5b505af1158015612438573d6000803e3d6000fd5b505050505b6124fb565b866060015180602001905161245a9190810190612fd3565b6040516323b872dd60e01b81529094506001600160a01b038516906323b872dd9061248d908b90879086906004016147a2565b602060405180830381600087803b1580156124a757600080fd5b505af11580156124bb573d6000803e3d6000fd5b505050506040513d601f19601f820116820180604052506124df919081019061361e565b6124fb5760405162461bcd60e51b815260040161020790614b0d565b5050505050505050565b6001600160a01b0383166000908152600760209081526040808320858452909152902054612539908263ffffffff612a3216565b6001600160a01b038416600081815260076020908152604080832087845290915280822093909355915133907fc3d58168c5ae7397731d063d5bbf3d657854427343f4c083240f7aacaa2d0f62906125949087908790614c29565b60405180910390a4505050565b81518351146125c25760405162461bcd60e51b815260040161020790614b4d565b825160005b81811015612665576126198482815181106125de57fe5b602002602001015160076000896001600160a01b03166001600160a01b031681526020019081526020016000206000888581518110611d6357fe5b6001600160a01b0387166000908152600760205260408120875190919088908590811061264257fe5b6020908102919091018101518252810191909152604001600020556001016125c7565b50846001600160a01b031660006001600160a01b0316336001600160a01b03167f4a39dc06d4c0dbc64b70af90fd698a233a518aa5d07e595d983b8c0526c8f7fb87876040516126b6929190614863565b60405180910390a46106ec60008686865a87611e33565b6001600160a01b0384166000908152600760209081526040808320858452909152902054612701908263ffffffff612a3216565b6001600160a01b03808616600090815260076020818152604080842088855282528084209590955592871682528252828120858252909152205461274b908263ffffffff612a5a16565b6001600160a01b038085166000818152600760209081526040808320888452909152908190209390935591519086169033907fc3d58168c5ae7397731d063d5bbf3d657854427343f4c083240f7aacaa2d0f6290611c509087908790614c29565b6127be856001600160a01b0316612a7f565b15611648576000856001600160a01b031663f23a6e6184338a8989886040518763ffffffff1660e01b81526004016127fa95949392919061475b565b602060405180830381600088803b15801561281457600080fd5b5087f1158015612828573d6000803e3d6000fd5b50505050506040513d601f19601f8201168201806040525061284d919081019061365a565b90506001600160e01b0319811663f23a6e6160e01b14610cc55760405162461bcd60e51b815260040161020790614b8d565b60008054604080516020601f600260001961010060018816150201909516949094049384018190048102820181019092528281526060939092909183018282801561290b5780601f106128e05761010080835404028352916020019161290b565b820191906000526020600020905b8154815290600101906020018083116128ee57829003601f168201915b50505050509050606060008090505b8351811015610653578261294085838151811061293357fe5b6020026020010151611a54565b60405160200161295192919061469e565b604051602081830303815290604052915083818151811061296e57fe5b60200260200101517f6bb7ff708619ba0610cba295a58592e0451dee2622938c8755667688daf3529b836040516129a591906149bc565b60405180910390a260010161291a565b6000808251116129d75760405162461bcd60e51b8152600401610207906149ed565b816001835103815181106129e757fe5b0160200151825160001901909252506001600160f81b03191690565b60008160200183511015612a295760405162461bcd60e51b815260040161020790614bbd565b50016020015190565b600082821115612a545760405162461bcd60e51b815260040161020790614a2d565b50900390565b6000828201838110156122ef5760405162461bcd60e51b815260040161020790614bcd565b6000813f80158015906122ef57507fc5d2460186f7233c927e7db2dcc703c0e500b653ca82273b7bfad8045d85a470141592915050565b600060405180604001604052806002815260200161190160f01b8152507f035aff83d86937d35b32e04f0ddc6ff469290eef2f1b692d8a815c89404d474960001b30604051602001612b09929190614896565b6040516020818303038152906040528051906020012083604051602001612b329392919061463a565b604051602081830303815290604052805190602001209050919050565b604051806040016040528060008152602001600081525090565b815481835581811115612b9557600202816002028360005260206000209182019101612b959190612c49565b505050565b6040518060800160405280600081526020016000815260200160006001600160a01b03168152602001606081525090565b828054600181600116156101000203166002900490600052602060002090601f016020900481019282601f10612c0c57805160ff1916838001178555612c39565b82800160010185558215612c39579182015b82811115612c39578251825591602001919060010190612c1e565b50612c45929150612c69565b5090565b6109fa91905b80821115612c455760008082556001820155600201612c4f565b6109fa91905b80821115612c455760008155600101612c6f565b80356104d881614d52565b80516104d881614d52565b600082601f830112612caa57600080fd5b8135612cbd612cb882614c6a565b614c44565b91508181835260208401935060208101905083856020840282011115612ce257600080fd5b60005b83811015612d0e5781612cf88882612c83565b8452506020928301929190910190600101612ce5565b5050505092915050565b60008083601f840112612d2a57600080fd5b5081356001600160401b03811115612d4157600080fd5b602083019150836020820283011115612d5957600080fd5b9250929050565b600082601f830112612d7157600080fd5b8135612d7f612cb882614c6a565b91508181835260208401935060208101905083856020840282011115612da457600080fd5b60005b83811015612d0e5781612dba8882612de6565b8452506020928301929190910190600101612da7565b80356104d881614d69565b80516104d881614d69565b80356104d881614d72565b80356104d881614d7b565b80516104d881614d7b565b60008083601f840112612e1957600080fd5b5081356001600160401b03811115612e3057600080fd5b602083019150836001820283011115612d5957600080fd5b600082601f830112612e5957600080fd5b8151612e67612cb882614c8a565b91508082526020830160208301858383011115612e8357600080fd5b612e8e838284614d1c565b50505092915050565b600082601f830112612ea857600080fd5b8135612eb6612cb882614c8a565b91508082526020830160208301858383011115612ed257600080fd5b612e8e838284614d10565b600060408284031215612eef57600080fd5b612ef96040614c44565b90506000612f078484612de6565b8252506020612f1884848301612de6565b60208301525092915050565b600060808284031215612f3657600080fd5b612f406080614c44565b90506000612f4e8484612faa565b8252506020612f5f84848301612faa565b6020830152506040612f7384828501612c8e565b60408301525060608201516001600160401b03811115612f9257600080fd5b612f9e84828501612e48565b60608301525092915050565b80516104d881614d72565b600060208284031215612fc757600080fd5b6000611a4c8484612c83565b600060208284031215612fe557600080fd5b6000611a4c8484612c8e565b6000806040838503121561300457600080fd5b60006130108585612c8e565b925050602061302185828601612faa565b9150509250929050565b6000806040838503121561303e57600080fd5b600061304a8585612c83565b925050602061302185828601612c83565b60008060008060008060c0878903121561307457600080fd5b60006130808989612c83565b965050602061309189828a01612c83565b95505060408701356001600160401b038111156130ad57600080fd5b6130b989828a01612d60565b94505060608701356001600160401b038111156130d557600080fd5b6130e189828a01612d60565b93505060806130f289828a01612dd0565b92505060a08701356001600160401b0381111561310e57600080fd5b61311a89828a01612e97565b9150509295509295509295565b600080600080600060a0868803121561313f57600080fd5b600061314b8888612c83565b955050602061315c88828901612c83565b94505060408601356001600160401b0381111561317857600080fd5b61318488828901612d60565b93505060608601356001600160401b038111156131a057600080fd5b6131ac88828901612d60565b92505060808601356001600160401b038111156131c857600080fd5b6131d488828901612e97565b9150509295509295909350565b600080600080600060a086880312156131f957600080fd5b60006132058888612c83565b955050602061321688828901612c83565b945050604061322788828901612dd0565b93505060606131ac88828901612dd0565b60008060008060008060c0878903121561325157600080fd5b600061325d8989612c83565b965050602061326e89828a01612c83565b955050604061327f89828a01612de6565b94505060606130e189828a01612de6565b600080600080600060a086880312156132a857600080fd5b60006132b48888612c83565b95505060206132c588828901612c83565b94505060406132d688828901612de6565b93505060606131ac88828901612de6565b600080600080608085870312156132fd57600080fd5b60006133098787612c83565b94505060208501356001600160401b0381111561332557600080fd5b61333187828801612d60565b93505060408501356001600160401b0381111561334d57600080fd5b61335987828801612d60565b92505060608501356001600160401b0381111561337557600080fd5b61338187828801612e97565b91505092959194509250565b600080604083850312156133a057600080fd5b60006133ac8585612c83565b925050602061302185828601612dd0565b600080600080608085870312156133d357600080fd5b60006133df8787612c83565b94505060206133f087828801612de6565b93505060408501356001600160401b0381111561340c57600080fd5b61335987828801612e97565b6000806040838503121561342b57600080fd5b60006134378585612c83565b925050602061302185828601612de6565b60008060006060848603121561345d57600080fd5b60006134698686612c83565b935050602061347a86828701612de6565b925050604061348b86828701612de6565b9150509250925092565b6000806000806000608086880312156134ad57600080fd5b60006134b98888612c83565b95505060206134ca88828901612de6565b94505060406134db88828901612de6565b93505060608601356001600160401b038111156134f757600080fd5b61350388828901612e07565b92509250509295509295909350565b6000806040838503121561352557600080fd5b82356001600160401b0381111561353b57600080fd5b61354785828601612c99565b92505060208301356001600160401b0381111561356357600080fd5b61302185828601612d60565b6000806020838503121561358257600080fd5b82356001600160401b0381111561359857600080fd5b6135a485828601612d18565b92509250509250929050565b600080600080604085870312156135c657600080fd5b84356001600160401b038111156135dc57600080fd5b6135e887828801612d18565b945094505060208501356001600160401b0381111561360657600080fd5b61361287828801612d18565b95989497509550505050565b60006020828403121561363057600080fd5b6000611a4c8484612ddb565b60006020828403121561364e57600080fd5b6000611a4c8484612df1565b60006020828403121561366c57600080fd5b6000611a4c8484612dfc565b6000806040838503121561368b57600080fd5b82516001600160401b038111156136a157600080fd5b6136ad85828601612e48565b92505060208301516001600160401b038111156136c957600080fd5b61302185828601612e48565b600080602083850312156136e857600080fd5b82356001600160401b038111156136fe57600080fd5b6135a485828601612e07565b60006040828403121561371c57600080fd5b6000611a4c8484612edd565b60006020828403121561373a57600080fd5b81516001600160401b0381111561375057600080fd5b611a4c84828501612f24565b6000806040838503121561376f57600080fd5b82516001600160401b0381111561378557600080fd5b6136ad85828601612f24565b6000602082840312156137a357600080fd5b6000611a4c8484612de6565b600080604083850312156137c257600080fd5b60006134378585612de6565b60006137da8383614601565b505060400190565b60006137ee8383613945565b505060200190565b6137ff81614cff565b82525050565b6137ff81614cd0565b600061381982614cc3565b6138238185614cc7565b935061382e83614cb1565b8060005b8381101561385c57815161384688826137ce565b975061385183614cb1565b925050600101613832565b509495945050505050565b60006138738385614cc7565b93506001600160fb1b0383111561388957600080fd5b60208302925061389a838584614d10565b50500190565b60006138ab82614cc3565b6138b58185614cc7565b93506138c083614cb1565b8060005b8381101561385c5781516138d888826137e2565b97506138e383614cb1565b9250506001016138c4565b60006138f982614cc3565b6139038185610520565b935061390e83614cb1565b8060005b8381101561385c57815161392688826137e2565b975061393183614cb1565b925050600101613912565b6137ff81614cdb565b6137ff816109fa565b6137ff61395a826109fa565b6109fa565b600061396a82614cc3565b6139748185614cc7565b9350613984818560208601614d1c565b61398d81614d48565b9093019392505050565b60006139a282614cc3565b6139ac8185610520565b93506139bc818560208601614d1c565b9290920192915050565b6000815460018116600081146139e35760018114613a0657613a45565b607f60028304166139f48187610520565b60ff1984168152955085019250613a45565b60028204613a148187610520565b9550613a1f85614cb7565b60005b82811015613a3e57815488820152600190910190602001613a22565b5050850192505b505092915050565b6000613a5a602b83614cc7565b7f4552433131353523736166655472616e7366657246726f6d3a20494e56414c4981526a1117d49150d2541251539560aa1b602082015260400192915050565b6000613aa7601c83610520565b7f19457468657265756d205369676e6564204d6573736167653a0a3332000000008152601c0192915050565b6000613ae0602f83614cc7565b7f5357537570706c794d616e61676572235f76616c69646174654d696e74733a2081526e49445f4f55545f4f465f52414e474560881b602082015260400192915050565b6000613b31603783614cc7565b7f4c6962427974657323706f704c617374427974653a20475245415445525f544881527f414e5f5a45524f5f4c454e4754485f5245515549524544000000000000000000602082015260400192915050565b6000613b90602a83614cc7565b7f4552433131353523736166655472616e7366657246726f6d3a20494e56414c49815269222fa7a822a920aa27a960b11b602082015260400192915050565b6000613bdc603083614cc7565b7f5357537570706c794d616e61676572236164644d696e745065726d697373696f81526f6e3a20494e56414c49445f52414e474560801b602082015260400192915050565b6000613c2e601283614cc7565b71155394d5541413d495115117d351551213d160721b815260200192915050565b6000613c5c601783614cc7565b7f536166654d617468237375623a20554e444552464c4f57000000000000000000815260200192915050565b6000613c95603583614cc7565b7f45524331313535235f7361666542617463685472616e7366657246726f6d3a208152740929cac82989288be82a4a482b2a6be988a9c8ea89605b1b602082015260400192915050565b6000613cec602a83614cc7565b7f4f776e61626c65237472616e736665724f776e6572736869703a20494e56414c81526949445f4144445245535360b01b602082015260400192915050565b6000613d38603a83614cc7565b600080516020614d8583398151915281527f7572653a20554e535550504f525445445f5349474e4154555245000000000000602082015260400192915050565b6000613d85603383614cc7565b7f455243313135354d657461236d657461536166655472616e7366657246726f6d8152720e881253959053125117d49150d25412515395606a1b602082015260400192915050565b6000613dda603683614cc7565b600080516020614d858339815191528152757572653a20494c4c4547414c5f5349474e415455524560501b602082015260400192915050565b6000613e20603383614cc7565b7f455243313135354d657461235f7369676e617475726556616c69646174696f6e8152723a20494e56414c49445f5349474e415455524560681b602082015260400192915050565b6000613e75603783614cc7565b600080516020614d8583398151915281527f7572653a204c454e4754485f39375f5245515549524544000000000000000000602082015260400192915050565b6000613ec2603383614cc7565b7f5357537570706c794d616e61676572235f76616c69646174654d696e74733a2081527213505617d4d55414131657d15610d151511151606a1b602082015260400192915050565b6000613f17602d83614cc7565b7f5357537570706c794d616e61676572236164644d696e745065726d697373696f81526c6e3a204e554c4c5f52414e474560981b602082015260400192915050565b6000613f66603083614cc7565b7f45524331313535237361666542617463685472616e7366657246726f6d3a204981526f13959053125117d49150d2541251539560821b602082015260400192915050565b6000613fb8603083614cc7565b7f455243313135354d696e744275726e2362617463684275726e3a20494e56414c81526f09288be82a4a482b2a6be988a9c8ea8960831b602082015260400192915050565b600061400a600583610520565b64173539b7b760d91b815260050192915050565b600061402b603283614cc7565b7f5357537570706c794d616e61676572235f76616c69646174654d696e74733a20815271464143544f52595f4e4f545f41435449564560701b602082015260400192915050565b600061407f602c83614cc7565b7f455243313135352362616c616e63654f6642617463683a20494e56414c49445f81526b082a4a482b2be988a9c8ea8960a31b602082015260400192915050565b60006140cd603283614cc7565b7f455243313135354d657461235f7472616e736665724761734665653a204552438152710c8c17d514905394d1915497d1905253115160721b602082015260400192915050565b6000614121603383614cc7565b600080516020614d858339815191528152723ab9329d1024a72b20a624a22fa9a4a3a722a960691b602082015260400192915050565b6000614164602f83614cc7565b7f45524331313535237361666542617463685472616e7366657246726f6d3a204981526e272b20a624a22fa7a822a920aa27a960891b602082015260400192915050565b60006141b5604383614cc7565b600080516020614d8583398151915281527f7572653a204c454e4754485f475245415445525f5448414e5f305f524551554960208201526214915160ea1b604082015260600192915050565b600061420e603083614cc7565b7f455243313135354d696e744275726e2362617463684d696e743a20494e56414c81526f09288be82a4a482b2a6be988a9c8ea8960831b602082015260400192915050565b6000614260603883614cc7565b7f455243313135354d657461236d6574615361666542617463685472616e73666581527f7246726f6d3a20494e56414c49445f524543495049454e540000000000000000602082015260400192915050565b60006104d8600083614cc7565b60006142cc603f83614cc7565b7f45524331313535235f63616c6c6f6e455243313135354261746368526563656981527f7665643a20494e56414c49445f4f4e5f524543454956455f4d45535341474500602082015260400192915050565b600061432b603c83614cc7565b7f5357537570706c794d616e61676572236164644d696e745065726d697373696f81527f6e3a204f5645524c41505f574954485f4c4f434b45445f52414e474500000000602082015260400192915050565b600061438a603a83614cc7565b7f45524331313535235f63616c6c6f6e4552433131353552656365697665643a2081527f494e56414c49445f4f4e5f524543454956455f4d455353414745000000000000602082015260400192915050565b60006143e9603383614cc7565b7f5357537570706c794d616e61676572237365744d6178537570706c793a20494e8152720ac82989288be82a4a482b2a6be988a9c8ea89606b1b602082015260400192915050565b600061443e602683614cc7565b7f4f776e61626c65236f6e6c794f776e65723a2053454e4445525f49535f4e4f548152652fa7aba722a960d11b602082015260400192915050565b6000614486603c83614cc7565b7f4c696242797465732372656164427974657333323a20475245415445525f4f5281527f5f455155414c5f544f5f33325f4c454e4754485f524551554952454400000000602082015260400192915050565b60006144e5601683614cc7565b75536166654d617468236164643a204f564552464c4f5760501b815260200192915050565b6000614517602f83614cc7565b7f455243313135354d657461235f7369676e617475726556616c69646174696f6e81526e3a20494e56414c49445f4e4f4e434560881b602082015260400192915050565b6000614568603483614cc7565b7f5357537570706c794d616e61676572237365744d6178537570706c793a20494e81527356414c49445f4e45575f4d41585f535550504c5960601b602082015260400192915050565b60006145be602e83614cc7565b7f455243313135354d657461235f7472616e736665724761734665653a20554e5381526d2aa82827a92a22a22faa27a5a2a760911b602082015260400192915050565b805160408301906146128482613945565b5060208201516106536020850182613945565b6137ff81614cf9565b60006122ef82846138ee565b60006146468286613997565b9150614652828561394e565b602082019150614662828461394e565b506020019392505050565b60006146798286613997565b9150614685828561394e565b6020820191506146958284613997565b95945050505050565b60006146aa8285613997565b91506146b68284613997565b9150611a4c82613ffd565b60006146aa82856139c6565b60006146d882613a9a565b91506146e4828461394e565b50602001919050565b602081016104d88284613805565b60a0810161470982886137f6565b6147166020830187613805565b818103604083015261472881866138a0565b9050818103606083015261473c81856138a0565b90508181036080830152614750818461395f565b979650505050505050565b60a0810161476982886137f6565b6147766020830187613805565b6147836040830186613945565b6147906060830185613945565b8181036080830152614750818461395f565b606081016147b08286613805565b6147bd6020830185613805565b611a4c6040830184613945565b60a081016147d88287613805565b6147e56020830186613805565b6147f26040830185613945565b6147ff6060830184613945565b8181036080830152614810816142b2565b9695505050505050565b602080825281016122ef818461380e565b6040808252810161483d818688613867565b90508181036020830152614810818486613867565b602080825281016122ef81846138a0565b6040808252810161487481856138a0565b90508181036020830152611a4c81846138a0565b602081016104d8828461393c565b604081016148a48285613945565b6122ef6020830184613805565b60c081016148bf8289613945565b6148cc6020830188613805565b6148d96040830187613805565b6148e66060830186613945565b6148f36080830185613945565b61475060a0830184613945565b60a0810161490e8288613945565b61491b6020830187613805565b6149286040830186613805565b6149356060830185613945565b6148106080830184613945565b604081016149508285613945565b8181036020830152611a4c818461395f565b608081016149708287613945565b61497d6020830186614625565b61498a6040830185613945565b6146956060830184613945565b604080825281016149a8818561395f565b90508181036020830152611a4c818461395f565b602080825281016122ef818461395f565b602080825281016104d881613a4d565b602080825281016104d881613ad3565b602080825281016104d881613b24565b602080825281016104d881613b83565b602080825281016104d881613bcf565b602080825281016104d881613c21565b602080825281016104d881613c4f565b602080825281016104d881613c88565b602080825281016104d881613cdf565b602080825281016104d881613d2b565b602080825281016104d881613d78565b602080825281016104d881613dcd565b602080825281016104d881613e13565b602080825281016104d881613e68565b602080825281016104d881613eb5565b602080825281016104d881613f0a565b602080825281016104d881613f59565b602080825281016104d881613fab565b602080825281016104d88161401e565b602080825281016104d881614072565b602080825281016104d8816140c0565b602080825281016104d881614114565b602080825281016104d881614157565b602080825281016104d8816141a8565b602080825281016104d881614201565b602080825281016104d881614253565b602080825281016104d8816142bf565b602080825281016104d88161431e565b602080825281016104d88161437d565b602080825281016104d8816143dc565b602080825281016104d881614431565b602080825281016104d881614479565b602080825281016104d8816144d8565b602080825281016104d88161450a565b602080825281016104d88161455b565b602080825281016104d8816145b1565b604081016104d88284614601565b602081016104d88284613945565b60408101614c378285613945565b6122ef6020830184613945565b6040518181016001600160401b0381118282101715614c6257600080fd5b604052919050565b60006001600160401b03821115614c8057600080fd5b5060209081020190565b60006001600160401b03821115614ca057600080fd5b506020601f91909101601f19160190565b60200190565b60009081526020902090565b5190565b90815260200190565b60006104d882614ced565b151590565b6001600160e01b03191690565b6001600160a01b031690565b60ff1690565b60006104d88260006104d882614cd0565b82818337506000910152565b60005b83811015614d37578181015183820152602001614d1f565b838111156106535750506000910152565b601f01601f191690565b614d5b81614cd0565b8114614d6657600080fd5b50565b614d5b81614cdb565b614d5b816109fa565b614d5b81614ce056fe5369676e617475726556616c696461746f7223697356616c69645369676e6174a365627a7a72315820818612ce6d4436ec43c6b8222c435b13eb7504950c3888649c54f18becc05ac96c6578706572696d656e74616cf564736f6c63430005100040",
  "source": "pragma solidity ^0.5.16;\npragma experimental ABIEncoderV2;\n\nimport \"../shop/SWSupplyManager.sol\";\n\nimport \"multi-token-standard/contracts/tokens/ERC1155/ERC1155Meta.sol\";\nimport \"multi-token-standard/contracts/tokens/ERC1155/ERC1155MintBurn.sol\";\n\n\ncontract SkyweaverCurrencies is SWSupplyManager, ERC1155MintBurn, ERC1155Meta {}\n",
  "sourcePath": "/home/michael/Documents/Projects/horizon-games/SkyWeaver-contracts/contracts/tokens/SkyweaverCurrencies.sol",
  "compiler": {
    "name": "solc",
    "version": "0.5.16+commit.9c3226ce.Emscripten.clang"
  },
  "schemaVersion": "3.1.0",
  "updatedAt": "2020-06-26T16:37:42.998Z",
  "devdoc": {
    "methods": {
      "activateFactory(address)": {
        "params": {
          "_factory": "Address of the factory to activate"
        }
      },
      "addMintPermission(address,uint256,uint256)": {
        "params": {
          "_factory": "Address of the factory to update permission",
          "_maxRange": "Maximum ID (inclusive) in id range that factory will be able to mint",
          "_minRange": "Minimum ID (inclusive) in id range that factory will be able to mint"
        }
      },
      "balanceOf(address,uint256)": {
        "params": {
          "_id": "ID of the Token",
          "_owner": "The address of the token holder"
        },
        "return": "The _owner's balance of the Token type requested"
      },
      "balanceOfBatch(address[],uint256[])": {
        "params": {
          "_ids": "ID of the Tokens",
          "_owners": "The addresses of the token holders"
        },
        "return": "The _owner's balance of the Token types requested (i.e. balance for each (owner, id) pair)"
      },
      "batchBurn(uint256[],uint256[])": {
        "details": "This will not change the current supplies tracked in _supplyManagerAddr.",
        "params": {
          "_amounts": "The amount to be burn",
          "_ids": "Asset id to burn"
        }
      },
      "batchMint(address,uint256[],uint256[],bytes)": {
        "details": "This methods assumes ids are sorted by how the ranges are sorted in     the corresponding mintAccessRanges[msg.sender] array. Call might throw     if they are not.",
        "params": {
          "_amounts": "Array of amount of tokens to mint per id",
          "_data": "Byte array of data to pass to recipient if it's a contract",
          "_ids": "Array of ids to mint",
          "_to": "The address to mint tokens to."
        }
      },
      "burn(uint256,uint256)": {
        "details": "This will not change the current supply tracked in _supplyManagerAddr.",
        "params": {
          "_amount": "The amount to be burn",
          "_id": "Asset id to burn"
        }
      },
      "getCurrentSupplies(uint256[])": {
        "params": {
          "_ids": "Array containing the assets IDs"
        },
        "return": "The current supply of each asset ID in _ids"
      },
      "getFactoryAccessRanges(address)": {
        "return": "Returns whether the sale has ended or not"
      },
      "getFactoryStatus(address)": {
        "return": "Returns whether a factory is active or not"
      },
      "getLockedRanges()": {
        "return": "Returns all the ranges that are locked"
      },
      "getMaxSupplies(uint256[])": {
        "params": {
          "_ids": "Array containing the assets IDs"
        },
        "return": "The current max supply of each asset ID in _ids"
      },
      "getNonce(address)": {
        "params": {
          "_signer": "Address to query signature nonce for"
        }
      },
      "isApprovedForAll(address,address)": {
        "params": {
          "_operator": "Address of authorized operator",
          "_owner": "The owner of the Tokens"
        },
        "return": "True if the operator is approved, false if not"
      },
      "isValidSignature(address,bytes32,bytes,bytes)": {
        "details": "Verifies that a hash has been signed by the given signer.",
        "params": {
          "_data": "Full EIP-712 data structure that was hashed and signed",
          "_hash": "Hash of the EIP-712 encoded data",
          "_sig": "Proof that the hash has been signed by signer.     For non wallet signatures, _sig is expected to be an array tightly encoded as     (bytes32 r, bytes32 s, uint8 v, uint256 nonce, SignatureType sigType)",
          "_signerAddress": "Address that should have signed the given hash."
        },
        "return": "True if the address recovered from the provided signature matches the input signer address."
      },
      "lockRangeMintPermissions((uint256,uint256))": {
        "details": "THIS ACTION IS IRREVERSIBLE, USE WITH CAUTIONIn order to forever restrict minting of certain ids to a set of factories,     one first needs to call `addMintPermission()` for the corresponding factory     and the corresponding ids, then call this method to prevent further mint     permissions to be granted. One can also remove mint permissions after ids     mint permissions where locked down.",
        "params": {
          "_range": "AssetRange struct for range of asset that can't be granted              new mint permission to"
        }
      },
      "logURIs(uint256[])": {
        "details": "Will emit default URI log event for corresponding token _id",
        "params": {
          "_tokenIDs": "Array of IDs of tokens to log default URI"
        }
      },
      "metaSafeBatchTransferFrom(address,address,uint256[],uint256[],bool,bytes)": {
        "params": {
          "_amounts": "Transfer amounts per token type",
          "_data": "Encodes a meta transfer indicator, signature, gas payment receipt and extra transfer data  _data should be encoded as (  (bytes32 r, bytes32 s, uint8 v, uint256 nonce, SignatureType sigType),  (GasReceipt g, ?bytes transferData) )  i.e. high level encoding should be (bytes, bytes), where the latter bytes array is a nested bytes array",
          "_from": "Source addresses",
          "_ids": "IDs of each token type",
          "_isGasFee": "Whether gas is reimbursed to executor or not",
          "_to": "Target addresses"
        }
      },
      "metaSafeTransferFrom(address,address,uint256,uint256,bool,bytes)": {
        "params": {
          "_amount": "Transfered amount",
          "_data": "Encodes a meta transfer indicator, signature, gas payment receipt and extra transfer data  _data should be encoded as (  (bytes32 r, bytes32 s, uint8 v, uint256 nonce, SignatureType sigType),  (GasReceipt g, ?bytes transferData) )  i.e. high level encoding should be (bytes, bytes), where the latter bytes array is a nested bytes array",
          "_from": "Source address",
          "_id": "ID of the token type",
          "_isGasFee": "Whether gas is reimbursed to executor or not",
          "_to": "Target address"
        }
      },
      "metaSetApprovalForAll(address,address,bool,bool,bytes)": {
        "params": {
          "_approved": "True if the operator is approved, false to revoke approval",
          "_data": "Encodes signature and gas payment receipt  _data should be encoded as (    (bytes32 r, bytes32 s, uint8 v, uint256 nonce, SignatureType sigType),    (GasReceipt g)  )  i.e. high level encoding should be (bytes, bytes), where the latter bytes array is a nested bytes array",
          "_isGasFee": "Whether gas will be reimbursed or not, with vlid signature",
          "_operator": "Address to add to the set of authorized operators",
          "_owner": "Address that wants to set operator status  _spender"
        }
      },
      "mint(address,uint256,uint256,bytes)": {
        "params": {
          "_amount": "The amount to be minted",
          "_data": "Data to pass if receiver is contract",
          "_id": "Token id to mint",
          "_to": "The address to mint tokens to"
        }
      },
      "removeMintPermission(address,uint256)": {
        "params": {
          "_factory": "Address of the factory to update permission",
          "_rangeIndex": "Array's index where the range to delete is located for _factory"
        }
      },
      "safeBatchTransferFrom(address,address,uint256[],uint256[],bytes)": {
        "params": {
          "_amounts": "Transfer amounts per token type",
          "_data": "Additional data with no specified format, sent in call to `_to`",
          "_from": "Source addresses",
          "_ids": "IDs of each token type",
          "_to": "Target addresses"
        }
      },
      "safeTransferFrom(address,address,uint256,uint256,bytes)": {
        "params": {
          "_amount": "Transfered amount",
          "_data": "Additional data with no specified format, sent in call to `_to`",
          "_from": "Source address",
          "_id": "ID of the token type",
          "_to": "Target address"
        }
      },
      "setApprovalForAll(address,bool)": {
        "params": {
          "_approved": "True if the operator is approved, false to revoke approval",
          "_operator": "Address to add to the set of authorized operators"
        }
      },
      "setBaseMetadataURI(string)": {
        "details": "Will update the base URL of token's URI",
        "params": {
          "_newBaseMetadataURI": "New base URL of token's URI"
        }
      },
      "setMaxSupplies(uint256[],uint256[])": {
        "details": "Can only decrease the max supply if already set, but can't set it *back* to 0.",
        "params": {
          "_ids": "Array of token IDs to set the max supply",
          "_newMaxSupplies": "Array of max supplies for each corresponding ID"
        }
      },
      "shutdownFactory(address)": {
        "params": {
          "_factory": "Address of the factory to shutdown"
        }
      },
      "supportsInterface(bytes4)": {
        "params": {
          "_interfaceID": "The interface identifier, as specified in ERC-165"
        },
        "return": "`true` if the contract implements `_interfaceID` and"
      },
      "transferOwnership(address)": {
        "params": {
          "_newOwner": "Address of the new owner"
        }
      },
      "uri(uint256)": {
        "details": "URIs are defined in RFC 3986.     URIs are assumed to be deterministically generated based on token ID     Token IDs are assumed to be represented in their hex format in URIs",
        "return": "URI string"
      }
    }
  },
  "userdoc": {
    "methods": {
      "activateFactory(address)": {
        "notice": "Will ALLOW factory to print some assets specified in `canPrint` mapping"
      },
      "addMintPermission(address,uint256,uint256)": {
        "notice": "Will allow a factory to mint some token ids"
      },
      "balanceOf(address,uint256)": {
        "notice": "Get the balance of an account's Tokens"
      },
      "balanceOfBatch(address[],uint256[])": {
        "notice": "Get the balance of multiple account/token pairs"
      },
      "batchBurn(uint256[],uint256[])": {
        "notice": "Burn _amounts of tokens of given ids from msg.sender"
      },
      "batchMint(address,uint256[],uint256[],bytes)": {
        "notice": "Mint tokens for each ids in _ids"
      },
      "burn(uint256,uint256)": {
        "notice": "Burn _amount of tokens of a given id from msg.sender"
      },
      "getCurrentSupplies(uint256[])": {
        "notice": "Get the current supply of multiple asset ID"
      },
      "getMaxSupplies(uint256[])": {
        "notice": "Get the max supply of multiple asset ID"
      },
      "getNonce(address)": {
        "notice": "Returns the current nonce associated with a given address"
      },
      "getOwner()": {
        "notice": "Returns the address of the owner."
      },
      "isApprovedForAll(address,address)": {
        "notice": "Queries the approval status of an operator for a given owner"
      },
      "lockRangeMintPermissions((uint256,uint256))": {
        "notice": "Will forever prevent new mint permissions for provided ids"
      },
      "metaSafeBatchTransferFrom(address,address,uint256[],uint256[],bool,bytes)": {
        "notice": "Allows anyone with a valid signature to transfer multiple types of tokens on the bahalf of _from"
      },
      "metaSafeTransferFrom(address,address,uint256,uint256,bool,bytes)": {
        "notice": "Allows anyone with a valid signature to transfer _amount amount of a token _id on the bahalf of _from"
      },
      "metaSetApprovalForAll(address,address,bool,bool,bytes)": {
        "notice": "Approve the passed address to spend on behalf of _from if valid signature is provided"
      },
      "mint(address,uint256,uint256,bytes)": {
        "notice": "Mint _amount of tokens of a given id, if allowed."
      },
      "removeMintPermission(address,uint256)": {
        "notice": "Will remove the permission a factory has to mint some token ids"
      },
      "safeBatchTransferFrom(address,address,uint256[],uint256[],bytes)": {
        "notice": "Send multiple types of Tokens from the _from address to the _to address (with safety call)"
      },
      "safeTransferFrom(address,address,uint256,uint256,bytes)": {
        "notice": "Transfers amount amount of an _id from the _from address to the _to address specified"
      },
      "setApprovalForAll(address,bool)": {
        "notice": "Enable or disable approval for a third party (\"operator\") to manage all of caller's tokens"
      },
      "setMaxSupplies(uint256[],uint256[])": {
        "notice": "Set max supply for some token IDs that can't ever be increased"
      },
      "shutdownFactory(address)": {
        "notice": "Will DISALLOW factory to print any asset"
      },
      "supportsInterface(bytes4)": {
        "notice": "Query if a contract implements an interface"
      },
      "transferOwnership(address)": {
        "notice": "Transfers the ownership of the contract to new address"
      },
      "uri(uint256)": {
        "notice": "A distinct Uniform Resource Identifier (URI) for a given token."
      }
    }
  }
}