{
  "contractName": "SkyweaverAssets",
  "abi": [
    {
      "anonymous": false,
      "inputs": [
        {
          "indexed": true,
          "internalType": "address",
          "name": "_owner",
          "type": "address"
        },
        {
          "indexed": true,
          "internalType": "address",
          "name": "_operator",
          "type": "address"
        },
        {
          "indexed": false,
          "internalType": "bool",
          "name": "_approved",
          "type": "bool"
        }
      ],
      "name": "ApprovalForAll",
      "type": "event"
    },
    {
      "anonymous": false,
      "inputs": [
        {
          "indexed": true,
          "internalType": "address",
          "name": "factory",
          "type": "address"
        }
      ],
      "name": "FactoryActivation",
      "type": "event"
    },
    {
      "anonymous": false,
      "inputs": [
        {
          "indexed": true,
          "internalType": "address",
          "name": "factory",
          "type": "address"
        }
      ],
      "name": "FactoryShutdown",
      "type": "event"
    },
    {
      "anonymous": false,
      "inputs": [
        {
          "indexed": false,
          "internalType": "uint256[]",
          "name": "ids",
          "type": "uint256[]"
        },
        {
          "indexed": false,
          "internalType": "uint256[]",
          "name": "newMaxSupplies",
          "type": "uint256[]"
        }
      ],
      "name": "MaxSuppliesChanged",
      "type": "event"
    },
    {
      "anonymous": false,
      "inputs": [
        {
          "indexed": true,
          "internalType": "address",
          "name": "factory",
          "type": "address"
        },
        {
          "components": [
            {
              "internalType": "uint256",
              "name": "minID",
              "type": "uint256"
            },
            {
              "internalType": "uint256",
              "name": "maxID",
              "type": "uint256"
            }
          ],
          "indexed": false,
          "internalType": "struct SWSupplyManager.AssetRange",
          "name": "new_range",
          "type": "tuple"
        }
      ],
      "name": "MintPermissionAdded",
      "type": "event"
    },
    {
      "anonymous": false,
      "inputs": [
        {
          "indexed": true,
          "internalType": "address",
          "name": "factory",
          "type": "address"
        },
        {
          "components": [
            {
              "internalType": "uint256",
              "name": "minID",
              "type": "uint256"
            },
            {
              "internalType": "uint256",
              "name": "maxID",
              "type": "uint256"
            }
          ],
          "indexed": false,
          "internalType": "struct SWSupplyManager.AssetRange",
          "name": "deleted_range",
          "type": "tuple"
        }
      ],
      "name": "MintPermissionRemoved",
      "type": "event"
    },
    {
      "anonymous": false,
      "inputs": [
        {
          "indexed": true,
          "internalType": "address",
          "name": "signer",
          "type": "address"
        },
        {
          "indexed": false,
          "internalType": "uint256",
          "name": "newNonce",
          "type": "uint256"
        }
      ],
      "name": "NonceChange",
      "type": "event"
    },
    {
      "anonymous": false,
      "inputs": [
        {
          "indexed": true,
          "internalType": "address",
          "name": "previousOwner",
          "type": "address"
        },
        {
          "indexed": true,
          "internalType": "address",
          "name": "newOwner",
          "type": "address"
        }
      ],
      "name": "OwnershipTransferred",
      "type": "event"
    },
    {
      "anonymous": false,
      "inputs": [
        {
          "components": [
            {
              "internalType": "uint256",
              "name": "minID",
              "type": "uint256"
            },
            {
              "internalType": "uint256",
              "name": "maxID",
              "type": "uint256"
            }
          ],
          "indexed": false,
          "internalType": "struct SWSupplyManager.AssetRange",
          "name": "locked_range",
          "type": "tuple"
        }
      ],
      "name": "RangeLocked",
      "type": "event"
    },
    {
      "anonymous": false,
      "inputs": [
        {
          "indexed": true,
          "internalType": "address",
          "name": "_operator",
          "type": "address"
        },
        {
          "indexed": true,
          "internalType": "address",
          "name": "_from",
          "type": "address"
        },
        {
          "indexed": true,
          "internalType": "address",
          "name": "_to",
          "type": "address"
        },
        {
          "indexed": false,
          "internalType": "uint256[]",
          "name": "_ids",
          "type": "uint256[]"
        },
        {
          "indexed": false,
          "internalType": "uint256[]",
          "name": "_amounts",
          "type": "uint256[]"
        }
      ],
      "name": "TransferBatch",
      "type": "event"
    },
    {
      "anonymous": false,
      "inputs": [
        {
          "indexed": true,
          "internalType": "address",
          "name": "_operator",
          "type": "address"
        },
        {
          "indexed": true,
          "internalType": "address",
          "name": "_from",
          "type": "address"
        },
        {
          "indexed": true,
          "internalType": "address",
          "name": "_to",
          "type": "address"
        },
        {
          "indexed": false,
          "internalType": "uint256",
          "name": "_id",
          "type": "uint256"
        },
        {
          "indexed": false,
          "internalType": "uint256",
          "name": "_amount",
          "type": "uint256"
        }
      ],
      "name": "TransferSingle",
      "type": "event"
    },
    {
      "anonymous": false,
      "inputs": [
        {
          "indexed": false,
          "internalType": "string",
          "name": "_uri",
          "type": "string"
        },
        {
          "indexed": true,
          "internalType": "uint256",
          "name": "_id",
          "type": "uint256"
        }
      ],
      "name": "URI",
      "type": "event"
    },
    {
      "payable": false,
      "stateMutability": "nonpayable",
      "type": "fallback"
    },
    {
      "constant": false,
      "inputs": [
        {
          "internalType": "address",
          "name": "_factory",
          "type": "address"
        }
      ],
      "name": "activateFactory",
      "outputs": [],
      "payable": false,
      "stateMutability": "nonpayable",
      "type": "function"
    },
    {
      "constant": false,
      "inputs": [
        {
          "internalType": "address",
          "name": "_factory",
          "type": "address"
        },
        {
          "internalType": "uint256",
          "name": "_minRange",
          "type": "uint256"
        },
        {
          "internalType": "uint256",
          "name": "_maxRange",
          "type": "uint256"
        }
      ],
      "name": "addMintPermission",
      "outputs": [],
      "payable": false,
      "stateMutability": "nonpayable",
      "type": "function"
    },
    {
      "constant": true,
      "inputs": [
        {
          "internalType": "address",
          "name": "_owner",
          "type": "address"
        },
        {
          "internalType": "uint256",
          "name": "_id",
          "type": "uint256"
        }
      ],
      "name": "balanceOf",
      "outputs": [
        {
          "internalType": "uint256",
          "name": "",
          "type": "uint256"
        }
      ],
      "payable": false,
      "stateMutability": "view",
      "type": "function"
    },
    {
      "constant": true,
      "inputs": [
        {
          "internalType": "address[]",
          "name": "_owners",
          "type": "address[]"
        },
        {
          "internalType": "uint256[]",
          "name": "_ids",
          "type": "uint256[]"
        }
      ],
      "name": "balanceOfBatch",
      "outputs": [
        {
          "internalType": "uint256[]",
          "name": "",
          "type": "uint256[]"
        }
      ],
      "payable": false,
      "stateMutability": "view",
      "type": "function"
    },
    {
      "constant": false,
      "inputs": [
        {
          "internalType": "uint256[]",
          "name": "_ids",
          "type": "uint256[]"
        },
        {
          "internalType": "uint256[]",
          "name": "_amounts",
          "type": "uint256[]"
        }
      ],
      "name": "batchBurn",
      "outputs": [],
      "payable": false,
      "stateMutability": "nonpayable",
      "type": "function"
    },
    {
      "constant": false,
      "inputs": [
        {
          "internalType": "address",
          "name": "_to",
          "type": "address"
        },
        {
          "internalType": "uint256[]",
          "name": "_ids",
          "type": "uint256[]"
        },
        {
          "internalType": "uint256[]",
          "name": "_amounts",
          "type": "uint256[]"
        },
        {
          "internalType": "bytes",
          "name": "_data",
          "type": "bytes"
        }
      ],
      "name": "batchMint",
      "outputs": [],
      "payable": false,
      "stateMutability": "nonpayable",
      "type": "function"
    },
    {
      "constant": false,
      "inputs": [
        {
          "internalType": "uint256",
          "name": "_id",
          "type": "uint256"
        },
        {
          "internalType": "uint256",
          "name": "_amount",
          "type": "uint256"
        }
      ],
      "name": "burn",
      "outputs": [],
      "payable": false,
      "stateMutability": "nonpayable",
      "type": "function"
    },
    {
      "constant": true,
      "inputs": [
        {
          "internalType": "uint256[]",
          "name": "_ids",
          "type": "uint256[]"
        }
      ],
      "name": "getCurrentSupplies",
      "outputs": [
        {
          "internalType": "uint256[]",
          "name": "",
          "type": "uint256[]"
        }
      ],
      "payable": false,
      "stateMutability": "view",
      "type": "function"
    },
    {
      "constant": true,
      "inputs": [
        {
          "internalType": "address",
          "name": "_factory",
          "type": "address"
        }
      ],
      "name": "getFactoryAccessRanges",
      "outputs": [
        {
          "components": [
            {
              "internalType": "uint256",
              "name": "minID",
              "type": "uint256"
            },
            {
              "internalType": "uint256",
              "name": "maxID",
              "type": "uint256"
            }
          ],
          "internalType": "struct SWSupplyManager.AssetRange[]",
          "name": "",
          "type": "tuple[]"
        }
      ],
      "payable": false,
      "stateMutability": "view",
      "type": "function"
    },
    {
      "constant": true,
      "inputs": [
        {
          "internalType": "address",
          "name": "_factory",
          "type": "address"
        }
      ],
      "name": "getFactoryStatus",
      "outputs": [
        {
          "internalType": "bool",
          "name": "",
          "type": "bool"
        }
      ],
      "payable": false,
      "stateMutability": "view",
      "type": "function"
    },
    {
      "constant": true,
      "inputs": [
        {
          "internalType": "uint256",
          "name": "_id",
          "type": "uint256"
        }
      ],
      "name": "getIDBinIndex",
      "outputs": [
        {
          "internalType": "uint256",
          "name": "bin",
          "type": "uint256"
        },
        {
          "internalType": "uint256",
          "name": "index",
          "type": "uint256"
        }
      ],
      "payable": false,
      "stateMutability": "pure",
      "type": "function"
    },
    {
      "constant": true,
      "inputs": [],
      "name": "getLockedRanges",
      "outputs": [
        {
          "components": [
            {
              "internalType": "uint256",
              "name": "minID",
              "type": "uint256"
            },
            {
              "internalType": "uint256",
              "name": "maxID",
              "type": "uint256"
            }
          ],
          "internalType": "struct SWSupplyManager.AssetRange[]",
          "name": "",
          "type": "tuple[]"
        }
      ],
      "payable": false,
      "stateMutability": "view",
      "type": "function"
    },
    {
      "constant": true,
      "inputs": [
        {
          "internalType": "uint256[]",
          "name": "_ids",
          "type": "uint256[]"
        }
      ],
      "name": "getMaxSupplies",
      "outputs": [
        {
          "internalType": "uint256[]",
          "name": "",
          "type": "uint256[]"
        }
      ],
      "payable": false,
      "stateMutability": "view",
      "type": "function"
    },
    {
      "constant": true,
      "inputs": [
        {
          "internalType": "address",
          "name": "_signer",
          "type": "address"
        }
      ],
      "name": "getNonce",
      "outputs": [
        {
          "internalType": "uint256",
          "name": "nonce",
          "type": "uint256"
        }
      ],
      "payable": false,
      "stateMutability": "view",
      "type": "function"
    },
    {
      "constant": true,
      "inputs": [],
      "name": "getOwner",
      "outputs": [
        {
          "internalType": "address",
          "name": "",
          "type": "address"
        }
      ],
      "payable": false,
      "stateMutability": "view",
      "type": "function"
    },
    {
      "constant": true,
      "inputs": [
        {
          "internalType": "uint256",
          "name": "_binValues",
          "type": "uint256"
        },
        {
          "internalType": "uint256",
          "name": "_index",
          "type": "uint256"
        }
      ],
      "name": "getValueInBin",
      "outputs": [
        {
          "internalType": "uint256",
          "name": "",
          "type": "uint256"
        }
      ],
      "payable": false,
      "stateMutability": "pure",
      "type": "function"
    },
    {
      "constant": true,
      "inputs": [
        {
          "internalType": "address",
          "name": "_owner",
          "type": "address"
        },
        {
          "internalType": "address",
          "name": "_operator",
          "type": "address"
        }
      ],
      "name": "isApprovedForAll",
      "outputs": [
        {
          "internalType": "bool",
          "name": "isOperator",
          "type": "bool"
        }
      ],
      "payable": false,
      "stateMutability": "view",
      "type": "function"
    },
    {
      "constant": true,
      "inputs": [
        {
          "internalType": "address",
          "name": "_signerAddress",
          "type": "address"
        },
        {
          "internalType": "bytes32",
          "name": "_hash",
          "type": "bytes32"
        },
        {
          "internalType": "bytes",
          "name": "_data",
          "type": "bytes"
        },
        {
          "internalType": "bytes",
          "name": "_sig",
          "type": "bytes"
        }
      ],
      "name": "isValidSignature",
      "outputs": [
        {
          "internalType": "bool",
          "name": "isValid",
          "type": "bool"
        }
      ],
      "payable": false,
      "stateMutability": "view",
      "type": "function"
    },
    {
      "constant": false,
      "inputs": [
        {
          "components": [
            {
              "internalType": "uint256",
              "name": "minID",
              "type": "uint256"
            },
            {
              "internalType": "uint256",
              "name": "maxID",
              "type": "uint256"
            }
          ],
          "internalType": "struct SWSupplyManager.AssetRange",
          "name": "_range",
          "type": "tuple"
        }
      ],
      "name": "lockRangeMintPermissions",
      "outputs": [],
      "payable": false,
      "stateMutability": "nonpayable",
      "type": "function"
    },
    {
      "constant": false,
      "inputs": [
        {
          "internalType": "uint256[]",
          "name": "_tokenIDs",
          "type": "uint256[]"
        }
      ],
      "name": "logURIs",
      "outputs": [],
      "payable": false,
      "stateMutability": "nonpayable",
      "type": "function"
    },
    {
      "constant": false,
      "inputs": [
        {
          "internalType": "address",
          "name": "_from",
          "type": "address"
        },
        {
          "internalType": "address",
          "name": "_to",
          "type": "address"
        },
        {
          "internalType": "uint256[]",
          "name": "_ids",
          "type": "uint256[]"
        },
        {
          "internalType": "uint256[]",
          "name": "_amounts",
          "type": "uint256[]"
        },
        {
          "internalType": "bool",
          "name": "_isGasFee",
          "type": "bool"
        },
        {
          "internalType": "bytes",
          "name": "_data",
          "type": "bytes"
        }
      ],
      "name": "metaSafeBatchTransferFrom",
      "outputs": [],
      "payable": false,
      "stateMutability": "nonpayable",
      "type": "function"
    },
    {
      "constant": false,
      "inputs": [
        {
          "internalType": "address",
          "name": "_from",
          "type": "address"
        },
        {
          "internalType": "address",
          "name": "_to",
          "type": "address"
        },
        {
          "internalType": "uint256",
          "name": "_id",
          "type": "uint256"
        },
        {
          "internalType": "uint256",
          "name": "_amount",
          "type": "uint256"
        },
        {
          "internalType": "bool",
          "name": "_isGasFee",
          "type": "bool"
        },
        {
          "internalType": "bytes",
          "name": "_data",
          "type": "bytes"
        }
      ],
      "name": "metaSafeTransferFrom",
      "outputs": [],
      "payable": false,
      "stateMutability": "nonpayable",
      "type": "function"
    },
    {
      "constant": false,
      "inputs": [
        {
          "internalType": "address",
          "name": "_owner",
          "type": "address"
        },
        {
          "internalType": "address",
          "name": "_operator",
          "type": "address"
        },
        {
          "internalType": "bool",
          "name": "_approved",
          "type": "bool"
        },
        {
          "internalType": "bool",
          "name": "_isGasFee",
          "type": "bool"
        },
        {
          "internalType": "bytes",
          "name": "_data",
          "type": "bytes"
        }
      ],
      "name": "metaSetApprovalForAll",
      "outputs": [],
      "payable": false,
      "stateMutability": "nonpayable",
      "type": "function"
    },
    {
      "constant": false,
      "inputs": [
        {
          "internalType": "address",
          "name": "_to",
          "type": "address"
        },
        {
          "internalType": "uint256",
          "name": "_id",
          "type": "uint256"
        },
        {
          "internalType": "uint256",
          "name": "_amount",
          "type": "uint256"
        },
        {
          "internalType": "bytes",
          "name": "_data",
          "type": "bytes"
        }
      ],
      "name": "mint",
      "outputs": [],
      "payable": false,
      "stateMutability": "nonpayable",
      "type": "function"
    },
    {
      "constant": false,
      "inputs": [
        {
          "internalType": "address",
          "name": "_factory",
          "type": "address"
        },
        {
          "internalType": "uint256",
          "name": "_rangeIndex",
          "type": "uint256"
        }
      ],
      "name": "removeMintPermission",
      "outputs": [],
      "payable": false,
      "stateMutability": "nonpayable",
      "type": "function"
    },
    {
      "constant": false,
      "inputs": [
        {
          "internalType": "address",
          "name": "_from",
          "type": "address"
        },
        {
          "internalType": "address",
          "name": "_to",
          "type": "address"
        },
        {
          "internalType": "uint256[]",
          "name": "_ids",
          "type": "uint256[]"
        },
        {
          "internalType": "uint256[]",
          "name": "_amounts",
          "type": "uint256[]"
        },
        {
          "internalType": "bytes",
          "name": "_data",
          "type": "bytes"
        }
      ],
      "name": "safeBatchTransferFrom",
      "outputs": [],
      "payable": false,
      "stateMutability": "nonpayable",
      "type": "function"
    },
    {
      "constant": false,
      "inputs": [
        {
          "internalType": "address",
          "name": "_from",
          "type": "address"
        },
        {
          "internalType": "address",
          "name": "_to",
          "type": "address"
        },
        {
          "internalType": "uint256",
          "name": "_id",
          "type": "uint256"
        },
        {
          "internalType": "uint256",
          "name": "_amount",
          "type": "uint256"
        },
        {
          "internalType": "bytes",
          "name": "_data",
          "type": "bytes"
        }
      ],
      "name": "safeTransferFrom",
      "outputs": [],
      "payable": false,
      "stateMutability": "nonpayable",
      "type": "function"
    },
    {
      "constant": false,
      "inputs": [
        {
          "internalType": "address",
          "name": "_operator",
          "type": "address"
        },
        {
          "internalType": "bool",
          "name": "_approved",
          "type": "bool"
        }
      ],
      "name": "setApprovalForAll",
      "outputs": [],
      "payable": false,
      "stateMutability": "nonpayable",
      "type": "function"
    },
    {
      "constant": false,
      "inputs": [
        {
          "internalType": "string",
          "name": "_newBaseMetadataURI",
          "type": "string"
        }
      ],
      "name": "setBaseMetadataURI",
      "outputs": [],
      "payable": false,
      "stateMutability": "nonpayable",
      "type": "function"
    },
    {
      "constant": false,
      "inputs": [
        {
          "internalType": "uint256[]",
          "name": "_ids",
          "type": "uint256[]"
        },
        {
          "internalType": "uint256[]",
          "name": "_newMaxSupplies",
          "type": "uint256[]"
        }
      ],
      "name": "setMaxSupplies",
      "outputs": [],
      "payable": false,
      "stateMutability": "nonpayable",
      "type": "function"
    },
    {
      "constant": false,
      "inputs": [
        {
          "internalType": "address",
          "name": "_factory",
          "type": "address"
        }
      ],
      "name": "shutdownFactory",
      "outputs": [],
      "payable": false,
      "stateMutability": "nonpayable",
      "type": "function"
    },
    {
      "constant": true,
      "inputs": [
        {
          "internalType": "bytes4",
          "name": "_interfaceID",
          "type": "bytes4"
        }
      ],
      "name": "supportsInterface",
      "outputs": [
        {
          "internalType": "bool",
          "name": "",
          "type": "bool"
        }
      ],
      "payable": false,
      "stateMutability": "view",
      "type": "function"
    },
    {
      "constant": false,
      "inputs": [
        {
          "internalType": "address",
          "name": "_newOwner",
          "type": "address"
        }
      ],
      "name": "transferOwnership",
      "outputs": [],
      "payable": false,
      "stateMutability": "nonpayable",
      "type": "function"
    },
    {
      "constant": true,
      "inputs": [
        {
          "internalType": "uint256",
          "name": "_id",
          "type": "uint256"
        }
      ],
      "name": "uri",
      "outputs": [
        {
          "internalType": "string",
          "name": "",
          "type": "string"
        }
      ],
      "payable": false,
      "stateMutability": "view",
      "type": "function"
    }
  ],
  "bytecode": "0x60806040819052600180546001600160a01b0319163317908190556001600160a01b0316906000907f8be0079c531659141344cd1fd0a4f28419497f9722a3daafe3b4186f6b6457e0908290a36153078061005b6000396000f3fe608060405234801561001057600080fd5b50600436106102055760003560e01c80639136ce1f1161011a578063db90e83c116100ad578063f242432a1161007c578063f242432a1461049e578063f2fde38b146104b1578063f5d4c820146104c4578063f795ab75146104d7578063fa4e12d7146104ea57610205565b8063db90e83c14610444578063de85809114610465578063e985e9c514610478578063eaec5f811461048b57610205565b8063b390c0ab116100e9578063b390c0ab146103f8578063b48ab8b61461040b578063ce0b514b1461041e578063d46c069e1461043157610205565b80639136ce1f146103ac578063a22cb465146103bf578063a36b3f29146103d2578063a3d4926e146103e557610205565b80634e1273f41161019d578063731133e91161016c578063731133e91461034b5780637c44a8bb1461035e5780637e518ec8146103715780638674c69414610384578063893d20e81461039757610205565b80634e1273f4146102fd578063657afa89146103105780636968368b146103255780636c0d172f1461033857610205565b806320ec271b116101d957806320ec271b146102af5780632d0335ab146102c45780632eb2c2d6146102d7578063458d2844146102ea57610205565b8062fdd58e1461022657806301ffc9a71461024f5780630cf383d71461026f5780630e89341c1461028f575b60405162461bcd60e51b815260040161021d90614f1d565b60405180910390fd5b6102396102343660046136e6565b6104fd565b604051610246919061513b565b60405180910390f35b61026261025d36600461390a565b610549565b6040516102469190614d78565b61028261027d36600461383d565b610590565b6040516102469190614d42565b6102a261029d366004613a5f565b61061c565b6040516102469190614eac565b6102c26102bd36600461387e565b610650565b005b6102396102d2366004613283565b6106c4565b6102c26102e53660046133f5565b6106df565b6102c26102f83660046136e6565b61075e565b61028261030b3660046137e0565b610911565b610318610af4565b6040516102469190614d0a565b61028261033336600461383d565b610b68565b6102c2610346366004613716565b610beb565b6102c2610359366004613763565b610d6b565b6102c261036c366004613283565b610e39565b6102c261037f3660046139a3565b610eac565b6102c261039236600461387e565b610f19565b61039f611098565b6040516102469190614bdd565b6102c26103ba366004613283565b6110a7565b6102c26103cd36600461365b565b61111d565b6103186103e0366004613283565b61118c565b6102c26103f3366004613329565b611215565b6102c2610406366004613a7d565b611365565b6102c26104193660046135b5565b611370565b6102c261042c366004613506565b611386565b6102c261043f36600461383d565b611441565b610457610452366004613a5f565b6114a7565b604051610246929190615149565b6102c26104733660046139d8565b6114b4565b6102626104863660046132f9565b61157f565b610239610499366004613a7d565b6115ad565b6102c26104ac36600461355e565b6115c0565b6102c26104bf366004613283565b611638565b6102c26104d23660046134af565b6116d8565b6102626104e5366004613283565b6117db565b6102626104f836600461368b565b6117f9565b600080600061050b846114a7565b6001600160a01b0387166000908152600760209081526040808320858452909152902054919350915061053e90826115ad565b925050505b92915050565b60006001600160e01b031982166301ffc9a760e01b148061057a57506001600160e01b03198216636cdb3d1360e11b145b156105875750600161058b565b5060005b919050565b604080518281526020808402820101909152606090829082908280156105c0578160200160208202803883390190505b50905060005b8281101561061357600660008787848181106105de57fe5b9050602002013581526020019081526020016000205482828151811061060057fe5b60209081029190910101526001016105c6565b50949350505050565b6060600061062983611bdf565b60405160200161063a929190614bb1565b6040516020818303038152906040529050919050565b6106be3385858080602002602001604051908101604052809392919081815260200183836020028082843760009201919091525050604080516020808902828101820190935288825290935088925087918291850190849080828437600092019190915250611ca292505050565b50505050565b6001600160a01b031660009081526009602052604090205490565b336001600160a01b03861614806106fb57506106fb853361157f565b6107175760405162461bcd60e51b815260040161021d90614fed565b6001600160a01b03841661073d5760405162461bcd60e51b815260040161021d90614ecd565b61074985858585611d69565b610757858585855a86612034565b5050505050565b6001546001600160a01b031633146107885760405162461bcd60e51b815260040161021d906150ad565b6001600160a01b038216600090815260036020526040902054600019016107ad612e1d565b6001600160a01b03841660009081526003602052604090208054849081106107d157fe5b90600052602060002090600202016040518060400160405290816000820154815260200160018201548152505090508183146108a05761080f612e1d565b6001600160a01b038516600090815260036020526040902080548490811061083357fe5b6000918252602080832060408051808201825260029094029091018054845260010154838301526001600160a01b03891684526003909152909120805491925082918690811061087f57fe5b60009182526020918290208351600290920201908155910151600190910155505b6001600160a01b03841660009081526003602052604090208054906108c9906000198301612e37565b50836001600160a01b03167f9cf6eb7f8948503042c3afb1917f77a803b3e1b64d74ffe4592515976e32d3d082604051610903919061512d565b60405180910390a250505050565b815181516060919081146109375760405162461bcd60e51b815260040161021d90614ebd565b6000806109578560008151811061094a57fe5b60200260200101516114a7565b915091506000600760008860008151811061096e57fe5b60200260200101516001600160a01b03166001600160a01b03168152602001908152602001600020600084815260200190815260200160002054905060008390506060856040519080825280602002602001820160405280156109db578160200160208202803883390190505b5090506109e883856115ad565b816000815181106109f557fe5b602090810291909101015260015b86811015610ae757610a1a89828151811061094a57fe5b90965094508286141580610a695750898181518110610a3557fe5b60200260200101516001600160a01b03168a6001830381518110610a5557fe5b60200260200101516001600160a01b031614155b15610abe57600760008b8381518110610a7e57fe5b60200260200101516001600160a01b03166001600160a01b0316815260200190815260200160002060008781526020019081526020016000205493508592505b610ac884866115ad565b828281518110610ad457fe5b6020908102919091010152600101610a03565b5098975050505050505050565b60606004805480602002602001604051908101604052809291908181526020016000905b82821015610b5e57838290600052602060002090600202016040518060400160405290816000820154815260200160018201548152505081526020019060010190610b18565b5050505090505b90565b60408051828152602080840282010190915260609082908290828015610b98578160200160208202803883390190505b50905060005b828110156106135760056000878784818110610bb657fe5b90506020020135815260200190815260200160002054828281518110610bd857fe5b6020908102919091010152600101610b9e565b6001546001600160a01b03163314610c155760405162461bcd60e51b815260040161021d906150ad565b60008111610c355760405162461bcd60e51b815260040161021d90614fdd565b80821115610c555760405162461bcd60e51b815260040161021d90614f0d565b60005b600454811015610ce057610c6a612e1d565b60048281548110610c7757fe5b90600052602060002090600202016040518060400160405290816000820154815260200160018201548152505090508060000151831080610cbb5750838160200151105b610cd75760405162461bcd60e51b815260040161021d9061508d565b50600101610c58565b50610ce9612e1d565b5060408051808201825283815260208082018481526001600160a01b0387166000818152600384528581208054600181810183559183529490912085516002909502019384559151929091019190915591519091907f965a50e19029dc4d98264ddfbaabb6e167ad0f25f17e1faa46157cc83d28fe409061090390849061512d565b6040805160018082528183019092526060916020808301908038833950506040805160018082528183019092529293506060929150602080830190803883390190505090508582600081518110610dbe57fe5b6020026020010181815250508481600081518110610dd857fe5b602002602001018181525050610dee8282612107565b610e3087878787878080601f0160208091040260200160405190810160405280939291908181526020018383808284376000920191909152506122d192505050565b50505050505050565b6001546001600160a01b03163314610e635760405162461bcd60e51b815260040161021d906150ad565b6001600160a01b038116600081815260026020526040808220805460ff19169055517f472ecaf428225ecdcc1f686a662ed1ba0627c365542e086b483bacca0fcfa5f99190a250565b6001546001600160a01b03163314610ed65760405162461bcd60e51b815260040161021d906150ad565b610f1582828080601f01602080910402602001604051908101604052809392919081815260200183838082843760009201919091525061234592505050565b5050565b6001546001600160a01b03163314610f435760405162461bcd60e51b815260040161021d906150ad565b828114610f625760405162461bcd60e51b815260040161021d9061509d565b60005b8381101561105457600060066000878785818110610f7f57fe5b90506020020135815260200190815260200160002054111561100f57828282818110610fa757fe5b905060200201356000108015610ff3575060066000868684818110610fc857fe5b90506020020135815260200190815260200160002054838383818110610fea57fe5b90506020020135105b61100f5760405162461bcd60e51b815260040161021d9061511d565b82828281811061101b57fe5b905060200201356006600087878581811061103257fe5b6020908102929092013583525081019190915260400160002055600101610f65565b507f5dc98454e9ef221d2c326d38ca85665e2dd41e43340dba1064d38d424695dc448484848460405161108a9493929190614d1b565b60405180910390a150505050565b6001546001600160a01b031690565b6001546001600160a01b031633146110d15760405162461bcd60e51b815260040161021d906150ad565b6001600160a01b038116600081815260026020526040808220805460ff19166001179055517f672dbf7f8dabd5b1b39124540440a9ef2537a03c053f111f7e90850e57e2efb69190a250565b3360008181526008602090815260408083206001600160a01b038716808552925291829020805460ff191685151517905590519091907f17307eab39ab6107e8899845ad3d59bd9653f200f220920489ca2b5937696c3190611180908590614d78565b60405180910390a35050565b6001600160a01b0381166000908152600360209081526040808320805482518185028101850190935280835260609492939192909184015b8282101561120a578382906000526020600020906002020160405180604001604052908160008201548152602001600182015481525050815260200190600101906111c4565b505050509050919050565b6001600160a01b03851661123b5760405162461bcd60e51b815260040161021d9061506d565b6060611245612e68565b60606112f889857fa3d4926e8cf8fe8e020cd29f514c256bc2eec62aa2337e415f1a33a4828af5a060001b8c8c8c6040516020016112839190614b1e565b604051602081830303815290604052805190602001208c6040516020016112aa9190614b1e565b604051602081830303815290604052805190602001208c6112cc5760006112cf565b60015b6040516020016112e496959493929190614da1565b604051602081830303815290604052612358565b905061130689898989611d69565b841561134c57808060200190516113209190810190613a2a565b602082015190945090925061133d908a908a908a908a9086612034565b61134789836124c2565b61135a565b61135a898989895a86612034565b505050505050505050565b610f153383836126d1565b61137a8383612107565b6106be8484848461273b565b6001600160a01b0385166113ac5760405162461bcd60e51b815260040161021d9061503d565b60606113b6612e68565b60606113ee89857fce0b514b3931bdbe4d5d44e4f035afe7113767b7db71949271f6a62d9c60f558828c8c8c8c6112cc5760006112cf565b90506113fc898989896128d2565b841561143357808060200190516114169190810190613a2a565b602082015190945090925061133d908a908a908a908a908661293b565b61135a898989895a8661293b565b6001546001600160a01b0316331461146b5760405162461bcd60e51b815260040161021d906150ad565b610f15828280806020026020016040519081016040528093929190818152602001838360200280828437600092019190915250612a0e92505050565b6008810491600790911690565b6001546001600160a01b031633146114de5760405162461bcd60e51b815260040161021d906150ad565b6004805460018101825560009190915281517f8a35acfbc15ff81a39ae7d344fd709f28e8600b4aa8c65c6b64bfe7fe36bd19b60029092029182015560208201517f8a35acfbc15ff81a39ae7d344fd709f28e8600b4aa8c65c6b64bfe7fe36bd19c909101556040517fdd7262568b5f7de0e9b83b70898738f6dd20fe8da4fe0c02b55f1d25e26ba8ca9061157490839061512d565b60405180910390a150565b6001600160a01b03918216600090815260086020908152604080832093909416825291909152205460ff1690565b6020810282901c63ffffffff1692915050565b336001600160a01b03861614806115dc57506115dc853361157f565b6115f85760405162461bcd60e51b815260040161021d90614f7d565b6001600160a01b03841661161e5760405162461bcd60e51b815260040161021d9061507d565b61162a858585856128d2565b610757858585855a8661293b565b6001546001600160a01b031633146116625760405162461bcd60e51b815260040161021d906150ad565b6001600160a01b0381166116885760405162461bcd60e51b815260040161021d90614f4d565b600180546001600160a01b0319166001600160a01b0383811691821792839055604051919216907f8be0079c531659141344cd1fd0a4f28419497f9722a3daafe3b4186f6b6457e090600090a350565b606061173486837ff5d4c820494c8595de274c7ff619bead38aac4fbc3d143b5bf956aa4b84fa52482898961170e576000611711565b60015b8961171d576000611720565b60015b6040516020016112e4959493929190614df0565b6001600160a01b038781166000818152600860209081526040808320948b168084529490915290819020805460ff19168915151790555192935090917f17307eab39ab6107e8899845ad3d59bd9653f200f220920489ca2b5937696c319061179d908890614d78565b60405180910390a382156117d3576117b3612e68565b818060200190516117c791908101906139f6565b9050610e3087826124c2565b505050505050565b6001600160a01b031660009081526002602052604090205460ff1690565b60008082511161181b5760405162461bcd60e51b815260040161021d9061505d565b6001600160a01b0385166118415760405162461bcd60e51b815260040161021d9061502d565b600061184c83612b44565b60f81c9050600581106118715760405162461bcd60e51b815260040161021d90614f5d565b60008160ff16600581111561188257fe5b905060008080808085600581111561189657fe5b14156118b45760405162461bcd60e51b815260040161021d90614f8d565b60018560058111156118c257fe5b14156119985787516061146118e95760405162461bcd60e51b815260040161021d90614fbd565b6118fa88600063ffffffff612b9216565b925061190d88602063ffffffff612b9216565b91508760408151811061191c57fe5b602001015160f81c60f81b60f81c935060018a8585856040516000815260200160405260405161194f9493929190614e52565b6020604051602081039080840390855afa158015611971573d6000803e3d6000fd5b5050604051601f1901516001600160a01b038d81169116149750611bd79650505050505050565b60028560058111156119a657fe5b1415611a595787516061146119cd5760405162461bcd60e51b815260040161021d90614fbd565b6119de88600063ffffffff612b9216565b92506119f188602063ffffffff612b9216565b915087604081518110611a0057fe5b602001015160f81c60f81b60f81c935060018a604051602001611a239190614bbd565b604051602081830303815290604052805190602001208585856040516000815260200160405260405161194f9493929190614e52565b6003856005811115611a6757fe5b1415611b0c576040516320c13b0b60e01b81526001600160a01b038c16906320c13b0b90611a9b908c908c90600401614e87565b60206040518083038186803b158015611ab357600080fd5b505afa158015611ac7573d6000803e3d6000fd5b505050506040513d601f19601f82011682018060405250611aeb9190810190613928565b6001600160e01b0319166320c13b0b60e01b149650611bd795505050505050565b6004856005811115611b1a57fe5b1415611bbf57604051630b135d3f60e11b81526001600160a01b038c1690631626ba7e90611b4e908d908c90600401614e32565b60206040518083038186803b158015611b6657600080fd5b505afa158015611b7a573d6000803e3d6000fd5b505050506040513d601f19601f82011682018060405250611b9e9190810190613928565b6001600160e01b031916630b135d3f60e11b149650611bd795505050505050565b60405162461bcd60e51b815260040161021d90614f5d565b949350505050565b606081611c0457506040805180820190915260018152600360fc1b602082015261058b565b818060005b8215611c1d57600101600a83049250611c09565b6060816040519080825280601f01601f191660200182016040528015611c4a576020820181803883390190505b50905060001982015b8315611c9857600a840660300160f81b82828060019003935081518110611c7657fe5b60200101906001600160f81b031916908160001a905350600a84049350611c53565b5095945050505050565b815181518114611cc45760405162461bcd60e51b815260040161021d9061500d565b60005b81811015611d0a57611d0285858381518110611cdf57fe5b6020026020010151858481518110611cf357fe5b60200260200101516001612bc1565b600101611cc7565b5060006001600160a01b0316846001600160a01b0316336001600160a01b03167f4a39dc06d4c0dbc64b70af90fd698a233a518aa5d07e595d983b8c0526c8f7fb8686604051611d5b929190614d53565b60405180910390a450505050565b815181518114611d8b5760405162461bcd60e51b815260040161021d90614f9d565b836001600160a01b0316856001600160a01b031614158015611dad5750600081115b15611f7257600080611dc58560008151811061094a57fe5b915091506000611e22600760008a6001600160a01b03166001600160a01b031681526020019081526020016000206000858152602001908152602001600020548387600081518110611e1357fe5b60200260200101516001612c32565b90506000611e7d600760008a6001600160a01b03166001600160a01b031681526020019081526020016000206000868152602001908152602001600020548488600081518110611e6e57fe5b60200260200101516000612c32565b90508360015b86811015611f2c57611e9a89828151811061094a57fe5b9096509450818614611efe576001600160a01b038b8116600090815260076020818152604080842087855280835281852099909955938e16835290815282822094825284815282822095909555878152948452808520549290935291909220549084905b611f0f84868a8481518110611e1357fe5b9350611f2283868a8481518110611e6e57fe5b9250600101611e83565b50506001600160a01b03808a166000908152600760208181526040808420898552825280842096909655928b168252825283812095815294905292209190915550611fd6565b60005b81811015611fd457828181518110611f8957fe5b6020026020010151611fae87868481518110611fa157fe5b60200260200101516104fd565b1015611fcc5760405162461bcd60e51b815260040161021d9061501d565b600101611f75565b505b836001600160a01b0316856001600160a01b0316336001600160a01b03167f4a39dc06d4c0dbc64b70af90fd698a233a518aa5d07e595d983b8c0526c8f7fb8686604051612025929190614d53565b60405180910390a45050505050565b612046856001600160a01b0316612d28565b156117d3576000856001600160a01b031663bc197c8184338a8989886040518763ffffffff1660e01b8152600401612082959493929190614beb565b602060405180830381600088803b15801561209c57600080fd5b5087f11580156120b0573d6000803e3d6000fd5b50505050506040513d601f19601f820116820180604052506120d59190810190613928565b90506001600160e01b0319811663bc197c8160e01b14610e305760405162461bcd60e51b815260040161021d90614fad565b3360009081526002602052604090205460ff166121365760405162461bcd60e51b815260040161021d90614ffd565b3360009081526003602052604090205461214e612e1d565b336000908152600360205260408120805490919061216857fe5b60009182526020808320604080518082019091526002909302018054835260010154908201529150805b85518110156117d35760008682815181106121a957fe5b6020026020010151905060008683815181106121c157fe5b602002602001015190506000600660008481526020019081526020016000205490505b85518310806121f65750828660200151105b1561226f576001850194508685106122205760405162461bcd60e51b815260040161021d90614eed565b33600090815260036020526040902080548690811061223b57fe5b90600052602060002090600202016040518060400160405290816000820154815260200160018201548152505095506121e4565b80156122c657600083815260056020526040812054612294908463ffffffff612d5f16565b9050818111156122b65760405162461bcd60e51b815260040161021d90614fcd565b6000848152600560205260409020555b505050600101612192565b6122de8484846000612bc1565b836001600160a01b031660006001600160a01b0316336001600160a01b03167fc3d58168c5ae7397731d063d5bbf3d657854427343f4c083240f7aacaa2d0f62868660405161232e929190615149565b60405180910390a46106be60008585855a8661293b565b8051610f15906000906020840190612e99565b6060808380602001905161236f9190810190613946565b6001600160a01b038716600090815260096020526040812054919450919250906123a083604163ffffffff612b9216565b90508181108015906123b457508160640181105b6123d05760405162461bcd60e51b815260040161021d90614f2d565b600061240c868387805190602001206040516020016123f193929190614b2a565b60405160208183030381529060405280519060200120612d84565b9050606086838760405160200161242593929190614b5d565b60408051601f198184030181528282526001600160a01b038c166000818152600960205292909220600187019081905590935090917fb861b7bdbe611a846ab271b8d2810391bc8b5a968f390c322438ecab66bccf59916124859161513b565b60405180910390a2612499898383886117f9565b6124b55760405162461bcd60e51b815260040161021d90614f6d565b50505050505b9392505050565b60006124d18260600151612b44565b60f81c9050600281106124f65760405162461bcd60e51b815260040161021d906150bd565b60008160ff16600281111561250757fe5b83516040850151919250600091829182916001600160a01b031615612530578660400151612532565b335b9250600085600281111561254257fe5b141561260e57866060015180602001905161256091908101906132bf565b90945091506001600160a01b0384163014156125a457612582888484846128d2565b61259f8884845a856040518060200160405280600081525061293b565b612609565b604051637921219560e11b81526001600160a01b0385169063f242432a906125d6908b90879087908790600401614cba565b600060405180830381600087803b1580156125f057600080fd5b505af1158015612604573d6000803e3d6000fd5b505050505b6126c7565b866060015180602001905161262691908101906132a1565b6040516323b872dd60e01b81529094506001600160a01b038516906323b872dd90612659908b9087908690600401614c92565b602060405180830381600087803b15801561267357600080fd5b505af1158015612687573d6000803e3d6000fd5b505050506040513d601f19601f820116820180604052506126ab91908101906138ec565b6126c75760405162461bcd60e51b815260040161021d90614edd565b5050505050505050565b6126de8383836001612bc1565b60006001600160a01b0316836001600160a01b0316336001600160a01b03167fc3d58168c5ae7397731d063d5bbf3d657854427343f4c083240f7aacaa2d0f62858560405161272e929190615149565b60405180910390a4505050565b815183511461275c5760405162461bcd60e51b815260040161021d906150fd565b82511561286b576000806127768560008151811061094a57fe5b9150915060006127c460076000896001600160a01b03166001600160a01b031681526020019081526020016000206000858152602001908152602001600020548387600081518110611e6e57fe5b86519091508360015b8281101561283d576127e489828151811061094a57fe5b9096509450818614612822576001600160a01b038a166000908152600760209081526040808320948352939052828120949094558584529220549184905b61283384868a8481518110611e6e57fe5b93506001016127cd565b5050506001600160a01b03871660009081526007602090815260408083209583529490529290922091909155505b836001600160a01b031660006001600160a01b0316336001600160a01b03167f4a39dc06d4c0dbc64b70af90fd698a233a518aa5d07e595d983b8c0526c8f7fb86866040516128bb929190614d53565b60405180910390a46106be60008585855a86612034565b6128df8483836001612bc1565b6128ec8383836000612bc1565b826001600160a01b0316846001600160a01b0316336001600160a01b03167fc3d58168c5ae7397731d063d5bbf3d657854427343f4c083240f7aacaa2d0f628585604051611d5b929190615149565b61294d856001600160a01b0316612d28565b156117d3576000856001600160a01b031663f23a6e6184338a8989886040518763ffffffff1660e01b8152600401612989959493929190614c4b565b602060405180830381600088803b1580156129a357600080fd5b5087f11580156129b7573d6000803e3d6000fd5b50505050506040513d601f19601f820116820180604052506129dc9190810190613928565b90506001600160e01b0319811663f23a6e6160e01b14610e305760405162461bcd60e51b815260040161021d9061504d565b60008054604080516020601f6002600019610100600188161502019095169490940493840181900481028201810190925282815260609390929091830182828015612a9a5780601f10612a6f57610100808354040283529160200191612a9a565b820191906000526020600020905b815481529060010190602001808311612a7d57829003601f168201915b50505050509050606060008090505b83518110156106be5782612acf858381518110612ac257fe5b6020026020010151611bdf565b604051602001612ae0929190614b8e565b6040516020818303038152906040529150838181518110612afd57fe5b60200260200101517f6bb7ff708619ba0610cba295a58592e0451dee2622938c8755667688daf3529b83604051612b349190614eac565b60405180910390a2600101612aa9565b600080825111612b665760405162461bcd60e51b815260040161021d90614efd565b81600183510381518110612b7657fe5b0160200151825160001901909252506001600160f81b03191690565b60008160200183511015612bb85760405162461bcd60e51b815260040161021d906150cd565b50016020015190565b600080612bcd856114a7565b6001600160a01b03881660009081526007602090815260408083208584529091529020549193509150612c0290828686612c32565b6001600160a01b039096166000908152600760209081526040808320948352939052919091209490945550505050565b60006020840263ffffffff82846001811115612c4a57fe5b1415612ca65784821b8701925086831015612c775760405162461bcd60e51b815260040161021d9061510d565b64010000000087831c8216860110612ca15760405162461bcd60e51b815260040161021d9061510d565b612d1e565b6001846001811115612cb457fe5b1415612d065784821b8703925086831115612ce15760405162461bcd60e51b815260040161021d90614f3d565b84818389901c161015612ca15760405162461bcd60e51b815260040161021d90614f3d565b60405162461bcd60e51b815260040161021d906150ed565b5050949350505050565b6000813f80158015906124bb57507fc5d2460186f7233c927e7db2dcc703c0e500b653ca82273b7bfad8045d85a470141592915050565b6000828201838110156124bb5760405162461bcd60e51b815260040161021d906150dd565b600060405180604001604052806002815260200161190160f01b8152507f035aff83d86937d35b32e04f0ddc6ff469290eef2f1b692d8a815c89404d474960001b30604051602001612dd7929190614d86565b6040516020818303038152906040528051906020012083604051602001612e0093929190614b2a565b604051602081830303815290604052805190602001209050919050565b604051806040016040528060008152602001600081525090565b815481835581811115612e6357600202816002028360005260206000209182019101612e639190612f17565b505050565b6040518060800160405280600081526020016000815260200160006001600160a01b03168152602001606081525090565b828054600181600116156101000203166002900490600052602060002090601f016020900481019282601f10612eda57805160ff1916838001178555612f07565b82800160010185558215612f07579182015b82811115612f07578251825591602001919060010190612eec565b50612f13929150612f37565b5090565b610b6591905b80821115612f135760008082556001820155600201612f1d565b610b6591905b80821115612f135760008155600101612f3d565b803561054381615272565b805161054381615272565b600082601f830112612f7857600080fd5b8135612f8b612f868261518a565b615164565b91508181835260208401935060208101905083856020840282011115612fb057600080fd5b60005b83811015612fdc5781612fc68882612f51565b8452506020928301929190910190600101612fb3565b5050505092915050565b60008083601f840112612ff857600080fd5b5081356001600160401b0381111561300f57600080fd5b60208301915083602082028301111561302757600080fd5b9250929050565b600082601f83011261303f57600080fd5b813561304d612f868261518a565b9150818183526020840193506020810190508385602084028201111561307257600080fd5b60005b83811015612fdc578161308888826130b4565b8452506020928301929190910190600101613075565b803561054381615289565b805161054381615289565b803561054381615292565b80356105438161529b565b80516105438161529b565b60008083601f8401126130e757600080fd5b5081356001600160401b038111156130fe57600080fd5b60208301915083600182028301111561302757600080fd5b600082601f83011261312757600080fd5b8151613135612f86826151aa565b9150808252602083016020830185838301111561315157600080fd5b61315c83828461523c565b50505092915050565b600082601f83011261317657600080fd5b8135613184612f86826151aa565b915080825260208301602083018583830111156131a057600080fd5b61315c838284615230565b6000604082840312156131bd57600080fd5b6131c76040615164565b905060006131d584846130b4565b82525060206131e6848483016130b4565b60208301525092915050565b60006080828403121561320457600080fd5b61320e6080615164565b9050600061321c8484613278565b825250602061322d84848301613278565b602083015250604061324184828501612f5c565b60408301525060608201516001600160401b0381111561326057600080fd5b61326c84828501613116565b60608301525092915050565b805161054381615292565b60006020828403121561329557600080fd5b6000611bd78484612f51565b6000602082840312156132b357600080fd5b6000611bd78484612f5c565b600080604083850312156132d257600080fd5b60006132de8585612f5c565b92505060206132ef85828601613278565b9150509250929050565b6000806040838503121561330c57600080fd5b60006133188585612f51565b92505060206132ef85828601612f51565b60008060008060008060c0878903121561334257600080fd5b600061334e8989612f51565b965050602061335f89828a01612f51565b95505060408701356001600160401b0381111561337b57600080fd5b61338789828a0161302e565b94505060608701356001600160401b038111156133a357600080fd5b6133af89828a0161302e565b93505060806133c089828a0161309e565b92505060a08701356001600160401b038111156133dc57600080fd5b6133e889828a01613165565b9150509295509295509295565b600080600080600060a0868803121561340d57600080fd5b60006134198888612f51565b955050602061342a88828901612f51565b94505060408601356001600160401b0381111561344657600080fd5b6134528882890161302e565b93505060608601356001600160401b0381111561346e57600080fd5b61347a8882890161302e565b92505060808601356001600160401b0381111561349657600080fd5b6134a288828901613165565b9150509295509295909350565b600080600080600060a086880312156134c757600080fd5b60006134d38888612f51565b95505060206134e488828901612f51565b94505060406134f58882890161309e565b935050606061347a8882890161309e565b60008060008060008060c0878903121561351f57600080fd5b600061352b8989612f51565b965050602061353c89828a01612f51565b955050604061354d89828a016130b4565b94505060606133af89828a016130b4565b600080600080600060a0868803121561357657600080fd5b60006135828888612f51565b955050602061359388828901612f51565b94505060406135a4888289016130b4565b935050606061347a888289016130b4565b600080600080608085870312156135cb57600080fd5b60006135d78787612f51565b94505060208501356001600160401b038111156135f357600080fd5b6135ff8782880161302e565b93505060408501356001600160401b0381111561361b57600080fd5b6136278782880161302e565b92505060608501356001600160401b0381111561364357600080fd5b61364f87828801613165565b91505092959194509250565b6000806040838503121561366e57600080fd5b600061367a8585612f51565b92505060206132ef8582860161309e565b600080600080608085870312156136a157600080fd5b60006136ad8787612f51565b94505060206136be878288016130b4565b93505060408501356001600160401b038111156136da57600080fd5b61362787828801613165565b600080604083850312156136f957600080fd5b60006137058585612f51565b92505060206132ef858286016130b4565b60008060006060848603121561372b57600080fd5b60006137378686612f51565b9350506020613748868287016130b4565b9250506040613759868287016130b4565b9150509250925092565b60008060008060006080868803121561377b57600080fd5b60006137878888612f51565b9550506020613798888289016130b4565b94505060406137a9888289016130b4565b93505060608601356001600160401b038111156137c557600080fd5b6137d1888289016130d5565b92509250509295509295909350565b600080604083850312156137f357600080fd5b82356001600160401b0381111561380957600080fd5b61381585828601612f67565b92505060208301356001600160401b0381111561383157600080fd5b6132ef8582860161302e565b6000806020838503121561385057600080fd5b82356001600160401b0381111561386657600080fd5b61387285828601612fe6565b92509250509250929050565b6000806000806040858703121561389457600080fd5b84356001600160401b038111156138aa57600080fd5b6138b687828801612fe6565b945094505060208501356001600160401b038111156138d457600080fd5b6138e087828801612fe6565b95989497509550505050565b6000602082840312156138fe57600080fd5b6000611bd784846130a9565b60006020828403121561391c57600080fd5b6000611bd784846130bf565b60006020828403121561393a57600080fd5b6000611bd784846130ca565b6000806040838503121561395957600080fd5b82516001600160401b0381111561396f57600080fd5b61397b85828601613116565b92505060208301516001600160401b0381111561399757600080fd5b6132ef85828601613116565b600080602083850312156139b657600080fd5b82356001600160401b038111156139cc57600080fd5b613872858286016130d5565b6000604082840312156139ea57600080fd5b6000611bd784846131ab565b600060208284031215613a0857600080fd5b81516001600160401b03811115613a1e57600080fd5b611bd7848285016131f2565b60008060408385031215613a3d57600080fd5b82516001600160401b03811115613a5357600080fd5b61397b858286016131f2565b600060208284031215613a7157600080fd5b6000611bd784846130b4565b60008060408385031215613a9057600080fd5b600061370585856130b4565b6000613aa88383614af1565b505060400190565b6000613abc8383613c13565b505060200190565b613acd8161521f565b82525050565b613acd816151f0565b6000613ae7826151e3565b613af181856151e7565b9350613afc836151d1565b8060005b83811015613b2a578151613b148882613a9c565b9750613b1f836151d1565b925050600101613b00565b509495945050505050565b6000613b4183856151e7565b93506001600160fb1b03831115613b5757600080fd5b602083029250613b68838584615230565b50500190565b6000613b79826151e3565b613b8381856151e7565b9350613b8e836151d1565b8060005b83811015613b2a578151613ba68882613ab0565b9750613bb1836151d1565b925050600101613b92565b6000613bc7826151e3565b613bd1818561058b565b9350613bdc836151d1565b8060005b83811015613b2a578151613bf48882613ab0565b9750613bff836151d1565b925050600101613be0565b613acd816151fb565b613acd81610b65565b613acd613c2882610b65565b610b65565b6000613c38826151e3565b613c4281856151e7565b9350613c5281856020860161523c565b613c5b81615268565b9093019392505050565b6000613c70826151e3565b613c7a818561058b565b9350613c8a81856020860161523c565b9290920192915050565b600081546001811660008114613cb15760018114613cd457613d13565b607f6002830416613cc2818761058b565b60ff1984168152955085019250613d13565b60028204613ce2818761058b565b9550613ced856151d7565b60005b82811015613d0c57815488820152600190910190602001613cf0565b5050850192505b505092915050565b6000613d286039836151e7565b7f455243313135355061636b656442616c616e63652362616c616e63654f66426181527f7463683a20494e56414c49445f41525241595f4c454e47544800000000000000602082015260400192915050565b6000613d87601c8361058b565b7f19457468657265756d205369676e6564204d6573736167653a0a3332000000008152601c0192915050565b6000613dc0603d836151e7565b7f455243313135355061636b656442616c616e636523736166654261746368547281527f616e7366657246726f6d3a20494e56414c49445f524543495049454e54000000602082015260400192915050565b6000613e1f603f836151e7565b7f455243313135354d6574615061636b656442616c616e6365235f7472616e736681527f65724761734665653a2045524332305f5452414e534645525f4641494c454400602082015260400192915050565b6000613e7e602f836151e7565b7f5357537570706c794d616e61676572235f76616c69646174654d696e74733a2081526e49445f4f55545f4f465f52414e474560881b602082015260400192915050565b6000613ecf6037836151e7565b7f4c6962427974657323706f704c617374427974653a20475245415445525f544881527f414e5f5a45524f5f4c454e4754485f5245515549524544000000000000000000602082015260400192915050565b6000613f2e6030836151e7565b7f5357537570706c794d616e61676572236164644d696e745065726d697373696f81526f6e3a20494e56414c49445f52414e474560801b602082015260400192915050565b6000613f806012836151e7565b71155394d5541413d495115117d351551213d160721b815260200192915050565b6000613fae603c836151e7565b7f455243313135354d6574615061636b656442616c616e6365235f7369676e617481527f75726556616c69646174696f6e3a20494e56414c49445f4e4f4e434500000000602082015260400192915050565b600061400d6033836151e7565b7f455243313135355061636b656442616c616e6365235f7669657755706461746581527242696e56616c75653a20554e444552464c4f5760681b602082015260400192915050565b6000614062602a836151e7565b7f4f776e61626c65237472616e736665724f776e6572736869703a20494e56414c81526949445f4144445245535360b01b602082015260400192915050565b60006140ae603a836151e7565b6000805160206152a583398151915281527f7572653a20554e535550504f525445445f5349474e4154555245000000000000602082015260400192915050565b60006140fb6040836151e7565b7f455243313135354d6574615061636b656442616c616e6365235f7369676e617481527f75726556616c69646174696f6e3a20494e56414c49445f5349474e4154555245602082015260400192915050565b600061415a6037836151e7565b7f455243313135355061636b656442616c616e636523736166655472616e73666581527f7246726f6d3a20494e56414c49445f4f50455241544f52000000000000000000602082015260400192915050565b60006141b96036836151e7565b6000805160206152a58339815191528152757572653a20494c4c4547414c5f5349474e415455524560501b602082015260400192915050565b60006141ff6042836151e7565b7f455243313135355061636b656442616c616e6365235f7361666542617463685481527f72616e7366657246726f6d3a20494e56414c49445f4152524159535f4c454e476020820152610a8960f31b604082015260600192915050565b6000614269604c836151e7565b7f455243313135355061636b656442616c616e6365235f63616c6c6f6e4552433181527f313535426174636852656365697665643a20494e56414c49445f4f4e5f52454360208201526b454956455f4d45535341474560a01b604082015260600192915050565b60006142dd6037836151e7565b6000805160206152a583398151915281527f7572653a204c454e4754485f39375f5245515549524544000000000000000000602082015260400192915050565b600061432a6033836151e7565b7f5357537570706c794d616e61676572235f76616c69646174654d696e74733a2081527213505617d4d55414131657d15610d151511151606a1b602082015260400192915050565b600061437f602d836151e7565b7f5357537570706c794d616e61676572236164644d696e745065726d697373696f81526c6e3a204e554c4c5f52414e474560981b602082015260400192915050565b60006143ce603c836151e7565b7f455243313135355061636b656442616c616e636523736166654261746368547281527f616e7366657246726f6d3a20494e56414c49445f4f50455241544f5200000000602082015260400192915050565b600061442d60058361058b565b64173539b7b760d91b815260050192915050565b600061444e6032836151e7565b7f5357537570706c794d616e61676572235f76616c69646174654d696e74733a20815271464143544f52595f4e4f545f41435449564560701b602082015260400192915050565b60006144a2603d836151e7565b7f455243313135354d696e744275726e5061636b656442616c616e63652362617481527f63684275726e3a20494e56414c49445f4152524159535f4c454e475448000000602082015260400192915050565b60006145016036836151e7565b7f455243313135355061636b656442616c616e6365235f7361666542617463685481527572616e7366657246726f6d3a20554e444552464c4f5760501b602082015260400192915050565b60006145596033836151e7565b6000805160206152a58339815191528152723ab9329d1024a72b20a624a22fa9a4a3a722a960691b602082015260400192915050565b600061459c6040836151e7565b7f455243313135354d6574615061636b656442616c616e6365236d65746153616681527f655472616e7366657246726f6d3a20494e56414c49445f524543495049454e54602082015260400192915050565b60006145fb6047836151e7565b7f455243313135355061636b656442616c616e6365235f63616c6c6f6e4552433181527f31353552656365697665643a20494e56414c49445f4f4e5f524543454956455f6020820152664d45535341474560c81b604082015260600192915050565b600061466a6043836151e7565b6000805160206152a583398151915281527f7572653a204c454e4754485f475245415445525f5448414e5f305f524551554960208201526214915160ea1b604082015260600192915050565b60006146c36045836151e7565b7f455243313135354d6574615061636b656442616c616e6365236d65746153616681527f6542617463685472616e7366657246726f6d3a20494e56414c49445f52454349602082015264141251539560da1b604082015260600192915050565b60006105436000836151e7565b600061473d6038836151e7565b7f455243313135355061636b656442616c616e636523736166655472616e73666581527f7246726f6d3a20494e56414c49445f524543495049454e540000000000000000602082015260400192915050565b600061479c603c836151e7565b7f5357537570706c794d616e61676572236164644d696e745065726d697373696f81527f6e3a204f5645524c41505f574954485f4c4f434b45445f52414e474500000000602082015260400192915050565b60006147fb6033836151e7565b7f5357537570706c794d616e61676572237365744d6178537570706c793a20494e8152720ac82989288be82a4a482b2a6be988a9c8ea89606b1b602082015260400192915050565b60006148506026836151e7565b7f4f776e61626c65236f6e6c794f776e65723a2053454e4445525f49535f4e4f548152652fa7aba722a960d11b602082015260400192915050565b6000614898603b836151e7565b7f455243313135354d6574615061636b656442616c616e6365235f7472616e736681527f65724761734665653a20554e535550504f525445445f544f4b454e0000000000602082015260400192915050565b60006148f7603c836151e7565b7f4c696242797465732372656164427974657333323a20475245415445525f4f5281527f5f455155414c5f544f5f33325f4c454e4754485f524551554952454400000000602082015260400192915050565b60006149566016836151e7565b75536166654d617468236164643a204f564552464c4f5760501b815260200192915050565b60006149886045836151e7565b7f455243313135355061636b656442616c616e6365235f7669657755706461746581527f42696e56616c75653a20494e56414c49445f42494e5f57524954455f4f50455260208201526420aa24a7a760d91b604082015260600192915050565b60006149f5603e836151e7565b7f455243313135354d696e744275726e5061636b656442616c616e6365235f626181527f7463684d696e743a20494e56414c49445f4152524159535f4c454e4754480000602082015260400192915050565b6000614a546032836151e7565b7f455243313135355061636b656442616c616e6365235f7669657755706461746581527142696e56616c75653a204f564552464c4f5760701b602082015260400192915050565b6000614aa86034836151e7565b7f5357537570706c794d616e61676572237365744d6178537570706c793a20494e81527356414c49445f4e45575f4d41585f535550504c5960601b602082015260400192915050565b80516040830190614b028482613c13565b5060208201516106be6020850182613c13565b613acd81615219565b60006124bb8284613bbc565b6000614b368286613c65565b9150614b428285613c1c565b602082019150614b528284613c1c565b506020019392505050565b6000614b698286613c65565b9150614b758285613c1c565b602082019150614b858284613c65565b95945050505050565b6000614b9a8285613c65565b9150614ba68284613c65565b9150611bd782614420565b6000614b9a8285613c94565b6000614bc882613d7a565b9150614bd48284613c1c565b50602001919050565b602081016105438284613ad3565b60a08101614bf98288613ac4565b614c066020830187613ad3565b8181036040830152614c188186613b6e565b90508181036060830152614c2c8185613b6e565b90508181036080830152614c408184613c2d565b979650505050505050565b60a08101614c598288613ac4565b614c666020830187613ad3565b614c736040830186613c13565b614c806060830185613c13565b8181036080830152614c408184613c2d565b60608101614ca08286613ad3565b614cad6020830185613ad3565b611bd76040830184613c13565b60a08101614cc88287613ad3565b614cd56020830186613ad3565b614ce26040830185613c13565b614cef6060830184613c13565b8181036080830152614d0081614723565b9695505050505050565b602080825281016124bb8184613adc565b60408082528101614d2d818688613b35565b90508181036020830152614d00818486613b35565b602080825281016124bb8184613b6e565b60408082528101614d648185613b6e565b90508181036020830152611bd78184613b6e565b602081016105438284613c0a565b60408101614d948285613c13565b6124bb6020830184613ad3565b60c08101614daf8289613c13565b614dbc6020830188613ad3565b614dc96040830187613ad3565b614dd66060830186613c13565b614de36080830185613c13565b614c4060a0830184613c13565b60a08101614dfe8288613c13565b614e0b6020830187613ad3565b614e186040830186613ad3565b614e256060830185613c13565b614d006080830184613c13565b60408101614e408285613c13565b8181036020830152611bd78184613c2d565b60808101614e608287613c13565b614e6d6020830186614b15565b614e7a6040830185613c13565b614b856060830184613c13565b60408082528101614e988185613c2d565b90508181036020830152611bd78184613c2d565b602080825281016124bb8184613c2d565b6020808252810161054381613d1b565b6020808252810161054381613db3565b6020808252810161054381613e12565b6020808252810161054381613e71565b6020808252810161054381613ec2565b6020808252810161054381613f21565b6020808252810161054381613f73565b6020808252810161054381613fa1565b6020808252810161054381614000565b6020808252810161054381614055565b60208082528101610543816140a1565b60208082528101610543816140ee565b602080825281016105438161414d565b60208082528101610543816141ac565b60208082528101610543816141f2565b602080825281016105438161425c565b60208082528101610543816142d0565b602080825281016105438161431d565b6020808252810161054381614372565b60208082528101610543816143c1565b6020808252810161054381614441565b6020808252810161054381614495565b60208082528101610543816144f4565b602080825281016105438161454c565b602080825281016105438161458f565b60208082528101610543816145ee565b602080825281016105438161465d565b60208082528101610543816146b6565b6020808252810161054381614730565b602080825281016105438161478f565b60208082528101610543816147ee565b6020808252810161054381614843565b602080825281016105438161488b565b60208082528101610543816148ea565b6020808252810161054381614949565b602080825281016105438161497b565b60208082528101610543816149e8565b6020808252810161054381614a47565b6020808252810161054381614a9b565b604081016105438284614af1565b602081016105438284613c13565b604081016151578285613c13565b6124bb6020830184613c13565b6040518181016001600160401b038111828210171561518257600080fd5b604052919050565b60006001600160401b038211156151a057600080fd5b5060209081020190565b60006001600160401b038211156151c057600080fd5b506020601f91909101601f19160190565b60200190565b60009081526020902090565b5190565b90815260200190565b60006105438261520d565b151590565b6001600160e01b03191690565b6001600160a01b031690565b60ff1690565b6000610543826000610543826151f0565b82818337506000910152565b60005b8381101561525757818101518382015260200161523f565b838111156106be5750506000910152565b601f01601f191690565b61527b816151f0565b811461528657600080fd5b50565b61527b816151fb565b61527b81610b65565b61527b8161520056fe5369676e617475726556616c696461746f7223697356616c69645369676e6174a365627a7a723158208b282758d2d67fc4525a267ccaaa37b59e4bb3cf78275c54d92916de7c48208f6c6578706572696d656e74616cf564736f6c63430005100040",
  "source": "pragma solidity ^0.5.16;\npragma experimental ABIEncoderV2;\n\nimport \"../shop/SWSupplyManager.sol\";\n\nimport \"multi-token-standard/contracts/tokens/ERC1155PackedBalance/ERC1155MetaPackedBalance.sol\";\nimport \"multi-token-standard/contracts/tokens/ERC1155PackedBalance/ERC1155MintBurnPackedBalance.sol\";\n\n\ncontract SkyweaverAssets is SWSupplyManager, ERC1155MintBurnPackedBalance, ERC1155MetaPackedBalance {}\n",
  "sourcePath": "/home/michael/Documents/Projects/horizon-games/SkyWeaver-contracts/contracts/tokens/SkyweaverAssets.sol",
  "compiler": {
    "name": "solc",
    "version": "0.5.16+commit.9c3226ce.Emscripten.clang"
  },
  "schemaVersion": "3.1.0",
  "updatedAt": "2020-06-26T16:37:42.997Z",
  "devdoc": {
    "methods": {
      "activateFactory(address)": {
        "params": {
          "_factory": "Address of the factory to activate"
        }
      },
      "addMintPermission(address,uint256,uint256)": {
        "params": {
          "_factory": "Address of the factory to update permission",
          "_maxRange": "Maximum ID (inclusive) in id range that factory will be able to mint",
          "_minRange": "Minimum ID (inclusive) in id range that factory will be able to mint"
        }
      },
      "balanceOf(address,uint256)": {
        "params": {
          "_id": "ID of the Token",
          "_owner": "The address of the token holder"
        },
        "return": "The _owner's balance of the Token type requested"
      },
      "balanceOfBatch(address[],uint256[])": {
        "params": {
          "_ids": "ID of the Tokens (sorted ids will lead to less gas usage",
          "_owners": "The addresses of the token holders (sorted owners will lead to less gas usage)"
        },
        "return": "The _owner's balance of the Token types requested (i.e. balance for each (owner, id) pair)"
      },
      "batchBurn(uint256[],uint256[])": {
        "details": "This will not change the current supplies tracked in _supplyManagerAddr.",
        "params": {
          "_amounts": "The amount to be burn",
          "_ids": "Asset id to burn"
        }
      },
      "batchMint(address,uint256[],uint256[],bytes)": {
        "details": "This methods assumes ids are sorted by how the ranges are sorted in     the corresponding mintAccessRanges[msg.sender] array. Call might throw     if they are not.",
        "params": {
          "_amounts": "Array of amount of tokens to mint per id",
          "_data": "Byte array of data to pass to recipient if it's a contract",
          "_ids": "Array of ids to mint",
          "_to": "The address to mint tokens to."
        }
      },
      "burn(uint256,uint256)": {
        "details": "This will not change the current supply tracked in _supplyManagerAddr.",
        "params": {
          "_amount": "The amount to be burn",
          "_id": "Asset id to burn"
        }
      },
      "getCurrentSupplies(uint256[])": {
        "params": {
          "_ids": "Array containing the assets IDs"
        },
        "return": "The current supply of each asset ID in _ids"
      },
      "getFactoryAccessRanges(address)": {
        "return": "Returns whether the sale has ended or not"
      },
      "getFactoryStatus(address)": {
        "return": "Returns whether a factory is active or not"
      },
      "getIDBinIndex(uint256)": {
        "params": {
          "_id": "Token id"
        },
        "return": "(Bin number, ID\"s index within that bin)"
      },
      "getLockedRanges()": {
        "return": "Returns all the ranges that are locked"
      },
      "getMaxSupplies(uint256[])": {
        "params": {
          "_ids": "Array containing the assets IDs"
        },
        "return": "The current max supply of each asset ID in _ids"
      },
      "getNonce(address)": {
        "params": {
          "_signer": "Address to query signature nonce for"
        }
      },
      "getValueInBin(uint256,uint256)": {
        "params": {
          "_binValues": "uint256 containing the balances of IDS_PER_UINT256 ids",
          "_index": "Index at which to retrieve amount"
        },
        "return": "amount at given _index in _bin"
      },
      "isApprovedForAll(address,address)": {
        "params": {
          "_operator": "Address of authorized operator",
          "_owner": "The owner of the Tokens"
        },
        "return": "True if the operator is approved, false if not"
      },
      "isValidSignature(address,bytes32,bytes,bytes)": {
        "details": "Verifies that a hash has been signed by the given signer.",
        "params": {
          "_data": "Full EIP-712 data structure that was hashed and signed",
          "_hash": "Hash of the EIP-712 encoded data",
          "_sig": "Proof that the hash has been signed by signer.     For non wallet signatures, _sig is expected to be an array tightly encoded as     (bytes32 r, bytes32 s, uint8 v, uint256 nonce, SignatureType sigType)",
          "_signerAddress": "Address that should have signed the given hash."
        },
        "return": "True if the address recovered from the provided signature matches the input signer address."
      },
      "lockRangeMintPermissions((uint256,uint256))": {
        "details": "THIS ACTION IS IRREVERSIBLE, USE WITH CAUTIONIn order to forever restrict minting of certain ids to a set of factories,     one first needs to call `addMintPermission()` for the corresponding factory     and the corresponding ids, then call this method to prevent further mint     permissions to be granted. One can also remove mint permissions after ids     mint permissions where locked down.",
        "params": {
          "_range": "AssetRange struct for range of asset that can't be granted              new mint permission to"
        }
      },
      "logURIs(uint256[])": {
        "details": "Will emit default URI log event for corresponding token _id",
        "params": {
          "_tokenIDs": "Array of IDs of tokens to log default URI"
        }
      },
      "metaSafeBatchTransferFrom(address,address,uint256[],uint256[],bool,bytes)": {
        "params": {
          "_amounts": "Transfer amounts per token type",
          "_data": "Encodes a meta transfer indicator, signature, gas payment receipt and extra transfer data  _data should be encoded as (  (bytes32 r, bytes32 s, uint8 v, uint256 nonce, SignatureType sigType),  (GasReceipt g, ?bytes transferData) )  i.e. high level encoding should be (bytes, bytes), where the latter bytes array is a nested bytes array",
          "_from": "Source addresses",
          "_ids": "IDs of each token type",
          "_isGasFee": "Whether gas is reimbursed to executor or not",
          "_to": "Target addresses"
        }
      },
      "metaSafeTransferFrom(address,address,uint256,uint256,bool,bytes)": {
        "params": {
          "_amount": "Transfered amount",
          "_data": "Encodes a meta transfer indicator, signature, gas payment receipt and extra transfer data  _data should be encoded as (  (bytes32 r, bytes32 s, uint8 v, uint256 nonce, SignatureType sigType),  (GasReceipt g, ?bytes transferData) )  i.e. high level encoding should be (bytes, bytes), where the latter bytes array is a nested bytes array",
          "_from": "Source address",
          "_id": "ID of the token type",
          "_isGasFee": "Whether gas is reimbursed to executor or not",
          "_to": "Target address"
        }
      },
      "metaSetApprovalForAll(address,address,bool,bool,bytes)": {
        "params": {
          "_approved": "True if the operator is approved, false to revoke approval",
          "_data": "Encodes signature and gas payment receipt  _data should be encoded as (    (bytes32 r, bytes32 s, uint8 v, uint256 nonce, SignatureType sigType),    (GasReceipt g)  )  i.e. high level encoding should be (bytes, bytes), where the latter bytes array is a nested bytes array",
          "_isGasFee": "Whether gas will be reimbursed or not, with vlid signature",
          "_operator": "Address to add to the set of authorized operators",
          "_owner": "Address that wants to set operator status  _spender"
        }
      },
      "mint(address,uint256,uint256,bytes)": {
        "params": {
          "_amount": "The amount to be minted",
          "_data": "Data to pass if receiver is contract",
          "_id": "Token id to mint",
          "_to": "The address to mint tokens to"
        }
      },
      "removeMintPermission(address,uint256)": {
        "params": {
          "_factory": "Address of the factory to update permission",
          "_rangeIndex": "Array's index where the range to delete is located for _factory"
        }
      },
      "safeBatchTransferFrom(address,address,uint256[],uint256[],bytes)": {
        "details": "Arrays should be sorted so that all ids in a same storage slot are adjacent (more efficient)",
        "params": {
          "_amounts": "Transfer amounts per token type",
          "_data": "Additional data with no specified format, sent in call to `_to`",
          "_from": "Source addresses",
          "_ids": "IDs of each token type",
          "_to": "Target addresses"
        }
      },
      "safeTransferFrom(address,address,uint256,uint256,bytes)": {
        "params": {
          "_amount": "Transfered amount",
          "_data": "Additional data with no specified format, sent in call to `_to`",
          "_from": "Source address",
          "_id": "ID of the token type",
          "_to": "Target address"
        }
      },
      "setApprovalForAll(address,bool)": {
        "params": {
          "_approved": "True if the operator is approved, false to revoke approval",
          "_operator": "Address to add to the set of authorized operators"
        }
      },
      "setBaseMetadataURI(string)": {
        "details": "Will update the base URL of token's URI",
        "params": {
          "_newBaseMetadataURI": "New base URL of token's URI"
        }
      },
      "setMaxSupplies(uint256[],uint256[])": {
        "details": "Can only decrease the max supply if already set, but can't set it *back* to 0.",
        "params": {
          "_ids": "Array of token IDs to set the max supply",
          "_newMaxSupplies": "Array of max supplies for each corresponding ID"
        }
      },
      "shutdownFactory(address)": {
        "params": {
          "_factory": "Address of the factory to shutdown"
        }
      },
      "supportsInterface(bytes4)": {
        "params": {
          "_interfaceID": "The interface identifier, as specified in ERC-165"
        },
        "return": "`true` if the contract implements `_interfaceID` and"
      },
      "transferOwnership(address)": {
        "params": {
          "_newOwner": "Address of the new owner"
        }
      },
      "uri(uint256)": {
        "details": "URIs are defined in RFC 3986.     URIs are assumed to be deterministically generated based on token ID     Token IDs are assumed to be represented in their hex format in URIs",
        "return": "URI string"
      }
    }
  },
  "userdoc": {
    "methods": {
      "activateFactory(address)": {
        "notice": "Will ALLOW factory to print some assets specified in `canPrint` mapping"
      },
      "addMintPermission(address,uint256,uint256)": {
        "notice": "Will allow a factory to mint some token ids"
      },
      "balanceOf(address,uint256)": {
        "notice": "Get the balance of an account's Tokens"
      },
      "balanceOfBatch(address[],uint256[])": {
        "notice": "Get the balance of multiple account/token pairs"
      },
      "batchBurn(uint256[],uint256[])": {
        "notice": "Burn _amounts of tokens of given ids from msg.sender"
      },
      "batchMint(address,uint256[],uint256[],bytes)": {
        "notice": "Mint tokens for each ids in _ids"
      },
      "burn(uint256,uint256)": {
        "notice": "Burn _amount of tokens of a given id from msg.sender"
      },
      "getCurrentSupplies(uint256[])": {
        "notice": "Get the current supply of multiple asset ID"
      },
      "getIDBinIndex(uint256)": {
        "notice": "Return the bin number and index within that bin where ID is"
      },
      "getMaxSupplies(uint256[])": {
        "notice": "Get the max supply of multiple asset ID"
      },
      "getNonce(address)": {
        "notice": "Returns the current nonce associated with a given address"
      },
      "getOwner()": {
        "notice": "Returns the address of the owner."
      },
      "getValueInBin(uint256,uint256)": {
        "notice": "Return amount in _binValues at position _index"
      },
      "isApprovedForAll(address,address)": {
        "notice": "Queries the approval status of an operator for a given owner"
      },
      "lockRangeMintPermissions((uint256,uint256))": {
        "notice": "Will forever prevent new mint permissions for provided ids"
      },
      "metaSafeBatchTransferFrom(address,address,uint256[],uint256[],bool,bytes)": {
        "notice": "Allows anyone with a valid signature to transfer multiple types of tokens on the bahalf of _from"
      },
      "metaSafeTransferFrom(address,address,uint256,uint256,bool,bytes)": {
        "notice": "Allows anyone with a valid signature to transfer _amount amount of a token _id on the bahalf of _from"
      },
      "metaSetApprovalForAll(address,address,bool,bool,bytes)": {
        "notice": "Approve the passed address to spend on behalf of _from if valid signature is provided"
      },
      "mint(address,uint256,uint256,bytes)": {
        "notice": "Mint _amount of tokens of a given id, if allowed."
      },
      "removeMintPermission(address,uint256)": {
        "notice": "Will remove the permission a factory has to mint some token ids"
      },
      "safeBatchTransferFrom(address,address,uint256[],uint256[],bytes)": {
        "notice": "Send multiple types of Tokens from the _from address to the _to address (with safety call)"
      },
      "safeTransferFrom(address,address,uint256,uint256,bytes)": {
        "notice": "Transfers amount amount of an _id from the _from address to the _to address specified"
      },
      "setApprovalForAll(address,bool)": {
        "notice": "Enable or disable approval for a third party (\"operator\") to manage all of caller's tokens"
      },
      "setMaxSupplies(uint256[],uint256[])": {
        "notice": "Set max supply for some token IDs that can't ever be increased"
      },
      "shutdownFactory(address)": {
        "notice": "Will DISALLOW factory to print any asset"
      },
      "supportsInterface(bytes4)": {
        "notice": "Query if a contract implements an interface"
      },
      "transferOwnership(address)": {
        "notice": "Transfers the ownership of the contract to new address"
      },
      "uri(uint256)": {
        "notice": "A distinct Uniform Resource Identifier (URI) for a given token."
      }
    }
  }
}