{
  "contractName": "TxnAggregator",
  "abi": [
    {
      "anonymous": false,
      "inputs": [
        {
          "indexed": false,
          "internalType": "uint256",
          "name": "tx_id",
          "type": "uint256"
        },
        {
          "indexed": false,
          "internalType": "bytes",
          "name": "error",
          "type": "bytes"
        }
      ],
      "name": "Error",
      "type": "event"
    },
    {
      "constant": false,
      "inputs": [
        {
          "components": [
            {
              "internalType": "address",
              "name": "dest",
              "type": "address"
            },
            {
              "internalType": "bytes",
              "name": "data",
              "type": "bytes"
            }
          ],
          "internalType": "struct TxnAggregator.ContractCall[]",
          "name": "_txns",
          "type": "tuple[]"
        },
        {
          "internalType": "bool",
          "name": "_revert",
          "type": "bool"
        }
      ],
      "name": "executeTxns",
      "outputs": [],
      "payable": false,
      "stateMutability": "nonpayable",
      "type": "function"
    },
    {
      "constant": false,
      "inputs": [
        {
          "internalType": "address",
          "name": "_contract",
          "type": "address"
        },
        {
          "internalType": "bytes[]",
          "name": "_txns",
          "type": "bytes[]"
        },
        {
          "internalType": "bool",
          "name": "_revert",
          "type": "bool"
        }
      ],
      "name": "singleContract_executeTxns",
      "outputs": [],
      "payable": false,
      "stateMutability": "nonpayable",
      "type": "function"
    },
    {
      "constant": true,
      "inputs": [
        {
          "components": [
            {
              "internalType": "address",
              "name": "dest",
              "type": "address"
            },
            {
              "internalType": "bytes",
              "name": "data",
              "type": "bytes"
            }
          ],
          "internalType": "struct TxnAggregator.ContractCall[]",
          "name": "_txns",
          "type": "tuple[]"
        }
      ],
      "name": "viewTxns",
      "outputs": [
        {
          "internalType": "bytes[]",
          "name": "",
          "type": "bytes[]"
        }
      ],
      "payable": false,
      "stateMutability": "view",
      "type": "function"
    }
  ],
  "bytecode": "0x608060405234801561001057600080fd5b5061087b806100206000396000f3fe608060405234801561001057600080fd5b50600436106100415760003560e01c8063405a58ca1461004657806349af69da1461005b578063ab630d7c1461006e575b600080fd5b610059610054366004610568565b610097565b005b610059610069366004610614565b6101d5565b61008161007c3660046105d2565b61035f565b60405161008e919061075d565b60405180910390f35b60005b828110156101ce5760006060866001600160a01b03168686858181106100bc57fe5b602002820190508035601e19368490030181126100d857600080fd5b9091016020810191503567ffffffffffffffff8111156100f757600080fd5b3681900382131561010757600080fd5b604051610115929190610750565b6000604051808303816000865af19150503d8060008114610152576040519150601f19603f3d011682016040523d82523d6000602084013e610157565b606091505b5091509150816101c457831561018a578060405162461bcd60e51b8152600401610181919061076e565b60405180910390fd5b7f23c750491cd24c6992996cb270fa0e629e9de3b597588f71e9e362cdb0b8af8d83826040516101bb92919061077f565b60405180910390a15b505060010161009a565b5050505050565b60005b8281101561035957600060608585848181106101f057fe5b602002820190508035603e193684900301811261020c57600080fd5b61021c9201602081019150610542565b6001600160a01b031686868581811061023157fe5b602002820190508035603e193684900301811261024d57600080fd5b919091019050602081018035601e193684900301811261026c57600080fd5b9091016020810191503567ffffffffffffffff81111561028b57600080fd5b3681900382131561029b57600080fd5b6040516102a9929190610750565b6000604051808303816000865af19150503d80600081146102e6576040519150601f19603f3d011682016040523d82523d6000602084013e6102eb565b606091505b50915091508161034f578315610315578060405162461bcd60e51b8152600401610181919061076e565b7f23c750491cd24c6992996cb270fa0e629e9de3b597588f71e9e362cdb0b8af8d838260405161034692919061077f565b60405180910390a15b50506001016101d8565b50505050565b6040805182815260208084028201019091526060906000908390839082801561039c57816020015b60608152602001906001900390816103875790505b50905060005b828110156104d3578686828181106103b657fe5b602002820190508035603e19368490030181126103d257600080fd5b6103e29201602081019150610542565b6001600160a01b03168787838181106103f757fe5b602002820190508035603e193684900301811261041357600080fd5b919091019050602081018035601e193684900301811261043257600080fd5b9091016020810191503567ffffffffffffffff81111561045157600080fd5b3681900382131561046157600080fd5b60405161046f929190610750565b600060405180830381855afa9150503d80600081146104aa576040519150601f19603f3d011682016040523d82523d6000602084013e6104af565b606091505b5083518490849081106104be57fe5b602090810291909101015293506001016103a2565b5050505092915050565b80356104e881610818565b92915050565b60008083601f84011261050057600080fd5b50813567ffffffffffffffff81111561051857600080fd5b60208301915083602082028301111561053057600080fd5b9250929050565b80356104e88161082f565b60006020828403121561055457600080fd5b600061056084846104dd565b949350505050565b6000806000806060858703121561057e57600080fd5b600061058a87876104dd565b945050602085013567ffffffffffffffff8111156105a757600080fd5b6105b3878288016104ee565b935093505060406105c687828801610537565b91505092959194509250565b600080602083850312156105e557600080fd5b823567ffffffffffffffff8111156105fc57600080fd5b610608858286016104ee565b92509250509250929050565b60008060006040848603121561062957600080fd5b833567ffffffffffffffff81111561064057600080fd5b61064c868287016104ee565b9350935050602061065f86828701610537565b9150509250925092565b60006106758383610709565b9392505050565b6000610687826107a5565b61069181856107a9565b9350836020820285016106a38561079f565b8060005b858110156106dd57848403895281516106c08582610669565b94506106cb8361079f565b60209a909a01999250506001016106a7565b5091979650505050505050565b60006106f683856107b2565b93506107038385846107d6565b50500190565b6000610714826107a5565b61071e81856107a9565b935061072e8185602086016107e2565b6107378161080e565b9093019392505050565b61074a816107d3565b82525050565b60006105608284866106ea565b60208082528101610675818461067c565b602080825281016106758184610709565b6040810161078d8285610741565b81810360208301526105608184610709565b60200190565b5190565b90815260200190565b919050565b60006104e8826107c7565b151590565b6001600160a01b031690565b90565b82818337506000910152565b60005b838110156107fd5781810151838201526020016107e5565b838111156103595750506000910152565b601f01601f191690565b610821816107b7565b811461082c57600080fd5b50565b610821816107c256fea365627a7a72315820f58a00525f4c8ed61b9d9f94072e3883cb9a50150cf258448870a427aaf7d5646c6578706572696d656e74616cf564736f6c63430005100040",
  "source": "pragma solidity ^0.5.16;\npragma experimental ABIEncoderV2;\n\n/**\n * This is a contract allowing to batch execute contract calls or\n * contract queries.\n */\ncontract TxnAggregator {\n\n  /*\n  * TO DO:\n  *   - Put into seperate repo\n  */\n\n  struct ContractCall {\n    address dest; // Contract to call\n    bytes data;   // Calldata to pass to contract\n  }\n\n  /***********************************|\n  |         BATCH TRANSACTIONS        |\n  |__________________________________*/\n\n  event Error(uint256 tx_id, bytes error);\n\n  /**\n   * @notice Will execute transactions with possibly different contracts\n   * @param _txns    ContractCall struct array containing all the txns and target contract\n   * @param _revert  To revert if a txn fail or to log the error\n   */\n  function executeTxns(ContractCall[] calldata _txns, bool _revert) external {\n    // Execute all txns\n    for (uint256 i = 0; i < _txns.length; i++) {\n      (bool success, bytes memory resp) = _txns[i].dest.call(_txns[i].data);\n      if (!success) {\n        // Will either revert on error or log it\n        if (_revert) {\n          revert(string(resp));\n        } else {\n          emit Error(i, resp);\n        }\n      }\n    }\n  }\n\n  /**\n   * @notice Will execute transactions calling _contract\n   * @param _contract Target contract that txns are calling\n   * @param _txns     Array containing encoded function calls to _contract\n   * @param _revert   To revert if a txn fail or to log the error\n   */\n  function singleContract_executeTxns(address _contract, bytes[] calldata _txns, bool _revert) external {\n    // Execute all txns\n    for (uint256 i = 0; i < _txns.length; i++) {\n      (bool success, bytes memory resp) = _contract.call(_txns[i]);\n      if (!success) {\n        // Will either revert on error or log it\n        if (_revert) {\n          revert(string(resp));\n        } else {\n          emit Error(i, resp);\n        }\n      }\n    }\n  }\n\n  /***********************************|\n  |           BATCH QUERIES           |\n  |__________________________________*/\n\n  /**\n   * @notice Will call functions to retrieve data calling _contract\n   * @param _txns ContractCall struct array containing all the queries data and target contract\n   */\n  function viewTxns(ContractCall[] calldata _txns) external view returns (bytes[] memory) {\n    // Declaration\n    bool success;\n    uint256 n_txns = _txns.length;\n    bytes[] memory responses = new bytes[](n_txns);\n\n    // Execute all txns\n    for (uint256 i = 0; i < n_txns; i++) {\n      (success, responses[i]) = _txns[i].dest.staticcall(_txns[i].data);\n    }\n  }\n  \n}",
  "sourcePath": "/home/michael/Documents/Projects/horizon-games/SkyWeaver-contracts/contracts/utils/TxnAggregator.sol",
  "compiler": {
    "name": "solc",
    "version": "0.5.16+commit.9c3226ce.Emscripten.clang"
  },
  "schemaVersion": "3.1.0",
  "updatedAt": "2020-06-26T16:37:43.005Z",
  "devdoc": {
    "methods": {
      "executeTxns((address,bytes)[],bool)": {
        "params": {
          "_revert": "To revert if a txn fail or to log the error",
          "_txns": "ContractCall struct array containing all the txns and target contract"
        }
      },
      "singleContract_executeTxns(address,bytes[],bool)": {
        "params": {
          "_contract": "Target contract that txns are calling",
          "_revert": "To revert if a txn fail or to log the error",
          "_txns": "Array containing encoded function calls to _contract"
        }
      },
      "viewTxns((address,bytes)[])": {
        "params": {
          "_txns": "ContractCall struct array containing all the queries data and target contract"
        }
      }
    }
  },
  "userdoc": {
    "methods": {
      "executeTxns((address,bytes)[],bool)": {
        "notice": "Will execute transactions with possibly different contracts"
      },
      "singleContract_executeTxns(address,bytes[],bool)": {
        "notice": "Will execute transactions calling _contract"
      },
      "viewTxns((address,bytes)[])": {
        "notice": "Will call functions to retrieve data calling _contract"
      }
    },
    "notice": "This is a contract allowing to batch execute contract calls or contract queries."
  }
}