{
  "contractName": "WeaveFactory",
  "abi": [
    {
      "inputs": [
        {
          "internalType": "address",
          "name": "_factoryManagerAddr",
          "type": "address"
        },
        {
          "internalType": "uint256",
          "name": "_weavePerSecond",
          "type": "uint256"
        },
        {
          "internalType": "uint256",
          "name": "_weaveID",
          "type": "uint256"
        }
      ],
      "payable": false,
      "stateMutability": "nonpayable",
      "type": "constructor"
    },
    {
      "anonymous": false,
      "inputs": [
        {
          "indexed": true,
          "internalType": "address",
          "name": "previousOwner",
          "type": "address"
        },
        {
          "indexed": true,
          "internalType": "address",
          "name": "newOwner",
          "type": "address"
        }
      ],
      "name": "OwnershipTransferred",
      "type": "event"
    },
    {
      "anonymous": false,
      "inputs": [
        {
          "indexed": false,
          "internalType": "address",
          "name": "recipient",
          "type": "address"
        },
        {
          "indexed": false,
          "internalType": "uint256",
          "name": "amount",
          "type": "uint256"
        }
      ],
      "name": "WeaveHarvested",
      "type": "event"
    },
    {
      "payable": false,
      "stateMutability": "nonpayable",
      "type": "fallback"
    },
    {
      "constant": true,
      "inputs": [],
      "name": "getOwner",
      "outputs": [
        {
          "internalType": "address",
          "name": "",
          "type": "address"
        }
      ],
      "payable": false,
      "stateMutability": "view",
      "type": "function"
    },
    {
      "constant": false,
      "inputs": [
        {
          "internalType": "address",
          "name": "_newOwner",
          "type": "address"
        }
      ],
      "name": "transferOwnership",
      "outputs": [],
      "payable": false,
      "stateMutability": "nonpayable",
      "type": "function"
    },
    {
      "constant": false,
      "inputs": [
        {
          "internalType": "address",
          "name": "_recipient",
          "type": "address"
        },
        {
          "internalType": "bytes",
          "name": "_data",
          "type": "bytes"
        }
      ],
      "name": "harvestWeave",
      "outputs": [],
      "payable": false,
      "stateMutability": "nonpayable",
      "type": "function"
    },
    {
      "constant": true,
      "inputs": [],
      "name": "getFactoryManager",
      "outputs": [
        {
          "internalType": "address",
          "name": "",
          "type": "address"
        }
      ],
      "payable": false,
      "stateMutability": "view",
      "type": "function"
    },
    {
      "constant": true,
      "inputs": [],
      "name": "getWeaveID",
      "outputs": [
        {
          "internalType": "uint256",
          "name": "",
          "type": "uint256"
        }
      ],
      "payable": false,
      "stateMutability": "view",
      "type": "function"
    },
    {
      "constant": true,
      "inputs": [],
      "name": "getWeavePerSecond",
      "outputs": [
        {
          "internalType": "uint256",
          "name": "",
          "type": "uint256"
        }
      ],
      "payable": false,
      "stateMutability": "view",
      "type": "function"
    },
    {
      "constant": true,
      "inputs": [],
      "name": "getLastHarvest",
      "outputs": [
        {
          "internalType": "uint256",
          "name": "",
          "type": "uint256"
        }
      ],
      "payable": false,
      "stateMutability": "view",
      "type": "function"
    },
    {
      "constant": true,
      "inputs": [],
      "name": "getAvailableWeave",
      "outputs": [
        {
          "internalType": "uint256",
          "name": "",
          "type": "uint256"
        }
      ],
      "payable": false,
      "stateMutability": "view",
      "type": "function"
    }
  ],
  "bytecode": "0x608060405234801561001057600080fd5b5060405161092038038061092083398101604081905261002f916100f3565b600080546001600160a01b03191633178082556040516001600160a01b039190911691907f8be0079c531659141344cd1fd0a4f28419497f9722a3daafe3b4186f6b6457e0908290a36001600160a01b0383166100a75760405162461bcd60e51b815260040161009e90610189565b60405180910390fd5b600180546001600160a01b0319166001600160a01b039490941693909317909255600255426003556004556101d6565b80516100e2816101b6565b92915050565b80516100e2816101cd565b60008060006060848603121561010857600080fd5b600061011486866100d7565b9350506020610125868287016100e8565b9250506040610136868287016100e8565b9150509250925092565b600061014d602783610199565b7f5765617665466163746f727923636f6e7374727563746f723a20494e56414c498152661117d25394155560ca1b602082015260400192915050565b602080825281016100e281610140565b90815260200190565b60006001600160a01b0382166100e2565b90565b6101bf816101a2565b81146101ca57600080fd5b50565b6101bf816101b3565b61073b806101e56000396000f3fe608060405234801561001057600080fd5b50600436106100885760003560e01c8063893d20e81161005b578063893d20e8146100f95780639abc5b6314610101578063affd80b014610109578063f2fde38b1461011157610088565b80631aab6842146100a95780635212f166146100c75780636fbba568146100dc5780637ece8d9c146100f1575b60405162461bcd60e51b81526004016100a090610650565b60405180910390fd5b6100b1610124565b6040516100be91906105e1565b60405180910390f35b6100da6100d536600461041a565b610133565b005b6100e461023e565b6040516100be91906106a0565b6100e4610244565b6100b1610279565b6100e4610288565b6100e461028e565b6100da61011f3660046103f4565b610294565b6001546001600160a01b031690565b6000546001600160a01b0316331461015d5760405162461bcd60e51b81526004016100a090610690565b60006101746003544261033290919063ffffffff16565b9050600061018d6002548361035f90919063ffffffff16565b426003556001546004805460405163731133e960e01b81529394506001600160a01b039092169263731133e9926101cc928a9287918b918b910161060a565b600060405180830381600087803b1580156101e657600080fd5b505af11580156101fa573d6000803e3d6000fd5b505050507ff281116199c41caf8e0368c2f3d186df9ff2d9bdd8e9bcaf145f3e8f35a7638a858260405161022f9291906105ef565b60405180910390a15050505050565b60025490565b60008061025c6003544261033290919063ffffffff16565b90506102736002548261035f90919063ffffffff16565b91505090565b6000546001600160a01b031690565b60045490565b60035490565b6000546001600160a01b031633146102be5760405162461bcd60e51b81526004016100a090610690565b6001600160a01b0381166102e45760405162461bcd60e51b81526004016100a090610670565b600080546001600160a01b0319166001600160a01b0383811691821780845560405192939116917f8be0079c531659141344cd1fd0a4f28419497f9722a3daafe3b4186f6b6457e09190a350565b6000828211156103545760405162461bcd60e51b81526004016100a090610660565b508082035b92915050565b60008261036e57506000610359565b8282028284828161037b57fe5b04146103995760405162461bcd60e51b81526004016100a090610680565b9392505050565b8035610359816106e1565b60008083601f8401126103bd57600080fd5b50813567ffffffffffffffff8111156103d557600080fd5b6020830191508360018202830111156103ed57600080fd5b9250929050565b60006020828403121561040657600080fd5b600061041284846103a0565b949350505050565b60008060006040848603121561042f57600080fd5b600061043b86866103a0565b935050602084013567ffffffffffffffff81111561045857600080fd5b610464868287016103ab565b92509250509250925092565b610479816106b7565b82525050565b600061048b83856106ae565b93506104988385846106cb565b6104a1836106d7565b9093019392505050565b60006104b86012836106ae565b71155394d5541413d495115117d351551213d160721b815260200192915050565b60006104e66017836106ae565b7f536166654d617468237375623a20554e444552464c4f57000000000000000000815260200192915050565b600061051f602a836106ae565b7f4f776e61626c65237472616e736665724f776e6572736869703a20494e56414c81526949445f4144445245535360b01b602082015260400192915050565b600061056b6016836106ae565b75536166654d617468236d756c3a204f564552464c4f5760501b815260200192915050565b600061059d6026836106ae565b7f4f776e61626c65236f6e6c794f776e65723a2053454e4445525f49535f4e4f548152652fa7aba722a960d11b602082015260400192915050565b610479816106c8565b602081016103598284610470565b604081016105fd8285610470565b61039960208301846105d8565b608081016106188288610470565b61062560208301876105d8565b61063260408301866105d8565b818103606083015261064581848661047f565b979650505050505050565b60208082528101610359816104ab565b60208082528101610359816104d9565b6020808252810161035981610512565b602080825281016103598161055e565b6020808252810161035981610590565b6020810161035982846105d8565b90815260200190565b60006001600160a01b038216610359565b90565b82818337506000910152565b601f01601f191690565b6106ea816106b7565b81146106f557600080fd5b5056fea365627a7a72315820d447076459e199581292c687cb8a1ba0a5cbc2775d7426ea96f3cada62ec462b6c6578706572696d656e74616cf564736f6c63430005100040",
  "source": "pragma solidity ^0.5.16;\npragma experimental ABIEncoderV2;\n\nimport \"../utils/Ownable.sol\";\nimport \"../interfaces/ISWSupplyManager.sol\";\nimport \"multi-token-standard/contracts/interfaces/IERC1155.sol\";\nimport \"multi-token-standard/contracts/utils/SafeMath.sol\";\n\n/**\n * This is a contract allowing owner to harvest weave based on time elapsed\n */\ncontract WeaveFactory is Ownable {\n  using SafeMath for uint256;\n\n  /***********************************|\n  |        Variables && Events        |\n  |__________________________________*/\n\n  // Initiate Variables\n  ISWSupplyManager internal factoryManager; //SkyWeaver Curencies Factory Manager Contract\n\n  // Mapping variables\n  uint256 internal weavePerSecond; // Amount of Weave that is created per second\n  uint256 internal lastHarvest;    // Last timestamp weave was harvested\n  uint256 internal weaveID;        // ID for weave, the only ID this contract can mint\n\n  /***********************************|\n  |               Events              |\n  |__________________________________*/\n\n  event WeaveHarvested(address recipient, uint256 amount);\n\n\n  /***********************************|\n  |            Constructor            |\n  |__________________________________*/\n\n  /**\n   * @notice Create weave factory, link SW factory manager and set weekly weave limit\n   * @param _factoryManagerAddr The address of the Skyweaver Factory Manager contract\n   * @param _weavePerSecond     Amount of weave that is created per second\n   * @param _weaveID            Weave's token ID\n   */\n  constructor(address _factoryManagerAddr, uint256 _weavePerSecond, uint256 _weaveID) public {\n\n    //Input validation\n    require(\n      _factoryManagerAddr != address(0),\n      \"WeaveFactory#constructor: INVALID_INPUT\"\n    );\n\n    // Set variables and constants\n    factoryManager = ISWSupplyManager(_factoryManagerAddr);\n    weavePerSecond = _weavePerSecond;\n    lastHarvest = now;\n    weaveID = _weaveID;\n  }\n\n\n  /***********************************|\n  |         Management Methods        |\n  |__________________________________*/\n\n  /**\n   * @notice Will mint weave and send it to _recipient\n   * @param _recipient Address where the weave will be sent to\n   * @param _data      Byte array that is passed if _recipient is a contract\n   */\n  function harvestWeave(address _recipient, bytes calldata _data) external onlyOwner() {\n    // Calculate how much weave can be harvested\n    uint256 time_since_last_harvest = now.sub(lastHarvest);\n    uint256 weave_to_harvest = time_since_last_harvest.mul(weavePerSecond);\n\n    // Update harvest time\n    lastHarvest = now;\n\n    // Mint weave\n    factoryManager.mint(_recipient, weaveID, weave_to_harvest, _data);\n    emit WeaveHarvested(_recipient, weave_to_harvest);\n  }\n\n\n  /***********************************|\n  |      Receiver Method Handler      |\n  |__________________________________*/\n\n  /**\n   * @notice Prevents receiving Ether\n   */\n  function () external {\n    revert(\"UNSUPPORTED_METHOD\");\n  }\n\n  /***********************************|\n  |         Getter Functions          |\n  |__________________________________*/\n\n  /**\n   * @notice Returns the address of the factory manager contract\n   */\n  function getFactoryManager() external view returns (address) {\n    return address(factoryManager);\n  }\n\n  /**\n   * @notice Returns Weave's token ID\n   */\n  function getWeaveID() external view returns (uint256) {\n    return weaveID;\n  }\n\n  /**\n   * @notice Returns the amount of weave that can be created per second\n   */\n  function getWeavePerSecond() external view returns (uint256) {\n    return weavePerSecond;\n  }\n\n  /**\n   * @notice Returns the last time weave was harvested\n   */\n  function getLastHarvest() external view returns (uint256) {\n    return lastHarvest;\n  }\n\n  /**\n   * @notice Returns the last time weave was harvested\n   */\n  function getAvailableWeave() external view returns (uint256) {\n    uint256 time_since_last_harvest = now.sub(lastHarvest);\n    return time_since_last_harvest.mul(weavePerSecond);\n  }\n\n}\n",
  "sourcePath": "/home/michael/Documents/Projects/horizon-games/SkyWeaver-contracts/contracts/shop/WeaveFactory.sol",
  "compiler": {
    "name": "solc",
    "version": "0.5.16+commit.9c3226ce.Emscripten.clang"
  },
  "schemaVersion": "3.1.0",
  "updatedAt": "2020-06-26T16:37:42.995Z",
  "devdoc": {
    "methods": {
      "constructor": {
        "params": {
          "_factoryManagerAddr": "The address of the Skyweaver Factory Manager contract",
          "_weaveID": "Weave's token ID",
          "_weavePerSecond": "Amount of weave that is created per second"
        }
      },
      "harvestWeave(address,bytes)": {
        "params": {
          "_data": "Byte array that is passed if _recipient is a contract",
          "_recipient": "Address where the weave will be sent to"
        }
      },
      "transferOwnership(address)": {
        "params": {
          "_newOwner": "Address of the new owner"
        }
      }
    }
  },
  "userdoc": {
    "methods": {
      "constructor": "Create weave factory, link SW factory manager and set weekly weave limit",
      "getAvailableWeave()": {
        "notice": "Returns the last time weave was harvested"
      },
      "getFactoryManager()": {
        "notice": "Returns the address of the factory manager contract"
      },
      "getLastHarvest()": {
        "notice": "Returns the last time weave was harvested"
      },
      "getOwner()": {
        "notice": "Returns the address of the owner."
      },
      "getWeaveID()": {
        "notice": "Returns Weave's token ID"
      },
      "getWeavePerSecond()": {
        "notice": "Returns the amount of weave that can be created per second"
      },
      "harvestWeave(address,bytes)": {
        "notice": "Will mint weave and send it to _recipient"
      },
      "transferOwnership(address)": {
        "notice": "Transfers the ownership of the contract to new address"
      }
    },
    "notice": "This is a contract allowing owner to harvest weave based on time elapsed"
  }
}